{
  "transactions": [
    {
      "hash": "0xb7134e4a49bc2a6213b85247cf1f6b4844c1e8c298b6c8a2249dd104856aad29",
      "transactionType": "CALL",
      "contractName": "AfropolitanNFT",
      "contractAddress": "0x8E16e15381729fFEeDC4755f2Dcf6F5461f7F389",
      "function": "mintTo(address,uint256)",
      "arguments": [
        "0x85C91C3DfA5c200a6Ee9Bc9d3085d02A2c95908b",
        "10"
      ],
      "rpc": "https://eth-goerli.g.alchemy.com/v2/B81B-tXiOVtE5bt8bJkX5Gqi3s2R1fgZ",
      "transaction": {
        "type": "0x02",
        "from": "0x85c91c3dfa5c200a6ee9bc9d3085d02a2c95908b",
        "to": "0x8e16e15381729ffeedc4755f2dcf6f5461f7f389",
        "gas": "0x6cff3",
        "value": "0x470de4df820000",
        "data": "0x449a52f800000000000000000000000085c91c3dfa5c200a6ee9bc9d3085d02a2c95908b000000000000000000000000000000000000000000000000000000000000000a",
        "nonce": "0x2b",
        "accessList": []
      },
      "additionalContracts": [],
      "isFixedGasLimit": false
    }
  ],
  "receipts": [
    {
      "transactionHash": "0xb7134e4a49bc2a6213b85247cf1f6b4844c1e8c298b6c8a2249dd104856aad29",
      "transactionIndex": "0x4",
      "blockHash": "0xf2dab7263046bd1a7ab6fb01f9f5b477758ba7af4426fcf0fb2b9080697ed32a",
      "blockNumber": "0x8ce90f",
      "from": "0x85C91C3DfA5c200a6Ee9Bc9d3085d02A2c95908b",
      "to": "0x8E16e15381729fFEeDC4755f2Dcf6F5461f7F389",
      "cumulativeGasUsed": "0x95fd2",
      "gasUsed": "0x4a872",
      "contractAddress": null,
      "logs": [
        {
          "address": "0x8E16e15381729fFEeDC4755f2Dcf6F5461f7F389",
          "topics": [
            "0xddf252ad1be2c89b69c2b068fc378daa952ba7f163c4a11628f55a4df523b3ef",
            "0x0000000000000000000000000000000000000000000000000000000000000000",
            "0x00000000000000000000000085c91c3dfa5c200a6ee9bc9d3085d02a2c95908b",
            "0x000000000000000000000000000000000000000000000000000000000000001a"
          ],
          "data": "0x",
          "blockHash": "0xf2dab7263046bd1a7ab6fb01f9f5b477758ba7af4426fcf0fb2b9080697ed32a",
          "blockNumber": "0x8ce90f",
          "transactionHash": "0xb7134e4a49bc2a6213b85247cf1f6b4844c1e8c298b6c8a2249dd104856aad29",
          "transactionIndex": "0x4",
          "logIndex": "0x3",
          "removed": false
        },
        {
          "address": "0x8E16e15381729fFEeDC4755f2Dcf6F5461f7F389",
          "topics": [
            "0xddf252ad1be2c89b69c2b068fc378daa952ba7f163c4a11628f55a4df523b3ef",
            "0x0000000000000000000000000000000000000000000000000000000000000000",
            "0x00000000000000000000000085c91c3dfa5c200a6ee9bc9d3085d02a2c95908b",
            "0x000000000000000000000000000000000000000000000000000000000000001b"
          ],
          "data": "0x",
          "blockHash": "0xf2dab7263046bd1a7ab6fb01f9f5b477758ba7af4426fcf0fb2b9080697ed32a",
          "blockNumber": "0x8ce90f",
          "transactionHash": "0xb7134e4a49bc2a6213b85247cf1f6b4844c1e8c298b6c8a2249dd104856aad29",
          "transactionIndex": "0x4",
          "logIndex": "0x4",
          "removed": false
        },
        {
          "address": "0x8E16e15381729fFEeDC4755f2Dcf6F5461f7F389",
          "topics": [
            "0xddf252ad1be2c89b69c2b068fc378daa952ba7f163c4a11628f55a4df523b3ef",
            "0x0000000000000000000000000000000000000000000000000000000000000000",
            "0x00000000000000000000000085c91c3dfa5c200a6ee9bc9d3085d02a2c95908b",
            "0x000000000000000000000000000000000000000000000000000000000000001c"
          ],
          "data": "0x",
          "blockHash": "0xf2dab7263046bd1a7ab6fb01f9f5b477758ba7af4426fcf0fb2b9080697ed32a",
          "blockNumber": "0x8ce90f",
          "transactionHash": "0xb7134e4a49bc2a6213b85247cf1f6b4844c1e8c298b6c8a2249dd104856aad29",
          "transactionIndex": "0x4",
          "logIndex": "0x5",
          "removed": false
        },
        {
          "address": "0x8E16e15381729fFEeDC4755f2Dcf6F5461f7F389",
          "topics": [
            "0xddf252ad1be2c89b69c2b068fc378daa952ba7f163c4a11628f55a4df523b3ef",
            "0x0000000000000000000000000000000000000000000000000000000000000000",
            "0x00000000000000000000000085c91c3dfa5c200a6ee9bc9d3085d02a2c95908b",
            "0x000000000000000000000000000000000000000000000000000000000000001d"
          ],
          "data": "0x",
          "blockHash": "0xf2dab7263046bd1a7ab6fb01f9f5b477758ba7af4426fcf0fb2b9080697ed32a",
          "blockNumber": "0x8ce90f",
          "transactionHash": "0xb7134e4a49bc2a6213b85247cf1f6b4844c1e8c298b6c8a2249dd104856aad29",
          "transactionIndex": "0x4",
          "logIndex": "0x6",
          "removed": false
        },
        {
          "address": "0x8E16e15381729fFEeDC4755f2Dcf6F5461f7F389",
          "topics": [
            "0xddf252ad1be2c89b69c2b068fc378daa952ba7f163c4a11628f55a4df523b3ef",
            "0x0000000000000000000000000000000000000000000000000000000000000000",
            "0x00000000000000000000000085c91c3dfa5c200a6ee9bc9d3085d02a2c95908b",
            "0x000000000000000000000000000000000000000000000000000000000000001e"
          ],
          "data": "0x",
          "blockHash": "0xf2dab7263046bd1a7ab6fb01f9f5b477758ba7af4426fcf0fb2b9080697ed32a",
          "blockNumber": "0x8ce90f",
          "transactionHash": "0xb7134e4a49bc2a6213b85247cf1f6b4844c1e8c298b6c8a2249dd104856aad29",
          "transactionIndex": "0x4",
          "logIndex": "0x7",
          "removed": false
        },
        {
          "address": "0x8E16e15381729fFEeDC4755f2Dcf6F5461f7F389",
          "topics": [
            "0xddf252ad1be2c89b69c2b068fc378daa952ba7f163c4a11628f55a4df523b3ef",
            "0x0000000000000000000000000000000000000000000000000000000000000000",
            "0x00000000000000000000000085c91c3dfa5c200a6ee9bc9d3085d02a2c95908b",
            "0x000000000000000000000000000000000000000000000000000000000000001f"
          ],
          "data": "0x",
          "blockHash": "0xf2dab7263046bd1a7ab6fb01f9f5b477758ba7af4426fcf0fb2b9080697ed32a",
          "blockNumber": "0x8ce90f",
          "transactionHash": "0xb7134e4a49bc2a6213b85247cf1f6b4844c1e8c298b6c8a2249dd104856aad29",
          "transactionIndex": "0x4",
          "logIndex": "0x8",
          "removed": false
        },
        {
          "address": "0x8E16e15381729fFEeDC4755f2Dcf6F5461f7F389",
          "topics": [
            "0xddf252ad1be2c89b69c2b068fc378daa952ba7f163c4a11628f55a4df523b3ef",
            "0x0000000000000000000000000000000000000000000000000000000000000000",
            "0x00000000000000000000000085c91c3dfa5c200a6ee9bc9d3085d02a2c95908b",
            "0x0000000000000000000000000000000000000000000000000000000000000020"
          ],
          "data": "0x",
          "blockHash": "0xf2dab7263046bd1a7ab6fb01f9f5b477758ba7af4426fcf0fb2b9080697ed32a",
          "blockNumber": "0x8ce90f",
          "transactionHash": "0xb7134e4a49bc2a6213b85247cf1f6b4844c1e8c298b6c8a2249dd104856aad29",
          "transactionIndex": "0x4",
          "logIndex": "0x9",
          "removed": false
        },
        {
          "address": "0x8E16e15381729fFEeDC4755f2Dcf6F5461f7F389",
          "topics": [
            "0xddf252ad1be2c89b69c2b068fc378daa952ba7f163c4a11628f55a4df523b3ef",
            "0x0000000000000000000000000000000000000000000000000000000000000000",
            "0x00000000000000000000000085c91c3dfa5c200a6ee9bc9d3085d02a2c95908b",
            "0x0000000000000000000000000000000000000000000000000000000000000021"
          ],
          "data": "0x",
          "blockHash": "0xf2dab7263046bd1a7ab6fb01f9f5b477758ba7af4426fcf0fb2b9080697ed32a",
          "blockNumber": "0x8ce90f",
          "transactionHash": "0xb7134e4a49bc2a6213b85247cf1f6b4844c1e8c298b6c8a2249dd104856aad29",
          "transactionIndex": "0x4",
          "logIndex": "0xa",
          "removed": false
        },
        {
          "address": "0x8E16e15381729fFEeDC4755f2Dcf6F5461f7F389",
          "topics": [
            "0xddf252ad1be2c89b69c2b068fc378daa952ba7f163c4a11628f55a4df523b3ef",
            "0x0000000000000000000000000000000000000000000000000000000000000000",
            "0x00000000000000000000000085c91c3dfa5c200a6ee9bc9d3085d02a2c95908b",
            "0x0000000000000000000000000000000000000000000000000000000000000022"
          ],
          "data": "0x",
          "blockHash": "0xf2dab7263046bd1a7ab6fb01f9f5b477758ba7af4426fcf0fb2b9080697ed32a",
          "blockNumber": "0x8ce90f",
          "transactionHash": "0xb7134e4a49bc2a6213b85247cf1f6b4844c1e8c298b6c8a2249dd104856aad29",
          "transactionIndex": "0x4",
          "logIndex": "0xb",
          "removed": false
        },
        {
          "address": "0x8E16e15381729fFEeDC4755f2Dcf6F5461f7F389",
          "topics": [
            "0xddf252ad1be2c89b69c2b068fc378daa952ba7f163c4a11628f55a4df523b3ef",
            "0x0000000000000000000000000000000000000000000000000000000000000000",
            "0x00000000000000000000000085c91c3dfa5c200a6ee9bc9d3085d02a2c95908b",
            "0x0000000000000000000000000000000000000000000000000000000000000023"
          ],
          "data": "0x",
          "blockHash": "0xf2dab7263046bd1a7ab6fb01f9f5b477758ba7af4426fcf0fb2b9080697ed32a",
          "blockNumber": "0x8ce90f",
          "transactionHash": "0xb7134e4a49bc2a6213b85247cf1f6b4844c1e8c298b6c8a2249dd104856aad29",
          "transactionIndex": "0x4",
          "logIndex": "0xc",
          "removed": false
        }
      ],
      "status": "0x1",
      "logsBloom": "0x00000080000000000000000400000000000000000010000000004000000000020000000000000000000000000400000000000000000000a00000000200000000000000000000008000000808000000001800000000000010000008001000000000000000020010000000000000000800000000000000000000000010040000000000020000000000000000000000000200200000000200000000004000000000000400000100000000000002000000000000000800008000000000000001000000000002000000000000000000000000080000000000000000000000000020080000400000000000080000040000000000000000000004000100000000000000",
      "type": "0x2",
      "effectiveGasPrice": "0xb2defd63"
    }
  ],
  "libraries": [],
  "pending": [],
  "path": "/Users/jaclyn/Documents/code/fukuro/contracts/broadcast/MintAfropolitans.s.sol/5/run-latest.json",
  "returns": {},
  "timestamp": 1687643837,
  "chain": 5,
  "multi": false,
  "commit": "4be9733"
}