{
  "transactions": [
    {
      "hash": "0x777bb6a08bac7e1708064c176db512b5a3ec6445ff448c7294671d552c130d12",
      "transactionType": "CALL",
      "contractName": "AfropolitanNFT",
      "contractAddress": "0x8E16e15381729fFEeDC4755f2Dcf6F5461f7F389",
      "function": "mintTo(address,uint256)",
      "arguments": [
        "0x85C91C3DfA5c200a6Ee9Bc9d3085d02A2c95908b",
        "10"
      ],
      "rpc": "https://eth-goerli.g.alchemy.com/v2/B81B-tXiOVtE5bt8bJkX5Gqi3s2R1fgZ",
      "transaction": {
        "type": "0x02",
        "from": "0x85c91c3dfa5c200a6ee9bc9d3085d02a2c95908b",
        "to": "0x8e16e15381729ffeedc4755f2dcf6f5461f7f389",
        "gas": "0x612cc",
        "value": "0x470de4df820000",
        "data": "0x449a52f800000000000000000000000085c91c3dfa5c200a6ee9bc9d3085d02a2c95908b000000000000000000000000000000000000000000000000000000000000000a",
        "nonce": "0x54",
        "accessList": []
      },
      "additionalContracts": [],
      "isFixedGasLimit": false
    }
  ],
  "receipts": [
    {
      "transactionHash": "0x777bb6a08bac7e1708064c176db512b5a3ec6445ff448c7294671d552c130d12",
      "transactionIndex": "0x0",
      "blockHash": "0x790495267bfbbf0b5605b6e8ac88d7f48a3df860855001c0e8ad2199cd7ff36b",
      "blockNumber": "0x8cec8e",
      "from": "0x85C91C3DfA5c200a6Ee9Bc9d3085d02A2c95908b",
      "to": "0x8E16e15381729fFEeDC4755f2Dcf6F5461f7F389",
      "cumulativeGasUsed": "0x465a6",
      "gasUsed": "0x465a6",
      "contractAddress": null,
      "logs": [
        {
          "address": "0x8E16e15381729fFEeDC4755f2Dcf6F5461f7F389",
          "topics": [
            "0xddf252ad1be2c89b69c2b068fc378daa952ba7f163c4a11628f55a4df523b3ef",
            "0x0000000000000000000000000000000000000000000000000000000000000000",
            "0x00000000000000000000000085c91c3dfa5c200a6ee9bc9d3085d02a2c95908b",
            "0x0000000000000000000000000000000000000000000000000000000000000038"
          ],
          "data": "0x",
          "blockHash": "0x790495267bfbbf0b5605b6e8ac88d7f48a3df860855001c0e8ad2199cd7ff36b",
          "blockNumber": "0x8cec8e",
          "transactionHash": "0x777bb6a08bac7e1708064c176db512b5a3ec6445ff448c7294671d552c130d12",
          "transactionIndex": "0x0",
          "logIndex": "0x0",
          "removed": false
        },
        {
          "address": "0x8E16e15381729fFEeDC4755f2Dcf6F5461f7F389",
          "topics": [
            "0xddf252ad1be2c89b69c2b068fc378daa952ba7f163c4a11628f55a4df523b3ef",
            "0x0000000000000000000000000000000000000000000000000000000000000000",
            "0x00000000000000000000000085c91c3dfa5c200a6ee9bc9d3085d02a2c95908b",
            "0x0000000000000000000000000000000000000000000000000000000000000039"
          ],
          "data": "0x",
          "blockHash": "0x790495267bfbbf0b5605b6e8ac88d7f48a3df860855001c0e8ad2199cd7ff36b",
          "blockNumber": "0x8cec8e",
          "transactionHash": "0x777bb6a08bac7e1708064c176db512b5a3ec6445ff448c7294671d552c130d12",
          "transactionIndex": "0x0",
          "logIndex": "0x1",
          "removed": false
        },
        {
          "address": "0x8E16e15381729fFEeDC4755f2Dcf6F5461f7F389",
          "topics": [
            "0xddf252ad1be2c89b69c2b068fc378daa952ba7f163c4a11628f55a4df523b3ef",
            "0x0000000000000000000000000000000000000000000000000000000000000000",
            "0x00000000000000000000000085c91c3dfa5c200a6ee9bc9d3085d02a2c95908b",
            "0x000000000000000000000000000000000000000000000000000000000000003a"
          ],
          "data": "0x",
          "blockHash": "0x790495267bfbbf0b5605b6e8ac88d7f48a3df860855001c0e8ad2199cd7ff36b",
          "blockNumber": "0x8cec8e",
          "transactionHash": "0x777bb6a08bac7e1708064c176db512b5a3ec6445ff448c7294671d552c130d12",
          "transactionIndex": "0x0",
          "logIndex": "0x2",
          "removed": false
        },
        {
          "address": "0x8E16e15381729fFEeDC4755f2Dcf6F5461f7F389",
          "topics": [
            "0xddf252ad1be2c89b69c2b068fc378daa952ba7f163c4a11628f55a4df523b3ef",
            "0x0000000000000000000000000000000000000000000000000000000000000000",
            "0x00000000000000000000000085c91c3dfa5c200a6ee9bc9d3085d02a2c95908b",
            "0x000000000000000000000000000000000000000000000000000000000000003b"
          ],
          "data": "0x",
          "blockHash": "0x790495267bfbbf0b5605b6e8ac88d7f48a3df860855001c0e8ad2199cd7ff36b",
          "blockNumber": "0x8cec8e",
          "transactionHash": "0x777bb6a08bac7e1708064c176db512b5a3ec6445ff448c7294671d552c130d12",
          "transactionIndex": "0x0",
          "logIndex": "0x3",
          "removed": false
        },
        {
          "address": "0x8E16e15381729fFEeDC4755f2Dcf6F5461f7F389",
          "topics": [
            "0xddf252ad1be2c89b69c2b068fc378daa952ba7f163c4a11628f55a4df523b3ef",
            "0x0000000000000000000000000000000000000000000000000000000000000000",
            "0x00000000000000000000000085c91c3dfa5c200a6ee9bc9d3085d02a2c95908b",
            "0x000000000000000000000000000000000000000000000000000000000000003c"
          ],
          "data": "0x",
          "blockHash": "0x790495267bfbbf0b5605b6e8ac88d7f48a3df860855001c0e8ad2199cd7ff36b",
          "blockNumber": "0x8cec8e",
          "transactionHash": "0x777bb6a08bac7e1708064c176db512b5a3ec6445ff448c7294671d552c130d12",
          "transactionIndex": "0x0",
          "logIndex": "0x4",
          "removed": false
        },
        {
          "address": "0x8E16e15381729fFEeDC4755f2Dcf6F5461f7F389",
          "topics": [
            "0xddf252ad1be2c89b69c2b068fc378daa952ba7f163c4a11628f55a4df523b3ef",
            "0x0000000000000000000000000000000000000000000000000000000000000000",
            "0x00000000000000000000000085c91c3dfa5c200a6ee9bc9d3085d02a2c95908b",
            "0x000000000000000000000000000000000000000000000000000000000000003d"
          ],
          "data": "0x",
          "blockHash": "0x790495267bfbbf0b5605b6e8ac88d7f48a3df860855001c0e8ad2199cd7ff36b",
          "blockNumber": "0x8cec8e",
          "transactionHash": "0x777bb6a08bac7e1708064c176db512b5a3ec6445ff448c7294671d552c130d12",
          "transactionIndex": "0x0",
          "logIndex": "0x5",
          "removed": false
        },
        {
          "address": "0x8E16e15381729fFEeDC4755f2Dcf6F5461f7F389",
          "topics": [
            "0xddf252ad1be2c89b69c2b068fc378daa952ba7f163c4a11628f55a4df523b3ef",
            "0x0000000000000000000000000000000000000000000000000000000000000000",
            "0x00000000000000000000000085c91c3dfa5c200a6ee9bc9d3085d02a2c95908b",
            "0x000000000000000000000000000000000000000000000000000000000000003e"
          ],
          "data": "0x",
          "blockHash": "0x790495267bfbbf0b5605b6e8ac88d7f48a3df860855001c0e8ad2199cd7ff36b",
          "blockNumber": "0x8cec8e",
          "transactionHash": "0x777bb6a08bac7e1708064c176db512b5a3ec6445ff448c7294671d552c130d12",
          "transactionIndex": "0x0",
          "logIndex": "0x6",
          "removed": false
        },
        {
          "address": "0x8E16e15381729fFEeDC4755f2Dcf6F5461f7F389",
          "topics": [
            "0xddf252ad1be2c89b69c2b068fc378daa952ba7f163c4a11628f55a4df523b3ef",
            "0x0000000000000000000000000000000000000000000000000000000000000000",
            "0x00000000000000000000000085c91c3dfa5c200a6ee9bc9d3085d02a2c95908b",
            "0x000000000000000000000000000000000000000000000000000000000000003f"
          ],
          "data": "0x",
          "blockHash": "0x790495267bfbbf0b5605b6e8ac88d7f48a3df860855001c0e8ad2199cd7ff36b",
          "blockNumber": "0x8cec8e",
          "transactionHash": "0x777bb6a08bac7e1708064c176db512b5a3ec6445ff448c7294671d552c130d12",
          "transactionIndex": "0x0",
          "logIndex": "0x7",
          "removed": false
        },
        {
          "address": "0x8E16e15381729fFEeDC4755f2Dcf6F5461f7F389",
          "topics": [
            "0xddf252ad1be2c89b69c2b068fc378daa952ba7f163c4a11628f55a4df523b3ef",
            "0x0000000000000000000000000000000000000000000000000000000000000000",
            "0x00000000000000000000000085c91c3dfa5c200a6ee9bc9d3085d02a2c95908b",
            "0x0000000000000000000000000000000000000000000000000000000000000040"
          ],
          "data": "0x",
          "blockHash": "0x790495267bfbbf0b5605b6e8ac88d7f48a3df860855001c0e8ad2199cd7ff36b",
          "blockNumber": "0x8cec8e",
          "transactionHash": "0x777bb6a08bac7e1708064c176db512b5a3ec6445ff448c7294671d552c130d12",
          "transactionIndex": "0x0",
          "logIndex": "0x8",
          "removed": false
        },
        {
          "address": "0x8E16e15381729fFEeDC4755f2Dcf6F5461f7F389",
          "topics": [
            "0xddf252ad1be2c89b69c2b068fc378daa952ba7f163c4a11628f55a4df523b3ef",
            "0x0000000000000000000000000000000000000000000000000000000000000000",
            "0x00000000000000000000000085c91c3dfa5c200a6ee9bc9d3085d02a2c95908b",
            "0x0000000000000000000000000000000000000000000000000000000000000041"
          ],
          "data": "0x",
          "blockHash": "0x790495267bfbbf0b5605b6e8ac88d7f48a3df860855001c0e8ad2199cd7ff36b",
          "blockNumber": "0x8cec8e",
          "transactionHash": "0x777bb6a08bac7e1708064c176db512b5a3ec6445ff448c7294671d552c130d12",
          "transactionIndex": "0x0",
          "logIndex": "0x9",
          "removed": false
        }
      ],
      "status": "0x1",
      "logsBloom": "0x00000000000000000000000000042000000000000000000000004000000000000080000100000800080020020000000000000000000000000000000000000080000001000000000000000808000000030000004000000000000088040000000020000048020810000000000000800820000000002000000000000010004000000000000800000000000000000000000000200080000000000000000000000000000000000000000000000000020000000000000000000000000000000000000000000002000000000000000000000000000000000000000000000002000020000000000000000000000000040000000000000000000000000201000000000000",
      "type": "0x2",
      "effectiveGasPrice": "0xb309dd9d"
    }
  ],
  "libraries": [],
  "pending": [],
  "path": "/Users/jaclyn/Documents/code/fukuro/contracts/broadcast/MintAfropolitans.s.sol/5/run-latest.json",
  "returns": {},
  "timestamp": 1687657681,
  "chain": 5,
  "multi": false,
  "commit": "a55f0b8"
}