{
  "transactions": [
    {
      "hash": "0xd15cb9fd896e9433ff9ce2231e2ee0b462729d20fb5ad5fc6ce15ede5f2c12ee",
      "transactionType": "CALL",
      "contractName": "AfropolitanNFT",
      "contractAddress": "0x8E16e15381729fFEeDC4755f2Dcf6F5461f7F389",
      "function": "mintTo(address,uint256)",
      "arguments": [
        "0x85C91C3DfA5c200a6Ee9Bc9d3085d02A2c95908b",
        "10"
      ],
      "rpc": "https://eth-goerli.g.alchemy.com/v2/B81B-tXiOVtE5bt8bJkX5Gqi3s2R1fgZ",
      "transaction": {
        "type": "0x02",
        "from": "0x85c91c3dfa5c200a6ee9bc9d3085d02a2c95908b",
        "to": "0x8e16e15381729ffeedc4755f2dcf6f5461f7f389",
        "gas": "0x6cff3",
        "value": "0x470de4df820000",
        "data": "0x449a52f800000000000000000000000085c91c3dfa5c200a6ee9bc9d3085d02a2c95908b000000000000000000000000000000000000000000000000000000000000000a",
        "nonce": "0x8d",
        "accessList": []
      },
      "additionalContracts": [],
      "isFixedGasLimit": false
    }
  ],
  "receipts": [
    {
      "transactionHash": "0xd15cb9fd896e9433ff9ce2231e2ee0b462729d20fb5ad5fc6ce15ede5f2c12ee",
      "transactionIndex": "0x3",
      "blockHash": "0x766590335958037ea6973d47c5f091dae6cbff189a90c832d6be0e02ac849883",
      "blockNumber": "0x8cede4",
      "from": "0x85C91C3DfA5c200a6Ee9Bc9d3085d02A2c95908b",
      "to": "0x8E16e15381729fFEeDC4755f2Dcf6F5461f7F389",
      "cumulativeGasUsed": "0x19f322",
      "gasUsed": "0x4a872",
      "contractAddress": null,
      "logs": [
        {
          "address": "0x8E16e15381729fFEeDC4755f2Dcf6F5461f7F389",
          "topics": [
            "0xddf252ad1be2c89b69c2b068fc378daa952ba7f163c4a11628f55a4df523b3ef",
            "0x0000000000000000000000000000000000000000000000000000000000000000",
            "0x00000000000000000000000085c91c3dfa5c200a6ee9bc9d3085d02a2c95908b",
            "0x000000000000000000000000000000000000000000000000000000000000004c"
          ],
          "data": "0x",
          "blockHash": "0x766590335958037ea6973d47c5f091dae6cbff189a90c832d6be0e02ac849883",
          "blockNumber": "0x8cede4",
          "transactionHash": "0xd15cb9fd896e9433ff9ce2231e2ee0b462729d20fb5ad5fc6ce15ede5f2c12ee",
          "transactionIndex": "0x3",
          "logIndex": "0x4",
          "removed": false
        },
        {
          "address": "0x8E16e15381729fFEeDC4755f2Dcf6F5461f7F389",
          "topics": [
            "0xddf252ad1be2c89b69c2b068fc378daa952ba7f163c4a11628f55a4df523b3ef",
            "0x0000000000000000000000000000000000000000000000000000000000000000",
            "0x00000000000000000000000085c91c3dfa5c200a6ee9bc9d3085d02a2c95908b",
            "0x000000000000000000000000000000000000000000000000000000000000004d"
          ],
          "data": "0x",
          "blockHash": "0x766590335958037ea6973d47c5f091dae6cbff189a90c832d6be0e02ac849883",
          "blockNumber": "0x8cede4",
          "transactionHash": "0xd15cb9fd896e9433ff9ce2231e2ee0b462729d20fb5ad5fc6ce15ede5f2c12ee",
          "transactionIndex": "0x3",
          "logIndex": "0x5",
          "removed": false
        },
        {
          "address": "0x8E16e15381729fFEeDC4755f2Dcf6F5461f7F389",
          "topics": [
            "0xddf252ad1be2c89b69c2b068fc378daa952ba7f163c4a11628f55a4df523b3ef",
            "0x0000000000000000000000000000000000000000000000000000000000000000",
            "0x00000000000000000000000085c91c3dfa5c200a6ee9bc9d3085d02a2c95908b",
            "0x000000000000000000000000000000000000000000000000000000000000004e"
          ],
          "data": "0x",
          "blockHash": "0x766590335958037ea6973d47c5f091dae6cbff189a90c832d6be0e02ac849883",
          "blockNumber": "0x8cede4",
          "transactionHash": "0xd15cb9fd896e9433ff9ce2231e2ee0b462729d20fb5ad5fc6ce15ede5f2c12ee",
          "transactionIndex": "0x3",
          "logIndex": "0x6",
          "removed": false
        },
        {
          "address": "0x8E16e15381729fFEeDC4755f2Dcf6F5461f7F389",
          "topics": [
            "0xddf252ad1be2c89b69c2b068fc378daa952ba7f163c4a11628f55a4df523b3ef",
            "0x0000000000000000000000000000000000000000000000000000000000000000",
            "0x00000000000000000000000085c91c3dfa5c200a6ee9bc9d3085d02a2c95908b",
            "0x000000000000000000000000000000000000000000000000000000000000004f"
          ],
          "data": "0x",
          "blockHash": "0x766590335958037ea6973d47c5f091dae6cbff189a90c832d6be0e02ac849883",
          "blockNumber": "0x8cede4",
          "transactionHash": "0xd15cb9fd896e9433ff9ce2231e2ee0b462729d20fb5ad5fc6ce15ede5f2c12ee",
          "transactionIndex": "0x3",
          "logIndex": "0x7",
          "removed": false
        },
        {
          "address": "0x8E16e15381729fFEeDC4755f2Dcf6F5461f7F389",
          "topics": [
            "0xddf252ad1be2c89b69c2b068fc378daa952ba7f163c4a11628f55a4df523b3ef",
            "0x0000000000000000000000000000000000000000000000000000000000000000",
            "0x00000000000000000000000085c91c3dfa5c200a6ee9bc9d3085d02a2c95908b",
            "0x0000000000000000000000000000000000000000000000000000000000000050"
          ],
          "data": "0x",
          "blockHash": "0x766590335958037ea6973d47c5f091dae6cbff189a90c832d6be0e02ac849883",
          "blockNumber": "0x8cede4",
          "transactionHash": "0xd15cb9fd896e9433ff9ce2231e2ee0b462729d20fb5ad5fc6ce15ede5f2c12ee",
          "transactionIndex": "0x3",
          "logIndex": "0x8",
          "removed": false
        },
        {
          "address": "0x8E16e15381729fFEeDC4755f2Dcf6F5461f7F389",
          "topics": [
            "0xddf252ad1be2c89b69c2b068fc378daa952ba7f163c4a11628f55a4df523b3ef",
            "0x0000000000000000000000000000000000000000000000000000000000000000",
            "0x00000000000000000000000085c91c3dfa5c200a6ee9bc9d3085d02a2c95908b",
            "0x0000000000000000000000000000000000000000000000000000000000000051"
          ],
          "data": "0x",
          "blockHash": "0x766590335958037ea6973d47c5f091dae6cbff189a90c832d6be0e02ac849883",
          "blockNumber": "0x8cede4",
          "transactionHash": "0xd15cb9fd896e9433ff9ce2231e2ee0b462729d20fb5ad5fc6ce15ede5f2c12ee",
          "transactionIndex": "0x3",
          "logIndex": "0x9",
          "removed": false
        },
        {
          "address": "0x8E16e15381729fFEeDC4755f2Dcf6F5461f7F389",
          "topics": [
            "0xddf252ad1be2c89b69c2b068fc378daa952ba7f163c4a11628f55a4df523b3ef",
            "0x0000000000000000000000000000000000000000000000000000000000000000",
            "0x00000000000000000000000085c91c3dfa5c200a6ee9bc9d3085d02a2c95908b",
            "0x0000000000000000000000000000000000000000000000000000000000000052"
          ],
          "data": "0x",
          "blockHash": "0x766590335958037ea6973d47c5f091dae6cbff189a90c832d6be0e02ac849883",
          "blockNumber": "0x8cede4",
          "transactionHash": "0xd15cb9fd896e9433ff9ce2231e2ee0b462729d20fb5ad5fc6ce15ede5f2c12ee",
          "transactionIndex": "0x3",
          "logIndex": "0xa",
          "removed": false
        },
        {
          "address": "0x8E16e15381729fFEeDC4755f2Dcf6F5461f7F389",
          "topics": [
            "0xddf252ad1be2c89b69c2b068fc378daa952ba7f163c4a11628f55a4df523b3ef",
            "0x0000000000000000000000000000000000000000000000000000000000000000",
            "0x00000000000000000000000085c91c3dfa5c200a6ee9bc9d3085d02a2c95908b",
            "0x0000000000000000000000000000000000000000000000000000000000000053"
          ],
          "data": "0x",
          "blockHash": "0x766590335958037ea6973d47c5f091dae6cbff189a90c832d6be0e02ac849883",
          "blockNumber": "0x8cede4",
          "transactionHash": "0xd15cb9fd896e9433ff9ce2231e2ee0b462729d20fb5ad5fc6ce15ede5f2c12ee",
          "transactionIndex": "0x3",
          "logIndex": "0xb",
          "removed": false
        },
        {
          "address": "0x8E16e15381729fFEeDC4755f2Dcf6F5461f7F389",
          "topics": [
            "0xddf252ad1be2c89b69c2b068fc378daa952ba7f163c4a11628f55a4df523b3ef",
            "0x0000000000000000000000000000000000000000000000000000000000000000",
            "0x00000000000000000000000085c91c3dfa5c200a6ee9bc9d3085d02a2c95908b",
            "0x0000000000000000000000000000000000000000000000000000000000000054"
          ],
          "data": "0x",
          "blockHash": "0x766590335958037ea6973d47c5f091dae6cbff189a90c832d6be0e02ac849883",
          "blockNumber": "0x8cede4",
          "transactionHash": "0xd15cb9fd896e9433ff9ce2231e2ee0b462729d20fb5ad5fc6ce15ede5f2c12ee",
          "transactionIndex": "0x3",
          "logIndex": "0xc",
          "removed": false
        },
        {
          "address": "0x8E16e15381729fFEeDC4755f2Dcf6F5461f7F389",
          "topics": [
            "0xddf252ad1be2c89b69c2b068fc378daa952ba7f163c4a11628f55a4df523b3ef",
            "0x0000000000000000000000000000000000000000000000000000000000000000",
            "0x00000000000000000000000085c91c3dfa5c200a6ee9bc9d3085d02a2c95908b",
            "0x0000000000000000000000000000000000000000000000000000000000000055"
          ],
          "data": "0x",
          "blockHash": "0x766590335958037ea6973d47c5f091dae6cbff189a90c832d6be0e02ac849883",
          "blockNumber": "0x8cede4",
          "transactionHash": "0xd15cb9fd896e9433ff9ce2231e2ee0b462729d20fb5ad5fc6ce15ede5f2c12ee",
          "transactionIndex": "0x3",
          "logIndex": "0xd",
          "removed": false
        }
      ],
      "status": "0x1",
      "logsBloom": "0x0000000000000000000800000000000000000000000200000000400000000000200000000000000000000000002000000000000000000000200000001000000000000000000000000008080800000000000000000000800080000a000000000000000000020010000000000080000818000000000000000000000010000000000000000000000000000000000000000000200020000c40000000000000000000000001000800000000008000000000200000000040000000000000000004000000000002000000004000000000000000000400000000040000000020001020000000000000400000000000040000000000000000000000000000040000000000",
      "type": "0x2",
      "effectiveGasPrice": "0xb31c721d"
    }
  ],
  "libraries": [],
  "pending": [],
  "path": "/Users/jaclyn/Documents/code/fukuro/contracts/broadcast/MintAfropolitans.s.sol/5/run-latest.json",
  "returns": {},
  "timestamp": 1687662963,
  "chain": 5,
  "multi": false,
  "commit": "3c35cda"
}