{
  "transactions": [
    {
      "hash": "0x234d8202e000279e09df7aa60766736196f8906853db5d73fdf2257307f3972d",
      "transactionType": "CALL",
      "contractName": "AfropolitanNFT",
      "contractAddress": "0x8E16e15381729fFEeDC4755f2Dcf6F5461f7F389",
      "function": "mintTo(address,uint256)",
      "arguments": [
        "0x85C91C3DfA5c200a6Ee9Bc9d3085d02A2c95908b",
        "10"
      ],
      "rpc": "https://eth-goerli.g.alchemy.com/v2/B81B-tXiOVtE5bt8bJkX5Gqi3s2R1fgZ",
      "transaction": {
        "type": "0x02",
        "from": "0x85c91c3dfa5c200a6ee9bc9d3085d02a2c95908b",
        "to": "0x8e16e15381729ffeedc4755f2dcf6f5461f7f389",
        "gas": "0x612cc",
        "value": "0x470de4df820000",
        "data": "0x449a52f800000000000000000000000085c91c3dfa5c200a6ee9bc9d3085d02a2c95908b000000000000000000000000000000000000000000000000000000000000000a",
        "nonce": "0x55",
        "accessList": []
      },
      "additionalContracts": [],
      "isFixedGasLimit": false
    }
  ],
  "receipts": [
    {
      "transactionHash": "0x234d8202e000279e09df7aa60766736196f8906853db5d73fdf2257307f3972d",
      "transactionIndex": "0x2",
      "blockHash": "0xbf958c11fc72f4aa804dbda07772a0edccb0a452a1350f59a3817c30c9ab8e11",
      "blockNumber": "0x8cec90",
      "from": "0x85C91C3DfA5c200a6Ee9Bc9d3085d02A2c95908b",
      "to": "0x8E16e15381729fFEeDC4755f2Dcf6F5461f7F389",
      "cumulativeGasUsed": "0x5c030",
      "gasUsed": "0x465a6",
      "contractAddress": null,
      "logs": [
        {
          "address": "0x8E16e15381729fFEeDC4755f2Dcf6F5461f7F389",
          "topics": [
            "0xddf252ad1be2c89b69c2b068fc378daa952ba7f163c4a11628f55a4df523b3ef",
            "0x0000000000000000000000000000000000000000000000000000000000000000",
            "0x00000000000000000000000085c91c3dfa5c200a6ee9bc9d3085d02a2c95908b",
            "0x0000000000000000000000000000000000000000000000000000000000000042"
          ],
          "data": "0x",
          "blockHash": "0xbf958c11fc72f4aa804dbda07772a0edccb0a452a1350f59a3817c30c9ab8e11",
          "blockNumber": "0x8cec90",
          "transactionHash": "0x234d8202e000279e09df7aa60766736196f8906853db5d73fdf2257307f3972d",
          "transactionIndex": "0x2",
          "logIndex": "0x0",
          "removed": false
        },
        {
          "address": "0x8E16e15381729fFEeDC4755f2Dcf6F5461f7F389",
          "topics": [
            "0xddf252ad1be2c89b69c2b068fc378daa952ba7f163c4a11628f55a4df523b3ef",
            "0x0000000000000000000000000000000000000000000000000000000000000000",
            "0x00000000000000000000000085c91c3dfa5c200a6ee9bc9d3085d02a2c95908b",
            "0x0000000000000000000000000000000000000000000000000000000000000043"
          ],
          "data": "0x",
          "blockHash": "0xbf958c11fc72f4aa804dbda07772a0edccb0a452a1350f59a3817c30c9ab8e11",
          "blockNumber": "0x8cec90",
          "transactionHash": "0x234d8202e000279e09df7aa60766736196f8906853db5d73fdf2257307f3972d",
          "transactionIndex": "0x2",
          "logIndex": "0x1",
          "removed": false
        },
        {
          "address": "0x8E16e15381729fFEeDC4755f2Dcf6F5461f7F389",
          "topics": [
            "0xddf252ad1be2c89b69c2b068fc378daa952ba7f163c4a11628f55a4df523b3ef",
            "0x0000000000000000000000000000000000000000000000000000000000000000",
            "0x00000000000000000000000085c91c3dfa5c200a6ee9bc9d3085d02a2c95908b",
            "0x0000000000000000000000000000000000000000000000000000000000000044"
          ],
          "data": "0x",
          "blockHash": "0xbf958c11fc72f4aa804dbda07772a0edccb0a452a1350f59a3817c30c9ab8e11",
          "blockNumber": "0x8cec90",
          "transactionHash": "0x234d8202e000279e09df7aa60766736196f8906853db5d73fdf2257307f3972d",
          "transactionIndex": "0x2",
          "logIndex": "0x2",
          "removed": false
        },
        {
          "address": "0x8E16e15381729fFEeDC4755f2Dcf6F5461f7F389",
          "topics": [
            "0xddf252ad1be2c89b69c2b068fc378daa952ba7f163c4a11628f55a4df523b3ef",
            "0x0000000000000000000000000000000000000000000000000000000000000000",
            "0x00000000000000000000000085c91c3dfa5c200a6ee9bc9d3085d02a2c95908b",
            "0x0000000000000000000000000000000000000000000000000000000000000045"
          ],
          "data": "0x",
          "blockHash": "0xbf958c11fc72f4aa804dbda07772a0edccb0a452a1350f59a3817c30c9ab8e11",
          "blockNumber": "0x8cec90",
          "transactionHash": "0x234d8202e000279e09df7aa60766736196f8906853db5d73fdf2257307f3972d",
          "transactionIndex": "0x2",
          "logIndex": "0x3",
          "removed": false
        },
        {
          "address": "0x8E16e15381729fFEeDC4755f2Dcf6F5461f7F389",
          "topics": [
            "0xddf252ad1be2c89b69c2b068fc378daa952ba7f163c4a11628f55a4df523b3ef",
            "0x0000000000000000000000000000000000000000000000000000000000000000",
            "0x00000000000000000000000085c91c3dfa5c200a6ee9bc9d3085d02a2c95908b",
            "0x0000000000000000000000000000000000000000000000000000000000000046"
          ],
          "data": "0x",
          "blockHash": "0xbf958c11fc72f4aa804dbda07772a0edccb0a452a1350f59a3817c30c9ab8e11",
          "blockNumber": "0x8cec90",
          "transactionHash": "0x234d8202e000279e09df7aa60766736196f8906853db5d73fdf2257307f3972d",
          "transactionIndex": "0x2",
          "logIndex": "0x4",
          "removed": false
        },
        {
          "address": "0x8E16e15381729fFEeDC4755f2Dcf6F5461f7F389",
          "topics": [
            "0xddf252ad1be2c89b69c2b068fc378daa952ba7f163c4a11628f55a4df523b3ef",
            "0x0000000000000000000000000000000000000000000000000000000000000000",
            "0x00000000000000000000000085c91c3dfa5c200a6ee9bc9d3085d02a2c95908b",
            "0x0000000000000000000000000000000000000000000000000000000000000047"
          ],
          "data": "0x",
          "blockHash": "0xbf958c11fc72f4aa804dbda07772a0edccb0a452a1350f59a3817c30c9ab8e11",
          "blockNumber": "0x8cec90",
          "transactionHash": "0x234d8202e000279e09df7aa60766736196f8906853db5d73fdf2257307f3972d",
          "transactionIndex": "0x2",
          "logIndex": "0x5",
          "removed": false
        },
        {
          "address": "0x8E16e15381729fFEeDC4755f2Dcf6F5461f7F389",
          "topics": [
            "0xddf252ad1be2c89b69c2b068fc378daa952ba7f163c4a11628f55a4df523b3ef",
            "0x0000000000000000000000000000000000000000000000000000000000000000",
            "0x00000000000000000000000085c91c3dfa5c200a6ee9bc9d3085d02a2c95908b",
            "0x0000000000000000000000000000000000000000000000000000000000000048"
          ],
          "data": "0x",
          "blockHash": "0xbf958c11fc72f4aa804dbda07772a0edccb0a452a1350f59a3817c30c9ab8e11",
          "blockNumber": "0x8cec90",
          "transactionHash": "0x234d8202e000279e09df7aa60766736196f8906853db5d73fdf2257307f3972d",
          "transactionIndex": "0x2",
          "logIndex": "0x6",
          "removed": false
        },
        {
          "address": "0x8E16e15381729fFEeDC4755f2Dcf6F5461f7F389",
          "topics": [
            "0xddf252ad1be2c89b69c2b068fc378daa952ba7f163c4a11628f55a4df523b3ef",
            "0x0000000000000000000000000000000000000000000000000000000000000000",
            "0x00000000000000000000000085c91c3dfa5c200a6ee9bc9d3085d02a2c95908b",
            "0x0000000000000000000000000000000000000000000000000000000000000049"
          ],
          "data": "0x",
          "blockHash": "0xbf958c11fc72f4aa804dbda07772a0edccb0a452a1350f59a3817c30c9ab8e11",
          "blockNumber": "0x8cec90",
          "transactionHash": "0x234d8202e000279e09df7aa60766736196f8906853db5d73fdf2257307f3972d",
          "transactionIndex": "0x2",
          "logIndex": "0x7",
          "removed": false
        },
        {
          "address": "0x8E16e15381729fFEeDC4755f2Dcf6F5461f7F389",
          "topics": [
            "0xddf252ad1be2c89b69c2b068fc378daa952ba7f163c4a11628f55a4df523b3ef",
            "0x0000000000000000000000000000000000000000000000000000000000000000",
            "0x00000000000000000000000085c91c3dfa5c200a6ee9bc9d3085d02a2c95908b",
            "0x000000000000000000000000000000000000000000000000000000000000004a"
          ],
          "data": "0x",
          "blockHash": "0xbf958c11fc72f4aa804dbda07772a0edccb0a452a1350f59a3817c30c9ab8e11",
          "blockNumber": "0x8cec90",
          "transactionHash": "0x234d8202e000279e09df7aa60766736196f8906853db5d73fdf2257307f3972d",
          "transactionIndex": "0x2",
          "logIndex": "0x8",
          "removed": false
        },
        {
          "address": "0x8E16e15381729fFEeDC4755f2Dcf6F5461f7F389",
          "topics": [
            "0xddf252ad1be2c89b69c2b068fc378daa952ba7f163c4a11628f55a4df523b3ef",
            "0x0000000000000000000000000000000000000000000000000000000000000000",
            "0x00000000000000000000000085c91c3dfa5c200a6ee9bc9d3085d02a2c95908b",
            "0x000000000000000000000000000000000000000000000000000000000000004b"
          ],
          "data": "0x",
          "blockHash": "0xbf958c11fc72f4aa804dbda07772a0edccb0a452a1350f59a3817c30c9ab8e11",
          "blockNumber": "0x8cec90",
          "transactionHash": "0x234d8202e000279e09df7aa60766736196f8906853db5d73fdf2257307f3972d",
          "transactionIndex": "0x2",
          "logIndex": "0x9",
          "removed": false
        }
      ],
      "status": "0x1",
      "logsBloom": "0x00200010000010000001000000000000000080000000000000004000002000000000000000004000000000000001000000000000000000000000001000000000000000000000000000000808020000000000000000000000000008000000001000000200020010200000000000000800000000080000000010000010000000000000000000400000000000000000000000200000000000000000008400000000002000000000000000000000000400400000000000000000000000000400000040000002000000000000000000000100004000000240000000000000000020001000000080000000000000040000000000000000000000000000000000000400",
      "type": "0x2",
      "effectiveGasPrice": "0xb30842c3"
    }
  ],
  "libraries": [],
  "pending": [],
  "path": "/Users/jaclyn/Documents/code/fukuro/contracts/broadcast/MintAfropolitans.s.sol/5/run-latest.json",
  "returns": {},
  "timestamp": 1687657723,
  "chain": 5,
  "multi": false,
  "commit": "a55f0b8"
}