{
  "transactions": [
    {
      "hash": "0x9fba6e04972004a999b42965eec4d8d992667770f28d88ecab53e62ca6c430c9",
      "transactionType": "CALL",
      "contractName": "AfropolitanNFT",
      "contractAddress": "0x8E16e15381729fFEeDC4755f2Dcf6F5461f7F389",
      "function": "mintTo(address,uint256)",
      "arguments": [
        "0x85C91C3DfA5c200a6Ee9Bc9d3085d02A2c95908b",
        "10"
      ],
      "rpc": "https://eth-goerli.g.alchemy.com/v2/B81B-tXiOVtE5bt8bJkX5Gqi3s2R1fgZ",
      "transaction": {
        "type": "0x02",
        "from": "0x85c91c3dfa5c200a6ee9bc9d3085d02a2c95908b",
        "to": "0x8e16e15381729ffeedc4755f2dcf6f5461f7f389",
        "gas": "0x6cff3",
        "value": "0x470de4df820000",
        "data": "0x449a52f800000000000000000000000085c91c3dfa5c200a6ee9bc9d3085d02a2c95908b000000000000000000000000000000000000000000000000000000000000000a",
        "nonce": "0x41",
        "accessList": []
      },
      "additionalContracts": [],
      "isFixedGasLimit": false
    }
  ],
  "receipts": [
    {
      "transactionHash": "0x9fba6e04972004a999b42965eec4d8d992667770f28d88ecab53e62ca6c430c9",
      "transactionIndex": "0x8",
      "blockHash": "0xa8c7b22e29c3736a12c6c2853d35ae49ef457088a318a5df2a9ef1c3994c6dad",
      "blockNumber": "0x8ceaf3",
      "from": "0x85C91C3DfA5c200a6Ee9Bc9d3085d02A2c95908b",
      "to": "0x8E16e15381729fFEeDC4755f2Dcf6F5461f7F389",
      "cumulativeGasUsed": "0xb532b",
      "gasUsed": "0x4a872",
      "contractAddress": null,
      "logs": [
        {
          "address": "0x8E16e15381729fFEeDC4755f2Dcf6F5461f7F389",
          "topics": [
            "0xddf252ad1be2c89b69c2b068fc378daa952ba7f163c4a11628f55a4df523b3ef",
            "0x0000000000000000000000000000000000000000000000000000000000000000",
            "0x00000000000000000000000085c91c3dfa5c200a6ee9bc9d3085d02a2c95908b",
            "0x0000000000000000000000000000000000000000000000000000000000000024"
          ],
          "data": "0x",
          "blockHash": "0xa8c7b22e29c3736a12c6c2853d35ae49ef457088a318a5df2a9ef1c3994c6dad",
          "blockNumber": "0x8ceaf3",
          "transactionHash": "0x9fba6e04972004a999b42965eec4d8d992667770f28d88ecab53e62ca6c430c9",
          "transactionIndex": "0x8",
          "logIndex": "0x6",
          "removed": false
        },
        {
          "address": "0x8E16e15381729fFEeDC4755f2Dcf6F5461f7F389",
          "topics": [
            "0xddf252ad1be2c89b69c2b068fc378daa952ba7f163c4a11628f55a4df523b3ef",
            "0x0000000000000000000000000000000000000000000000000000000000000000",
            "0x00000000000000000000000085c91c3dfa5c200a6ee9bc9d3085d02a2c95908b",
            "0x0000000000000000000000000000000000000000000000000000000000000025"
          ],
          "data": "0x",
          "blockHash": "0xa8c7b22e29c3736a12c6c2853d35ae49ef457088a318a5df2a9ef1c3994c6dad",
          "blockNumber": "0x8ceaf3",
          "transactionHash": "0x9fba6e04972004a999b42965eec4d8d992667770f28d88ecab53e62ca6c430c9",
          "transactionIndex": "0x8",
          "logIndex": "0x7",
          "removed": false
        },
        {
          "address": "0x8E16e15381729fFEeDC4755f2Dcf6F5461f7F389",
          "topics": [
            "0xddf252ad1be2c89b69c2b068fc378daa952ba7f163c4a11628f55a4df523b3ef",
            "0x0000000000000000000000000000000000000000000000000000000000000000",
            "0x00000000000000000000000085c91c3dfa5c200a6ee9bc9d3085d02a2c95908b",
            "0x0000000000000000000000000000000000000000000000000000000000000026"
          ],
          "data": "0x",
          "blockHash": "0xa8c7b22e29c3736a12c6c2853d35ae49ef457088a318a5df2a9ef1c3994c6dad",
          "blockNumber": "0x8ceaf3",
          "transactionHash": "0x9fba6e04972004a999b42965eec4d8d992667770f28d88ecab53e62ca6c430c9",
          "transactionIndex": "0x8",
          "logIndex": "0x8",
          "removed": false
        },
        {
          "address": "0x8E16e15381729fFEeDC4755f2Dcf6F5461f7F389",
          "topics": [
            "0xddf252ad1be2c89b69c2b068fc378daa952ba7f163c4a11628f55a4df523b3ef",
            "0x0000000000000000000000000000000000000000000000000000000000000000",
            "0x00000000000000000000000085c91c3dfa5c200a6ee9bc9d3085d02a2c95908b",
            "0x0000000000000000000000000000000000000000000000000000000000000027"
          ],
          "data": "0x",
          "blockHash": "0xa8c7b22e29c3736a12c6c2853d35ae49ef457088a318a5df2a9ef1c3994c6dad",
          "blockNumber": "0x8ceaf3",
          "transactionHash": "0x9fba6e04972004a999b42965eec4d8d992667770f28d88ecab53e62ca6c430c9",
          "transactionIndex": "0x8",
          "logIndex": "0x9",
          "removed": false
        },
        {
          "address": "0x8E16e15381729fFEeDC4755f2Dcf6F5461f7F389",
          "topics": [
            "0xddf252ad1be2c89b69c2b068fc378daa952ba7f163c4a11628f55a4df523b3ef",
            "0x0000000000000000000000000000000000000000000000000000000000000000",
            "0x00000000000000000000000085c91c3dfa5c200a6ee9bc9d3085d02a2c95908b",
            "0x0000000000000000000000000000000000000000000000000000000000000028"
          ],
          "data": "0x",
          "blockHash": "0xa8c7b22e29c3736a12c6c2853d35ae49ef457088a318a5df2a9ef1c3994c6dad",
          "blockNumber": "0x8ceaf3",
          "transactionHash": "0x9fba6e04972004a999b42965eec4d8d992667770f28d88ecab53e62ca6c430c9",
          "transactionIndex": "0x8",
          "logIndex": "0xa",
          "removed": false
        },
        {
          "address": "0x8E16e15381729fFEeDC4755f2Dcf6F5461f7F389",
          "topics": [
            "0xddf252ad1be2c89b69c2b068fc378daa952ba7f163c4a11628f55a4df523b3ef",
            "0x0000000000000000000000000000000000000000000000000000000000000000",
            "0x00000000000000000000000085c91c3dfa5c200a6ee9bc9d3085d02a2c95908b",
            "0x0000000000000000000000000000000000000000000000000000000000000029"
          ],
          "data": "0x",
          "blockHash": "0xa8c7b22e29c3736a12c6c2853d35ae49ef457088a318a5df2a9ef1c3994c6dad",
          "blockNumber": "0x8ceaf3",
          "transactionHash": "0x9fba6e04972004a999b42965eec4d8d992667770f28d88ecab53e62ca6c430c9",
          "transactionIndex": "0x8",
          "logIndex": "0xb",
          "removed": false
        },
        {
          "address": "0x8E16e15381729fFEeDC4755f2Dcf6F5461f7F389",
          "topics": [
            "0xddf252ad1be2c89b69c2b068fc378daa952ba7f163c4a11628f55a4df523b3ef",
            "0x0000000000000000000000000000000000000000000000000000000000000000",
            "0x00000000000000000000000085c91c3dfa5c200a6ee9bc9d3085d02a2c95908b",
            "0x000000000000000000000000000000000000000000000000000000000000002a"
          ],
          "data": "0x",
          "blockHash": "0xa8c7b22e29c3736a12c6c2853d35ae49ef457088a318a5df2a9ef1c3994c6dad",
          "blockNumber": "0x8ceaf3",
          "transactionHash": "0x9fba6e04972004a999b42965eec4d8d992667770f28d88ecab53e62ca6c430c9",
          "transactionIndex": "0x8",
          "logIndex": "0xc",
          "removed": false
        },
        {
          "address": "0x8E16e15381729fFEeDC4755f2Dcf6F5461f7F389",
          "topics": [
            "0xddf252ad1be2c89b69c2b068fc378daa952ba7f163c4a11628f55a4df523b3ef",
            "0x0000000000000000000000000000000000000000000000000000000000000000",
            "0x00000000000000000000000085c91c3dfa5c200a6ee9bc9d3085d02a2c95908b",
            "0x000000000000000000000000000000000000000000000000000000000000002b"
          ],
          "data": "0x",
          "blockHash": "0xa8c7b22e29c3736a12c6c2853d35ae49ef457088a318a5df2a9ef1c3994c6dad",
          "blockNumber": "0x8ceaf3",
          "transactionHash": "0x9fba6e04972004a999b42965eec4d8d992667770f28d88ecab53e62ca6c430c9",
          "transactionIndex": "0x8",
          "logIndex": "0xd",
          "removed": false
        },
        {
          "address": "0x8E16e15381729fFEeDC4755f2Dcf6F5461f7F389",
          "topics": [
            "0xddf252ad1be2c89b69c2b068fc378daa952ba7f163c4a11628f55a4df523b3ef",
            "0x0000000000000000000000000000000000000000000000000000000000000000",
            "0x00000000000000000000000085c91c3dfa5c200a6ee9bc9d3085d02a2c95908b",
            "0x000000000000000000000000000000000000000000000000000000000000002c"
          ],
          "data": "0x",
          "blockHash": "0xa8c7b22e29c3736a12c6c2853d35ae49ef457088a318a5df2a9ef1c3994c6dad",
          "blockNumber": "0x8ceaf3",
          "transactionHash": "0x9fba6e04972004a999b42965eec4d8d992667770f28d88ecab53e62ca6c430c9",
          "transactionIndex": "0x8",
          "logIndex": "0xe",
          "removed": false
        },
        {
          "address": "0x8E16e15381729fFEeDC4755f2Dcf6F5461f7F389",
          "topics": [
            "0xddf252ad1be2c89b69c2b068fc378daa952ba7f163c4a11628f55a4df523b3ef",
            "0x0000000000000000000000000000000000000000000000000000000000000000",
            "0x00000000000000000000000085c91c3dfa5c200a6ee9bc9d3085d02a2c95908b",
            "0x000000000000000000000000000000000000000000000000000000000000002d"
          ],
          "data": "0x",
          "blockHash": "0xa8c7b22e29c3736a12c6c2853d35ae49ef457088a318a5df2a9ef1c3994c6dad",
          "blockNumber": "0x8ceaf3",
          "transactionHash": "0x9fba6e04972004a999b42965eec4d8d992667770f28d88ecab53e62ca6c430c9",
          "transactionIndex": "0x8",
          "logIndex": "0xf",
          "removed": false
        }
      ],
      "status": "0x1",
      "logsBloom": "0x00000000000000000000000000008000000000000000000000004000000000000002000000004000000000000000000000000000000001000000000400000000000000000000000000800808000000000001000000000000000008000000000001000000020850000000000100000800000000000000040000000010004000000000000000000000000000000008000010200000000000000000000000000000000000000102000000000002000000000000000000000000000010000000000000000002000000100000000000000000000020000000000800000008400020108000000000000000000000140020000008000000000000000000000002000000",
      "type": "0x2",
      "effectiveGasPrice": "0xb3342a46"
    }
  ],
  "libraries": [],
  "pending": [],
  "path": "/Users/jaclyn/Documents/code/fukuro/contracts/broadcast/MintAfropolitans.s.sol/5/run-latest.json",
  "returns": {},
  "timestamp": 1687651349,
  "chain": 5,
  "multi": false,
  "commit": "3eca4b7"
}