{
  "transactions": [
    {
      "hash": "0x6af3a48aa8c8094fb1948976e4df86ef644bbf388dc00c354425da8ae84de7a7",
      "transactionType": "CALL",
      "contractName": "AfropolitanNFT",
      "contractAddress": "0x8E16e15381729fFEeDC4755f2Dcf6F5461f7F389",
      "function": "mintTo(address,uint256)",
      "arguments": [
        "0x85C91C3DfA5c200a6Ee9Bc9d3085d02A2c95908b",
        "10"
      ],
      "rpc": "https://eth-goerli.g.alchemy.com/v2/B81B-tXiOVtE5bt8bJkX5Gqi3s2R1fgZ",
      "transaction": {
        "type": "0x02",
        "from": "0x85c91c3dfa5c200a6ee9bc9d3085d02a2c95908b",
        "to": "0x8e16e15381729ffeedc4755f2dcf6f5461f7f389",
        "gas": "0x612cc",
        "value": "0x470de4df820000",
        "data": "0x449a52f800000000000000000000000085c91c3dfa5c200a6ee9bc9d3085d02a2c95908b000000000000000000000000000000000000000000000000000000000000000a",
        "nonce": "0x42",
        "accessList": []
      },
      "additionalContracts": [],
      "isFixedGasLimit": false
    }
  ],
  "receipts": [
    {
      "transactionHash": "0x6af3a48aa8c8094fb1948976e4df86ef644bbf388dc00c354425da8ae84de7a7",
      "transactionIndex": "0x0",
      "blockHash": "0xe86659b4dfbd5fd325ad54f43d5bfeb6b2dc8002a57d759f5a2bb7cec03cf52a",
      "blockNumber": "0x8ceaf5",
      "from": "0x85C91C3DfA5c200a6Ee9Bc9d3085d02A2c95908b",
      "to": "0x8E16e15381729fFEeDC4755f2Dcf6F5461f7F389",
      "cumulativeGasUsed": "0x465a6",
      "gasUsed": "0x465a6",
      "contractAddress": null,
      "logs": [
        {
          "address": "0x8E16e15381729fFEeDC4755f2Dcf6F5461f7F389",
          "topics": [
            "0xddf252ad1be2c89b69c2b068fc378daa952ba7f163c4a11628f55a4df523b3ef",
            "0x0000000000000000000000000000000000000000000000000000000000000000",
            "0x00000000000000000000000085c91c3dfa5c200a6ee9bc9d3085d02a2c95908b",
            "0x000000000000000000000000000000000000000000000000000000000000002e"
          ],
          "data": "0x",
          "blockHash": "0xe86659b4dfbd5fd325ad54f43d5bfeb6b2dc8002a57d759f5a2bb7cec03cf52a",
          "blockNumber": "0x8ceaf5",
          "transactionHash": "0x6af3a48aa8c8094fb1948976e4df86ef644bbf388dc00c354425da8ae84de7a7",
          "transactionIndex": "0x0",
          "logIndex": "0x0",
          "removed": false
        },
        {
          "address": "0x8E16e15381729fFEeDC4755f2Dcf6F5461f7F389",
          "topics": [
            "0xddf252ad1be2c89b69c2b068fc378daa952ba7f163c4a11628f55a4df523b3ef",
            "0x0000000000000000000000000000000000000000000000000000000000000000",
            "0x00000000000000000000000085c91c3dfa5c200a6ee9bc9d3085d02a2c95908b",
            "0x000000000000000000000000000000000000000000000000000000000000002f"
          ],
          "data": "0x",
          "blockHash": "0xe86659b4dfbd5fd325ad54f43d5bfeb6b2dc8002a57d759f5a2bb7cec03cf52a",
          "blockNumber": "0x8ceaf5",
          "transactionHash": "0x6af3a48aa8c8094fb1948976e4df86ef644bbf388dc00c354425da8ae84de7a7",
          "transactionIndex": "0x0",
          "logIndex": "0x1",
          "removed": false
        },
        {
          "address": "0x8E16e15381729fFEeDC4755f2Dcf6F5461f7F389",
          "topics": [
            "0xddf252ad1be2c89b69c2b068fc378daa952ba7f163c4a11628f55a4df523b3ef",
            "0x0000000000000000000000000000000000000000000000000000000000000000",
            "0x00000000000000000000000085c91c3dfa5c200a6ee9bc9d3085d02a2c95908b",
            "0x0000000000000000000000000000000000000000000000000000000000000030"
          ],
          "data": "0x",
          "blockHash": "0xe86659b4dfbd5fd325ad54f43d5bfeb6b2dc8002a57d759f5a2bb7cec03cf52a",
          "blockNumber": "0x8ceaf5",
          "transactionHash": "0x6af3a48aa8c8094fb1948976e4df86ef644bbf388dc00c354425da8ae84de7a7",
          "transactionIndex": "0x0",
          "logIndex": "0x2",
          "removed": false
        },
        {
          "address": "0x8E16e15381729fFEeDC4755f2Dcf6F5461f7F389",
          "topics": [
            "0xddf252ad1be2c89b69c2b068fc378daa952ba7f163c4a11628f55a4df523b3ef",
            "0x0000000000000000000000000000000000000000000000000000000000000000",
            "0x00000000000000000000000085c91c3dfa5c200a6ee9bc9d3085d02a2c95908b",
            "0x0000000000000000000000000000000000000000000000000000000000000031"
          ],
          "data": "0x",
          "blockHash": "0xe86659b4dfbd5fd325ad54f43d5bfeb6b2dc8002a57d759f5a2bb7cec03cf52a",
          "blockNumber": "0x8ceaf5",
          "transactionHash": "0x6af3a48aa8c8094fb1948976e4df86ef644bbf388dc00c354425da8ae84de7a7",
          "transactionIndex": "0x0",
          "logIndex": "0x3",
          "removed": false
        },
        {
          "address": "0x8E16e15381729fFEeDC4755f2Dcf6F5461f7F389",
          "topics": [
            "0xddf252ad1be2c89b69c2b068fc378daa952ba7f163c4a11628f55a4df523b3ef",
            "0x0000000000000000000000000000000000000000000000000000000000000000",
            "0x00000000000000000000000085c91c3dfa5c200a6ee9bc9d3085d02a2c95908b",
            "0x0000000000000000000000000000000000000000000000000000000000000032"
          ],
          "data": "0x",
          "blockHash": "0xe86659b4dfbd5fd325ad54f43d5bfeb6b2dc8002a57d759f5a2bb7cec03cf52a",
          "blockNumber": "0x8ceaf5",
          "transactionHash": "0x6af3a48aa8c8094fb1948976e4df86ef644bbf388dc00c354425da8ae84de7a7",
          "transactionIndex": "0x0",
          "logIndex": "0x4",
          "removed": false
        },
        {
          "address": "0x8E16e15381729fFEeDC4755f2Dcf6F5461f7F389",
          "topics": [
            "0xddf252ad1be2c89b69c2b068fc378daa952ba7f163c4a11628f55a4df523b3ef",
            "0x0000000000000000000000000000000000000000000000000000000000000000",
            "0x00000000000000000000000085c91c3dfa5c200a6ee9bc9d3085d02a2c95908b",
            "0x0000000000000000000000000000000000000000000000000000000000000033"
          ],
          "data": "0x",
          "blockHash": "0xe86659b4dfbd5fd325ad54f43d5bfeb6b2dc8002a57d759f5a2bb7cec03cf52a",
          "blockNumber": "0x8ceaf5",
          "transactionHash": "0x6af3a48aa8c8094fb1948976e4df86ef644bbf388dc00c354425da8ae84de7a7",
          "transactionIndex": "0x0",
          "logIndex": "0x5",
          "removed": false
        },
        {
          "address": "0x8E16e15381729fFEeDC4755f2Dcf6F5461f7F389",
          "topics": [
            "0xddf252ad1be2c89b69c2b068fc378daa952ba7f163c4a11628f55a4df523b3ef",
            "0x0000000000000000000000000000000000000000000000000000000000000000",
            "0x00000000000000000000000085c91c3dfa5c200a6ee9bc9d3085d02a2c95908b",
            "0x0000000000000000000000000000000000000000000000000000000000000034"
          ],
          "data": "0x",
          "blockHash": "0xe86659b4dfbd5fd325ad54f43d5bfeb6b2dc8002a57d759f5a2bb7cec03cf52a",
          "blockNumber": "0x8ceaf5",
          "transactionHash": "0x6af3a48aa8c8094fb1948976e4df86ef644bbf388dc00c354425da8ae84de7a7",
          "transactionIndex": "0x0",
          "logIndex": "0x6",
          "removed": false
        },
        {
          "address": "0x8E16e15381729fFEeDC4755f2Dcf6F5461f7F389",
          "topics": [
            "0xddf252ad1be2c89b69c2b068fc378daa952ba7f163c4a11628f55a4df523b3ef",
            "0x0000000000000000000000000000000000000000000000000000000000000000",
            "0x00000000000000000000000085c91c3dfa5c200a6ee9bc9d3085d02a2c95908b",
            "0x0000000000000000000000000000000000000000000000000000000000000035"
          ],
          "data": "0x",
          "blockHash": "0xe86659b4dfbd5fd325ad54f43d5bfeb6b2dc8002a57d759f5a2bb7cec03cf52a",
          "blockNumber": "0x8ceaf5",
          "transactionHash": "0x6af3a48aa8c8094fb1948976e4df86ef644bbf388dc00c354425da8ae84de7a7",
          "transactionIndex": "0x0",
          "logIndex": "0x7",
          "removed": false
        },
        {
          "address": "0x8E16e15381729fFEeDC4755f2Dcf6F5461f7F389",
          "topics": [
            "0xddf252ad1be2c89b69c2b068fc378daa952ba7f163c4a11628f55a4df523b3ef",
            "0x0000000000000000000000000000000000000000000000000000000000000000",
            "0x00000000000000000000000085c91c3dfa5c200a6ee9bc9d3085d02a2c95908b",
            "0x0000000000000000000000000000000000000000000000000000000000000036"
          ],
          "data": "0x",
          "blockHash": "0xe86659b4dfbd5fd325ad54f43d5bfeb6b2dc8002a57d759f5a2bb7cec03cf52a",
          "blockNumber": "0x8ceaf5",
          "transactionHash": "0x6af3a48aa8c8094fb1948976e4df86ef644bbf388dc00c354425da8ae84de7a7",
          "transactionIndex": "0x0",
          "logIndex": "0x8",
          "removed": false
        },
        {
          "address": "0x8E16e15381729fFEeDC4755f2Dcf6F5461f7F389",
          "topics": [
            "0xddf252ad1be2c89b69c2b068fc378daa952ba7f163c4a11628f55a4df523b3ef",
            "0x0000000000000000000000000000000000000000000000000000000000000000",
            "0x00000000000000000000000085c91c3dfa5c200a6ee9bc9d3085d02a2c95908b",
            "0x0000000000000000000000000000000000000000000000000000000000000037"
          ],
          "data": "0x",
          "blockHash": "0xe86659b4dfbd5fd325ad54f43d5bfeb6b2dc8002a57d759f5a2bb7cec03cf52a",
          "blockNumber": "0x8ceaf5",
          "transactionHash": "0x6af3a48aa8c8094fb1948976e4df86ef644bbf388dc00c354425da8ae84de7a7",
          "transactionIndex": "0x0",
          "logIndex": "0x9",
          "removed": false
        }
      ],
      "status": "0x1",
      "logsBloom": "0x06000000200000000000001000000000000080000000000000004000000000000002000000000002200000000000000000001000000000000000000000000000040000000000000080000808000000000000000000000001000008000000000000000000020010000000000000000800000040000000000000000010000000000000000040000000000000000000000000200000000000000000020000020000000001000000000000000080000000000000000002000000000000000002000000000002800000000000000000000000000000000000400000000000000820000000020000000000000002040000000000000000100004000000000000080000",
      "type": "0x2",
      "effectiveGasPrice": "0xb337494d"
    }
  ],
  "libraries": [],
  "pending": [],
  "path": "/Users/jaclyn/Documents/code/fukuro/contracts/broadcast/MintAfropolitans.s.sol/5/run-latest.json",
  "returns": {},
  "timestamp": 1687651373,
  "chain": 5,
  "multi": false,
  "commit": "3eca4b7"
}