{
  "transactions": [
    {
      "hash": "0xb7134e4a49bc2a6213b85247cf1f6b4844c1e8c298b6c8a2249dd104856aad29",
      "transactionType": "CALL",
      "contractName": "AfropolitanNFT",
      "contractAddress": "0x8E16e15381729fFEeDC4755f2Dcf6F5461f7F389",
      "function": "mintTo(address,uint256)",
      "arguments": [
        "0x85C91C3DfA5c200a6Ee9Bc9d3085d02A2c95908b",
        "10"
      ],
      "rpc": "https://eth-goerli.g.alchemy.com/v2/B81B-tXiOVtE5bt8bJkX5Gqi3s2R1fgZ",
      "transaction": {
        "type": "0x02",
        "from": "0x85c91c3dfa5c200a6ee9bc9d3085d02a2c95908b",
        "to": "0x8e16e15381729ffeedc4755f2dcf6f5461f7f389",
        "gas": "0x6cff3",
        "value": "0x470de4df820000",
        "data": "0x449a52f800000000000000000000000085c91c3dfa5c200a6ee9bc9d3085d02a2c95908b000000000000000000000000000000000000000000000000000000000000000a",
        "nonce": "0x2b",
        "accessList": []
      },
      "additionalContracts": [],
      "isFixedGasLimit": false
    }
  ],
  "receipts": [],
  "libraries": [],
  "pending": [
    "0xb7134e4a49bc2a6213b85247cf1f6b4844c1e8c298b6c8a2249dd104856aad29"
  ],
  "path": "/Users/jaclyn/Documents/code/fukuro/contracts/broadcast/MintAfropolitans.s.sol/5/run-latest.json",
  "returns": {},
  "timestamp": 1687643787,
  "chain": 5,
  "multi": false,
  "commit": "4be9733"
}