{
  "transactions": [
    {
      "hash": "0xdf4f551dad5ef6d8bc6d8c72b33fb3fda8411a09b47ab9ba9de01dd80de8105c",
      "transactionType": "CALL",
      "contractName": "ERC6551Registry",
      "contractAddress": "0x02101dfB77FDE026414827Fdc604ddAF224F0921",
      "function": "createAccount(address,uint256,address,uint256,uint256,bytes):(address)",
      "arguments": [
        "0xDA6c577241cB047628a370802D0CD20319F307B7",
        "5",
        "0xA6d32Be299C481c7C689b6f7238A1cE1b5A3213d",
        "35",
        "0",
        "0x"
      ],
      "rpc": "https://eth-goerli.g.alchemy.com/v2/B81B-tXiOVtE5bt8bJkX5Gqi3s2R1fgZ",
      "transaction": {
        "type": "0x02",
        "from": "0x85c91c3dfa5c200a6ee9bc9d3085d02a2c95908b",
        "to": "0x02101dfb77fde026414827fdc604ddaf224f0921",
        "gas": "0x9a58",
        "value": "0x0",
        "data": "0xda7323b3000000000000000000000000da6c577241cb047628a370802d0cd20319f307b70000000000000000000000000000000000000000000000000000000000000005000000000000000000000000a6d32be299c481c7c689b6f7238a1ce1b5a3213d0000000000000000000000000000000000000000000000000000000000000023000000000000000000000000000000000000000000000000000000000000000000000000000000000000000000000000000000000000000000000000000000c00000000000000000000000000000000000000000000000000000000000000000",
        "nonce": "0x74",
        "accessList": []
      },
      "additionalContracts": [],
      "isFixedGasLimit": false
    },
    {
      "hash": "0x0495c99b8e626cef43b0686b260a7c92053c98209e24863d689ea3ab68410ac3",
      "transactionType": "CALL",
      "contractName": "ERC6551Registry",
      "contractAddress": "0x02101dfB77FDE026414827Fdc604ddAF224F0921",
      "function": "createAccount(address,uint256,address,uint256,uint256,bytes):(address)",
      "arguments": [
        "0xDA6c577241cB047628a370802D0CD20319F307B7",
        "5",
        "0xA6d32Be299C481c7C689b6f7238A1cE1b5A3213d",
        "36",
        "0",
        "0x"
      ],
      "rpc": "https://eth-goerli.g.alchemy.com/v2/B81B-tXiOVtE5bt8bJkX5Gqi3s2R1fgZ",
      "transaction": {
        "type": "0x02",
        "from": "0x85c91c3dfa5c200a6ee9bc9d3085d02a2c95908b",
        "to": "0x02101dfb77fde026414827fdc604ddaf224f0921",
        "gas": "0x9a58",
        "value": "0x0",
        "data": "0xda7323b3000000000000000000000000da6c577241cb047628a370802d0cd20319f307b70000000000000000000000000000000000000000000000000000000000000005000000000000000000000000a6d32be299c481c7c689b6f7238a1ce1b5a3213d0000000000000000000000000000000000000000000000000000000000000024000000000000000000000000000000000000000000000000000000000000000000000000000000000000000000000000000000000000000000000000000000c00000000000000000000000000000000000000000000000000000000000000000",
        "nonce": "0x75",
        "accessList": []
      },
      "additionalContracts": [],
      "isFixedGasLimit": false
    },
    {
      "hash": "0xcdb5256e66985e6bcb701384d14d81081bae119a5634398966676b74b1efb073",
      "transactionType": "CALL",
      "contractName": "ERC6551Registry",
      "contractAddress": "0x02101dfB77FDE026414827Fdc604ddAF224F0921",
      "function": "createAccount(address,uint256,address,uint256,uint256,bytes):(address)",
      "arguments": [
        "0xDA6c577241cB047628a370802D0CD20319F307B7",
        "5",
        "0xA6d32Be299C481c7C689b6f7238A1cE1b5A3213d",
        "37",
        "0",
        "0x"
      ],
      "rpc": "https://eth-goerli.g.alchemy.com/v2/B81B-tXiOVtE5bt8bJkX5Gqi3s2R1fgZ",
      "transaction": {
        "type": "0x02",
        "from": "0x85c91c3dfa5c200a6ee9bc9d3085d02a2c95908b",
        "to": "0x02101dfb77fde026414827fdc604ddaf224f0921",
        "gas": "0x9a58",
        "value": "0x0",
        "data": "0xda7323b3000000000000000000000000da6c577241cb047628a370802d0cd20319f307b70000000000000000000000000000000000000000000000000000000000000005000000000000000000000000a6d32be299c481c7c689b6f7238a1ce1b5a3213d0000000000000000000000000000000000000000000000000000000000000025000000000000000000000000000000000000000000000000000000000000000000000000000000000000000000000000000000000000000000000000000000c00000000000000000000000000000000000000000000000000000000000000000",
        "nonce": "0x76",
        "accessList": []
      },
      "additionalContracts": [],
      "isFixedGasLimit": false
    },
    {
      "hash": "0x1fdc41cb8550e34b27e32abb3140f59e2155aa8a9c4571820c48b25d1bde191f",
      "transactionType": "CALL",
      "contractName": "AfropolitanNFT",
      "contractAddress": "0x8E16e15381729fFEeDC4755f2Dcf6F5461f7F389",
      "function": "transferFrom(address,address,uint256)",
      "arguments": [
        "0x85C91C3DfA5c200a6Ee9Bc9d3085d02A2c95908b",
        "0x7C3c4B9f12bc91a7C39708FFC7d282720E36c0cb",
        "66"
      ],
      "rpc": "https://eth-goerli.g.alchemy.com/v2/B81B-tXiOVtE5bt8bJkX5Gqi3s2R1fgZ",
      "transaction": {
        "type": "0x02",
        "from": "0x85c91c3dfa5c200a6ee9bc9d3085d02a2c95908b",
        "to": "0x8e16e15381729ffeedc4755f2dcf6f5461f7f389",
        "gas": "0xe813",
        "value": "0x0",
        "data": "0x23b872dd00000000000000000000000085c91c3dfa5c200a6ee9bc9d3085d02a2c95908b0000000000000000000000007c3c4b9f12bc91a7c39708ffc7d282720e36c0cb0000000000000000000000000000000000000000000000000000000000000042",
        "nonce": "0x77",
        "accessList": []
      },
      "additionalContracts": [],
      "isFixedGasLimit": false
    },
    {
      "hash": "0xed3355f5c767f9339f547198337a1a07ec9d17102c950ac3cd617c7c3adf4e16",
      "transactionType": "CALL",
      "contractName": "AfropolitanNFT",
      "contractAddress": "0x8E16e15381729fFEeDC4755f2Dcf6F5461f7F389",
      "function": "transferFrom(address,address,uint256)",
      "arguments": [
        "0x85C91C3DfA5c200a6Ee9Bc9d3085d02A2c95908b",
        "0x7C3c4B9f12bc91a7C39708FFC7d282720E36c0cb",
        "67"
      ],
      "rpc": "https://eth-goerli.g.alchemy.com/v2/B81B-tXiOVtE5bt8bJkX5Gqi3s2R1fgZ",
      "transaction": {
        "type": "0x02",
        "from": "0x85c91c3dfa5c200a6ee9bc9d3085d02a2c95908b",
        "to": "0x8e16e15381729ffeedc4755f2dcf6f5461f7f389",
        "gas": "0xe813",
        "value": "0x0",
        "data": "0x23b872dd00000000000000000000000085c91c3dfa5c200a6ee9bc9d3085d02a2c95908b0000000000000000000000007c3c4b9f12bc91a7c39708ffc7d282720e36c0cb0000000000000000000000000000000000000000000000000000000000000043",
        "nonce": "0x78",
        "accessList": []
      },
      "additionalContracts": [],
      "isFixedGasLimit": false
    },
    {
      "hash": "0x2cf6cad1f1dfeb78ca227df0c618dc8208b7641e778f488cabb4fb42073252d6",
      "transactionType": "CALL",
      "contractName": "AfropolitanNFT",
      "contractAddress": "0x8E16e15381729fFEeDC4755f2Dcf6F5461f7F389",
      "function": "transferFrom(address,address,uint256)",
      "arguments": [
        "0x85C91C3DfA5c200a6Ee9Bc9d3085d02A2c95908b",
        "0x7C3c4B9f12bc91a7C39708FFC7d282720E36c0cb",
        "68"
      ],
      "rpc": "https://eth-goerli.g.alchemy.com/v2/B81B-tXiOVtE5bt8bJkX5Gqi3s2R1fgZ",
      "transaction": {
        "type": "0x02",
        "from": "0x85c91c3dfa5c200a6ee9bc9d3085d02a2c95908b",
        "to": "0x8e16e15381729ffeedc4755f2dcf6f5461f7f389",
        "gas": "0xe813",
        "value": "0x0",
        "data": "0x23b872dd00000000000000000000000085c91c3dfa5c200a6ee9bc9d3085d02a2c95908b0000000000000000000000007c3c4b9f12bc91a7c39708ffc7d282720e36c0cb0000000000000000000000000000000000000000000000000000000000000044",
        "nonce": "0x79",
        "accessList": []
      },
      "additionalContracts": [],
      "isFixedGasLimit": false
    },
    {
      "hash": "0x8e783978558cde62f9aaa71e636db3bd58dbec8d87940a1d56e59bd8966572f8",
      "transactionType": "CALL",
      "contractName": "AfropolitanNFT",
      "contractAddress": "0x8E16e15381729fFEeDC4755f2Dcf6F5461f7F389",
      "function": "transferFrom(address,address,uint256)",
      "arguments": [
        "0x85C91C3DfA5c200a6Ee9Bc9d3085d02A2c95908b",
        "0x67dD11Bce4f62D14111715f19E0426556b7F0Ded",
        "69"
      ],
      "rpc": "https://eth-goerli.g.alchemy.com/v2/B81B-tXiOVtE5bt8bJkX5Gqi3s2R1fgZ",
      "transaction": {
        "type": "0x02",
        "from": "0x85c91c3dfa5c200a6ee9bc9d3085d02a2c95908b",
        "to": "0x8e16e15381729ffeedc4755f2dcf6f5461f7f389",
        "gas": "0x1576b",
        "value": "0x0",
        "data": "0x23b872dd00000000000000000000000085c91c3dfa5c200a6ee9bc9d3085d02a2c95908b00000000000000000000000067dd11bce4f62d14111715f19e0426556b7f0ded0000000000000000000000000000000000000000000000000000000000000045",
        "nonce": "0x7a",
        "accessList": []
      },
      "additionalContracts": [],
      "isFixedGasLimit": false
    },
    {
      "hash": "0x07f3eb2c158c1542415d913234860f085ab7ffa103b945a75882ce6493ddc5f2",
      "transactionType": "CALL",
      "contractName": "AfropolitanNFT",
      "contractAddress": "0x8E16e15381729fFEeDC4755f2Dcf6F5461f7F389",
      "function": "transferFrom(address,address,uint256)",
      "arguments": [
        "0x85C91C3DfA5c200a6Ee9Bc9d3085d02A2c95908b",
        "0x67dD11Bce4f62D14111715f19E0426556b7F0Ded",
        "70"
      ],
      "rpc": "https://eth-goerli.g.alchemy.com/v2/B81B-tXiOVtE5bt8bJkX5Gqi3s2R1fgZ",
      "transaction": {
        "type": "0x02",
        "from": "0x85c91c3dfa5c200a6ee9bc9d3085d02a2c95908b",
        "to": "0x8e16e15381729ffeedc4755f2dcf6f5461f7f389",
        "gas": "0xe813",
        "value": "0x0",
        "data": "0x23b872dd00000000000000000000000085c91c3dfa5c200a6ee9bc9d3085d02a2c95908b00000000000000000000000067dd11bce4f62d14111715f19e0426556b7f0ded0000000000000000000000000000000000000000000000000000000000000046",
        "nonce": "0x7b",
        "accessList": []
      },
      "additionalContracts": [],
      "isFixedGasLimit": false
    },
    {
      "hash": "0x58a16358d430267ed901506b7b4dbbc5e164f808a108c4058f7bc1e65f34fb21",
      "transactionType": "CALL",
      "contractName": "AfropolitanNFT",
      "contractAddress": "0x8E16e15381729fFEeDC4755f2Dcf6F5461f7F389",
      "function": "transferFrom(address,address,uint256)",
      "arguments": [
        "0x85C91C3DfA5c200a6Ee9Bc9d3085d02A2c95908b",
        "0x67dD11Bce4f62D14111715f19E0426556b7F0Ded",
        "71"
      ],
      "rpc": "https://eth-goerli.g.alchemy.com/v2/B81B-tXiOVtE5bt8bJkX5Gqi3s2R1fgZ",
      "transaction": {
        "type": "0x02",
        "from": "0x85c91c3dfa5c200a6ee9bc9d3085d02a2c95908b",
        "to": "0x8e16e15381729ffeedc4755f2dcf6f5461f7f389",
        "gas": "0xe813",
        "value": "0x0",
        "data": "0x23b872dd00000000000000000000000085c91c3dfa5c200a6ee9bc9d3085d02a2c95908b00000000000000000000000067dd11bce4f62d14111715f19e0426556b7f0ded0000000000000000000000000000000000000000000000000000000000000047",
        "nonce": "0x7c",
        "accessList": []
      },
      "additionalContracts": [],
      "isFixedGasLimit": false
    },
    {
      "hash": "0xb6f36fe799335ccf816093e111eea24a39b3994cea9104f90eb4c5dd03269854",
      "transactionType": "CALL",
      "contractName": "AfropolitanNFT",
      "contractAddress": "0x8E16e15381729fFEeDC4755f2Dcf6F5461f7F389",
      "function": "transferFrom(address,address,uint256)",
      "arguments": [
        "0x85C91C3DfA5c200a6Ee9Bc9d3085d02A2c95908b",
        "0x67dD11Bce4f62D14111715f19E0426556b7F0Ded",
        "72"
      ],
      "rpc": "https://eth-goerli.g.alchemy.com/v2/B81B-tXiOVtE5bt8bJkX5Gqi3s2R1fgZ",
      "transaction": {
        "type": "0x02",
        "from": "0x85c91c3dfa5c200a6ee9bc9d3085d02a2c95908b",
        "to": "0x8e16e15381729ffeedc4755f2dcf6f5461f7f389",
        "gas": "0xe813",
        "value": "0x0",
        "data": "0x23b872dd00000000000000000000000085c91c3dfa5c200a6ee9bc9d3085d02a2c95908b00000000000000000000000067dd11bce4f62d14111715f19e0426556b7f0ded0000000000000000000000000000000000000000000000000000000000000048",
        "nonce": "0x7d",
        "accessList": []
      },
      "additionalContracts": [],
      "isFixedGasLimit": false
    },
    {
      "hash": "0xe4044bcd3d4248dc6c1adb92205a4775f49c00fe866ce5514c3be3dd56e69349",
      "transactionType": "CALL",
      "contractName": "AfropolitanNFT",
      "contractAddress": "0x8E16e15381729fFEeDC4755f2Dcf6F5461f7F389",
      "function": "transferFrom(address,address,uint256)",
      "arguments": [
        "0x85C91C3DfA5c200a6Ee9Bc9d3085d02A2c95908b",
        "0x1f9373c9f732A213711E0A16e97f1CF10413D821",
        "73"
      ],
      "rpc": "https://eth-goerli.g.alchemy.com/v2/B81B-tXiOVtE5bt8bJkX5Gqi3s2R1fgZ",
      "transaction": {
        "type": "0x02",
        "from": "0x85c91c3dfa5c200a6ee9bc9d3085d02a2c95908b",
        "to": "0x8e16e15381729ffeedc4755f2dcf6f5461f7f389",
        "gas": "0x1576b",
        "value": "0x0",
        "data": "0x23b872dd00000000000000000000000085c91c3dfa5c200a6ee9bc9d3085d02a2c95908b0000000000000000000000001f9373c9f732a213711e0a16e97f1cf10413d8210000000000000000000000000000000000000000000000000000000000000049",
        "nonce": "0x7e",
        "accessList": []
      },
      "additionalContracts": [],
      "isFixedGasLimit": false
    },
    {
      "hash": "0xd67f8b9bf8bfeb3d88f89a049574d3c9fa5fd7001e4f7a4db88a5ed6d01710a7",
      "transactionType": "CALL",
      "contractName": "AfropolitanNFT",
      "contractAddress": "0x8E16e15381729fFEeDC4755f2Dcf6F5461f7F389",
      "function": "transferFrom(address,address,uint256)",
      "arguments": [
        "0x85C91C3DfA5c200a6Ee9Bc9d3085d02A2c95908b",
        "0x1f9373c9f732A213711E0A16e97f1CF10413D821",
        "74"
      ],
      "rpc": "https://eth-goerli.g.alchemy.com/v2/B81B-tXiOVtE5bt8bJkX5Gqi3s2R1fgZ",
      "transaction": {
        "type": "0x02",
        "from": "0x85c91c3dfa5c200a6ee9bc9d3085d02a2c95908b",
        "to": "0x8e16e15381729ffeedc4755f2dcf6f5461f7f389",
        "gas": "0xe813",
        "value": "0x0",
        "data": "0x23b872dd00000000000000000000000085c91c3dfa5c200a6ee9bc9d3085d02a2c95908b0000000000000000000000001f9373c9f732a213711e0a16e97f1cf10413d821000000000000000000000000000000000000000000000000000000000000004a",
        "nonce": "0x7f",
        "accessList": []
      },
      "additionalContracts": [],
      "isFixedGasLimit": false
    },
    {
      "hash": "0xe35971fd9565941876558b31589c4a0eb331dc7f9c2d155af0839428648133cc",
      "transactionType": "CALL",
      "contractName": "AfropolitanNFT",
      "contractAddress": "0x8E16e15381729fFEeDC4755f2Dcf6F5461f7F389",
      "function": "transferFrom(address,address,uint256)",
      "arguments": [
        "0x85C91C3DfA5c200a6Ee9Bc9d3085d02A2c95908b",
        "0x1f9373c9f732A213711E0A16e97f1CF10413D821",
        "75"
      ],
      "rpc": "https://eth-goerli.g.alchemy.com/v2/B81B-tXiOVtE5bt8bJkX5Gqi3s2R1fgZ",
      "transaction": {
        "type": "0x02",
        "from": "0x85c91c3dfa5c200a6ee9bc9d3085d02a2c95908b",
        "to": "0x8e16e15381729ffeedc4755f2dcf6f5461f7f389",
        "gas": "0xce2d",
        "value": "0x0",
        "data": "0x23b872dd00000000000000000000000085c91c3dfa5c200a6ee9bc9d3085d02a2c95908b0000000000000000000000001f9373c9f732a213711e0a16e97f1cf10413d821000000000000000000000000000000000000000000000000000000000000004b",
        "nonce": "0x80",
        "accessList": []
      },
      "additionalContracts": [],
      "isFixedGasLimit": false
    }
  ],
  "receipts": [
    {
      "transactionHash": "0xdf4f551dad5ef6d8bc6d8c72b33fb3fda8411a09b47ab9ba9de01dd80de8105c",
      "transactionIndex": "0x3",
      "blockHash": "0x3dfefad7d51cfe3290378c99d175b37517dcbc0f496f3e75a94a1c882fac1d56",
      "blockNumber": "0x8cece2",
      "from": "0x85C91C3DfA5c200a6Ee9Bc9d3085d02A2c95908b",
      "to": "0x02101dfB77FDE026414827Fdc604ddAF224F0921",
      "cumulativeGasUsed": "0x19a13b",
      "gasUsed": "0x6989",
      "contractAddress": null,
      "logs": [],
      "status": "0x1",
      "logsBloom": "0x00000000000000000000000000000000000000000000000000000000000000000000000000000000000000000000000000000000000000000000000000000000000000000000000000000000000000000000000000000000000000000000000000000000000000000000000000000000000000000000000000000000000000000000000000000000000000000000000000000000000000000000000000000000000000000000000000000000000000000000000000000000000000000000000000000000000000000000000000000000000000000000000000000000000000000000000000000000000000000000000000000000000000000000000000000000",
      "type": "0x2",
      "effectiveGasPrice": "0xb2f75e66"
    },
    {
      "transactionHash": "0x0495c99b8e626cef43b0686b260a7c92053c98209e24863d689ea3ab68410ac3",
      "transactionIndex": "0x4",
      "blockHash": "0x3dfefad7d51cfe3290378c99d175b37517dcbc0f496f3e75a94a1c882fac1d56",
      "blockNumber": "0x8cece2",
      "from": "0x85C91C3DfA5c200a6Ee9Bc9d3085d02A2c95908b",
      "to": "0x02101dfB77FDE026414827Fdc604ddAF224F0921",
      "cumulativeGasUsed": "0x1a0ac4",
      "gasUsed": "0x6989",
      "contractAddress": null,
      "logs": [],
      "status": "0x1",
      "logsBloom": "0x00000000000000000000000000000000000000000000000000000000000000000000000000000000000000000000000000000000000000000000000000000000000000000000000000000000000000000000000000000000000000000000000000000000000000000000000000000000000000000000000000000000000000000000000000000000000000000000000000000000000000000000000000000000000000000000000000000000000000000000000000000000000000000000000000000000000000000000000000000000000000000000000000000000000000000000000000000000000000000000000000000000000000000000000000000000",
      "type": "0x2",
      "effectiveGasPrice": "0xb2f75e66"
    },
    {
      "transactionHash": "0xcdb5256e66985e6bcb701384d14d81081bae119a5634398966676b74b1efb073",
      "transactionIndex": "0x5",
      "blockHash": "0x3dfefad7d51cfe3290378c99d175b37517dcbc0f496f3e75a94a1c882fac1d56",
      "blockNumber": "0x8cece2",
      "from": "0x85C91C3DfA5c200a6Ee9Bc9d3085d02A2c95908b",
      "to": "0x02101dfB77FDE026414827Fdc604ddAF224F0921",
      "cumulativeGasUsed": "0x1a744d",
      "gasUsed": "0x6989",
      "contractAddress": null,
      "logs": [],
      "status": "0x1",
      "logsBloom": "0x00000000000000000000000000000000000000000000000000000000000000000000000000000000000000000000000000000000000000000000000000000000000000000000000000000000000000000000000000000000000000000000000000000000000000000000000000000000000000000000000000000000000000000000000000000000000000000000000000000000000000000000000000000000000000000000000000000000000000000000000000000000000000000000000000000000000000000000000000000000000000000000000000000000000000000000000000000000000000000000000000000000000000000000000000000000",
      "type": "0x2",
      "effectiveGasPrice": "0xb2f75e66"
    },
    {
      "transactionHash": "0x1fdc41cb8550e34b27e32abb3140f59e2155aa8a9c4571820c48b25d1bde191f",
      "transactionIndex": "0x6",
      "blockHash": "0x3dfefad7d51cfe3290378c99d175b37517dcbc0f496f3e75a94a1c882fac1d56",
      "blockNumber": "0x8cece2",
      "from": "0x85C91C3DfA5c200a6Ee9Bc9d3085d02A2c95908b",
      "to": "0x8E16e15381729fFEeDC4755f2Dcf6F5461f7F389",
      "cumulativeGasUsed": "0x1b1c52",
      "gasUsed": "0xa805",
      "contractAddress": null,
      "logs": [
        {
          "address": "0x8E16e15381729fFEeDC4755f2Dcf6F5461f7F389",
          "topics": [
            "0xddf252ad1be2c89b69c2b068fc378daa952ba7f163c4a11628f55a4df523b3ef",
            "0x00000000000000000000000085c91c3dfa5c200a6ee9bc9d3085d02a2c95908b",
            "0x0000000000000000000000007c3c4b9f12bc91a7c39708ffc7d282720e36c0cb",
            "0x0000000000000000000000000000000000000000000000000000000000000042"
          ],
          "data": "0x",
          "blockHash": "0x3dfefad7d51cfe3290378c99d175b37517dcbc0f496f3e75a94a1c882fac1d56",
          "blockNumber": "0x8cece2",
          "transactionHash": "0x1fdc41cb8550e34b27e32abb3140f59e2155aa8a9c4571820c48b25d1bde191f",
          "transactionIndex": "0x6",
          "logIndex": "0x3",
          "removed": false
        }
      ],
      "status": "0x1",
      "logsBloom": "0x00000000000000000000000000000200000100000000000000004000000000000000000000000000000000000000000000000000000000000000000000000000000000000000000000000808000000000000000000000000000008000000000000000000000010000000000000000000000000080000000000000010000000000000000000000000000000000000000000200000000000000000008000000000000000000000000000000000000000000000000000000000000000000000000000000002000000000000000000000040000000000000000000000000000000000000000080000000000000040000000000000000000000000000000000000000",
      "type": "0x2",
      "effectiveGasPrice": "0xb2f75e66"
    },
    {
      "transactionHash": "0xed3355f5c767f9339f547198337a1a07ec9d17102c950ac3cd617c7c3adf4e16",
      "transactionIndex": "0x7",
      "blockHash": "0x3dfefad7d51cfe3290378c99d175b37517dcbc0f496f3e75a94a1c882fac1d56",
      "blockNumber": "0x8cece2",
      "from": "0x85C91C3DfA5c200a6Ee9Bc9d3085d02A2c95908b",
      "to": "0x8E16e15381729fFEeDC4755f2Dcf6F5461f7F389",
      "cumulativeGasUsed": "0x1bc457",
      "gasUsed": "0xa805",
      "contractAddress": null,
      "logs": [
        {
          "address": "0x8E16e15381729fFEeDC4755f2Dcf6F5461f7F389",
          "topics": [
            "0xddf252ad1be2c89b69c2b068fc378daa952ba7f163c4a11628f55a4df523b3ef",
            "0x00000000000000000000000085c91c3dfa5c200a6ee9bc9d3085d02a2c95908b",
            "0x0000000000000000000000007c3c4b9f12bc91a7c39708ffc7d282720e36c0cb",
            "0x0000000000000000000000000000000000000000000000000000000000000043"
          ],
          "data": "0x",
          "blockHash": "0x3dfefad7d51cfe3290378c99d175b37517dcbc0f496f3e75a94a1c882fac1d56",
          "blockNumber": "0x8cece2",
          "transactionHash": "0xed3355f5c767f9339f547198337a1a07ec9d17102c950ac3cd617c7c3adf4e16",
          "transactionIndex": "0x7",
          "logIndex": "0x4",
          "removed": false
        }
      ],
      "status": "0x1",
      "logsBloom": "0x00000000000000000000000000000200000100000000000000004000000000000000000000004000000000000001000000000000000000000000000000000000000000000000000000000808020000000000000000000000000008000000000000000000000010000000000000000000000000000000000000000010000000000000000000000000000000000000000000200000000000000000000000000000000000000000000000000000000000000000000000000000000000000000000000000002000000000000000000000040000000000000000000000000000000000000000000000000000000040000000000000000000000000000000000000000",
      "type": "0x2",
      "effectiveGasPrice": "0xb2f75e66"
    },
    {
      "transactionHash": "0x2cf6cad1f1dfeb78ca227df0c618dc8208b7641e778f488cabb4fb42073252d6",
      "transactionIndex": "0x8",
      "blockHash": "0x3dfefad7d51cfe3290378c99d175b37517dcbc0f496f3e75a94a1c882fac1d56",
      "blockNumber": "0x8cece2",
      "from": "0x85C91C3DfA5c200a6Ee9Bc9d3085d02A2c95908b",
      "to": "0x8E16e15381729fFEeDC4755f2Dcf6F5461f7F389",
      "cumulativeGasUsed": "0x1c6c5c",
      "gasUsed": "0xa805",
      "contractAddress": null,
      "logs": [
        {
          "address": "0x8E16e15381729fFEeDC4755f2Dcf6F5461f7F389",
          "topics": [
            "0xddf252ad1be2c89b69c2b068fc378daa952ba7f163c4a11628f55a4df523b3ef",
            "0x00000000000000000000000085c91c3dfa5c200a6ee9bc9d3085d02a2c95908b",
            "0x0000000000000000000000007c3c4b9f12bc91a7c39708ffc7d282720e36c0cb",
            "0x0000000000000000000000000000000000000000000000000000000000000044"
          ],
          "data": "0x",
          "blockHash": "0x3dfefad7d51cfe3290378c99d175b37517dcbc0f496f3e75a94a1c882fac1d56",
          "blockNumber": "0x8cece2",
          "transactionHash": "0x2cf6cad1f1dfeb78ca227df0c618dc8208b7641e778f488cabb4fb42073252d6",
          "transactionIndex": "0x8",
          "logIndex": "0x5",
          "removed": false
        }
      ],
      "status": "0x1",
      "logsBloom": "0x00000000000000000000000000000200000100000000000000004000000000000000000000000000000000000000000000000000000000000000000000000000000000000000000000000808000000000000000000000000000008000000000000000000000010000000000000000000000000000000000000000010000000000000000000400000000000000000000000200000000000000000000400000000000000000000000000000000000000000000000000000000000000000000000000000002000000000000000000000040000000000200000000000000000000000000000000000000000000040000000000000000000000000000000000000000",
      "type": "0x2",
      "effectiveGasPrice": "0xb2f75e66"
    },
    {
      "transactionHash": "0x8e783978558cde62f9aaa71e636db3bd58dbec8d87940a1d56e59bd8966572f8",
      "transactionIndex": "0x9",
      "blockHash": "0x3dfefad7d51cfe3290378c99d175b37517dcbc0f496f3e75a94a1c882fac1d56",
      "blockNumber": "0x8cece2",
      "from": "0x85C91C3DfA5c200a6Ee9Bc9d3085d02A2c95908b",
      "to": "0x8E16e15381729fFEeDC4755f2Dcf6F5461f7F389",
      "cumulativeGasUsed": "0x1d572d",
      "gasUsed": "0xead1",
      "contractAddress": null,
      "logs": [
        {
          "address": "0x8E16e15381729fFEeDC4755f2Dcf6F5461f7F389",
          "topics": [
            "0xddf252ad1be2c89b69c2b068fc378daa952ba7f163c4a11628f55a4df523b3ef",
            "0x00000000000000000000000085c91c3dfa5c200a6ee9bc9d3085d02a2c95908b",
            "0x00000000000000000000000067dd11bce4f62d14111715f19e0426556b7f0ded",
            "0x0000000000000000000000000000000000000000000000000000000000000045"
          ],
          "data": "0x",
          "blockHash": "0x3dfefad7d51cfe3290378c99d175b37517dcbc0f496f3e75a94a1c882fac1d56",
          "blockNumber": "0x8cece2",
          "transactionHash": "0x8e783978558cde62f9aaa71e636db3bd58dbec8d87940a1d56e59bd8966572f8",
          "transactionIndex": "0x9",
          "logIndex": "0x6",
          "removed": false
        }
      ],
      "status": "0x1",
      "logsBloom": "0x00000000000010000000000000000000000000000000000000004000000000000000000000000000000000000000000000000020000000000000000000000000000000000000000000000808000000400000000000000000000008000000000000000000000010000000000000000000000000000000000000000010000000000000000000000000000000000000000000200000000000000000000000000000000000000000000000000000000000000000000000000000000000000000000000000002000000000000000000000000004000000000000000000000000000000000000000000000000000040000000000000000000000000200000000000400",
      "type": "0x2",
      "effectiveGasPrice": "0xb2f75e66"
    },
    {
      "transactionHash": "0x07f3eb2c158c1542415d913234860f085ab7ffa103b945a75882ce6493ddc5f2",
      "transactionIndex": "0xa",
      "blockHash": "0x3dfefad7d51cfe3290378c99d175b37517dcbc0f496f3e75a94a1c882fac1d56",
      "blockNumber": "0x8cece2",
      "from": "0x85C91C3DfA5c200a6Ee9Bc9d3085d02A2c95908b",
      "to": "0x8E16e15381729fFEeDC4755f2Dcf6F5461f7F389",
      "cumulativeGasUsed": "0x1dff32",
      "gasUsed": "0xa805",
      "contractAddress": null,
      "logs": [
        {
          "address": "0x8E16e15381729fFEeDC4755f2Dcf6F5461f7F389",
          "topics": [
            "0xddf252ad1be2c89b69c2b068fc378daa952ba7f163c4a11628f55a4df523b3ef",
            "0x00000000000000000000000085c91c3dfa5c200a6ee9bc9d3085d02a2c95908b",
            "0x00000000000000000000000067dd11bce4f62d14111715f19e0426556b7f0ded",
            "0x0000000000000000000000000000000000000000000000000000000000000046"
          ],
          "data": "0x",
          "blockHash": "0x3dfefad7d51cfe3290378c99d175b37517dcbc0f496f3e75a94a1c882fac1d56",
          "blockNumber": "0x8cece2",
          "transactionHash": "0x07f3eb2c158c1542415d913234860f085ab7ffa103b945a75882ce6493ddc5f2",
          "transactionIndex": "0xa",
          "logIndex": "0x7",
          "removed": false
        }
      ],
      "status": "0x1",
      "logsBloom": "0x00200000000000000000000000000000000000000000000000004000000000000000000000000000000000000000000000000020000000000000000000000000000000000000000000000808000000400000000000000000000008000000000000000000000010000000000000000000000000000000000000000010000000000000000000000000000000000000000000200000000000000000000000000000000000000000000000000000000000400000000000000000000000000000000040000002000000000000000000000000000000000000000000000000000000000000000000000000000000040000000000000000000000000200000000000000",
      "type": "0x2",
      "effectiveGasPrice": "0xb2f75e66"
    },
    {
      "transactionHash": "0x58a16358d430267ed901506b7b4dbbc5e164f808a108c4058f7bc1e65f34fb21",
      "transactionIndex": "0xb",
      "blockHash": "0x3dfefad7d51cfe3290378c99d175b37517dcbc0f496f3e75a94a1c882fac1d56",
      "blockNumber": "0x8cece2",
      "from": "0x85C91C3DfA5c200a6Ee9Bc9d3085d02A2c95908b",
      "to": "0x8E16e15381729fFEeDC4755f2Dcf6F5461f7F389",
      "cumulativeGasUsed": "0x1ea737",
      "gasUsed": "0xa805",
      "contractAddress": null,
      "logs": [
        {
          "address": "0x8E16e15381729fFEeDC4755f2Dcf6F5461f7F389",
          "topics": [
            "0xddf252ad1be2c89b69c2b068fc378daa952ba7f163c4a11628f55a4df523b3ef",
            "0x00000000000000000000000085c91c3dfa5c200a6ee9bc9d3085d02a2c95908b",
            "0x00000000000000000000000067dd11bce4f62d14111715f19e0426556b7f0ded",
            "0x0000000000000000000000000000000000000000000000000000000000000047"
          ],
          "data": "0x",
          "blockHash": "0x3dfefad7d51cfe3290378c99d175b37517dcbc0f496f3e75a94a1c882fac1d56",
          "blockNumber": "0x8cece2",
          "transactionHash": "0x58a16358d430267ed901506b7b4dbbc5e164f808a108c4058f7bc1e65f34fb21",
          "transactionIndex": "0xb",
          "logIndex": "0x8",
          "removed": false
        }
      ],
      "status": "0x1",
      "logsBloom": "0x00000000000000000000000000000000000000000000000000004000000000000000000000000000000000000000000000000020000000000000001000000000000000000000000000000808000000400000000000000000000008000000000000000000000010000000000000000000000000000000000010000010000000000000000000000000000000000000000000200000000000000000000000000000000000000000000000000000000000000000000000000000000000000000000000000002000000000000000000000100000000000000000000000000000000000000000000000000000000040000000000000000000000000200000000000000",
      "type": "0x2",
      "effectiveGasPrice": "0xb2f75e66"
    },
    {
      "transactionHash": "0xb6f36fe799335ccf816093e111eea24a39b3994cea9104f90eb4c5dd03269854",
      "transactionIndex": "0xc",
      "blockHash": "0x3dfefad7d51cfe3290378c99d175b37517dcbc0f496f3e75a94a1c882fac1d56",
      "blockNumber": "0x8cece2",
      "from": "0x85C91C3DfA5c200a6Ee9Bc9d3085d02A2c95908b",
      "to": "0x8E16e15381729fFEeDC4755f2Dcf6F5461f7F389",
      "cumulativeGasUsed": "0x1f4f3c",
      "gasUsed": "0xa805",
      "contractAddress": null,
      "logs": [
        {
          "address": "0x8E16e15381729fFEeDC4755f2Dcf6F5461f7F389",
          "topics": [
            "0xddf252ad1be2c89b69c2b068fc378daa952ba7f163c4a11628f55a4df523b3ef",
            "0x00000000000000000000000085c91c3dfa5c200a6ee9bc9d3085d02a2c95908b",
            "0x00000000000000000000000067dd11bce4f62d14111715f19e0426556b7f0ded",
            "0x0000000000000000000000000000000000000000000000000000000000000048"
          ],
          "data": "0x",
          "blockHash": "0x3dfefad7d51cfe3290378c99d175b37517dcbc0f496f3e75a94a1c882fac1d56",
          "blockNumber": "0x8cece2",
          "transactionHash": "0xb6f36fe799335ccf816093e111eea24a39b3994cea9104f90eb4c5dd03269854",
          "transactionIndex": "0xc",
          "logIndex": "0x9",
          "removed": false
        }
      ],
      "status": "0x1",
      "logsBloom": "0x00000000000000000000000000000000000080000000000000004000000000000000000000000000000000000000000000000020000000000000000000000000000000000000000000000808000000400000000000000000000008000000001000000000000010000000000000000000000000000000000000000010000000000000000000000000000000000000000000200000000000000000000000000000000000000000000000000000000000000000000000000000000000000000000000000002000000000000000000000000000000000040000000000000000000000000000000000000000000040000000000000000000000000200000000000000",
      "type": "0x2",
      "effectiveGasPrice": "0xb2f75e66"
    },
    {
      "transactionHash": "0xe4044bcd3d4248dc6c1adb92205a4775f49c00fe866ce5514c3be3dd56e69349",
      "transactionIndex": "0xd",
      "blockHash": "0x3dfefad7d51cfe3290378c99d175b37517dcbc0f496f3e75a94a1c882fac1d56",
      "blockNumber": "0x8cece2",
      "from": "0x85C91C3DfA5c200a6Ee9Bc9d3085d02A2c95908b",
      "to": "0x8E16e15381729fFEeDC4755f2Dcf6F5461f7F389",
      "cumulativeGasUsed": "0x203a0d",
      "gasUsed": "0xead1",
      "contractAddress": null,
      "logs": [
        {
          "address": "0x8E16e15381729fFEeDC4755f2Dcf6F5461f7F389",
          "topics": [
            "0xddf252ad1be2c89b69c2b068fc378daa952ba7f163c4a11628f55a4df523b3ef",
            "0x00000000000000000000000085c91c3dfa5c200a6ee9bc9d3085d02a2c95908b",
            "0x0000000000000000000000001f9373c9f732a213711e0a16e97f1cf10413d821",
            "0x0000000000000000000000000000000000000000000000000000000000000049"
          ],
          "data": "0x",
          "blockHash": "0x3dfefad7d51cfe3290378c99d175b37517dcbc0f496f3e75a94a1c882fac1d56",
          "blockNumber": "0x8cece2",
          "transactionHash": "0xe4044bcd3d4248dc6c1adb92205a4775f49c00fe866ce5514c3be3dd56e69349",
          "transactionIndex": "0xd",
          "logIndex": "0xa",
          "removed": false
        }
      ],
      "status": "0x1",
      "logsBloom": "0x00000010000000000000000000000000000000000000000000004000000000000000000000000000000000000000000000000000000000000000000000000000000000000000000000000808200000000000000000000000000008000000000000000200000010000000000000000000000000000000000000000010000000000000000000000000000000000000000000200000000000000000000004000000002000000000000000000000000000000000000000000000000040000000000000000002000000000000000000000000000000000000000000000000000000000000000000000000000000040000000000000000000000000000000000000000",
      "type": "0x2",
      "effectiveGasPrice": "0xb2f75e66"
    },
    {
      "transactionHash": "0xd67f8b9bf8bfeb3d88f89a049574d3c9fa5fd7001e4f7a4db88a5ed6d01710a7",
      "transactionIndex": "0xe",
      "blockHash": "0x3dfefad7d51cfe3290378c99d175b37517dcbc0f496f3e75a94a1c882fac1d56",
      "blockNumber": "0x8cece2",
      "from": "0x85C91C3DfA5c200a6Ee9Bc9d3085d02A2c95908b",
      "to": "0x8E16e15381729fFEeDC4755f2Dcf6F5461f7F389",
      "cumulativeGasUsed": "0x20e212",
      "gasUsed": "0xa805",
      "contractAddress": null,
      "logs": [
        {
          "address": "0x8E16e15381729fFEeDC4755f2Dcf6F5461f7F389",
          "topics": [
            "0xddf252ad1be2c89b69c2b068fc378daa952ba7f163c4a11628f55a4df523b3ef",
            "0x00000000000000000000000085c91c3dfa5c200a6ee9bc9d3085d02a2c95908b",
            "0x0000000000000000000000001f9373c9f732a213711e0a16e97f1cf10413d821",
            "0x000000000000000000000000000000000000000000000000000000000000004a"
          ],
          "data": "0x",
          "blockHash": "0x3dfefad7d51cfe3290378c99d175b37517dcbc0f496f3e75a94a1c882fac1d56",
          "blockNumber": "0x8cece2",
          "transactionHash": "0xd67f8b9bf8bfeb3d88f89a049574d3c9fa5fd7001e4f7a4db88a5ed6d01710a7",
          "transactionIndex": "0xe",
          "logIndex": "0xb",
          "removed": false
        }
      ],
      "status": "0x1",
      "logsBloom": "0x00000000000000000000000000000000000000000000000000004000000000000000000000000000000000000000000000000000000000000000000000000000000000000000000000000808200000000000000000000000000008000000000000000000000010200000000000000000000000000000000000000010000000000000000000000000000000000000000000200000000000000000000004000000000000000000000000000000000000000000000000000000000040000400000000000002000000000000000000000000000000000000000000000000000000001000000000000000000000040000000000000000000000000000000000000000",
      "type": "0x2",
      "effectiveGasPrice": "0xb2f75e66"
    },
    {
      "transactionHash": "0xe35971fd9565941876558b31589c4a0eb331dc7f9c2d155af0839428648133cc",
      "transactionIndex": "0xf",
      "blockHash": "0x3dfefad7d51cfe3290378c99d175b37517dcbc0f496f3e75a94a1c882fac1d56",
      "blockNumber": "0x8cece2",
      "from": "0x85C91C3DfA5c200a6Ee9Bc9d3085d02A2c95908b",
      "to": "0x8E16e15381729fFEeDC4755f2Dcf6F5461f7F389",
      "cumulativeGasUsed": "0x217757",
      "gasUsed": "0x9545",
      "contractAddress": null,
      "logs": [
        {
          "address": "0x8E16e15381729fFEeDC4755f2Dcf6F5461f7F389",
          "topics": [
            "0xddf252ad1be2c89b69c2b068fc378daa952ba7f163c4a11628f55a4df523b3ef",
            "0x00000000000000000000000085c91c3dfa5c200a6ee9bc9d3085d02a2c95908b",
            "0x0000000000000000000000001f9373c9f732a213711e0a16e97f1cf10413d821",
            "0x000000000000000000000000000000000000000000000000000000000000004b"
          ],
          "data": "0x",
          "blockHash": "0x3dfefad7d51cfe3290378c99d175b37517dcbc0f496f3e75a94a1c882fac1d56",
          "blockNumber": "0x8cece2",
          "transactionHash": "0xe35971fd9565941876558b31589c4a0eb331dc7f9c2d155af0839428648133cc",
          "transactionIndex": "0xf",
          "logIndex": "0xc",
          "removed": false
        }
      ],
      "status": "0x1",
      "logsBloom": "0x00000000000000000001000000000000000000000000000000004000002000000000000000000000000000000000000000000000000000000000000000000000000000000000000000000808200000000000000000000000000008000000000000000000000010000000000000000000000000000000000000000010000000000000000000000000000000000000000000200000000000000000000004000000000000000000000000000000000400000000000000000000000040000000000000000002000000000000000000000000000000000000000000000000000000000000000000000000000000040000000000000000000000000000000000000000",
      "type": "0x2",
      "effectiveGasPrice": "0xb2f75e66"
    }
  ],
  "libraries": [],
  "pending": [],
  "path": "/Users/jaclyn/Documents/code/fukuro/contracts/broadcast/demoSetup.s.sol/5/run-latest.json",
  "returns": {},
  "timestamp": 1687658956,
  "chain": 5,
  "multi": false,
  "commit": "4cef3cc"
}