{
  "transactions": [
    {
      "hash": "0xaaebdfef690c1690bf1a9f86db4d93d599d70574597774532fdc6e5ec0fba206",
      "transactionType": "CALL",
      "contractName": "ERC6551Registry",
      "contractAddress": "0x02101dfB77FDE026414827Fdc604ddAF224F0921",
      "function": "createAccount(address,uint256,address,uint256,uint256,bytes):(address)",
      "arguments": [
        "0xDA6c577241cB047628a370802D0CD20319F307B7",
        "5",
        "0xA6d32Be299C481c7C689b6f7238A1cE1b5A3213d",
        "1",
        "0",
        "0x"
      ],
      "rpc": "https://eth-goerli.g.alchemy.com/v2/B81B-tXiOVtE5bt8bJkX5Gqi3s2R1fgZ",
      "transaction": {
        "type": "0x02",
        "from": "0x85c91c3dfa5c200a6ee9bc9d3085d02a2c95908b",
        "to": "0x02101dfb77fde026414827fdc604ddaf224f0921",
        "gas": "0x207c8",
        "value": "0x0",
        "data": "0xda7323b3000000000000000000000000da6c577241cb047628a370802d0cd20319f307b70000000000000000000000000000000000000000000000000000000000000005000000000000000000000000a6d32be299c481c7c689b6f7238a1ce1b5a3213d0000000000000000000000000000000000000000000000000000000000000001000000000000000000000000000000000000000000000000000000000000000000000000000000000000000000000000000000000000000000000000000000c00000000000000000000000000000000000000000000000000000000000000000",
        "nonce": "0x2e",
        "accessList": []
      },
      "additionalContracts": [
        {
          "transactionType": "CREATE2",
          "address": "0xa0F17c790e2C330D6A69aFac80E5E4De6908b5C5",
          "initCode": "3d60ad80600a3d3981f3363d3d373d3d3d363d73da6c577241cb047628a370802d0cd20319f307b75af43d82803e903d91602b57fd5bf300000000000000000000000000000000000000000000000000000000000000000000000000000000000000000000000000000000000000000000000000000005000000000000000000000000a6d32be299c481c7c689b6f7238a1ce1b5a3213d0000000000000000000000000000000000000000000000000000000000000001"
        }
      ],
      "isFixedGasLimit": false
    },
    {
      "hash": "0xcd8a73aeb077d6e431fd679b58fe6ada9eb44dc2e96024afd71393760ad06810",
      "transactionType": "CALL",
      "contractName": "ERC6551Registry",
      "contractAddress": "0x02101dfB77FDE026414827Fdc604ddAF224F0921",
      "function": "createAccount(address,uint256,address,uint256,uint256,bytes):(address)",
      "arguments": [
        "0xDA6c577241cB047628a370802D0CD20319F307B7",
        "5",
        "0xA6d32Be299C481c7C689b6f7238A1cE1b5A3213d",
        "2",
        "0",
        "0x"
      ],
      "rpc": "https://eth-goerli.g.alchemy.com/v2/B81B-tXiOVtE5bt8bJkX5Gqi3s2R1fgZ",
      "transaction": {
        "type": "0x02",
        "from": "0x85c91c3dfa5c200a6ee9bc9d3085d02a2c95908b",
        "to": "0x02101dfb77fde026414827fdc604ddaf224f0921",
        "gas": "0x207c8",
        "value": "0x0",
        "data": "0xda7323b3000000000000000000000000da6c577241cb047628a370802d0cd20319f307b70000000000000000000000000000000000000000000000000000000000000005000000000000000000000000a6d32be299c481c7c689b6f7238a1ce1b5a3213d0000000000000000000000000000000000000000000000000000000000000002000000000000000000000000000000000000000000000000000000000000000000000000000000000000000000000000000000000000000000000000000000c00000000000000000000000000000000000000000000000000000000000000000",
        "nonce": "0x2f",
        "accessList": []
      },
      "additionalContracts": [
        {
          "transactionType": "CREATE2",
          "address": "0x0BCe0Cc26A88c7f9EcD53C9788b300e6bdDe863E",
          "initCode": "3d60ad80600a3d3981f3363d3d373d3d3d363d73da6c577241cb047628a370802d0cd20319f307b75af43d82803e903d91602b57fd5bf300000000000000000000000000000000000000000000000000000000000000000000000000000000000000000000000000000000000000000000000000000005000000000000000000000000a6d32be299c481c7c689b6f7238a1ce1b5a3213d0000000000000000000000000000000000000000000000000000000000000002"
        }
      ],
      "isFixedGasLimit": false
    },
    {
      "hash": "0xa522ee7148dc0d9fd7fe0b14f9e16cb1a58e81bbc676a4f28922f3766e1db118",
      "transactionType": "CALL",
      "contractName": "ERC6551Registry",
      "contractAddress": "0x02101dfB77FDE026414827Fdc604ddAF224F0921",
      "function": "createAccount(address,uint256,address,uint256,uint256,bytes):(address)",
      "arguments": [
        "0xDA6c577241cB047628a370802D0CD20319F307B7",
        "5",
        "0xA6d32Be299C481c7C689b6f7238A1cE1b5A3213d",
        "3",
        "0",
        "0x"
      ],
      "rpc": "https://eth-goerli.g.alchemy.com/v2/B81B-tXiOVtE5bt8bJkX5Gqi3s2R1fgZ",
      "transaction": {
        "type": "0x02",
        "from": "0x85c91c3dfa5c200a6ee9bc9d3085d02a2c95908b",
        "to": "0x02101dfb77fde026414827fdc604ddaf224f0921",
        "gas": "0x207c8",
        "value": "0x0",
        "data": "0xda7323b3000000000000000000000000da6c577241cb047628a370802d0cd20319f307b70000000000000000000000000000000000000000000000000000000000000005000000000000000000000000a6d32be299c481c7c689b6f7238a1ce1b5a3213d0000000000000000000000000000000000000000000000000000000000000003000000000000000000000000000000000000000000000000000000000000000000000000000000000000000000000000000000000000000000000000000000c00000000000000000000000000000000000000000000000000000000000000000",
        "nonce": "0x30",
        "accessList": []
      },
      "additionalContracts": [
        {
          "transactionType": "CREATE2",
          "address": "0x94896Faa0ee995D627831D01d2bf54716bCa95eB",
          "initCode": "3d60ad80600a3d3981f3363d3d373d3d3d363d73da6c577241cb047628a370802d0cd20319f307b75af43d82803e903d91602b57fd5bf300000000000000000000000000000000000000000000000000000000000000000000000000000000000000000000000000000000000000000000000000000005000000000000000000000000a6d32be299c481c7c689b6f7238a1ce1b5a3213d0000000000000000000000000000000000000000000000000000000000000003"
        }
      ],
      "isFixedGasLimit": false
    },
    {
      "hash": "0x160215302c3643ced16666bff34623949278fcd5b863e457127e3e9be12f3c1e",
      "transactionType": "CALL",
      "contractName": "FukuFuku",
      "contractAddress": "0xA6d32Be299C481c7C689b6f7238A1cE1b5A3213d",
      "function": "transferFrom(address,address,uint256)",
      "arguments": [
        "0x85C91C3DfA5c200a6Ee9Bc9d3085d02A2c95908b",
        "0xCC2c242B3B89D6A5BD37700AE681A4b94EE7d7CE",
        "26"
      ],
      "rpc": "https://eth-goerli.g.alchemy.com/v2/B81B-tXiOVtE5bt8bJkX5Gqi3s2R1fgZ",
      "transaction": {
        "type": "0x02",
        "from": "0x85c91c3dfa5c200a6ee9bc9d3085d02a2c95908b",
        "to": "0xa6d32be299c481c7c689b6f7238a1ce1b5a3213d",
        "gas": "0x1576b",
        "value": "0x0",
        "data": "0x23b872dd00000000000000000000000085c91c3dfa5c200a6ee9bc9d3085d02a2c95908b000000000000000000000000cc2c242b3b89d6a5bd37700ae681a4b94ee7d7ce000000000000000000000000000000000000000000000000000000000000001a",
        "nonce": "0x31",
        "accessList": []
      },
      "additionalContracts": [],
      "isFixedGasLimit": false
    },
    {
      "hash": "0x8c4359459bbbaae51ee6d0959904eeeec548ff4795fd4b3629669585565e64d4",
      "transactionType": "CALL",
      "contractName": "FukuFuku",
      "contractAddress": "0xA6d32Be299C481c7C689b6f7238A1cE1b5A3213d",
      "function": "transferFrom(address,address,uint256)",
      "arguments": [
        "0x85C91C3DfA5c200a6Ee9Bc9d3085d02A2c95908b",
        "0xCC2c242B3B89D6A5BD37700AE681A4b94EE7d7CE",
        "27"
      ],
      "rpc": "https://eth-goerli.g.alchemy.com/v2/B81B-tXiOVtE5bt8bJkX5Gqi3s2R1fgZ",
      "transaction": {
        "type": "0x02",
        "from": "0x85c91c3dfa5c200a6ee9bc9d3085d02a2c95908b",
        "to": "0xa6d32be299c481c7c689b6f7238a1ce1b5a3213d",
        "gas": "0xe813",
        "value": "0x0",
        "data": "0x23b872dd00000000000000000000000085c91c3dfa5c200a6ee9bc9d3085d02a2c95908b000000000000000000000000cc2c242b3b89d6a5bd37700ae681a4b94ee7d7ce000000000000000000000000000000000000000000000000000000000000001b",
        "nonce": "0x32",
        "accessList": []
      },
      "additionalContracts": [],
      "isFixedGasLimit": false
    },
    {
      "hash": "0x0c290b24c63437dcd388345e0d295cefe4e5acde19a0add57a7f5630a5698f89",
      "transactionType": "CALL",
      "contractName": "FukuFuku",
      "contractAddress": "0xA6d32Be299C481c7C689b6f7238A1cE1b5A3213d",
      "function": "transferFrom(address,address,uint256)",
      "arguments": [
        "0x85C91C3DfA5c200a6Ee9Bc9d3085d02A2c95908b",
        "0xCC2c242B3B89D6A5BD37700AE681A4b94EE7d7CE",
        "28"
      ],
      "rpc": "https://eth-goerli.g.alchemy.com/v2/B81B-tXiOVtE5bt8bJkX5Gqi3s2R1fgZ",
      "transaction": {
        "type": "0x02",
        "from": "0x85c91c3dfa5c200a6ee9bc9d3085d02a2c95908b",
        "to": "0xa6d32be299c481c7c689b6f7238a1ce1b5a3213d",
        "gas": "0xe813",
        "value": "0x0",
        "data": "0x23b872dd00000000000000000000000085c91c3dfa5c200a6ee9bc9d3085d02a2c95908b000000000000000000000000cc2c242b3b89d6a5bd37700ae681a4b94ee7d7ce000000000000000000000000000000000000000000000000000000000000001c",
        "nonce": "0x33",
        "accessList": []
      },
      "additionalContracts": [],
      "isFixedGasLimit": false
    }
  ],
  "receipts": [
    {
      "transactionHash": "0xaaebdfef690c1690bf1a9f86db4d93d599d70574597774532fdc6e5ec0fba206",
      "transactionIndex": "0x2",
      "blockHash": "0x615b71d4329f399a43f2a943d71ae6b7d062bdf713183d0c2830089f3c44fe95",
      "blockNumber": "0x8ce9a4",
      "from": "0x85C91C3DfA5c200a6Ee9Bc9d3085d02A2c95908b",
      "to": "0x02101dfB77FDE026414827Fdc604ddAF224F0921",
      "cumulativeGasUsed": "0xfa5d2",
      "gasUsed": "0x1785c",
      "contractAddress": null,
      "logs": [
        {
          "address": "0x02101dfB77FDE026414827Fdc604ddAF224F0921",
          "topics": [
            "0x07fba7bba1191da7ee1155dcfa0030701c9c9a9cc34a93b991fc6fd0c9268d8f"
          ],
          "data": "0x000000000000000000000000a0f17c790e2c330d6a69afac80e5e4de6908b5c5000000000000000000000000da6c577241cb047628a370802d0cd20319f307b70000000000000000000000000000000000000000000000000000000000000005000000000000000000000000a6d32be299c481c7c689b6f7238a1ce1b5a3213d00000000000000000000000000000000000000000000000000000000000000010000000000000000000000000000000000000000000000000000000000000000",
          "blockHash": "0x615b71d4329f399a43f2a943d71ae6b7d062bdf713183d0c2830089f3c44fe95",
          "blockNumber": "0x8ce9a4",
          "transactionHash": "0xaaebdfef690c1690bf1a9f86db4d93d599d70574597774532fdc6e5ec0fba206",
          "transactionIndex": "0x2",
          "logIndex": "0x2",
          "removed": false
        }
      ],
      "status": "0x1",
      "logsBloom": "0x00000000000000000000000000000000000000000000000000000000000000000000000000000000000000000000000000000000000000000000000000000002000000000000000000000000000000000000000000000000000000000000800000000000000000000000000000000000000000000000000000000000000000000000000000000000000000000200000000000000000000000000000000000000000000000000000000000000000000000000000000000000000000000000000000000000000000000000000000000000000000000000000000080000000000000000001000000000000000000000000000000000000000000000002000000000",
      "type": "0x2",
      "effectiveGasPrice": "0xb2dd7f7a"
    },
    {
      "transactionHash": "0xcd8a73aeb077d6e431fd679b58fe6ada9eb44dc2e96024afd71393760ad06810",
      "transactionIndex": "0x3",
      "blockHash": "0x615b71d4329f399a43f2a943d71ae6b7d062bdf713183d0c2830089f3c44fe95",
      "blockNumber": "0x8ce9a4",
      "from": "0x85C91C3DfA5c200a6Ee9Bc9d3085d02A2c95908b",
      "to": "0x02101dfB77FDE026414827Fdc604ddAF224F0921",
      "cumulativeGasUsed": "0x111e2e",
      "gasUsed": "0x1785c",
      "contractAddress": null,
      "logs": [
        {
          "address": "0x02101dfB77FDE026414827Fdc604ddAF224F0921",
          "topics": [
            "0x07fba7bba1191da7ee1155dcfa0030701c9c9a9cc34a93b991fc6fd0c9268d8f"
          ],
          "data": "0x0000000000000000000000000bce0cc26a88c7f9ecd53c9788b300e6bdde863e000000000000000000000000da6c577241cb047628a370802d0cd20319f307b70000000000000000000000000000000000000000000000000000000000000005000000000000000000000000a6d32be299c481c7c689b6f7238a1ce1b5a3213d00000000000000000000000000000000000000000000000000000000000000020000000000000000000000000000000000000000000000000000000000000000",
          "blockHash": "0x615b71d4329f399a43f2a943d71ae6b7d062bdf713183d0c2830089f3c44fe95",
          "blockNumber": "0x8ce9a4",
          "transactionHash": "0xcd8a73aeb077d6e431fd679b58fe6ada9eb44dc2e96024afd71393760ad06810",
          "transactionIndex": "0x3",
          "logIndex": "0x3",
          "removed": false
        }
      ],
      "status": "0x1",
      "logsBloom": "0x00000000000000000000000000000000000000000000000000000000000000000000000000000000000000000000000000000000000000000000000000000002000000000000000000000000000000000000000000000000000000000000800000000000000000000000000000000000000000000000000000000000000000000000000000000000000000000200000000000000000000000000000000000000000000000000000000000000000000000000000000000000000000000000000000000000000000000000000000000000000000000000000000080000000000000000001000000000000000000000000000000000000000000000002000000000",
      "type": "0x2",
      "effectiveGasPrice": "0xb2dd7f7a"
    },
    {
      "transactionHash": "0xa522ee7148dc0d9fd7fe0b14f9e16cb1a58e81bbc676a4f28922f3766e1db118",
      "transactionIndex": "0x4",
      "blockHash": "0x615b71d4329f399a43f2a943d71ae6b7d062bdf713183d0c2830089f3c44fe95",
      "blockNumber": "0x8ce9a4",
      "from": "0x85C91C3DfA5c200a6Ee9Bc9d3085d02A2c95908b",
      "to": "0x02101dfB77FDE026414827Fdc604ddAF224F0921",
      "cumulativeGasUsed": "0x12968a",
      "gasUsed": "0x1785c",
      "contractAddress": null,
      "logs": [
        {
          "address": "0x02101dfB77FDE026414827Fdc604ddAF224F0921",
          "topics": [
            "0x07fba7bba1191da7ee1155dcfa0030701c9c9a9cc34a93b991fc6fd0c9268d8f"
          ],
          "data": "0x00000000000000000000000094896faa0ee995d627831d01d2bf54716bca95eb000000000000000000000000da6c577241cb047628a370802d0cd20319f307b70000000000000000000000000000000000000000000000000000000000000005000000000000000000000000a6d32be299c481c7c689b6f7238a1ce1b5a3213d00000000000000000000000000000000000000000000000000000000000000030000000000000000000000000000000000000000000000000000000000000000",
          "blockHash": "0x615b71d4329f399a43f2a943d71ae6b7d062bdf713183d0c2830089f3c44fe95",
          "blockNumber": "0x8ce9a4",
          "transactionHash": "0xa522ee7148dc0d9fd7fe0b14f9e16cb1a58e81bbc676a4f28922f3766e1db118",
          "transactionIndex": "0x4",
          "logIndex": "0x4",
          "removed": false
        }
      ],
      "status": "0x1",
      "logsBloom": "0x00000000000000000000000000000000000000000000000000000000000000000000000000000000000000000000000000000000000000000000000000000002000000000000000000000000000000000000000000000000000000000000800000000000000000000000000000000000000000000000000000000000000000000000000000000000000000000200000000000000000000000000000000000000000000000000000000000000000000000000000000000000000000000000000000000000000000000000000000000000000000000000000000080000000000000000001000000000000000000000000000000000000000000000002000000000",
      "type": "0x2",
      "effectiveGasPrice": "0xb2dd7f7a"
    },
    {
      "transactionHash": "0x160215302c3643ced16666bff34623949278fcd5b863e457127e3e9be12f3c1e",
      "transactionIndex": "0x5",
      "blockHash": "0x615b71d4329f399a43f2a943d71ae6b7d062bdf713183d0c2830089f3c44fe95",
      "blockNumber": "0x8ce9a4",
      "from": "0x85C91C3DfA5c200a6Ee9Bc9d3085d02A2c95908b",
      "to": "0xA6d32Be299C481c7C689b6f7238A1cE1b5A3213d",
      "cumulativeGasUsed": "0x13815b",
      "gasUsed": "0xead1",
      "contractAddress": null,
      "logs": [
        {
          "address": "0xA6d32Be299C481c7C689b6f7238A1cE1b5A3213d",
          "topics": [
            "0xddf252ad1be2c89b69c2b068fc378daa952ba7f163c4a11628f55a4df523b3ef",
            "0x00000000000000000000000085c91c3dfa5c200a6ee9bc9d3085d02a2c95908b",
            "0x000000000000000000000000cc2c242b3b89d6a5bd37700ae681a4b94ee7d7ce",
            "0x000000000000000000000000000000000000000000000000000000000000001a"
          ],
          "data": "0x",
          "blockHash": "0x615b71d4329f399a43f2a943d71ae6b7d062bdf713183d0c2830089f3c44fe95",
          "blockNumber": "0x8ce9a4",
          "transactionHash": "0x160215302c3643ced16666bff34623949278fcd5b863e457127e3e9be12f3c1e",
          "transactionIndex": "0x5",
          "logIndex": "0x5",
          "removed": false
        }
      ],
      "status": "0x1",
      "logsBloom": "0x00000000000000000000000000000000000080000000000000000000000000000000000000000000000000000000000000000000000040000000000000000000000000000000000000000808000000001000000000000000000008001000000000000000000000000000000000000000000000000000000000408010000000000000000000000000000000000000000000200000000000000000000800000000000000000000000000000000000000000000000000000000000000000000000400000002000000000000000000000000000000000000000000000000000000000000000000000000000000000000000000000000000004000000000000000000",
      "type": "0x2",
      "effectiveGasPrice": "0xb2dd7f7a"
    },
    {
      "transactionHash": "0x8c4359459bbbaae51ee6d0959904eeeec548ff4795fd4b3629669585565e64d4",
      "transactionIndex": "0x6",
      "blockHash": "0x615b71d4329f399a43f2a943d71ae6b7d062bdf713183d0c2830089f3c44fe95",
      "blockNumber": "0x8ce9a4",
      "from": "0x85C91C3DfA5c200a6Ee9Bc9d3085d02A2c95908b",
      "to": "0xA6d32Be299C481c7C689b6f7238A1cE1b5A3213d",
      "cumulativeGasUsed": "0x142960",
      "gasUsed": "0xa805",
      "contractAddress": null,
      "logs": [
        {
          "address": "0xA6d32Be299C481c7C689b6f7238A1cE1b5A3213d",
          "topics": [
            "0xddf252ad1be2c89b69c2b068fc378daa952ba7f163c4a11628f55a4df523b3ef",
            "0x00000000000000000000000085c91c3dfa5c200a6ee9bc9d3085d02a2c95908b",
            "0x000000000000000000000000cc2c242b3b89d6a5bd37700ae681a4b94ee7d7ce",
            "0x000000000000000000000000000000000000000000000000000000000000001b"
          ],
          "data": "0x",
          "blockHash": "0x615b71d4329f399a43f2a943d71ae6b7d062bdf713183d0c2830089f3c44fe95",
          "blockNumber": "0x8ce9a4",
          "transactionHash": "0x8c4359459bbbaae51ee6d0959904eeeec548ff4795fd4b3629669585565e64d4",
          "transactionIndex": "0x6",
          "logIndex": "0x6",
          "removed": false
        }
      ],
      "status": "0x1",
      "logsBloom": "0x00000000000000000000000000000000000080000010000000000000000000000000000000000000000000000000000000000000000040000000000000000000000000000000000000000808000000000000000000000000000008000000000000000000000000000000000000000000000000000000000000408010000000000000000000000000000000000000000000200000000000000000000800000000000000000100000000000000000000000000000000008000000000000000000400000002000000000000000000000000000000000000000000000000000000000000000000000000000000000000000000000000000000000000000000000000",
      "type": "0x2",
      "effectiveGasPrice": "0xb2dd7f7a"
    },
    {
      "transactionHash": "0x0c290b24c63437dcd388345e0d295cefe4e5acde19a0add57a7f5630a5698f89",
      "transactionIndex": "0x7",
      "blockHash": "0x615b71d4329f399a43f2a943d71ae6b7d062bdf713183d0c2830089f3c44fe95",
      "blockNumber": "0x8ce9a4",
      "from": "0x85C91C3DfA5c200a6Ee9Bc9d3085d02A2c95908b",
      "to": "0xA6d32Be299C481c7C689b6f7238A1cE1b5A3213d",
      "cumulativeGasUsed": "0x14d165",
      "gasUsed": "0xa805",
      "contractAddress": null,
      "logs": [
        {
          "address": "0xA6d32Be299C481c7C689b6f7238A1cE1b5A3213d",
          "topics": [
            "0xddf252ad1be2c89b69c2b068fc378daa952ba7f163c4a11628f55a4df523b3ef",
            "0x00000000000000000000000085c91c3dfa5c200a6ee9bc9d3085d02a2c95908b",
            "0x000000000000000000000000cc2c242b3b89d6a5bd37700ae681a4b94ee7d7ce",
            "0x000000000000000000000000000000000000000000000000000000000000001c"
          ],
          "data": "0x",
          "blockHash": "0x615b71d4329f399a43f2a943d71ae6b7d062bdf713183d0c2830089f3c44fe95",
          "blockNumber": "0x8ce9a4",
          "transactionHash": "0x0c290b24c63437dcd388345e0d295cefe4e5acde19a0add57a7f5630a5698f89",
          "transactionIndex": "0x7",
          "logIndex": "0x7",
          "removed": false
        }
      ],
      "status": "0x1",
      "logsBloom": "0x00000000000000000000000000000000000080000000000000000000000000000000000000000000000000000000000000000000000040200000000000000000000000000000000000000808000000000000000000000000000008000000000000000000000000000000000000000000000000000000000000408010000000000000000000000000000000000000000200200000000000000000000800000000000000000000000000000002000000000000000000000000000000000000000400000002000000000000000000000000000000000000000000000000000000000000000000000000000000000000000000000000000000000000000000000000",
      "type": "0x2",
      "effectiveGasPrice": "0xb2dd7f7a"
    }
  ],
  "libraries": [],
  "pending": [],
  "path": "/Users/jaclyn/Documents/code/fukuro/contracts/broadcast/demoSetup.s.sol/5/run-latest.json",
  "returns": {},
  "timestamp": 1687646143,
  "chain": 5,
  "multi": false,
  "commit": "08379e8"
}