{
  "transactions": [
    {
      "hash": "0x8415261b82e75532818a4c7e093c10b42de5b614d91df9462bf9b159a27da218",
      "transactionType": "CALL",
      "contractName": "ERC6551Registry",
      "contractAddress": "0x02101dfB77FDE026414827Fdc604ddAF224F0921",
      "function": "createAccount(address,uint256,address,uint256,uint256,bytes):(address)",
      "arguments": [
        "0xDA6c577241cB047628a370802D0CD20319F307B7",
        "5",
        "0xA6d32Be299C481c7C689b6f7238A1cE1b5A3213d",
        "32",
        "0",
        "0x"
      ],
      "rpc": "https://eth-goerli.g.alchemy.com/v2/B81B-tXiOVtE5bt8bJkX5Gqi3s2R1fgZ",
      "transaction": {
        "type": "0x02",
        "from": "0x85c91c3dfa5c200a6ee9bc9d3085d02a2c95908b",
        "to": "0x02101dfb77fde026414827fdc604ddaf224f0921",
        "gas": "0x207c8",
        "value": "0x0",
        "data": "0xda7323b3000000000000000000000000da6c577241cb047628a370802d0cd20319f307b70000000000000000000000000000000000000000000000000000000000000005000000000000000000000000a6d32be299c481c7c689b6f7238a1ce1b5a3213d0000000000000000000000000000000000000000000000000000000000000020000000000000000000000000000000000000000000000000000000000000000000000000000000000000000000000000000000000000000000000000000000c00000000000000000000000000000000000000000000000000000000000000000",
        "nonce": "0x56",
        "accessList": []
      },
      "additionalContracts": [
        {
          "transactionType": "CREATE2",
          "address": "0x981B527f1971957EF1711427CE4962598d9e4Fad",
          "initCode": "3d60ad80600a3d3981f3363d3d373d3d3d363d73da6c577241cb047628a370802d0cd20319f307b75af43d82803e903d91602b57fd5bf300000000000000000000000000000000000000000000000000000000000000000000000000000000000000000000000000000000000000000000000000000005000000000000000000000000a6d32be299c481c7c689b6f7238a1ce1b5a3213d0000000000000000000000000000000000000000000000000000000000000020"
        }
      ],
      "isFixedGasLimit": false
    },
    {
      "hash": "0xd7e7a81291b22d28a3e12b2b563bcf0ab6ecfea4824a9be9c043e6437d38ac1c",
      "transactionType": "CALL",
      "contractName": "ERC6551Registry",
      "contractAddress": "0x02101dfB77FDE026414827Fdc604ddAF224F0921",
      "function": "createAccount(address,uint256,address,uint256,uint256,bytes):(address)",
      "arguments": [
        "0xDA6c577241cB047628a370802D0CD20319F307B7",
        "5",
        "0xA6d32Be299C481c7C689b6f7238A1cE1b5A3213d",
        "33",
        "0",
        "0x"
      ],
      "rpc": "https://eth-goerli.g.alchemy.com/v2/B81B-tXiOVtE5bt8bJkX5Gqi3s2R1fgZ",
      "transaction": {
        "type": "0x02",
        "from": "0x85c91c3dfa5c200a6ee9bc9d3085d02a2c95908b",
        "to": "0x02101dfb77fde026414827fdc604ddaf224f0921",
        "gas": "0x207c8",
        "value": "0x0",
        "data": "0xda7323b3000000000000000000000000da6c577241cb047628a370802d0cd20319f307b70000000000000000000000000000000000000000000000000000000000000005000000000000000000000000a6d32be299c481c7c689b6f7238a1ce1b5a3213d0000000000000000000000000000000000000000000000000000000000000021000000000000000000000000000000000000000000000000000000000000000000000000000000000000000000000000000000000000000000000000000000c00000000000000000000000000000000000000000000000000000000000000000",
        "nonce": "0x57",
        "accessList": []
      },
      "additionalContracts": [
        {
          "transactionType": "CREATE2",
          "address": "0xb18cc8cEE4bf6c25F3071498542115Ea1ddD2592",
          "initCode": "3d60ad80600a3d3981f3363d3d373d3d3d363d73da6c577241cb047628a370802d0cd20319f307b75af43d82803e903d91602b57fd5bf300000000000000000000000000000000000000000000000000000000000000000000000000000000000000000000000000000000000000000000000000000005000000000000000000000000a6d32be299c481c7c689b6f7238a1ce1b5a3213d0000000000000000000000000000000000000000000000000000000000000021"
        }
      ],
      "isFixedGasLimit": false
    },
    {
      "hash": "0xdb50a4f6ba6669147231ab582499fe59c4640300c4d35021c6a14d93b5cd527b",
      "transactionType": "CALL",
      "contractName": "ERC6551Registry",
      "contractAddress": "0x02101dfB77FDE026414827Fdc604ddAF224F0921",
      "function": "createAccount(address,uint256,address,uint256,uint256,bytes):(address)",
      "arguments": [
        "0xDA6c577241cB047628a370802D0CD20319F307B7",
        "5",
        "0xA6d32Be299C481c7C689b6f7238A1cE1b5A3213d",
        "34",
        "0",
        "0x"
      ],
      "rpc": "https://eth-goerli.g.alchemy.com/v2/B81B-tXiOVtE5bt8bJkX5Gqi3s2R1fgZ",
      "transaction": {
        "type": "0x02",
        "from": "0x85c91c3dfa5c200a6ee9bc9d3085d02a2c95908b",
        "to": "0x02101dfb77fde026414827fdc604ddaf224f0921",
        "gas": "0x207c8",
        "value": "0x0",
        "data": "0xda7323b3000000000000000000000000da6c577241cb047628a370802d0cd20319f307b70000000000000000000000000000000000000000000000000000000000000005000000000000000000000000a6d32be299c481c7c689b6f7238a1ce1b5a3213d0000000000000000000000000000000000000000000000000000000000000022000000000000000000000000000000000000000000000000000000000000000000000000000000000000000000000000000000000000000000000000000000c00000000000000000000000000000000000000000000000000000000000000000",
        "nonce": "0x58",
        "accessList": []
      },
      "additionalContracts": [
        {
          "transactionType": "CREATE2",
          "address": "0x98F306810Fcb1B104d11fbe97bAF3930fe301F7C",
          "initCode": "3d60ad80600a3d3981f3363d3d373d3d3d363d73da6c577241cb047628a370802d0cd20319f307b75af43d82803e903d91602b57fd5bf300000000000000000000000000000000000000000000000000000000000000000000000000000000000000000000000000000000000000000000000000000005000000000000000000000000a6d32be299c481c7c689b6f7238a1ce1b5a3213d0000000000000000000000000000000000000000000000000000000000000022"
        }
      ],
      "isFixedGasLimit": false
    },
    {
      "hash": "0x1b22294dd48938006f05c025a175eaeb7c477b265d0df5d565a3b6b721234a4e",
      "transactionType": "CALL",
      "contractName": "AfropolitanNFT",
      "contractAddress": "0x8E16e15381729fFEeDC4755f2Dcf6F5461f7F389",
      "function": "transferFrom(address,address,uint256)",
      "arguments": [
        "0x85C91C3DfA5c200a6Ee9Bc9d3085d02A2c95908b",
        "0x981B527f1971957EF1711427CE4962598d9e4Fad",
        "46"
      ],
      "rpc": "https://eth-goerli.g.alchemy.com/v2/B81B-tXiOVtE5bt8bJkX5Gqi3s2R1fgZ",
      "transaction": {
        "type": "0x02",
        "from": "0x85c91c3dfa5c200a6ee9bc9d3085d02a2c95908b",
        "to": "0x8e16e15381729ffeedc4755f2dcf6f5461f7f389",
        "gas": "0x1576b",
        "value": "0x0",
        "data": "0x23b872dd00000000000000000000000085c91c3dfa5c200a6ee9bc9d3085d02a2c95908b000000000000000000000000981b527f1971957ef1711427ce4962598d9e4fad000000000000000000000000000000000000000000000000000000000000002e",
        "nonce": "0x59",
        "accessList": []
      },
      "additionalContracts": [],
      "isFixedGasLimit": false
    },
    {
      "hash": "0x1198b71a2d210fe66475616a6ae20c3145440018ca8624449e4d4ebef92eb339",
      "transactionType": "CALL",
      "contractName": "AfropolitanNFT",
      "contractAddress": "0x8E16e15381729fFEeDC4755f2Dcf6F5461f7F389",
      "function": "transferFrom(address,address,uint256)",
      "arguments": [
        "0x85C91C3DfA5c200a6Ee9Bc9d3085d02A2c95908b",
        "0x981B527f1971957EF1711427CE4962598d9e4Fad",
        "47"
      ],
      "rpc": "https://eth-goerli.g.alchemy.com/v2/B81B-tXiOVtE5bt8bJkX5Gqi3s2R1fgZ",
      "transaction": {
        "type": "0x02",
        "from": "0x85c91c3dfa5c200a6ee9bc9d3085d02a2c95908b",
        "to": "0x8e16e15381729ffeedc4755f2dcf6f5461f7f389",
        "gas": "0xe813",
        "value": "0x0",
        "data": "0x23b872dd00000000000000000000000085c91c3dfa5c200a6ee9bc9d3085d02a2c95908b000000000000000000000000981b527f1971957ef1711427ce4962598d9e4fad000000000000000000000000000000000000000000000000000000000000002f",
        "nonce": "0x5a",
        "accessList": []
      },
      "additionalContracts": [],
      "isFixedGasLimit": false
    },
    {
      "hash": "0xe1607e35954e19807f9c191919e79ef834b80812f2e17b011d7d53fe1d61e56c",
      "transactionType": "CALL",
      "contractName": "AfropolitanNFT",
      "contractAddress": "0x8E16e15381729fFEeDC4755f2Dcf6F5461f7F389",
      "function": "transferFrom(address,address,uint256)",
      "arguments": [
        "0x85C91C3DfA5c200a6Ee9Bc9d3085d02A2c95908b",
        "0x981B527f1971957EF1711427CE4962598d9e4Fad",
        "48"
      ],
      "rpc": "https://eth-goerli.g.alchemy.com/v2/B81B-tXiOVtE5bt8bJkX5Gqi3s2R1fgZ",
      "transaction": {
        "type": "0x02",
        "from": "0x85c91c3dfa5c200a6ee9bc9d3085d02a2c95908b",
        "to": "0x8e16e15381729ffeedc4755f2dcf6f5461f7f389",
        "gas": "0xe813",
        "value": "0x0",
        "data": "0x23b872dd00000000000000000000000085c91c3dfa5c200a6ee9bc9d3085d02a2c95908b000000000000000000000000981b527f1971957ef1711427ce4962598d9e4fad0000000000000000000000000000000000000000000000000000000000000030",
        "nonce": "0x5b",
        "accessList": []
      },
      "additionalContracts": [],
      "isFixedGasLimit": false
    },
    {
      "hash": "0x919b4e6a9412a405cf3c0e8d2d411a90aff110c67c1b146bd7a4f081ef52a5c0",
      "transactionType": "CALL",
      "contractName": "AfropolitanNFT",
      "contractAddress": "0x8E16e15381729fFEeDC4755f2Dcf6F5461f7F389",
      "function": "transferFrom(address,address,uint256)",
      "arguments": [
        "0x85C91C3DfA5c200a6Ee9Bc9d3085d02A2c95908b",
        "0xb18cc8cEE4bf6c25F3071498542115Ea1ddD2592",
        "49"
      ],
      "rpc": "https://eth-goerli.g.alchemy.com/v2/B81B-tXiOVtE5bt8bJkX5Gqi3s2R1fgZ",
      "transaction": {
        "type": "0x02",
        "from": "0x85c91c3dfa5c200a6ee9bc9d3085d02a2c95908b",
        "to": "0x8e16e15381729ffeedc4755f2dcf6f5461f7f389",
        "gas": "0x1576b",
        "value": "0x0",
        "data": "0x23b872dd00000000000000000000000085c91c3dfa5c200a6ee9bc9d3085d02a2c95908b000000000000000000000000b18cc8cee4bf6c25f3071498542115ea1ddd25920000000000000000000000000000000000000000000000000000000000000031",
        "nonce": "0x5c",
        "accessList": []
      },
      "additionalContracts": [],
      "isFixedGasLimit": false
    },
    {
      "hash": "0x2486999f70e2c4bc304e22ccadb73f32df2999a3fde53b1e8ee0a13c8b71f9d9",
      "transactionType": "CALL",
      "contractName": "AfropolitanNFT",
      "contractAddress": "0x8E16e15381729fFEeDC4755f2Dcf6F5461f7F389",
      "function": "transferFrom(address,address,uint256)",
      "arguments": [
        "0x85C91C3DfA5c200a6Ee9Bc9d3085d02A2c95908b",
        "0xb18cc8cEE4bf6c25F3071498542115Ea1ddD2592",
        "50"
      ],
      "rpc": "https://eth-goerli.g.alchemy.com/v2/B81B-tXiOVtE5bt8bJkX5Gqi3s2R1fgZ",
      "transaction": {
        "type": "0x02",
        "from": "0x85c91c3dfa5c200a6ee9bc9d3085d02a2c95908b",
        "to": "0x8e16e15381729ffeedc4755f2dcf6f5461f7f389",
        "gas": "0xe813",
        "value": "0x0",
        "data": "0x23b872dd00000000000000000000000085c91c3dfa5c200a6ee9bc9d3085d02a2c95908b000000000000000000000000b18cc8cee4bf6c25f3071498542115ea1ddd25920000000000000000000000000000000000000000000000000000000000000032",
        "nonce": "0x5d",
        "accessList": []
      },
      "additionalContracts": [],
      "isFixedGasLimit": false
    },
    {
      "hash": "0x41598b7db5c2097c8ea6702a114012f727d08865e7fd138989c2a40259178942",
      "transactionType": "CALL",
      "contractName": "AfropolitanNFT",
      "contractAddress": "0x8E16e15381729fFEeDC4755f2Dcf6F5461f7F389",
      "function": "transferFrom(address,address,uint256)",
      "arguments": [
        "0x85C91C3DfA5c200a6Ee9Bc9d3085d02A2c95908b",
        "0xb18cc8cEE4bf6c25F3071498542115Ea1ddD2592",
        "51"
      ],
      "rpc": "https://eth-goerli.g.alchemy.com/v2/B81B-tXiOVtE5bt8bJkX5Gqi3s2R1fgZ",
      "transaction": {
        "type": "0x02",
        "from": "0x85c91c3dfa5c200a6ee9bc9d3085d02a2c95908b",
        "to": "0x8e16e15381729ffeedc4755f2dcf6f5461f7f389",
        "gas": "0xe813",
        "value": "0x0",
        "data": "0x23b872dd00000000000000000000000085c91c3dfa5c200a6ee9bc9d3085d02a2c95908b000000000000000000000000b18cc8cee4bf6c25f3071498542115ea1ddd25920000000000000000000000000000000000000000000000000000000000000033",
        "nonce": "0x5e",
        "accessList": []
      },
      "additionalContracts": [],
      "isFixedGasLimit": false
    },
    {
      "hash": "0x3532dbeed7f7659c3c27d3b6b03a1d91b26f45722ef620bc6dc477fcb19bdbec",
      "transactionType": "CALL",
      "contractName": "AfropolitanNFT",
      "contractAddress": "0x8E16e15381729fFEeDC4755f2Dcf6F5461f7F389",
      "function": "transferFrom(address,address,uint256)",
      "arguments": [
        "0x85C91C3DfA5c200a6Ee9Bc9d3085d02A2c95908b",
        "0x98F306810Fcb1B104d11fbe97bAF3930fe301F7C",
        "52"
      ],
      "rpc": "https://eth-goerli.g.alchemy.com/v2/B81B-tXiOVtE5bt8bJkX5Gqi3s2R1fgZ",
      "transaction": {
        "type": "0x02",
        "from": "0x85c91c3dfa5c200a6ee9bc9d3085d02a2c95908b",
        "to": "0x8e16e15381729ffeedc4755f2dcf6f5461f7f389",
        "gas": "0x1576b",
        "value": "0x0",
        "data": "0x23b872dd00000000000000000000000085c91c3dfa5c200a6ee9bc9d3085d02a2c95908b00000000000000000000000098f306810fcb1b104d11fbe97baf3930fe301f7c0000000000000000000000000000000000000000000000000000000000000034",
        "nonce": "0x5f",
        "accessList": []
      },
      "additionalContracts": [],
      "isFixedGasLimit": false
    },
    {
      "hash": "0xef9a314ac1ef38c1e5761169fafdcd6943e2924e044aab7f92e4e3eac38dac7b",
      "transactionType": "CALL",
      "contractName": "AfropolitanNFT",
      "contractAddress": "0x8E16e15381729fFEeDC4755f2Dcf6F5461f7F389",
      "function": "transferFrom(address,address,uint256)",
      "arguments": [
        "0x85C91C3DfA5c200a6Ee9Bc9d3085d02A2c95908b",
        "0x98F306810Fcb1B104d11fbe97bAF3930fe301F7C",
        "53"
      ],
      "rpc": "https://eth-goerli.g.alchemy.com/v2/B81B-tXiOVtE5bt8bJkX5Gqi3s2R1fgZ",
      "transaction": {
        "type": "0x02",
        "from": "0x85c91c3dfa5c200a6ee9bc9d3085d02a2c95908b",
        "to": "0x8e16e15381729ffeedc4755f2dcf6f5461f7f389",
        "gas": "0xe813",
        "value": "0x0",
        "data": "0x23b872dd00000000000000000000000085c91c3dfa5c200a6ee9bc9d3085d02a2c95908b00000000000000000000000098f306810fcb1b104d11fbe97baf3930fe301f7c0000000000000000000000000000000000000000000000000000000000000035",
        "nonce": "0x60",
        "accessList": []
      },
      "additionalContracts": [],
      "isFixedGasLimit": false
    },
    {
      "hash": "0x95f5cc82a4df2bfa36fb8434fc26eca152c89c50a7e5bd47ea1b840175945f3c",
      "transactionType": "CALL",
      "contractName": "AfropolitanNFT",
      "contractAddress": "0x8E16e15381729fFEeDC4755f2Dcf6F5461f7F389",
      "function": "transferFrom(address,address,uint256)",
      "arguments": [
        "0x85C91C3DfA5c200a6Ee9Bc9d3085d02A2c95908b",
        "0x98F306810Fcb1B104d11fbe97bAF3930fe301F7C",
        "54"
      ],
      "rpc": "https://eth-goerli.g.alchemy.com/v2/B81B-tXiOVtE5bt8bJkX5Gqi3s2R1fgZ",
      "transaction": {
        "type": "0x02",
        "from": "0x85c91c3dfa5c200a6ee9bc9d3085d02a2c95908b",
        "to": "0x8e16e15381729ffeedc4755f2dcf6f5461f7f389",
        "gas": "0xe813",
        "value": "0x0",
        "data": "0x23b872dd00000000000000000000000085c91c3dfa5c200a6ee9bc9d3085d02a2c95908b00000000000000000000000098f306810fcb1b104d11fbe97baf3930fe301f7c0000000000000000000000000000000000000000000000000000000000000036",
        "nonce": "0x61",
        "accessList": []
      },
      "additionalContracts": [],
      "isFixedGasLimit": false
    },
    {
      "hash": "0xa50a9a18ada043dd81b1ff6e4587bfc5cbb2398a83cb608318813f3efd139565",
      "transactionType": "CALL",
      "contractName": "AfropolitanNFT",
      "contractAddress": "0x8E16e15381729fFEeDC4755f2Dcf6F5461f7F389",
      "function": "transferFrom(address,address,uint256)",
      "arguments": [
        "0x85C91C3DfA5c200a6Ee9Bc9d3085d02A2c95908b",
        "0x98F306810Fcb1B104d11fbe97bAF3930fe301F7C",
        "55"
      ],
      "rpc": "https://eth-goerli.g.alchemy.com/v2/B81B-tXiOVtE5bt8bJkX5Gqi3s2R1fgZ",
      "transaction": {
        "type": "0x02",
        "from": "0x85c91c3dfa5c200a6ee9bc9d3085d02a2c95908b",
        "to": "0x8e16e15381729ffeedc4755f2dcf6f5461f7f389",
        "gas": "0xe813",
        "value": "0x0",
        "data": "0x23b872dd00000000000000000000000085c91c3dfa5c200a6ee9bc9d3085d02a2c95908b00000000000000000000000098f306810fcb1b104d11fbe97baf3930fe301f7c0000000000000000000000000000000000000000000000000000000000000037",
        "nonce": "0x62",
        "accessList": []
      },
      "additionalContracts": [],
      "isFixedGasLimit": false
    },
    {
      "hash": "0xfb8edea8ff05a9b6fb98d4c88c243d551297db64f23e9f39525764106f819638",
      "transactionType": "CALL",
      "contractName": "FukuFuku",
      "contractAddress": "0xA6d32Be299C481c7C689b6f7238A1cE1b5A3213d",
      "function": "transferFrom(address,address,uint256)",
      "arguments": [
        "0x85C91C3DfA5c200a6Ee9Bc9d3085d02A2c95908b",
        "0x2633223E6cEE2Fb4e030d8F815dfc78003c4CCe1",
        "32"
      ],
      "rpc": "https://eth-goerli.g.alchemy.com/v2/B81B-tXiOVtE5bt8bJkX5Gqi3s2R1fgZ",
      "transaction": {
        "type": "0x02",
        "from": "0x85c91c3dfa5c200a6ee9bc9d3085d02a2c95908b",
        "to": "0xa6d32be299c481c7c689b6f7238a1ce1b5a3213d",
        "gas": "0x1576b",
        "value": "0x0",
        "data": "0x23b872dd00000000000000000000000085c91c3dfa5c200a6ee9bc9d3085d02a2c95908b0000000000000000000000002633223e6cee2fb4e030d8f815dfc78003c4cce10000000000000000000000000000000000000000000000000000000000000020",
        "nonce": "0x63",
        "accessList": []
      },
      "additionalContracts": [],
      "isFixedGasLimit": false
    },
    {
      "hash": "0x8aaddc2c1693fe1137840de04f495ada562a96c45723d892d2dec98c96ef2526",
      "transactionType": "CALL",
      "contractName": "FukuFuku",
      "contractAddress": "0xA6d32Be299C481c7C689b6f7238A1cE1b5A3213d",
      "function": "transferFrom(address,address,uint256)",
      "arguments": [
        "0x85C91C3DfA5c200a6Ee9Bc9d3085d02A2c95908b",
        "0x2633223E6cEE2Fb4e030d8F815dfc78003c4CCe1",
        "33"
      ],
      "rpc": "https://eth-goerli.g.alchemy.com/v2/B81B-tXiOVtE5bt8bJkX5Gqi3s2R1fgZ",
      "transaction": {
        "type": "0x02",
        "from": "0x85c91c3dfa5c200a6ee9bc9d3085d02a2c95908b",
        "to": "0xa6d32be299c481c7c689b6f7238a1ce1b5a3213d",
        "gas": "0xe813",
        "value": "0x0",
        "data": "0x23b872dd00000000000000000000000085c91c3dfa5c200a6ee9bc9d3085d02a2c95908b0000000000000000000000002633223e6cee2fb4e030d8f815dfc78003c4cce10000000000000000000000000000000000000000000000000000000000000021",
        "nonce": "0x64",
        "accessList": []
      },
      "additionalContracts": [],
      "isFixedGasLimit": false
    },
    {
      "hash": "0xe23f93d201fd3418159f3d74c34ef8bf577dab0c11973bca4ab4efc9b55d3704",
      "transactionType": "CALL",
      "contractName": "FukuFuku",
      "contractAddress": "0xA6d32Be299C481c7C689b6f7238A1cE1b5A3213d",
      "function": "transferFrom(address,address,uint256)",
      "arguments": [
        "0x85C91C3DfA5c200a6Ee9Bc9d3085d02A2c95908b",
        "0x2633223E6cEE2Fb4e030d8F815dfc78003c4CCe1",
        "34"
      ],
      "rpc": "https://eth-goerli.g.alchemy.com/v2/B81B-tXiOVtE5bt8bJkX5Gqi3s2R1fgZ",
      "transaction": {
        "type": "0x02",
        "from": "0x85c91c3dfa5c200a6ee9bc9d3085d02a2c95908b",
        "to": "0xa6d32be299c481c7c689b6f7238a1ce1b5a3213d",
        "gas": "0xe813",
        "value": "0x0",
        "data": "0x23b872dd00000000000000000000000085c91c3dfa5c200a6ee9bc9d3085d02a2c95908b0000000000000000000000002633223e6cee2fb4e030d8f815dfc78003c4cce10000000000000000000000000000000000000000000000000000000000000022",
        "nonce": "0x65",
        "accessList": []
      },
      "additionalContracts": [],
      "isFixedGasLimit": false
    }
  ],
  "receipts": [
    {
      "transactionHash": "0x8415261b82e75532818a4c7e093c10b42de5b614d91df9462bf9b159a27da218",
      "transactionIndex": "0x3",
      "blockHash": "0xfed36df846c8fa55b7a1ddbcb47fcbddf72cef149bba9263ee0604d7aa015134",
      "blockNumber": "0x8ceca8",
      "from": "0x85C91C3DfA5c200a6Ee9Bc9d3085d02A2c95908b",
      "to": "0x02101dfB77FDE026414827Fdc604ddAF224F0921",
      "cumulativeGasUsed": "0xc4296",
      "gasUsed": "0x1785c",
      "contractAddress": null,
      "logs": [
        {
          "address": "0x02101dfB77FDE026414827Fdc604ddAF224F0921",
          "topics": [
            "0x07fba7bba1191da7ee1155dcfa0030701c9c9a9cc34a93b991fc6fd0c9268d8f"
          ],
          "data": "0x000000000000000000000000981b527f1971957ef1711427ce4962598d9e4fad000000000000000000000000da6c577241cb047628a370802d0cd20319f307b70000000000000000000000000000000000000000000000000000000000000005000000000000000000000000a6d32be299c481c7c689b6f7238a1ce1b5a3213d00000000000000000000000000000000000000000000000000000000000000200000000000000000000000000000000000000000000000000000000000000000",
          "blockHash": "0xfed36df846c8fa55b7a1ddbcb47fcbddf72cef149bba9263ee0604d7aa015134",
          "blockNumber": "0x8ceca8",
          "transactionHash": "0x8415261b82e75532818a4c7e093c10b42de5b614d91df9462bf9b159a27da218",
          "transactionIndex": "0x3",
          "logIndex": "0x6",
          "removed": false
        }
      ],
      "status": "0x1",
      "logsBloom": "0x00000000000000000000000000000000000000000000000000000000000000000000000000000000000000000000000000000000000000000000000000000002000000000000000000000000000000000000000000000000000000000000800000000000000000000000000000000000000000000000000000000000000000000000000000000000000000000200000000000000000000000000000000000000000000000000000000000000000000000000000000000000000000000000000000000000000000000000000000000000000000000000000000080000000000000000001000000000000000000000000000000000000000000000002000000000",
      "type": "0x2",
      "effectiveGasPrice": "0xb30341d5"
    },
    {
      "transactionHash": "0xd7e7a81291b22d28a3e12b2b563bcf0ab6ecfea4824a9be9c043e6437d38ac1c",
      "transactionIndex": "0x4",
      "blockHash": "0xfed36df846c8fa55b7a1ddbcb47fcbddf72cef149bba9263ee0604d7aa015134",
      "blockNumber": "0x8ceca8",
      "from": "0x85C91C3DfA5c200a6Ee9Bc9d3085d02A2c95908b",
      "to": "0x02101dfB77FDE026414827Fdc604ddAF224F0921",
      "cumulativeGasUsed": "0xdbaf2",
      "gasUsed": "0x1785c",
      "contractAddress": null,
      "logs": [
        {
          "address": "0x02101dfB77FDE026414827Fdc604ddAF224F0921",
          "topics": [
            "0x07fba7bba1191da7ee1155dcfa0030701c9c9a9cc34a93b991fc6fd0c9268d8f"
          ],
          "data": "0x000000000000000000000000b18cc8cee4bf6c25f3071498542115ea1ddd2592000000000000000000000000da6c577241cb047628a370802d0cd20319f307b70000000000000000000000000000000000000000000000000000000000000005000000000000000000000000a6d32be299c481c7c689b6f7238a1ce1b5a3213d00000000000000000000000000000000000000000000000000000000000000210000000000000000000000000000000000000000000000000000000000000000",
          "blockHash": "0xfed36df846c8fa55b7a1ddbcb47fcbddf72cef149bba9263ee0604d7aa015134",
          "blockNumber": "0x8ceca8",
          "transactionHash": "0xd7e7a81291b22d28a3e12b2b563bcf0ab6ecfea4824a9be9c043e6437d38ac1c",
          "transactionIndex": "0x4",
          "logIndex": "0x7",
          "removed": false
        }
      ],
      "status": "0x1",
      "logsBloom": "0x00000000000000000000000000000000000000000000000000000000000000000000000000000000000000000000000000000000000000000000000000000002000000000000000000000000000000000000000000000000000000000000800000000000000000000000000000000000000000000000000000000000000000000000000000000000000000000200000000000000000000000000000000000000000000000000000000000000000000000000000000000000000000000000000000000000000000000000000000000000000000000000000000080000000000000000001000000000000000000000000000000000000000000000002000000000",
      "type": "0x2",
      "effectiveGasPrice": "0xb30341d5"
    },
    {
      "transactionHash": "0xdb50a4f6ba6669147231ab582499fe59c4640300c4d35021c6a14d93b5cd527b",
      "transactionIndex": "0x5",
      "blockHash": "0xfed36df846c8fa55b7a1ddbcb47fcbddf72cef149bba9263ee0604d7aa015134",
      "blockNumber": "0x8ceca8",
      "from": "0x85C91C3DfA5c200a6Ee9Bc9d3085d02A2c95908b",
      "to": "0x02101dfB77FDE026414827Fdc604ddAF224F0921",
      "cumulativeGasUsed": "0xf334e",
      "gasUsed": "0x1785c",
      "contractAddress": null,
      "logs": [
        {
          "address": "0x02101dfB77FDE026414827Fdc604ddAF224F0921",
          "topics": [
            "0x07fba7bba1191da7ee1155dcfa0030701c9c9a9cc34a93b991fc6fd0c9268d8f"
          ],
          "data": "0x00000000000000000000000098f306810fcb1b104d11fbe97baf3930fe301f7c000000000000000000000000da6c577241cb047628a370802d0cd20319f307b70000000000000000000000000000000000000000000000000000000000000005000000000000000000000000a6d32be299c481c7c689b6f7238a1ce1b5a3213d00000000000000000000000000000000000000000000000000000000000000220000000000000000000000000000000000000000000000000000000000000000",
          "blockHash": "0xfed36df846c8fa55b7a1ddbcb47fcbddf72cef149bba9263ee0604d7aa015134",
          "blockNumber": "0x8ceca8",
          "transactionHash": "0xdb50a4f6ba6669147231ab582499fe59c4640300c4d35021c6a14d93b5cd527b",
          "transactionIndex": "0x5",
          "logIndex": "0x8",
          "removed": false
        }
      ],
      "status": "0x1",
      "logsBloom": "0x00000000000000000000000000000000000000000000000000000000000000000000000000000000000000000000000000000000000000000000000000000002000000000000000000000000000000000000000000000000000000000000800000000000000000000000000000000000000000000000000000000000000000000000000000000000000000000200000000000000000000000000000000000000000000000000000000000000000000000000000000000000000000000000000000000000000000000000000000000000000000000000000000080000000000000000001000000000000000000000000000000000000000000000002000000000",
      "type": "0x2",
      "effectiveGasPrice": "0xb30341d5"
    },
    {
      "transactionHash": "0x1b22294dd48938006f05c025a175eaeb7c477b265d0df5d565a3b6b721234a4e",
      "transactionIndex": "0x6",
      "blockHash": "0xfed36df846c8fa55b7a1ddbcb47fcbddf72cef149bba9263ee0604d7aa015134",
      "blockNumber": "0x8ceca8",
      "from": "0x85C91C3DfA5c200a6Ee9Bc9d3085d02A2c95908b",
      "to": "0x8E16e15381729fFEeDC4755f2Dcf6F5461f7F389",
      "cumulativeGasUsed": "0x101e1f",
      "gasUsed": "0xead1",
      "contractAddress": null,
      "logs": [
        {
          "address": "0x8E16e15381729fFEeDC4755f2Dcf6F5461f7F389",
          "topics": [
            "0xddf252ad1be2c89b69c2b068fc378daa952ba7f163c4a11628f55a4df523b3ef",
            "0x00000000000000000000000085c91c3dfa5c200a6ee9bc9d3085d02a2c95908b",
            "0x000000000000000000000000981b527f1971957ef1711427ce4962598d9e4fad",
            "0x000000000000000000000000000000000000000000000000000000000000002e"
          ],
          "data": "0x",
          "blockHash": "0xfed36df846c8fa55b7a1ddbcb47fcbddf72cef149bba9263ee0604d7aa015134",
          "blockNumber": "0x8ceca8",
          "transactionHash": "0x1b22294dd48938006f05c025a175eaeb7c477b265d0df5d565a3b6b721234a4e",
          "transactionIndex": "0x6",
          "logIndex": "0x9",
          "removed": false
        }
      ],
      "status": "0x1",
      "logsBloom": "0x04000000000000000000000000000000000000000000000000004000000000100000000000000000000000000000000000001000000000000000000000000000000000000000000080000808000000000000000000000000000008000000000000000000000010000000000000000000000000000000000000000010000000000000000000000000000000000000000000200000000000000000000000000000000000000000000000000000000000000000000000000000000000000000000000000002000000000000000000000000000000080000000000000000000000000000000000000000000000040000000000000000001000000000000000000000",
      "type": "0x2",
      "effectiveGasPrice": "0xb30341d5"
    },
    {
      "transactionHash": "0x1198b71a2d210fe66475616a6ae20c3145440018ca8624449e4d4ebef92eb339",
      "transactionIndex": "0x7",
      "blockHash": "0xfed36df846c8fa55b7a1ddbcb47fcbddf72cef149bba9263ee0604d7aa015134",
      "blockNumber": "0x8ceca8",
      "from": "0x85C91C3DfA5c200a6Ee9Bc9d3085d02A2c95908b",
      "to": "0x8E16e15381729fFEeDC4755f2Dcf6F5461f7F389",
      "cumulativeGasUsed": "0x10c624",
      "gasUsed": "0xa805",
      "contractAddress": null,
      "logs": [
        {
          "address": "0x8E16e15381729fFEeDC4755f2Dcf6F5461f7F389",
          "topics": [
            "0xddf252ad1be2c89b69c2b068fc378daa952ba7f163c4a11628f55a4df523b3ef",
            "0x00000000000000000000000085c91c3dfa5c200a6ee9bc9d3085d02a2c95908b",
            "0x000000000000000000000000981b527f1971957ef1711427ce4962598d9e4fad",
            "0x000000000000000000000000000000000000000000000000000000000000002f"
          ],
          "data": "0x",
          "blockHash": "0xfed36df846c8fa55b7a1ddbcb47fcbddf72cef149bba9263ee0604d7aa015134",
          "blockNumber": "0x8ceca8",
          "transactionHash": "0x1198b71a2d210fe66475616a6ae20c3145440018ca8624449e4d4ebef92eb339",
          "transactionIndex": "0x7",
          "logIndex": "0xa",
          "removed": false
        }
      ],
      "status": "0x1",
      "logsBloom": "0x00000000000000000000000000000000000080000000000000004000000000100000000000000000000000000000000000000000000000000000000000000000000000000000000000000808000000000000000000000000000008000000000000000000000010000000000000000000000000000000000000000010000000000000000000000000000000000000000000200000000000000000000000000000000000000000000000000000000000000000000000000000000000000000000000000002000000000000000000000000000000080000000000000000000000000000000000000000000000040000000000000000001004000000000000080000",
      "type": "0x2",
      "effectiveGasPrice": "0xb30341d5"
    },
    {
      "transactionHash": "0xe1607e35954e19807f9c191919e79ef834b80812f2e17b011d7d53fe1d61e56c",
      "transactionIndex": "0x8",
      "blockHash": "0xfed36df846c8fa55b7a1ddbcb47fcbddf72cef149bba9263ee0604d7aa015134",
      "blockNumber": "0x8ceca8",
      "from": "0x85C91C3DfA5c200a6Ee9Bc9d3085d02A2c95908b",
      "to": "0x8E16e15381729fFEeDC4755f2Dcf6F5461f7F389",
      "cumulativeGasUsed": "0x116e29",
      "gasUsed": "0xa805",
      "contractAddress": null,
      "logs": [
        {
          "address": "0x8E16e15381729fFEeDC4755f2Dcf6F5461f7F389",
          "topics": [
            "0xddf252ad1be2c89b69c2b068fc378daa952ba7f163c4a11628f55a4df523b3ef",
            "0x00000000000000000000000085c91c3dfa5c200a6ee9bc9d3085d02a2c95908b",
            "0x000000000000000000000000981b527f1971957ef1711427ce4962598d9e4fad",
            "0x0000000000000000000000000000000000000000000000000000000000000030"
          ],
          "data": "0x",
          "blockHash": "0xfed36df846c8fa55b7a1ddbcb47fcbddf72cef149bba9263ee0604d7aa015134",
          "blockNumber": "0x8ceca8",
          "transactionHash": "0xe1607e35954e19807f9c191919e79ef834b80812f2e17b011d7d53fe1d61e56c",
          "transactionIndex": "0x8",
          "logIndex": "0xb",
          "removed": false
        }
      ],
      "status": "0x1",
      "logsBloom": "0x02000000000000000000000000000000000000000000000000004000000000100000000000000000000000000000000000000000000000000000000000000000000000000000000000000808000000000000000000000000000008000000000000000000000010000000000000000000000000000000000000000010000000000000000000000000000000000000000000200000000000000000000000000000000000000000000000000000000000000000000002000000000000000000000000000002000000000000000000000000000000080000000000000000000020000000000000000000000000040000000000000000001000000000000000000000",
      "type": "0x2",
      "effectiveGasPrice": "0xb30341d5"
    },
    {
      "transactionHash": "0x919b4e6a9412a405cf3c0e8d2d411a90aff110c67c1b146bd7a4f081ef52a5c0",
      "transactionIndex": "0x9",
      "blockHash": "0xfed36df846c8fa55b7a1ddbcb47fcbddf72cef149bba9263ee0604d7aa015134",
      "blockNumber": "0x8ceca8",
      "from": "0x85C91C3DfA5c200a6Ee9Bc9d3085d02A2c95908b",
      "to": "0x8E16e15381729fFEeDC4755f2Dcf6F5461f7F389",
      "cumulativeGasUsed": "0x1258fa",
      "gasUsed": "0xead1",
      "contractAddress": null,
      "logs": [
        {
          "address": "0x8E16e15381729fFEeDC4755f2Dcf6F5461f7F389",
          "topics": [
            "0xddf252ad1be2c89b69c2b068fc378daa952ba7f163c4a11628f55a4df523b3ef",
            "0x00000000000000000000000085c91c3dfa5c200a6ee9bc9d3085d02a2c95908b",
            "0x000000000000000000000000b18cc8cee4bf6c25f3071498542115ea1ddd2592",
            "0x0000000000000000000000000000000000000000000000000000000000000031"
          ],
          "data": "0x",
          "blockHash": "0xfed36df846c8fa55b7a1ddbcb47fcbddf72cef149bba9263ee0604d7aa015134",
          "blockNumber": "0x8ceca8",
          "transactionHash": "0x919b4e6a9412a405cf3c0e8d2d411a90aff110c67c1b146bd7a4f081ef52a5c0",
          "transactionIndex": "0x9",
          "logIndex": "0xc",
          "removed": false
        }
      ],
      "status": "0x1",
      "logsBloom": "0x00000000000000000000000000000000000000000000000000004000000000000000000000000000000000000000000000001000000000000000000000000000040000000002000000000808000000000000000000000001000008000000000000000000000010000000000000000000000040000000000000000010000000000000000000000000000000000000000000200000000000000000000000000000000000000000000000000000000000000000000000000000000000000000000000000002000000000000000000000000000000000000000000000000000000000000000000000000000000040000000000000000000000000000000400000000",
      "type": "0x2",
      "effectiveGasPrice": "0xb30341d5"
    },
    {
      "transactionHash": "0x2486999f70e2c4bc304e22ccadb73f32df2999a3fde53b1e8ee0a13c8b71f9d9",
      "transactionIndex": "0xa",
      "blockHash": "0xfed36df846c8fa55b7a1ddbcb47fcbddf72cef149bba9263ee0604d7aa015134",
      "blockNumber": "0x8ceca8",
      "from": "0x85C91C3DfA5c200a6Ee9Bc9d3085d02A2c95908b",
      "to": "0x8E16e15381729fFEeDC4755f2Dcf6F5461f7F389",
      "cumulativeGasUsed": "0x1300ff",
      "gasUsed": "0xa805",
      "contractAddress": null,
      "logs": [
        {
          "address": "0x8E16e15381729fFEeDC4755f2Dcf6F5461f7F389",
          "topics": [
            "0xddf252ad1be2c89b69c2b068fc378daa952ba7f163c4a11628f55a4df523b3ef",
            "0x00000000000000000000000085c91c3dfa5c200a6ee9bc9d3085d02a2c95908b",
            "0x000000000000000000000000b18cc8cee4bf6c25f3071498542115ea1ddd2592",
            "0x0000000000000000000000000000000000000000000000000000000000000032"
          ],
          "data": "0x",
          "blockHash": "0xfed36df846c8fa55b7a1ddbcb47fcbddf72cef149bba9263ee0604d7aa015134",
          "blockNumber": "0x8ceca8",
          "transactionHash": "0x2486999f70e2c4bc304e22ccadb73f32df2999a3fde53b1e8ee0a13c8b71f9d9",
          "transactionIndex": "0xa",
          "logIndex": "0xd",
          "removed": false
        }
      ],
      "status": "0x1",
      "logsBloom": "0x00000000000000000000000000000000000000000000000000004000000000000002000000000000000000000000000000001000000000000000000000000000000000000002000000000808000000000000000000000000000008000000000000000000000010000000000000000000000000000000000000000010000000000000000000000000000000000000000000200000000000000000000000000000000000000000000000000000000000000000000000000000000000000000000000000002800000000000000000000000000000000000000000000000000800000000000000000000000000040000000000000000000000000000000400000000",
      "type": "0x2",
      "effectiveGasPrice": "0xb30341d5"
    },
    {
      "transactionHash": "0x41598b7db5c2097c8ea6702a114012f727d08865e7fd138989c2a40259178942",
      "transactionIndex": "0xb",
      "blockHash": "0xfed36df846c8fa55b7a1ddbcb47fcbddf72cef149bba9263ee0604d7aa015134",
      "blockNumber": "0x8ceca8",
      "from": "0x85C91C3DfA5c200a6Ee9Bc9d3085d02A2c95908b",
      "to": "0x8E16e15381729fFEeDC4755f2Dcf6F5461f7F389",
      "cumulativeGasUsed": "0x13a904",
      "gasUsed": "0xa805",
      "contractAddress": null,
      "logs": [
        {
          "address": "0x8E16e15381729fFEeDC4755f2Dcf6F5461f7F389",
          "topics": [
            "0xddf252ad1be2c89b69c2b068fc378daa952ba7f163c4a11628f55a4df523b3ef",
            "0x00000000000000000000000085c91c3dfa5c200a6ee9bc9d3085d02a2c95908b",
            "0x000000000000000000000000b18cc8cee4bf6c25f3071498542115ea1ddd2592",
            "0x0000000000000000000000000000000000000000000000000000000000000033"
          ],
          "data": "0x",
          "blockHash": "0xfed36df846c8fa55b7a1ddbcb47fcbddf72cef149bba9263ee0604d7aa015134",
          "blockNumber": "0x8ceca8",
          "transactionHash": "0x41598b7db5c2097c8ea6702a114012f727d08865e7fd138989c2a40259178942",
          "transactionIndex": "0xb",
          "logIndex": "0xe",
          "removed": false
        }
      ],
      "status": "0x1",
      "logsBloom": "0x00000000000000000000000000000000000000000000000000004000000000000000000000000000000000000000000000001000000000000000000000000000000000000002000000000808000000000000000000000000000008000000000000000000000010000000000000000000000000000000000000000010000000000000000040000000000000000000000000200000000000000000000000000000000001000000000000000080000000000000000000000000000000000000000000000002000000000000000000000000000000000000000000000000000000000000000000000000000000040000000000000000000000000000000400000000",
      "type": "0x2",
      "effectiveGasPrice": "0xb30341d5"
    },
    {
      "transactionHash": "0x3532dbeed7f7659c3c27d3b6b03a1d91b26f45722ef620bc6dc477fcb19bdbec",
      "transactionIndex": "0xc",
      "blockHash": "0xfed36df846c8fa55b7a1ddbcb47fcbddf72cef149bba9263ee0604d7aa015134",
      "blockNumber": "0x8ceca8",
      "from": "0x85C91C3DfA5c200a6Ee9Bc9d3085d02A2c95908b",
      "to": "0x8E16e15381729fFEeDC4755f2Dcf6F5461f7F389",
      "cumulativeGasUsed": "0x1493d5",
      "gasUsed": "0xead1",
      "contractAddress": null,
      "logs": [
        {
          "address": "0x8E16e15381729fFEeDC4755f2Dcf6F5461f7F389",
          "topics": [
            "0xddf252ad1be2c89b69c2b068fc378daa952ba7f163c4a11628f55a4df523b3ef",
            "0x00000000000000000000000085c91c3dfa5c200a6ee9bc9d3085d02a2c95908b",
            "0x00000000000000000000000098f306810fcb1b104d11fbe97baf3930fe301f7c",
            "0x0000000000000000000000000000000000000000000000000000000000000034"
          ],
          "data": "0x",
          "blockHash": "0xfed36df846c8fa55b7a1ddbcb47fcbddf72cef149bba9263ee0604d7aa015134",
          "blockNumber": "0x8ceca8",
          "transactionHash": "0x3532dbeed7f7659c3c27d3b6b03a1d91b26f45722ef620bc6dc477fcb19bdbec",
          "transactionIndex": "0xc",
          "logIndex": "0xf",
          "removed": false
        }
      ],
      "status": "0x1",
      "logsBloom": "0x00000000000000000000000000000000000000000000000000004000000000000000000000000000200000000000000000080000000000000000000000000000000000000000000000000808000000000000000000000000000008000000000000000000000010000000000000000000000000000004000000000010000000000000000000000000000000000000000000200000000000000000000000020000000000000000000000000000000000000000000000000000000000000000000000000002000000010000000000000000000000000000000000000000000000000000020000000000000000040000000000000000000000000000000000000000",
      "type": "0x2",
      "effectiveGasPrice": "0xb30341d5"
    },
    {
      "transactionHash": "0xef9a314ac1ef38c1e5761169fafdcd6943e2924e044aab7f92e4e3eac38dac7b",
      "transactionIndex": "0xd",
      "blockHash": "0xfed36df846c8fa55b7a1ddbcb47fcbddf72cef149bba9263ee0604d7aa015134",
      "blockNumber": "0x8ceca8",
      "from": "0x85C91C3DfA5c200a6Ee9Bc9d3085d02A2c95908b",
      "to": "0x8E16e15381729fFEeDC4755f2Dcf6F5461f7F389",
      "cumulativeGasUsed": "0x153bda",
      "gasUsed": "0xa805",
      "contractAddress": null,
      "logs": [
        {
          "address": "0x8E16e15381729fFEeDC4755f2Dcf6F5461f7F389",
          "topics": [
            "0xddf252ad1be2c89b69c2b068fc378daa952ba7f163c4a11628f55a4df523b3ef",
            "0x00000000000000000000000085c91c3dfa5c200a6ee9bc9d3085d02a2c95908b",
            "0x00000000000000000000000098f306810fcb1b104d11fbe97baf3930fe301f7c",
            "0x0000000000000000000000000000000000000000000000000000000000000035"
          ],
          "data": "0x",
          "blockHash": "0xfed36df846c8fa55b7a1ddbcb47fcbddf72cef149bba9263ee0604d7aa015134",
          "blockNumber": "0x8ceca8",
          "transactionHash": "0xef9a314ac1ef38c1e5761169fafdcd6943e2924e044aab7f92e4e3eac38dac7b",
          "transactionIndex": "0xd",
          "logIndex": "0x10",
          "removed": false
        }
      ],
      "status": "0x1",
      "logsBloom": "0x00000000000000000000001000000000000000000000000000004000000000000000000000000002000000000000000000080000000000000000000000000000000000000000000000000808000000000000000000000000000008000000000000000000000010000000000000000000000000000004000000000010000000000000000000000000000000000000000000200000000000000000020000000000000000000000000000000000000000000000000000000000000000000000000000000002000000010000000000000000000000000000000000000000000000000000000000000000000000040000000000000000000000000000000000000000",
      "type": "0x2",
      "effectiveGasPrice": "0xb30341d5"
    },
    {
      "transactionHash": "0x95f5cc82a4df2bfa36fb8434fc26eca152c89c50a7e5bd47ea1b840175945f3c",
      "transactionIndex": "0xe",
      "blockHash": "0xfed36df846c8fa55b7a1ddbcb47fcbddf72cef149bba9263ee0604d7aa015134",
      "blockNumber": "0x8ceca8",
      "from": "0x85C91C3DfA5c200a6Ee9Bc9d3085d02A2c95908b",
      "to": "0x8E16e15381729fFEeDC4755f2Dcf6F5461f7F389",
      "cumulativeGasUsed": "0x15e3df",
      "gasUsed": "0xa805",
      "contractAddress": null,
      "logs": [
        {
          "address": "0x8E16e15381729fFEeDC4755f2Dcf6F5461f7F389",
          "topics": [
            "0xddf252ad1be2c89b69c2b068fc378daa952ba7f163c4a11628f55a4df523b3ef",
            "0x00000000000000000000000085c91c3dfa5c200a6ee9bc9d3085d02a2c95908b",
            "0x00000000000000000000000098f306810fcb1b104d11fbe97baf3930fe301f7c",
            "0x0000000000000000000000000000000000000000000000000000000000000036"
          ],
          "data": "0x",
          "blockHash": "0xfed36df846c8fa55b7a1ddbcb47fcbddf72cef149bba9263ee0604d7aa015134",
          "blockNumber": "0x8ceca8",
          "transactionHash": "0x95f5cc82a4df2bfa36fb8434fc26eca152c89c50a7e5bd47ea1b840175945f3c",
          "transactionIndex": "0xe",
          "logIndex": "0x11",
          "removed": false
        }
      ],
      "status": "0x1",
      "logsBloom": "0x00000000000000000000000000000000000000000000000000004000000000000000000000000000000000000000000000080000000000000000000000000000000000000000000000000808000000000000000000000000000008000000000000000000000010000000000000000000000000000004000000000010000000000000000000000000000000000000000000200000000000000000000000000000000000000000000000000000000000000000000000000000000000000002000000000002000000010000000000000000000000000000400000000000000000000000000000000000000002040000000000000000000000000000000000000000",
      "type": "0x2",
      "effectiveGasPrice": "0xb30341d5"
    },
    {
      "transactionHash": "0xa50a9a18ada043dd81b1ff6e4587bfc5cbb2398a83cb608318813f3efd139565",
      "transactionIndex": "0xf",
      "blockHash": "0xfed36df846c8fa55b7a1ddbcb47fcbddf72cef149bba9263ee0604d7aa015134",
      "blockNumber": "0x8ceca8",
      "from": "0x85C91C3DfA5c200a6Ee9Bc9d3085d02A2c95908b",
      "to": "0x8E16e15381729fFEeDC4755f2Dcf6F5461f7F389",
      "cumulativeGasUsed": "0x168be4",
      "gasUsed": "0xa805",
      "contractAddress": null,
      "logs": [
        {
          "address": "0x8E16e15381729fFEeDC4755f2Dcf6F5461f7F389",
          "topics": [
            "0xddf252ad1be2c89b69c2b068fc378daa952ba7f163c4a11628f55a4df523b3ef",
            "0x00000000000000000000000085c91c3dfa5c200a6ee9bc9d3085d02a2c95908b",
            "0x00000000000000000000000098f306810fcb1b104d11fbe97baf3930fe301f7c",
            "0x0000000000000000000000000000000000000000000000000000000000000037"
          ],
          "data": "0x",
          "blockHash": "0xfed36df846c8fa55b7a1ddbcb47fcbddf72cef149bba9263ee0604d7aa015134",
          "blockNumber": "0x8ceca8",
          "transactionHash": "0xa50a9a18ada043dd81b1ff6e4587bfc5cbb2398a83cb608318813f3efd139565",
          "transactionIndex": "0xf",
          "logIndex": "0x12",
          "removed": false
        }
      ],
      "status": "0x1",
      "logsBloom": "0x00000000200000000000000000000000000000000000000000004000000000000000000000000000000000000000000000080000000000000000000000000000000000000000000000000808000000000000000000000000000008000000000000000000000010000000000000000000000000000004000000000010000000000000000000000000000000000000000000200000000000000000000000000000000000000000000000000080000000000000000000000000000000000000000000000002000000010000000000000000000000000000000000000000000000000000000000000000000000040000000000000000100000000000000000000000",
      "type": "0x2",
      "effectiveGasPrice": "0xb30341d5"
    },
    {
      "transactionHash": "0xfb8edea8ff05a9b6fb98d4c88c243d551297db64f23e9f39525764106f819638",
      "transactionIndex": "0x10",
      "blockHash": "0xfed36df846c8fa55b7a1ddbcb47fcbddf72cef149bba9263ee0604d7aa015134",
      "blockNumber": "0x8ceca8",
      "from": "0x85C91C3DfA5c200a6Ee9Bc9d3085d02A2c95908b",
      "to": "0xA6d32Be299C481c7C689b6f7238A1cE1b5A3213d",
      "cumulativeGasUsed": "0x1776b5",
      "gasUsed": "0xead1",
      "contractAddress": null,
      "logs": [
        {
          "address": "0xA6d32Be299C481c7C689b6f7238A1cE1b5A3213d",
          "topics": [
            "0xddf252ad1be2c89b69c2b068fc378daa952ba7f163c4a11628f55a4df523b3ef",
            "0x00000000000000000000000085c91c3dfa5c200a6ee9bc9d3085d02a2c95908b",
            "0x0000000000000000000000002633223e6cee2fb4e030d8f815dfc78003c4cce1",
            "0x0000000000000000000000000000000000000000000000000000000000000020"
          ],
          "data": "0x",
          "blockHash": "0xfed36df846c8fa55b7a1ddbcb47fcbddf72cef149bba9263ee0604d7aa015134",
          "blockNumber": "0x8ceca8",
          "transactionHash": "0xfb8edea8ff05a9b6fb98d4c88c243d551297db64f23e9f39525764106f819638",
          "transactionIndex": "0x10",
          "logIndex": "0x13",
          "removed": false
        }
      ],
      "status": "0x1",
      "logsBloom": "0x00000000000000000000000000000000000000000000000000000000000000000000000000000000000000000000000000000000000000000000000000000000000000000000000000000808000000000000000000000000000008000000000000000000000000000000000000000000000000000000000000408010000000000000000000000000000000010000000000200000000000000000000000000000000400000000000000000000000000400000000000000000000000000000000400000002100000000000000000000000080000000000000000000000000000000000400000000000000000000000000000000000000000000000000000000000",
      "type": "0x2",
      "effectiveGasPrice": "0xb30341d5"
    },
    {
      "transactionHash": "0x8aaddc2c1693fe1137840de04f495ada562a96c45723d892d2dec98c96ef2526",
      "transactionIndex": "0x11",
      "blockHash": "0xfed36df846c8fa55b7a1ddbcb47fcbddf72cef149bba9263ee0604d7aa015134",
      "blockNumber": "0x8ceca8",
      "from": "0x85C91C3DfA5c200a6Ee9Bc9d3085d02A2c95908b",
      "to": "0xA6d32Be299C481c7C689b6f7238A1cE1b5A3213d",
      "cumulativeGasUsed": "0x181eba",
      "gasUsed": "0xa805",
      "contractAddress": null,
      "logs": [
        {
          "address": "0xA6d32Be299C481c7C689b6f7238A1cE1b5A3213d",
          "topics": [
            "0xddf252ad1be2c89b69c2b068fc378daa952ba7f163c4a11628f55a4df523b3ef",
            "0x00000000000000000000000085c91c3dfa5c200a6ee9bc9d3085d02a2c95908b",
            "0x0000000000000000000000002633223e6cee2fb4e030d8f815dfc78003c4cce1",
            "0x0000000000000000000000000000000000000000000000000000000000000021"
          ],
          "data": "0x",
          "blockHash": "0xfed36df846c8fa55b7a1ddbcb47fcbddf72cef149bba9263ee0604d7aa015134",
          "blockNumber": "0x8ceca8",
          "transactionHash": "0x8aaddc2c1693fe1137840de04f495ada562a96c45723d892d2dec98c96ef2526",
          "transactionIndex": "0x11",
          "logIndex": "0x14",
          "removed": false
        }
      ],
      "status": "0x1",
      "logsBloom": "0x00000000000000000000000000000000000000000000000000000000000000020000000000000000000000000000000000000000000000000000000000000000000000000000000000000808000000000000000000000000000008000000000000000000000000000000000000000000000000000000000000408010040000000000000000000000000000010000000000200000000000000000000000000000000000000000000000000000000000400000000800000000000000000000000400000002100000000000000000000000000000000000000000000000000000000000000000000000000000000000000000000000000000000000000000000000",
      "type": "0x2",
      "effectiveGasPrice": "0xb30341d5"
    },
    {
      "transactionHash": "0xe23f93d201fd3418159f3d74c34ef8bf577dab0c11973bca4ab4efc9b55d3704",
      "transactionIndex": "0x12",
      "blockHash": "0xfed36df846c8fa55b7a1ddbcb47fcbddf72cef149bba9263ee0604d7aa015134",
      "blockNumber": "0x8ceca8",
      "from": "0x85C91C3DfA5c200a6Ee9Bc9d3085d02A2c95908b",
      "to": "0xA6d32Be299C481c7C689b6f7238A1cE1b5A3213d",
      "cumulativeGasUsed": "0x18c6bf",
      "gasUsed": "0xa805",
      "contractAddress": null,
      "logs": [
        {
          "address": "0xA6d32Be299C481c7C689b6f7238A1cE1b5A3213d",
          "topics": [
            "0xddf252ad1be2c89b69c2b068fc378daa952ba7f163c4a11628f55a4df523b3ef",
            "0x00000000000000000000000085c91c3dfa5c200a6ee9bc9d3085d02a2c95908b",
            "0x0000000000000000000000002633223e6cee2fb4e030d8f815dfc78003c4cce1",
            "0x0000000000000000000000000000000000000000000000000000000000000022"
          ],
          "data": "0x",
          "blockHash": "0xfed36df846c8fa55b7a1ddbcb47fcbddf72cef149bba9263ee0604d7aa015134",
          "blockNumber": "0x8ceca8",
          "transactionHash": "0xe23f93d201fd3418159f3d74c34ef8bf577dab0c11973bca4ab4efc9b55d3704",
          "transactionIndex": "0x12",
          "logIndex": "0x15",
          "removed": false
        }
      ],
      "status": "0x1",
      "logsBloom": "0x00000000000000000000000000000000000000000000000000000000000000000000000000000000000000000000000000000000000000000000000000000000000000000000000000000808000000000000000000000000000008000000000000000000000000000000000000000000000000000000000000408010000000000000020000000000000000010000000000200000000000000000004000000000000000000000000000000000000000400000000000000000000000000000000400000002100000000000000000000000000000000000000000000000000000080000000000000000000000000000000000000000000000000000000000000000",
      "type": "0x2",
      "effectiveGasPrice": "0xb30341d5"
    }
  ],
  "libraries": [],
  "pending": [],
  "path": "/Users/jaclyn/Documents/code/fukuro/contracts/broadcast/demoSetup.s.sol/5/run-latest.json",
  "returns": {},
  "timestamp": 1687658090,
  "chain": 5,
  "multi": false,
  "commit": "f344fa4"
}