{
  "transactions": [
    {
      "hash": "0x99873fb9bd9ee4a6fea745d4211c7fc0c83c4f10ea9547657b8ffce1296c1263",
      "transactionType": "CALL",
      "contractName": "ERC6551Registry",
      "contractAddress": "0x02101dfB77FDE026414827Fdc604ddAF224F0921",
      "function": "createAccount(address,uint256,address,uint256,uint256,bytes):(address)",
      "arguments": [
        "0xDA6c577241cB047628a370802D0CD20319F307B7",
        "5",
        "0xA6d32Be299C481c7C689b6f7238A1cE1b5A3213d",
        "29",
        "0",
        "0x"
      ],
      "rpc": "https://eth-goerli.g.alchemy.com/v2/B81B-tXiOVtE5bt8bJkX5Gqi3s2R1fgZ",
      "transaction": {
        "type": "0x02",
        "from": "0x85c91c3dfa5c200a6ee9bc9d3085d02a2c95908b",
        "to": "0x02101dfb77fde026414827fdc604ddaf224f0921",
        "gas": "0x207c8",
        "value": "0x0",
        "data": "0xda7323b3000000000000000000000000da6c577241cb047628a370802d0cd20319f307b70000000000000000000000000000000000000000000000000000000000000005000000000000000000000000a6d32be299c481c7c689b6f7238a1ce1b5a3213d000000000000000000000000000000000000000000000000000000000000001d000000000000000000000000000000000000000000000000000000000000000000000000000000000000000000000000000000000000000000000000000000c00000000000000000000000000000000000000000000000000000000000000000",
        "nonce": "0x43",
        "accessList": []
      },
      "additionalContracts": [
        {
          "transactionType": "CREATE2",
          "address": "0xC34F5436Cb5A1FBdc12e421bBfd264765af96063",
          "initCode": "3d60ad80600a3d3981f3363d3d373d3d3d363d73da6c577241cb047628a370802d0cd20319f307b75af43d82803e903d91602b57fd5bf300000000000000000000000000000000000000000000000000000000000000000000000000000000000000000000000000000000000000000000000000000005000000000000000000000000a6d32be299c481c7c689b6f7238a1ce1b5a3213d000000000000000000000000000000000000000000000000000000000000001d"
        }
      ],
      "isFixedGasLimit": false
    },
    {
      "hash": "0x9daa70027579385d6ace35cc18e7effa9556eee770dbc69ec1025ae4f0e8a205",
      "transactionType": "CALL",
      "contractName": "ERC6551Registry",
      "contractAddress": "0x02101dfB77FDE026414827Fdc604ddAF224F0921",
      "function": "createAccount(address,uint256,address,uint256,uint256,bytes):(address)",
      "arguments": [
        "0xDA6c577241cB047628a370802D0CD20319F307B7",
        "5",
        "0xA6d32Be299C481c7C689b6f7238A1cE1b5A3213d",
        "30",
        "0",
        "0x"
      ],
      "rpc": "https://eth-goerli.g.alchemy.com/v2/B81B-tXiOVtE5bt8bJkX5Gqi3s2R1fgZ",
      "transaction": {
        "type": "0x02",
        "from": "0x85c91c3dfa5c200a6ee9bc9d3085d02a2c95908b",
        "to": "0x02101dfb77fde026414827fdc604ddaf224f0921",
        "gas": "0x207c8",
        "value": "0x0",
        "data": "0xda7323b3000000000000000000000000da6c577241cb047628a370802d0cd20319f307b70000000000000000000000000000000000000000000000000000000000000005000000000000000000000000a6d32be299c481c7c689b6f7238a1ce1b5a3213d000000000000000000000000000000000000000000000000000000000000001e000000000000000000000000000000000000000000000000000000000000000000000000000000000000000000000000000000000000000000000000000000c00000000000000000000000000000000000000000000000000000000000000000",
        "nonce": "0x44",
        "accessList": []
      },
      "additionalContracts": [
        {
          "transactionType": "CREATE2",
          "address": "0x174D9E9b11E6FEF28895f2bCeA783138eDBD47eB",
          "initCode": "3d60ad80600a3d3981f3363d3d373d3d3d363d73da6c577241cb047628a370802d0cd20319f307b75af43d82803e903d91602b57fd5bf300000000000000000000000000000000000000000000000000000000000000000000000000000000000000000000000000000000000000000000000000000005000000000000000000000000a6d32be299c481c7c689b6f7238a1ce1b5a3213d000000000000000000000000000000000000000000000000000000000000001e"
        }
      ],
      "isFixedGasLimit": false
    },
    {
      "hash": "0x09fb3436860913efe60d891c4511aab5dc9d292fe4ec5554a193b3f17e89913f",
      "transactionType": "CALL",
      "contractName": "ERC6551Registry",
      "contractAddress": "0x02101dfB77FDE026414827Fdc604ddAF224F0921",
      "function": "createAccount(address,uint256,address,uint256,uint256,bytes):(address)",
      "arguments": [
        "0xDA6c577241cB047628a370802D0CD20319F307B7",
        "5",
        "0xA6d32Be299C481c7C689b6f7238A1cE1b5A3213d",
        "31",
        "0",
        "0x"
      ],
      "rpc": "https://eth-goerli.g.alchemy.com/v2/B81B-tXiOVtE5bt8bJkX5Gqi3s2R1fgZ",
      "transaction": {
        "type": "0x02",
        "from": "0x85c91c3dfa5c200a6ee9bc9d3085d02a2c95908b",
        "to": "0x02101dfb77fde026414827fdc604ddaf224f0921",
        "gas": "0x207c8",
        "value": "0x0",
        "data": "0xda7323b3000000000000000000000000da6c577241cb047628a370802d0cd20319f307b70000000000000000000000000000000000000000000000000000000000000005000000000000000000000000a6d32be299c481c7c689b6f7238a1ce1b5a3213d000000000000000000000000000000000000000000000000000000000000001f000000000000000000000000000000000000000000000000000000000000000000000000000000000000000000000000000000000000000000000000000000c00000000000000000000000000000000000000000000000000000000000000000",
        "nonce": "0x45",
        "accessList": []
      },
      "additionalContracts": [
        {
          "transactionType": "CREATE2",
          "address": "0x4f29A8b224ab3Ef73162F057707D61fF293E74DB",
          "initCode": "3d60ad80600a3d3981f3363d3d373d3d3d363d73da6c577241cb047628a370802d0cd20319f307b75af43d82803e903d91602b57fd5bf300000000000000000000000000000000000000000000000000000000000000000000000000000000000000000000000000000000000000000000000000000005000000000000000000000000a6d32be299c481c7c689b6f7238a1ce1b5a3213d000000000000000000000000000000000000000000000000000000000000001f"
        }
      ],
      "isFixedGasLimit": false
    },
    {
      "hash": "0xd6eb864a2c4ecec8b5c18b8d7997c716cba56098e4eba310c2c426f513a5990a",
      "transactionType": "CALL",
      "contractName": "AfropolitanNFT",
      "contractAddress": "0x8E16e15381729fFEeDC4755f2Dcf6F5461f7F389",
      "function": "transferFrom(address,address,uint256)",
      "arguments": [
        "0x85C91C3DfA5c200a6Ee9Bc9d3085d02A2c95908b",
        "0xC34F5436Cb5A1FBdc12e421bBfd264765af96063",
        "36"
      ],
      "rpc": "https://eth-goerli.g.alchemy.com/v2/B81B-tXiOVtE5bt8bJkX5Gqi3s2R1fgZ",
      "transaction": {
        "type": "0x02",
        "from": "0x85c91c3dfa5c200a6ee9bc9d3085d02a2c95908b",
        "to": "0x8e16e15381729ffeedc4755f2dcf6f5461f7f389",
        "gas": "0x1576b",
        "value": "0x0",
        "data": "0x23b872dd00000000000000000000000085c91c3dfa5c200a6ee9bc9d3085d02a2c95908b000000000000000000000000c34f5436cb5a1fbdc12e421bbfd264765af960630000000000000000000000000000000000000000000000000000000000000024",
        "nonce": "0x46",
        "accessList": []
      },
      "additionalContracts": [],
      "isFixedGasLimit": false
    },
    {
      "hash": "0x6ee0d874f900cdfb3d6f3ffd3332b829476e6425160cedd6fefff528fddababa",
      "transactionType": "CALL",
      "contractName": "AfropolitanNFT",
      "contractAddress": "0x8E16e15381729fFEeDC4755f2Dcf6F5461f7F389",
      "function": "transferFrom(address,address,uint256)",
      "arguments": [
        "0x85C91C3DfA5c200a6Ee9Bc9d3085d02A2c95908b",
        "0xC34F5436Cb5A1FBdc12e421bBfd264765af96063",
        "37"
      ],
      "rpc": "https://eth-goerli.g.alchemy.com/v2/B81B-tXiOVtE5bt8bJkX5Gqi3s2R1fgZ",
      "transaction": {
        "type": "0x02",
        "from": "0x85c91c3dfa5c200a6ee9bc9d3085d02a2c95908b",
        "to": "0x8e16e15381729ffeedc4755f2dcf6f5461f7f389",
        "gas": "0xe813",
        "value": "0x0",
        "data": "0x23b872dd00000000000000000000000085c91c3dfa5c200a6ee9bc9d3085d02a2c95908b000000000000000000000000c34f5436cb5a1fbdc12e421bbfd264765af960630000000000000000000000000000000000000000000000000000000000000025",
        "nonce": "0x47",
        "accessList": []
      },
      "additionalContracts": [],
      "isFixedGasLimit": false
    },
    {
      "hash": "0x32cf10aa5eef9452c8021dd03761ded1032e39f907ee4d2339db27176d71de2f",
      "transactionType": "CALL",
      "contractName": "AfropolitanNFT",
      "contractAddress": "0x8E16e15381729fFEeDC4755f2Dcf6F5461f7F389",
      "function": "transferFrom(address,address,uint256)",
      "arguments": [
        "0x85C91C3DfA5c200a6Ee9Bc9d3085d02A2c95908b",
        "0xC34F5436Cb5A1FBdc12e421bBfd264765af96063",
        "38"
      ],
      "rpc": "https://eth-goerli.g.alchemy.com/v2/B81B-tXiOVtE5bt8bJkX5Gqi3s2R1fgZ",
      "transaction": {
        "type": "0x02",
        "from": "0x85c91c3dfa5c200a6ee9bc9d3085d02a2c95908b",
        "to": "0x8e16e15381729ffeedc4755f2dcf6f5461f7f389",
        "gas": "0xe813",
        "value": "0x0",
        "data": "0x23b872dd00000000000000000000000085c91c3dfa5c200a6ee9bc9d3085d02a2c95908b000000000000000000000000c34f5436cb5a1fbdc12e421bbfd264765af960630000000000000000000000000000000000000000000000000000000000000026",
        "nonce": "0x48",
        "accessList": []
      },
      "additionalContracts": [],
      "isFixedGasLimit": false
    },
    {
      "hash": "0x969f59720ac4482f650eb53c5274afcb03fc3f05b514e1743f0cc91ebbed0b81",
      "transactionType": "CALL",
      "contractName": "AfropolitanNFT",
      "contractAddress": "0x8E16e15381729fFEeDC4755f2Dcf6F5461f7F389",
      "function": "transferFrom(address,address,uint256)",
      "arguments": [
        "0x85C91C3DfA5c200a6Ee9Bc9d3085d02A2c95908b",
        "0x174D9E9b11E6FEF28895f2bCeA783138eDBD47eB",
        "39"
      ],
      "rpc": "https://eth-goerli.g.alchemy.com/v2/B81B-tXiOVtE5bt8bJkX5Gqi3s2R1fgZ",
      "transaction": {
        "type": "0x02",
        "from": "0x85c91c3dfa5c200a6ee9bc9d3085d02a2c95908b",
        "to": "0x8e16e15381729ffeedc4755f2dcf6f5461f7f389",
        "gas": "0x1576b",
        "value": "0x0",
        "data": "0x23b872dd00000000000000000000000085c91c3dfa5c200a6ee9bc9d3085d02a2c95908b000000000000000000000000174d9e9b11e6fef28895f2bcea783138edbd47eb0000000000000000000000000000000000000000000000000000000000000027",
        "nonce": "0x49",
        "accessList": []
      },
      "additionalContracts": [],
      "isFixedGasLimit": false
    },
    {
      "hash": "0xa65b788b313bd216d06bd0dccd2092034d389e80acabec78f43a4513bcd4709a",
      "transactionType": "CALL",
      "contractName": "AfropolitanNFT",
      "contractAddress": "0x8E16e15381729fFEeDC4755f2Dcf6F5461f7F389",
      "function": "transferFrom(address,address,uint256)",
      "arguments": [
        "0x85C91C3DfA5c200a6Ee9Bc9d3085d02A2c95908b",
        "0x174D9E9b11E6FEF28895f2bCeA783138eDBD47eB",
        "40"
      ],
      "rpc": "https://eth-goerli.g.alchemy.com/v2/B81B-tXiOVtE5bt8bJkX5Gqi3s2R1fgZ",
      "transaction": {
        "type": "0x02",
        "from": "0x85c91c3dfa5c200a6ee9bc9d3085d02a2c95908b",
        "to": "0x8e16e15381729ffeedc4755f2dcf6f5461f7f389",
        "gas": "0xe813",
        "value": "0x0",
        "data": "0x23b872dd00000000000000000000000085c91c3dfa5c200a6ee9bc9d3085d02a2c95908b000000000000000000000000174d9e9b11e6fef28895f2bcea783138edbd47eb0000000000000000000000000000000000000000000000000000000000000028",
        "nonce": "0x4a",
        "accessList": []
      },
      "additionalContracts": [],
      "isFixedGasLimit": false
    },
    {
      "hash": "0xf4dbc95df98e4856fc33540c2b8c38670365b004a509ab3ae1581aedda973eab",
      "transactionType": "CALL",
      "contractName": "AfropolitanNFT",
      "contractAddress": "0x8E16e15381729fFEeDC4755f2Dcf6F5461f7F389",
      "function": "transferFrom(address,address,uint256)",
      "arguments": [
        "0x85C91C3DfA5c200a6Ee9Bc9d3085d02A2c95908b",
        "0x174D9E9b11E6FEF28895f2bCeA783138eDBD47eB",
        "41"
      ],
      "rpc": "https://eth-goerli.g.alchemy.com/v2/B81B-tXiOVtE5bt8bJkX5Gqi3s2R1fgZ",
      "transaction": {
        "type": "0x02",
        "from": "0x85c91c3dfa5c200a6ee9bc9d3085d02a2c95908b",
        "to": "0x8e16e15381729ffeedc4755f2dcf6f5461f7f389",
        "gas": "0xe813",
        "value": "0x0",
        "data": "0x23b872dd00000000000000000000000085c91c3dfa5c200a6ee9bc9d3085d02a2c95908b000000000000000000000000174d9e9b11e6fef28895f2bcea783138edbd47eb0000000000000000000000000000000000000000000000000000000000000029",
        "nonce": "0x4b",
        "accessList": []
      },
      "additionalContracts": [],
      "isFixedGasLimit": false
    },
    {
      "hash": "0x855d645080155b0c67bb191d2f0b5d74d6cb863f140e4754ac40dad7b1e267d3",
      "transactionType": "CALL",
      "contractName": "AfropolitanNFT",
      "contractAddress": "0x8E16e15381729fFEeDC4755f2Dcf6F5461f7F389",
      "function": "transferFrom(address,address,uint256)",
      "arguments": [
        "0x85C91C3DfA5c200a6Ee9Bc9d3085d02A2c95908b",
        "0x4f29A8b224ab3Ef73162F057707D61fF293E74DB",
        "42"
      ],
      "rpc": "https://eth-goerli.g.alchemy.com/v2/B81B-tXiOVtE5bt8bJkX5Gqi3s2R1fgZ",
      "transaction": {
        "type": "0x02",
        "from": "0x85c91c3dfa5c200a6ee9bc9d3085d02a2c95908b",
        "to": "0x8e16e15381729ffeedc4755f2dcf6f5461f7f389",
        "gas": "0x1576b",
        "value": "0x0",
        "data": "0x23b872dd00000000000000000000000085c91c3dfa5c200a6ee9bc9d3085d02a2c95908b0000000000000000000000004f29a8b224ab3ef73162f057707d61ff293e74db000000000000000000000000000000000000000000000000000000000000002a",
        "nonce": "0x4c",
        "accessList": []
      },
      "additionalContracts": [],
      "isFixedGasLimit": false
    },
    {
      "hash": "0xd95ba534118bd91619ac10d3245638be56675fdab1d57f732cca75851a7d8e04",
      "transactionType": "CALL",
      "contractName": "AfropolitanNFT",
      "contractAddress": "0x8E16e15381729fFEeDC4755f2Dcf6F5461f7F389",
      "function": "transferFrom(address,address,uint256)",
      "arguments": [
        "0x85C91C3DfA5c200a6Ee9Bc9d3085d02A2c95908b",
        "0x4f29A8b224ab3Ef73162F057707D61fF293E74DB",
        "43"
      ],
      "rpc": "https://eth-goerli.g.alchemy.com/v2/B81B-tXiOVtE5bt8bJkX5Gqi3s2R1fgZ",
      "transaction": {
        "type": "0x02",
        "from": "0x85c91c3dfa5c200a6ee9bc9d3085d02a2c95908b",
        "to": "0x8e16e15381729ffeedc4755f2dcf6f5461f7f389",
        "gas": "0xe813",
        "value": "0x0",
        "data": "0x23b872dd00000000000000000000000085c91c3dfa5c200a6ee9bc9d3085d02a2c95908b0000000000000000000000004f29a8b224ab3ef73162f057707d61ff293e74db000000000000000000000000000000000000000000000000000000000000002b",
        "nonce": "0x4d",
        "accessList": []
      },
      "additionalContracts": [],
      "isFixedGasLimit": false
    },
    {
      "hash": "0x93566fb23cb03df703d3ef1ba53269b573a3761c957487531681cbd5c177f113",
      "transactionType": "CALL",
      "contractName": "AfropolitanNFT",
      "contractAddress": "0x8E16e15381729fFEeDC4755f2Dcf6F5461f7F389",
      "function": "transferFrom(address,address,uint256)",
      "arguments": [
        "0x85C91C3DfA5c200a6Ee9Bc9d3085d02A2c95908b",
        "0x4f29A8b224ab3Ef73162F057707D61fF293E74DB",
        "44"
      ],
      "rpc": "https://eth-goerli.g.alchemy.com/v2/B81B-tXiOVtE5bt8bJkX5Gqi3s2R1fgZ",
      "transaction": {
        "type": "0x02",
        "from": "0x85c91c3dfa5c200a6ee9bc9d3085d02a2c95908b",
        "to": "0x8e16e15381729ffeedc4755f2dcf6f5461f7f389",
        "gas": "0xe813",
        "value": "0x0",
        "data": "0x23b872dd00000000000000000000000085c91c3dfa5c200a6ee9bc9d3085d02a2c95908b0000000000000000000000004f29a8b224ab3ef73162f057707d61ff293e74db000000000000000000000000000000000000000000000000000000000000002c",
        "nonce": "0x4e",
        "accessList": []
      },
      "additionalContracts": [],
      "isFixedGasLimit": false
    },
    {
      "hash": "0x879f4e29c1fa2de93ff9377b158f7be65f79648f3a282527e6df6230c62b8bdc",
      "transactionType": "CALL",
      "contractName": "AfropolitanNFT",
      "contractAddress": "0x8E16e15381729fFEeDC4755f2Dcf6F5461f7F389",
      "function": "transferFrom(address,address,uint256)",
      "arguments": [
        "0x85C91C3DfA5c200a6Ee9Bc9d3085d02A2c95908b",
        "0x4f29A8b224ab3Ef73162F057707D61fF293E74DB",
        "45"
      ],
      "rpc": "https://eth-goerli.g.alchemy.com/v2/B81B-tXiOVtE5bt8bJkX5Gqi3s2R1fgZ",
      "transaction": {
        "type": "0x02",
        "from": "0x85c91c3dfa5c200a6ee9bc9d3085d02a2c95908b",
        "to": "0x8e16e15381729ffeedc4755f2dcf6f5461f7f389",
        "gas": "0xe813",
        "value": "0x0",
        "data": "0x23b872dd00000000000000000000000085c91c3dfa5c200a6ee9bc9d3085d02a2c95908b0000000000000000000000004f29a8b224ab3ef73162f057707d61ff293e74db000000000000000000000000000000000000000000000000000000000000002d",
        "nonce": "0x4f",
        "accessList": []
      },
      "additionalContracts": [],
      "isFixedGasLimit": false
    },
    {
      "hash": "0xcbfbe75aad260c5e76e88318df5b95fc6788018725c5a12d96c5dfb505c386c1",
      "transactionType": "CALL",
      "contractName": "FukuFuku",
      "contractAddress": "0xA6d32Be299C481c7C689b6f7238A1cE1b5A3213d",
      "function": "transferFrom(address,address,uint256)",
      "arguments": [
        "0x85C91C3DfA5c200a6Ee9Bc9d3085d02A2c95908b",
        "0xCC2c242B3B89D6A5BD37700AE681A4b94EE7d7CE",
        "29"
      ],
      "rpc": "https://eth-goerli.g.alchemy.com/v2/B81B-tXiOVtE5bt8bJkX5Gqi3s2R1fgZ",
      "transaction": {
        "type": "0x02",
        "from": "0x85c91c3dfa5c200a6ee9bc9d3085d02a2c95908b",
        "to": "0xa6d32be299c481c7c689b6f7238a1ce1b5a3213d",
        "gas": "0xe813",
        "value": "0x0",
        "data": "0x23b872dd00000000000000000000000085c91c3dfa5c200a6ee9bc9d3085d02a2c95908b000000000000000000000000cc2c242b3b89d6a5bd37700ae681a4b94ee7d7ce000000000000000000000000000000000000000000000000000000000000001d",
        "nonce": "0x50",
        "accessList": []
      },
      "additionalContracts": [],
      "isFixedGasLimit": false
    },
    {
      "hash": "0x93b8c9a6d2c401598333e9090d6b4700c5a1f17b3973652d4e420b192a629482",
      "transactionType": "CALL",
      "contractName": "FukuFuku",
      "contractAddress": "0xA6d32Be299C481c7C689b6f7238A1cE1b5A3213d",
      "function": "transferFrom(address,address,uint256)",
      "arguments": [
        "0x85C91C3DfA5c200a6Ee9Bc9d3085d02A2c95908b",
        "0xCC2c242B3B89D6A5BD37700AE681A4b94EE7d7CE",
        "30"
      ],
      "rpc": "https://eth-goerli.g.alchemy.com/v2/B81B-tXiOVtE5bt8bJkX5Gqi3s2R1fgZ",
      "transaction": {
        "type": "0x02",
        "from": "0x85c91c3dfa5c200a6ee9bc9d3085d02a2c95908b",
        "to": "0xa6d32be299c481c7c689b6f7238a1ce1b5a3213d",
        "gas": "0xe813",
        "value": "0x0",
        "data": "0x23b872dd00000000000000000000000085c91c3dfa5c200a6ee9bc9d3085d02a2c95908b000000000000000000000000cc2c242b3b89d6a5bd37700ae681a4b94ee7d7ce000000000000000000000000000000000000000000000000000000000000001e",
        "nonce": "0x51",
        "accessList": []
      },
      "additionalContracts": [],
      "isFixedGasLimit": false
    },
    {
      "hash": "0xa2a312441a0a6fd3d304e3a8e069fe7d96f66be766b9d335ed6609f0d4c62e9d",
      "transactionType": "CALL",
      "contractName": "FukuFuku",
      "contractAddress": "0xA6d32Be299C481c7C689b6f7238A1cE1b5A3213d",
      "function": "transferFrom(address,address,uint256)",
      "arguments": [
        "0x85C91C3DfA5c200a6Ee9Bc9d3085d02A2c95908b",
        "0xCC2c242B3B89D6A5BD37700AE681A4b94EE7d7CE",
        "31"
      ],
      "rpc": "https://eth-goerli.g.alchemy.com/v2/B81B-tXiOVtE5bt8bJkX5Gqi3s2R1fgZ",
      "transaction": {
        "type": "0x02",
        "from": "0x85c91c3dfa5c200a6ee9bc9d3085d02a2c95908b",
        "to": "0xa6d32be299c481c7c689b6f7238a1ce1b5a3213d",
        "gas": "0xe813",
        "value": "0x0",
        "data": "0x23b872dd00000000000000000000000085c91c3dfa5c200a6ee9bc9d3085d02a2c95908b000000000000000000000000cc2c242b3b89d6a5bd37700ae681a4b94ee7d7ce000000000000000000000000000000000000000000000000000000000000001f",
        "nonce": "0x52",
        "accessList": []
      },
      "additionalContracts": [],
      "isFixedGasLimit": false
    }
  ],
  "receipts": [
    {
      "transactionHash": "0x99873fb9bd9ee4a6fea745d4211c7fc0c83c4f10ea9547657b8ffce1296c1263",
      "transactionIndex": "0x1",
      "blockHash": "0xa0c0429d6e21023e0e28ce99344f09ba534292da970d4eb695b8802dbf3d5e29",
      "blockNumber": "0x8ceaf7",
      "from": "0x85C91C3DfA5c200a6Ee9Bc9d3085d02A2c95908b",
      "to": "0x02101dfB77FDE026414827Fdc604ddAF224F0921",
      "cumulativeGasUsed": "0x1ff21",
      "gasUsed": "0x1785c",
      "contractAddress": null,
      "logs": [
        {
          "address": "0x02101dfB77FDE026414827Fdc604ddAF224F0921",
          "topics": [
            "0x07fba7bba1191da7ee1155dcfa0030701c9c9a9cc34a93b991fc6fd0c9268d8f"
          ],
          "data": "0x000000000000000000000000c34f5436cb5a1fbdc12e421bbfd264765af96063000000000000000000000000da6c577241cb047628a370802d0cd20319f307b70000000000000000000000000000000000000000000000000000000000000005000000000000000000000000a6d32be299c481c7c689b6f7238a1ce1b5a3213d000000000000000000000000000000000000000000000000000000000000001d0000000000000000000000000000000000000000000000000000000000000000",
          "blockHash": "0xa0c0429d6e21023e0e28ce99344f09ba534292da970d4eb695b8802dbf3d5e29",
          "blockNumber": "0x8ceaf7",
          "transactionHash": "0x99873fb9bd9ee4a6fea745d4211c7fc0c83c4f10ea9547657b8ffce1296c1263",
          "transactionIndex": "0x1",
          "logIndex": "0x1",
          "removed": false
        }
      ],
      "status": "0x1",
      "logsBloom": "0x00000000000000000000000000000000000000000000000000000000000000000000000000000000000000000000000000000000000000000000000000000002000000000000000000000000000000000000000000000000000000000000800000000000000000000000000000000000000000000000000000000000000000000000000000000000000000000200000000000000000000000000000000000000000000000000000000000000000000000000000000000000000000000000000000000000000000000000000000000000000000000000000000080000000000000000001000000000000000000000000000000000000000000000002000000000",
      "type": "0x2",
      "effectiveGasPrice": "0xb3431c50"
    },
    {
      "transactionHash": "0x9daa70027579385d6ace35cc18e7effa9556eee770dbc69ec1025ae4f0e8a205",
      "transactionIndex": "0x2",
      "blockHash": "0xa0c0429d6e21023e0e28ce99344f09ba534292da970d4eb695b8802dbf3d5e29",
      "blockNumber": "0x8ceaf7",
      "from": "0x85C91C3DfA5c200a6Ee9Bc9d3085d02A2c95908b",
      "to": "0x02101dfB77FDE026414827Fdc604ddAF224F0921",
      "cumulativeGasUsed": "0x3777d",
      "gasUsed": "0x1785c",
      "contractAddress": null,
      "logs": [
        {
          "address": "0x02101dfB77FDE026414827Fdc604ddAF224F0921",
          "topics": [
            "0x07fba7bba1191da7ee1155dcfa0030701c9c9a9cc34a93b991fc6fd0c9268d8f"
          ],
          "data": "0x000000000000000000000000174d9e9b11e6fef28895f2bcea783138edbd47eb000000000000000000000000da6c577241cb047628a370802d0cd20319f307b70000000000000000000000000000000000000000000000000000000000000005000000000000000000000000a6d32be299c481c7c689b6f7238a1ce1b5a3213d000000000000000000000000000000000000000000000000000000000000001e0000000000000000000000000000000000000000000000000000000000000000",
          "blockHash": "0xa0c0429d6e21023e0e28ce99344f09ba534292da970d4eb695b8802dbf3d5e29",
          "blockNumber": "0x8ceaf7",
          "transactionHash": "0x9daa70027579385d6ace35cc18e7effa9556eee770dbc69ec1025ae4f0e8a205",
          "transactionIndex": "0x2",
          "logIndex": "0x2",
          "removed": false
        }
      ],
      "status": "0x1",
      "logsBloom": "0x00000000000000000000000000000000000000000000000000000000000000000000000000000000000000000000000000000000000000000000000000000002000000000000000000000000000000000000000000000000000000000000800000000000000000000000000000000000000000000000000000000000000000000000000000000000000000000200000000000000000000000000000000000000000000000000000000000000000000000000000000000000000000000000000000000000000000000000000000000000000000000000000000080000000000000000001000000000000000000000000000000000000000000000002000000000",
      "type": "0x2",
      "effectiveGasPrice": "0xb3431c50"
    },
    {
      "transactionHash": "0x09fb3436860913efe60d891c4511aab5dc9d292fe4ec5554a193b3f17e89913f",
      "transactionIndex": "0x3",
      "blockHash": "0xa0c0429d6e21023e0e28ce99344f09ba534292da970d4eb695b8802dbf3d5e29",
      "blockNumber": "0x8ceaf7",
      "from": "0x85C91C3DfA5c200a6Ee9Bc9d3085d02A2c95908b",
      "to": "0x02101dfB77FDE026414827Fdc604ddAF224F0921",
      "cumulativeGasUsed": "0x4efd9",
      "gasUsed": "0x1785c",
      "contractAddress": null,
      "logs": [
        {
          "address": "0x02101dfB77FDE026414827Fdc604ddAF224F0921",
          "topics": [
            "0x07fba7bba1191da7ee1155dcfa0030701c9c9a9cc34a93b991fc6fd0c9268d8f"
          ],
          "data": "0x0000000000000000000000004f29a8b224ab3ef73162f057707d61ff293e74db000000000000000000000000da6c577241cb047628a370802d0cd20319f307b70000000000000000000000000000000000000000000000000000000000000005000000000000000000000000a6d32be299c481c7c689b6f7238a1ce1b5a3213d000000000000000000000000000000000000000000000000000000000000001f0000000000000000000000000000000000000000000000000000000000000000",
          "blockHash": "0xa0c0429d6e21023e0e28ce99344f09ba534292da970d4eb695b8802dbf3d5e29",
          "blockNumber": "0x8ceaf7",
          "transactionHash": "0x09fb3436860913efe60d891c4511aab5dc9d292fe4ec5554a193b3f17e89913f",
          "transactionIndex": "0x3",
          "logIndex": "0x3",
          "removed": false
        }
      ],
      "status": "0x1",
      "logsBloom": "0x00000000000000000000000000000000000000000000000000000000000000000000000000000000000000000000000000000000000000000000000000000002000000000000000000000000000000000000000000000000000000000000800000000000000000000000000000000000000000000000000000000000000000000000000000000000000000000200000000000000000000000000000000000000000000000000000000000000000000000000000000000000000000000000000000000000000000000000000000000000000000000000000000080000000000000000001000000000000000000000000000000000000000000000002000000000",
      "type": "0x2",
      "effectiveGasPrice": "0xb3431c50"
    },
    {
      "transactionHash": "0xd6eb864a2c4ecec8b5c18b8d7997c716cba56098e4eba310c2c426f513a5990a",
      "transactionIndex": "0x4",
      "blockHash": "0xa0c0429d6e21023e0e28ce99344f09ba534292da970d4eb695b8802dbf3d5e29",
      "blockNumber": "0x8ceaf7",
      "from": "0x85C91C3DfA5c200a6Ee9Bc9d3085d02A2c95908b",
      "to": "0x8E16e15381729fFEeDC4755f2Dcf6F5461f7F389",
      "cumulativeGasUsed": "0x5daaa",
      "gasUsed": "0xead1",
      "contractAddress": null,
      "logs": [
        {
          "address": "0x8E16e15381729fFEeDC4755f2Dcf6F5461f7F389",
          "topics": [
            "0xddf252ad1be2c89b69c2b068fc378daa952ba7f163c4a11628f55a4df523b3ef",
            "0x00000000000000000000000085c91c3dfa5c200a6ee9bc9d3085d02a2c95908b",
            "0x000000000000000000000000c34f5436cb5a1fbdc12e421bbfd264765af96063",
            "0x0000000000000000000000000000000000000000000000000000000000000024"
          ],
          "data": "0x",
          "blockHash": "0xa0c0429d6e21023e0e28ce99344f09ba534292da970d4eb695b8802dbf3d5e29",
          "blockNumber": "0x8ceaf7",
          "transactionHash": "0xd6eb864a2c4ecec8b5c18b8d7997c716cba56098e4eba310c2c426f513a5990a",
          "transactionIndex": "0x4",
          "logIndex": "0x4",
          "removed": false
        }
      ],
      "status": "0x1",
      "logsBloom": "0x00000000000000000000000000000000000000000000000000004000000000000000000000000000000000000000000000000000000000000000000000000000000400000000000000000808000000000000000000000000000008000000000000000000400810000000000000000000000000000000000000000010000000000000000000000000000000000008000000200000000000000000000000000000000000000002000000000000080000000000000000000000000000000000000000000002000000000000000000000000000000000000000000000000000000000000000000000000000000040000000000000000000000000000000000000000",
      "type": "0x2",
      "effectiveGasPrice": "0xb3431c50"
    },
    {
      "transactionHash": "0x6ee0d874f900cdfb3d6f3ffd3332b829476e6425160cedd6fefff528fddababa",
      "transactionIndex": "0x5",
      "blockHash": "0xa0c0429d6e21023e0e28ce99344f09ba534292da970d4eb695b8802dbf3d5e29",
      "blockNumber": "0x8ceaf7",
      "from": "0x85C91C3DfA5c200a6Ee9Bc9d3085d02A2c95908b",
      "to": "0x8E16e15381729fFEeDC4755f2Dcf6F5461f7F389",
      "cumulativeGasUsed": "0x682af",
      "gasUsed": "0xa805",
      "contractAddress": null,
      "logs": [
        {
          "address": "0x8E16e15381729fFEeDC4755f2Dcf6F5461f7F389",
          "topics": [
            "0xddf252ad1be2c89b69c2b068fc378daa952ba7f163c4a11628f55a4df523b3ef",
            "0x00000000000000000000000085c91c3dfa5c200a6ee9bc9d3085d02a2c95908b",
            "0x000000000000000000000000c34f5436cb5a1fbdc12e421bbfd264765af96063",
            "0x0000000000000000000000000000000000000000000000000000000000000025"
          ],
          "data": "0x",
          "blockHash": "0xa0c0429d6e21023e0e28ce99344f09ba534292da970d4eb695b8802dbf3d5e29",
          "blockNumber": "0x8ceaf7",
          "transactionHash": "0x6ee0d874f900cdfb3d6f3ffd3332b829476e6425160cedd6fefff528fddababa",
          "transactionIndex": "0x5",
          "logIndex": "0x5",
          "removed": false
        }
      ],
      "status": "0x1",
      "logsBloom": "0x00000000000000000000000000000000000000000000000000004000000000000000000000000000000000000000000000000000000000000000000000000000000400000000000000000808000000000000000000000000000008000000000000000000400010000000000000000000000000000000000000000010000000000000000000000000000000000000000000200000000000000000000000000000000000000000000000000002080000000000000000000000000000000000000000000002000000000000000000000000000000000000000000000000000000008000000000000000000000040000000000000000000000000000000002000000",
      "type": "0x2",
      "effectiveGasPrice": "0xb3431c50"
    },
    {
      "transactionHash": "0x32cf10aa5eef9452c8021dd03761ded1032e39f907ee4d2339db27176d71de2f",
      "transactionIndex": "0x6",
      "blockHash": "0xa0c0429d6e21023e0e28ce99344f09ba534292da970d4eb695b8802dbf3d5e29",
      "blockNumber": "0x8ceaf7",
      "from": "0x85C91C3DfA5c200a6Ee9Bc9d3085d02A2c95908b",
      "to": "0x8E16e15381729fFEeDC4755f2Dcf6F5461f7F389",
      "cumulativeGasUsed": "0x72ab4",
      "gasUsed": "0xa805",
      "contractAddress": null,
      "logs": [
        {
          "address": "0x8E16e15381729fFEeDC4755f2Dcf6F5461f7F389",
          "topics": [
            "0xddf252ad1be2c89b69c2b068fc378daa952ba7f163c4a11628f55a4df523b3ef",
            "0x00000000000000000000000085c91c3dfa5c200a6ee9bc9d3085d02a2c95908b",
            "0x000000000000000000000000c34f5436cb5a1fbdc12e421bbfd264765af96063",
            "0x0000000000000000000000000000000000000000000000000000000000000026"
          ],
          "data": "0x",
          "blockHash": "0xa0c0429d6e21023e0e28ce99344f09ba534292da970d4eb695b8802dbf3d5e29",
          "blockNumber": "0x8ceaf7",
          "transactionHash": "0x32cf10aa5eef9452c8021dd03761ded1032e39f907ee4d2339db27176d71de2f",
          "transactionIndex": "0x6",
          "logIndex": "0x6",
          "removed": false
        }
      ],
      "status": "0x1",
      "logsBloom": "0x00000000000000000000000000000000000000000000000000004000000000000000000000000000000000000000000000000000000000000000000000000000000400000000000000000808000000000001000000000000000008000000000001000000400010000000000000000000000000000000040000000010000000000000000000000000000000000000000000200000000000000000000000000000000000000000000000000000080000000000000000000000000000000000000000000002000000000000000000000000000000000000000000000000000000000000000000000000000000040000000000000000000000000000000000000000",
      "type": "0x2",
      "effectiveGasPrice": "0xb3431c50"
    },
    {
      "transactionHash": "0x969f59720ac4482f650eb53c5274afcb03fc3f05b514e1743f0cc91ebbed0b81",
      "transactionIndex": "0x7",
      "blockHash": "0xa0c0429d6e21023e0e28ce99344f09ba534292da970d4eb695b8802dbf3d5e29",
      "blockNumber": "0x8ceaf7",
      "from": "0x85C91C3DfA5c200a6Ee9Bc9d3085d02A2c95908b",
      "to": "0x8E16e15381729fFEeDC4755f2Dcf6F5461f7F389",
      "cumulativeGasUsed": "0x81585",
      "gasUsed": "0xead1",
      "contractAddress": null,
      "logs": [
        {
          "address": "0x8E16e15381729fFEeDC4755f2Dcf6F5461f7F389",
          "topics": [
            "0xddf252ad1be2c89b69c2b068fc378daa952ba7f163c4a11628f55a4df523b3ef",
            "0x00000000000000000000000085c91c3dfa5c200a6ee9bc9d3085d02a2c95908b",
            "0x000000000000000000000000174d9e9b11e6fef28895f2bcea783138edbd47eb",
            "0x0000000000000000000000000000000000000000000000000000000000000027"
          ],
          "data": "0x",
          "blockHash": "0xa0c0429d6e21023e0e28ce99344f09ba534292da970d4eb695b8802dbf3d5e29",
          "blockNumber": "0x8ceaf7",
          "transactionHash": "0x969f59720ac4482f650eb53c5274afcb03fc3f05b514e1743f0cc91ebbed0b81",
          "transactionIndex": "0x7",
          "logIndex": "0x7",
          "removed": false
        }
      ],
      "status": "0x1",
      "logsBloom": "0x00000000000000000000000000000000000000000000000000004000000000000002000000000000000000000000000000000000000000000000000000000000000000000000000000000808000000000000000000000000000008000000000000000000000011000000000000000000000000000000000000000010000000000000000000000000000000000000000000200000100000000000000000000000000000000000000000000000000000000000000000000000000000000000000000000002400000000000000000000000000000000000000000000000000000000000000000000000000000140000000008000000000000000000000000000000",
      "type": "0x2",
      "effectiveGasPrice": "0xb3431c50"
    },
    {
      "transactionHash": "0xa65b788b313bd216d06bd0dccd2092034d389e80acabec78f43a4513bcd4709a",
      "transactionIndex": "0x8",
      "blockHash": "0xa0c0429d6e21023e0e28ce99344f09ba534292da970d4eb695b8802dbf3d5e29",
      "blockNumber": "0x8ceaf7",
      "from": "0x85C91C3DfA5c200a6Ee9Bc9d3085d02A2c95908b",
      "to": "0x8E16e15381729fFEeDC4755f2Dcf6F5461f7F389",
      "cumulativeGasUsed": "0x8bd8a",
      "gasUsed": "0xa805",
      "contractAddress": null,
      "logs": [
        {
          "address": "0x8E16e15381729fFEeDC4755f2Dcf6F5461f7F389",
          "topics": [
            "0xddf252ad1be2c89b69c2b068fc378daa952ba7f163c4a11628f55a4df523b3ef",
            "0x00000000000000000000000085c91c3dfa5c200a6ee9bc9d3085d02a2c95908b",
            "0x000000000000000000000000174d9e9b11e6fef28895f2bcea783138edbd47eb",
            "0x0000000000000000000000000000000000000000000000000000000000000028"
          ],
          "data": "0x",
          "blockHash": "0xa0c0429d6e21023e0e28ce99344f09ba534292da970d4eb695b8802dbf3d5e29",
          "blockNumber": "0x8ceaf7",
          "transactionHash": "0xa65b788b313bd216d06bd0dccd2092034d389e80acabec78f43a4513bcd4709a",
          "transactionIndex": "0x8",
          "logIndex": "0x8",
          "removed": false
        }
      ],
      "status": "0x1",
      "logsBloom": "0x00000000000000000000000000000000000000000000000000004000000000000000000000000000000000000000000000000000000000000000000000000000000000000000000000000808000000000000000000000000000008000000000000000000000011000000000000000000000000000000000000000010000000000000000000000000000000000000000000200000100000000000000000000000000000000100000000000000000000000000000000000000000000000000000000000002400000000000000000000000000020000000000000000008000000000000000000000000000000040000000000000000000000000000000000000000",
      "type": "0x2",
      "effectiveGasPrice": "0xb3431c50"
    },
    {
      "transactionHash": "0xf4dbc95df98e4856fc33540c2b8c38670365b004a509ab3ae1581aedda973eab",
      "transactionIndex": "0x9",
      "blockHash": "0xa0c0429d6e21023e0e28ce99344f09ba534292da970d4eb695b8802dbf3d5e29",
      "blockNumber": "0x8ceaf7",
      "from": "0x85C91C3DfA5c200a6Ee9Bc9d3085d02A2c95908b",
      "to": "0x8E16e15381729fFEeDC4755f2Dcf6F5461f7F389",
      "cumulativeGasUsed": "0x9658f",
      "gasUsed": "0xa805",
      "contractAddress": null,
      "logs": [
        {
          "address": "0x8E16e15381729fFEeDC4755f2Dcf6F5461f7F389",
          "topics": [
            "0xddf252ad1be2c89b69c2b068fc378daa952ba7f163c4a11628f55a4df523b3ef",
            "0x00000000000000000000000085c91c3dfa5c200a6ee9bc9d3085d02a2c95908b",
            "0x000000000000000000000000174d9e9b11e6fef28895f2bcea783138edbd47eb",
            "0x0000000000000000000000000000000000000000000000000000000000000029"
          ],
          "data": "0x",
          "blockHash": "0xa0c0429d6e21023e0e28ce99344f09ba534292da970d4eb695b8802dbf3d5e29",
          "blockNumber": "0x8ceaf7",
          "transactionHash": "0xf4dbc95df98e4856fc33540c2b8c38670365b004a509ab3ae1581aedda973eab",
          "transactionIndex": "0x9",
          "logIndex": "0x9",
          "removed": false
        }
      ],
      "status": "0x1",
      "logsBloom": "0x00000000000000000000000000008000000000000000000000004000000000000000000000000000000000000000000000000000000000000000000000000000000000000000000000000808000000000000000000000000000008000000000000000000000051000000000000000000000000000000000000000010000000000000000000000000000000000000000010200000100000000000000000000000000000000000000000000000000000000000000000000000000000000000000000000002400000000000000000000000000000000000000000000000000000000000000000000000000000040000000000000000000000000000000000000000",
      "type": "0x2",
      "effectiveGasPrice": "0xb3431c50"
    },
    {
      "transactionHash": "0x855d645080155b0c67bb191d2f0b5d74d6cb863f140e4754ac40dad7b1e267d3",
      "transactionIndex": "0xa",
      "blockHash": "0xa0c0429d6e21023e0e28ce99344f09ba534292da970d4eb695b8802dbf3d5e29",
      "blockNumber": "0x8ceaf7",
      "from": "0x85C91C3DfA5c200a6Ee9Bc9d3085d02A2c95908b",
      "to": "0x8E16e15381729fFEeDC4755f2Dcf6F5461f7F389",
      "cumulativeGasUsed": "0xa5060",
      "gasUsed": "0xead1",
      "contractAddress": null,
      "logs": [
        {
          "address": "0x8E16e15381729fFEeDC4755f2Dcf6F5461f7F389",
          "topics": [
            "0xddf252ad1be2c89b69c2b068fc378daa952ba7f163c4a11628f55a4df523b3ef",
            "0x00000000000000000000000085c91c3dfa5c200a6ee9bc9d3085d02a2c95908b",
            "0x0000000000000000000000004f29a8b224ab3ef73162f057707d61ff293e74db",
            "0x000000000000000000000000000000000000000000000000000000000000002a"
          ],
          "data": "0x",
          "blockHash": "0xa0c0429d6e21023e0e28ce99344f09ba534292da970d4eb695b8802dbf3d5e29",
          "blockNumber": "0x8ceaf7",
          "transactionHash": "0x855d645080155b0c67bb191d2f0b5d74d6cb863f140e4754ac40dad7b1e267d3",
          "transactionIndex": "0xa",
          "logIndex": "0xa",
          "removed": false
        }
      ],
      "status": "0x1",
      "logsBloom": "0x00000000000000000000000000000000000000000000000000004000000000000000000000004000000000000000000000000000000000000000000000000000000000000000000000000808000000000000000000000000000008000000000000000000000090000000000000000000000000000000000000000010000000000000000000000000000000000000000000200000000000000040000000000000000000000000000000000000000000000000000000000000000000000000000000000002000000000000000000000000000000000200000000000000000000100000000000000000000000040020000000000000000000000000000000000000",
      "type": "0x2",
      "effectiveGasPrice": "0xb3431c50"
    },
    {
      "transactionHash": "0xd95ba534118bd91619ac10d3245638be56675fdab1d57f732cca75851a7d8e04",
      "transactionIndex": "0xb",
      "blockHash": "0xa0c0429d6e21023e0e28ce99344f09ba534292da970d4eb695b8802dbf3d5e29",
      "blockNumber": "0x8ceaf7",
      "from": "0x85C91C3DfA5c200a6Ee9Bc9d3085d02A2c95908b",
      "to": "0x8E16e15381729fFEeDC4755f2Dcf6F5461f7F389",
      "cumulativeGasUsed": "0xaf865",
      "gasUsed": "0xa805",
      "contractAddress": null,
      "logs": [
        {
          "address": "0x8E16e15381729fFEeDC4755f2Dcf6F5461f7F389",
          "topics": [
            "0xddf252ad1be2c89b69c2b068fc378daa952ba7f163c4a11628f55a4df523b3ef",
            "0x00000000000000000000000085c91c3dfa5c200a6ee9bc9d3085d02a2c95908b",
            "0x0000000000000000000000004f29a8b224ab3ef73162f057707d61ff293e74db",
            "0x000000000000000000000000000000000000000000000000000000000000002b"
          ],
          "data": "0x",
          "blockHash": "0xa0c0429d6e21023e0e28ce99344f09ba534292da970d4eb695b8802dbf3d5e29",
          "blockNumber": "0x8ceaf7",
          "transactionHash": "0xd95ba534118bd91619ac10d3245638be56675fdab1d57f732cca75851a7d8e04",
          "transactionIndex": "0xb",
          "logIndex": "0xb",
          "removed": false
        }
      ],
      "status": "0x1",
      "logsBloom": "0x00000000000000000000000000000000000000000000000000004000000000000000000000000000000000000000000000000000000001000000000000000000000000000000000000800808000000000000000000000000000008000000000000000000000090000000000000000000000000000000000000000010000000000000000000000000000000000000000000200000000000000040000000000000000000000000000000000000000000000000000000000000000000000000000000000002000000100000000000000000000000000200000000000000000000000000000000000000000000040000000000000000000000000000000000000000",
      "type": "0x2",
      "effectiveGasPrice": "0xb3431c50"
    },
    {
      "transactionHash": "0x93566fb23cb03df703d3ef1ba53269b573a3761c957487531681cbd5c177f113",
      "transactionIndex": "0xc",
      "blockHash": "0xa0c0429d6e21023e0e28ce99344f09ba534292da970d4eb695b8802dbf3d5e29",
      "blockNumber": "0x8ceaf7",
      "from": "0x85C91C3DfA5c200a6Ee9Bc9d3085d02A2c95908b",
      "to": "0x8E16e15381729fFEeDC4755f2Dcf6F5461f7F389",
      "cumulativeGasUsed": "0xba06a",
      "gasUsed": "0xa805",
      "contractAddress": null,
      "logs": [
        {
          "address": "0x8E16e15381729fFEeDC4755f2Dcf6F5461f7F389",
          "topics": [
            "0xddf252ad1be2c89b69c2b068fc378daa952ba7f163c4a11628f55a4df523b3ef",
            "0x00000000000000000000000085c91c3dfa5c200a6ee9bc9d3085d02a2c95908b",
            "0x0000000000000000000000004f29a8b224ab3ef73162f057707d61ff293e74db",
            "0x000000000000000000000000000000000000000000000000000000000000002c"
          ],
          "data": "0x",
          "blockHash": "0xa0c0429d6e21023e0e28ce99344f09ba534292da970d4eb695b8802dbf3d5e29",
          "blockNumber": "0x8ceaf7",
          "transactionHash": "0x93566fb23cb03df703d3ef1ba53269b573a3761c957487531681cbd5c177f113",
          "transactionIndex": "0xc",
          "logIndex": "0xc",
          "removed": false
        }
      ],
      "status": "0x1",
      "logsBloom": "0x00000000000000000000000000000000000000000000000000004000000000000000000000000000000000000000000000000000000000000000000000000000000000000000000000000808000000000000000000000000000008000000000000000000000090000000000100000000000000000000000000000010004000000000000000000000000000000000000000200000000000000040000000000000000000000000000000000000000000000000000000000000000000000000000000000002000000000000000000000000000000000200000800000000000000000000000000000000000000040000000000000000000000000000000000000000",
      "type": "0x2",
      "effectiveGasPrice": "0xb3431c50"
    },
    {
      "transactionHash": "0x879f4e29c1fa2de93ff9377b158f7be65f79648f3a282527e6df6230c62b8bdc",
      "transactionIndex": "0xd",
      "blockHash": "0xa0c0429d6e21023e0e28ce99344f09ba534292da970d4eb695b8802dbf3d5e29",
      "blockNumber": "0x8ceaf7",
      "from": "0x85C91C3DfA5c200a6Ee9Bc9d3085d02A2c95908b",
      "to": "0x8E16e15381729fFEeDC4755f2Dcf6F5461f7F389",
      "cumulativeGasUsed": "0xc486f",
      "gasUsed": "0xa805",
      "contractAddress": null,
      "logs": [
        {
          "address": "0x8E16e15381729fFEeDC4755f2Dcf6F5461f7F389",
          "topics": [
            "0xddf252ad1be2c89b69c2b068fc378daa952ba7f163c4a11628f55a4df523b3ef",
            "0x00000000000000000000000085c91c3dfa5c200a6ee9bc9d3085d02a2c95908b",
            "0x0000000000000000000000004f29a8b224ab3ef73162f057707d61ff293e74db",
            "0x000000000000000000000000000000000000000000000000000000000000002d"
          ],
          "data": "0x",
          "blockHash": "0xa0c0429d6e21023e0e28ce99344f09ba534292da970d4eb695b8802dbf3d5e29",
          "blockNumber": "0x8ceaf7",
          "transactionHash": "0x879f4e29c1fa2de93ff9377b158f7be65f79648f3a282527e6df6230c62b8bdc",
          "transactionIndex": "0xd",
          "logIndex": "0xd",
          "removed": false
        }
      ],
      "status": "0x1",
      "logsBloom": "0x00000000000000000000000000000000000000000000000000004000000000000000000000000000000000000000000000000000000000000000000400000000000000000000000000000808000000000000000000000000000008000000000000000000000090000000000000000000000000000000000000000010000000000000000000000000000000000000000000200000000000000040000000000000000000000000000000000000000000000000000000000000000010000000000000000002000000000000000000000000000000000200000000000000400000000000000000000000000000040000000000000000000000000000000000000000",
      "type": "0x2",
      "effectiveGasPrice": "0xb3431c50"
    },
    {
      "transactionHash": "0xcbfbe75aad260c5e76e88318df5b95fc6788018725c5a12d96c5dfb505c386c1",
      "transactionIndex": "0xe",
      "blockHash": "0xa0c0429d6e21023e0e28ce99344f09ba534292da970d4eb695b8802dbf3d5e29",
      "blockNumber": "0x8ceaf7",
      "from": "0x85C91C3DfA5c200a6Ee9Bc9d3085d02A2c95908b",
      "to": "0xA6d32Be299C481c7C689b6f7238A1cE1b5A3213d",
      "cumulativeGasUsed": "0xcf074",
      "gasUsed": "0xa805",
      "contractAddress": null,
      "logs": [
        {
          "address": "0xA6d32Be299C481c7C689b6f7238A1cE1b5A3213d",
          "topics": [
            "0xddf252ad1be2c89b69c2b068fc378daa952ba7f163c4a11628f55a4df523b3ef",
            "0x00000000000000000000000085c91c3dfa5c200a6ee9bc9d3085d02a2c95908b",
            "0x000000000000000000000000cc2c242b3b89d6a5bd37700ae681a4b94ee7d7ce",
            "0x000000000000000000000000000000000000000000000000000000000000001d"
          ],
          "data": "0x",
          "blockHash": "0xa0c0429d6e21023e0e28ce99344f09ba534292da970d4eb695b8802dbf3d5e29",
          "blockNumber": "0x8ceaf7",
          "transactionHash": "0xcbfbe75aad260c5e76e88318df5b95fc6788018725c5a12d96c5dfb505c386c1",
          "transactionIndex": "0xe",
          "logIndex": "0xe",
          "removed": false
        }
      ],
      "status": "0x1",
      "logsBloom": "0x00000080000000000000000000000000000080000000000000000000000000000000000000000000000000000000000000000000000040000000000200000000000000000000000000000808000000000000000000000010000008000000000000000000000000000000000000000000000000000000000000408010000000000000000000000000000000000000000000200000000000000000000800000000000000000000000000000000000000000000000000000000000000000000000400000002000000000000000000000000000000000000000000000000000000000000000000000000000000000000000000000000000000000000000000000000",
      "type": "0x2",
      "effectiveGasPrice": "0xb3431c50"
    },
    {
      "transactionHash": "0x93b8c9a6d2c401598333e9090d6b4700c5a1f17b3973652d4e420b192a629482",
      "transactionIndex": "0xf",
      "blockHash": "0xa0c0429d6e21023e0e28ce99344f09ba534292da970d4eb695b8802dbf3d5e29",
      "blockNumber": "0x8ceaf7",
      "from": "0x85C91C3DfA5c200a6Ee9Bc9d3085d02A2c95908b",
      "to": "0xA6d32Be299C481c7C689b6f7238A1cE1b5A3213d",
      "cumulativeGasUsed": "0xd9879",
      "gasUsed": "0xa805",
      "contractAddress": null,
      "logs": [
        {
          "address": "0xA6d32Be299C481c7C689b6f7238A1cE1b5A3213d",
          "topics": [
            "0xddf252ad1be2c89b69c2b068fc378daa952ba7f163c4a11628f55a4df523b3ef",
            "0x00000000000000000000000085c91c3dfa5c200a6ee9bc9d3085d02a2c95908b",
            "0x000000000000000000000000cc2c242b3b89d6a5bd37700ae681a4b94ee7d7ce",
            "0x000000000000000000000000000000000000000000000000000000000000001e"
          ],
          "data": "0x",
          "blockHash": "0xa0c0429d6e21023e0e28ce99344f09ba534292da970d4eb695b8802dbf3d5e29",
          "blockNumber": "0x8ceaf7",
          "transactionHash": "0x93b8c9a6d2c401598333e9090d6b4700c5a1f17b3973652d4e420b192a629482",
          "transactionIndex": "0xf",
          "logIndex": "0xf",
          "removed": false
        }
      ],
      "status": "0x1",
      "logsBloom": "0x00000000000000000000000000000000000080000000000000000000000000000000000000000000000000000400000000000000000040000000000000000000000000000000008000000808000000000000000000000000000008000000000000000000000000000000000000000000000000000000000000408010000000000000000000000000000000000000000000200000000000000000000800000000000000000000000000000000000000000000000000000000000000000000000400000002000000000000000000000000000000000000000000000000000000000000000000000000080000000000000000000000000000000000000000000000",
      "type": "0x2",
      "effectiveGasPrice": "0xb3431c50"
    },
    {
      "transactionHash": "0xa2a312441a0a6fd3d304e3a8e069fe7d96f66be766b9d335ed6609f0d4c62e9d",
      "transactionIndex": "0x10",
      "blockHash": "0xa0c0429d6e21023e0e28ce99344f09ba534292da970d4eb695b8802dbf3d5e29",
      "blockNumber": "0x8ceaf7",
      "from": "0x85C91C3DfA5c200a6Ee9Bc9d3085d02A2c95908b",
      "to": "0xA6d32Be299C481c7C689b6f7238A1cE1b5A3213d",
      "cumulativeGasUsed": "0xe407e",
      "gasUsed": "0xa805",
      "contractAddress": null,
      "logs": [
        {
          "address": "0xA6d32Be299C481c7C689b6f7238A1cE1b5A3213d",
          "topics": [
            "0xddf252ad1be2c89b69c2b068fc378daa952ba7f163c4a11628f55a4df523b3ef",
            "0x00000000000000000000000085c91c3dfa5c200a6ee9bc9d3085d02a2c95908b",
            "0x000000000000000000000000cc2c242b3b89d6a5bd37700ae681a4b94ee7d7ce",
            "0x000000000000000000000000000000000000000000000000000000000000001f"
          ],
          "data": "0x",
          "blockHash": "0xa0c0429d6e21023e0e28ce99344f09ba534292da970d4eb695b8802dbf3d5e29",
          "blockNumber": "0x8ceaf7",
          "transactionHash": "0xa2a312441a0a6fd3d304e3a8e069fe7d96f66be766b9d335ed6609f0d4c62e9d",
          "transactionIndex": "0x10",
          "logIndex": "0x10",
          "removed": false
        }
      ],
      "status": "0x1",
      "logsBloom": "0x00000000000000000000000400000000000080000000000000000000000000000000000000000000000000000000000000000000000040000000000000000000000000000000000000000808000000000000000000000000000008000000000000000000000000000000000000000000000000000000000000408010000000000000000000000000000000000000000000200000000000000000000800000000000000000000000000000000000000000000000000000000000000000001000400000002000000000000000000000000000000000000000000000000000000000000000000000000000000000000000000000000000000000100000000000000",
      "type": "0x2",
      "effectiveGasPrice": "0xb3431c50"
    }
  ],
  "libraries": [],
  "pending": [],
  "path": "/Users/jaclyn/Documents/code/fukuro/contracts/broadcast/demoSetup.s.sol/5/run-latest.json",
  "returns": {},
  "timestamp": 1687651421,
  "chain": 5,
  "multi": false,
  "commit": "3eca4b7"
}