{
  "transactions": [
    {
      "hash": "0x7c48b8c22efbc0009481e29130fcfab3bac7b457943e86c9bef4da78c8779ade",
      "transactionType": "CALL",
      "contractName": "ERC6551Registry",
      "contractAddress": "0x02101dfB77FDE026414827Fdc604ddAF224F0921",
      "function": "createAccount(address,uint256,address,uint256,uint256,bytes):(address)",
      "arguments": [
        "0xDA6c577241cB047628a370802D0CD20319F307B7",
        "5",
        "0xA6d32Be299C481c7C689b6f7238A1cE1b5A3213d",
        "35",
        "0",
        "0x"
      ],
      "rpc": "https://eth-goerli.g.alchemy.com/v2/B81B-tXiOVtE5bt8bJkX5Gqi3s2R1fgZ",
      "transaction": {
        "type": "0x02",
        "from": "0x85c91c3dfa5c200a6ee9bc9d3085d02a2c95908b",
        "to": "0x02101dfb77fde026414827fdc604ddaf224f0921",
        "gas": "0x207c8",
        "value": "0x0",
        "data": "0xda7323b3000000000000000000000000da6c577241cb047628a370802d0cd20319f307b70000000000000000000000000000000000000000000000000000000000000005000000000000000000000000a6d32be299c481c7c689b6f7238a1ce1b5a3213d0000000000000000000000000000000000000000000000000000000000000023000000000000000000000000000000000000000000000000000000000000000000000000000000000000000000000000000000000000000000000000000000c00000000000000000000000000000000000000000000000000000000000000000",
        "nonce": "0x67",
        "accessList": []
      },
      "additionalContracts": [
        {
          "transactionType": "CREATE2",
          "address": "0x7C3c4B9f12bc91a7C39708FFC7d282720E36c0cb",
          "initCode": "3d60ad80600a3d3981f3363d3d373d3d3d363d73da6c577241cb047628a370802d0cd20319f307b75af43d82803e903d91602b57fd5bf300000000000000000000000000000000000000000000000000000000000000000000000000000000000000000000000000000000000000000000000000000005000000000000000000000000a6d32be299c481c7c689b6f7238a1ce1b5a3213d0000000000000000000000000000000000000000000000000000000000000023"
        }
      ],
      "isFixedGasLimit": false
    },
    {
      "hash": "0xf5239f72c76cce2150329eb57abfd147e909c0f4517b8a17146024cda28115bd",
      "transactionType": "CALL",
      "contractName": "ERC6551Registry",
      "contractAddress": "0x02101dfB77FDE026414827Fdc604ddAF224F0921",
      "function": "createAccount(address,uint256,address,uint256,uint256,bytes):(address)",
      "arguments": [
        "0xDA6c577241cB047628a370802D0CD20319F307B7",
        "5",
        "0xA6d32Be299C481c7C689b6f7238A1cE1b5A3213d",
        "36",
        "0",
        "0x"
      ],
      "rpc": "https://eth-goerli.g.alchemy.com/v2/B81B-tXiOVtE5bt8bJkX5Gqi3s2R1fgZ",
      "transaction": {
        "type": "0x02",
        "from": "0x85c91c3dfa5c200a6ee9bc9d3085d02a2c95908b",
        "to": "0x02101dfb77fde026414827fdc604ddaf224f0921",
        "gas": "0x207c8",
        "value": "0x0",
        "data": "0xda7323b3000000000000000000000000da6c577241cb047628a370802d0cd20319f307b70000000000000000000000000000000000000000000000000000000000000005000000000000000000000000a6d32be299c481c7c689b6f7238a1ce1b5a3213d0000000000000000000000000000000000000000000000000000000000000024000000000000000000000000000000000000000000000000000000000000000000000000000000000000000000000000000000000000000000000000000000c00000000000000000000000000000000000000000000000000000000000000000",
        "nonce": "0x68",
        "accessList": []
      },
      "additionalContracts": [
        {
          "transactionType": "CREATE2",
          "address": "0x67dD11Bce4f62D14111715f19E0426556b7F0Ded",
          "initCode": "3d60ad80600a3d3981f3363d3d373d3d3d363d73da6c577241cb047628a370802d0cd20319f307b75af43d82803e903d91602b57fd5bf300000000000000000000000000000000000000000000000000000000000000000000000000000000000000000000000000000000000000000000000000000005000000000000000000000000a6d32be299c481c7c689b6f7238a1ce1b5a3213d0000000000000000000000000000000000000000000000000000000000000024"
        }
      ],
      "isFixedGasLimit": false
    },
    {
      "hash": "0xa5a21ec7e56bc40c211c644c82fc4536e7abddd98bb65fd71f3bd97801dc7d8a",
      "transactionType": "CALL",
      "contractName": "ERC6551Registry",
      "contractAddress": "0x02101dfB77FDE026414827Fdc604ddAF224F0921",
      "function": "createAccount(address,uint256,address,uint256,uint256,bytes):(address)",
      "arguments": [
        "0xDA6c577241cB047628a370802D0CD20319F307B7",
        "5",
        "0xA6d32Be299C481c7C689b6f7238A1cE1b5A3213d",
        "37",
        "0",
        "0x"
      ],
      "rpc": "https://eth-goerli.g.alchemy.com/v2/B81B-tXiOVtE5bt8bJkX5Gqi3s2R1fgZ",
      "transaction": {
        "type": "0x02",
        "from": "0x85c91c3dfa5c200a6ee9bc9d3085d02a2c95908b",
        "to": "0x02101dfb77fde026414827fdc604ddaf224f0921",
        "gas": "0x207c8",
        "value": "0x0",
        "data": "0xda7323b3000000000000000000000000da6c577241cb047628a370802d0cd20319f307b70000000000000000000000000000000000000000000000000000000000000005000000000000000000000000a6d32be299c481c7c689b6f7238a1ce1b5a3213d0000000000000000000000000000000000000000000000000000000000000025000000000000000000000000000000000000000000000000000000000000000000000000000000000000000000000000000000000000000000000000000000c00000000000000000000000000000000000000000000000000000000000000000",
        "nonce": "0x69",
        "accessList": []
      },
      "additionalContracts": [
        {
          "transactionType": "CREATE2",
          "address": "0x1f9373c9f732A213711E0A16e97f1CF10413D821",
          "initCode": "3d60ad80600a3d3981f3363d3d373d3d3d363d73da6c577241cb047628a370802d0cd20319f307b75af43d82803e903d91602b57fd5bf300000000000000000000000000000000000000000000000000000000000000000000000000000000000000000000000000000000000000000000000000000005000000000000000000000000a6d32be299c481c7c689b6f7238a1ce1b5a3213d0000000000000000000000000000000000000000000000000000000000000025"
        }
      ],
      "isFixedGasLimit": false
    },
    {
      "hash": "0x217b959e908d07a253a35c59e7d7bf6def374afc7e0cf183b2a847e25398df52",
      "transactionType": "CALL",
      "contractName": "AfropolitanNFT",
      "contractAddress": "0x8E16e15381729fFEeDC4755f2Dcf6F5461f7F389",
      "function": "transferFrom(address,address,uint256)",
      "arguments": [
        "0x85C91C3DfA5c200a6Ee9Bc9d3085d02A2c95908b",
        "0x7C3c4B9f12bc91a7C39708FFC7d282720E36c0cb",
        "56"
      ],
      "rpc": "https://eth-goerli.g.alchemy.com/v2/B81B-tXiOVtE5bt8bJkX5Gqi3s2R1fgZ",
      "transaction": {
        "type": "0x02",
        "from": "0x85c91c3dfa5c200a6ee9bc9d3085d02a2c95908b",
        "to": "0x8e16e15381729ffeedc4755f2dcf6f5461f7f389",
        "gas": "0x1576b",
        "value": "0x0",
        "data": "0x23b872dd00000000000000000000000085c91c3dfa5c200a6ee9bc9d3085d02a2c95908b0000000000000000000000007c3c4b9f12bc91a7c39708ffc7d282720e36c0cb0000000000000000000000000000000000000000000000000000000000000038",
        "nonce": "0x6a",
        "accessList": []
      },
      "additionalContracts": [],
      "isFixedGasLimit": false
    },
    {
      "hash": "0x28f2fc98048f2ab360e3aca0be8307892ab59419aacb1085b87eac5ceb6e7e5f",
      "transactionType": "CALL",
      "contractName": "AfropolitanNFT",
      "contractAddress": "0x8E16e15381729fFEeDC4755f2Dcf6F5461f7F389",
      "function": "transferFrom(address,address,uint256)",
      "arguments": [
        "0x85C91C3DfA5c200a6Ee9Bc9d3085d02A2c95908b",
        "0x7C3c4B9f12bc91a7C39708FFC7d282720E36c0cb",
        "57"
      ],
      "rpc": "https://eth-goerli.g.alchemy.com/v2/B81B-tXiOVtE5bt8bJkX5Gqi3s2R1fgZ",
      "transaction": {
        "type": "0x02",
        "from": "0x85c91c3dfa5c200a6ee9bc9d3085d02a2c95908b",
        "to": "0x8e16e15381729ffeedc4755f2dcf6f5461f7f389",
        "gas": "0xe813",
        "value": "0x0",
        "data": "0x23b872dd00000000000000000000000085c91c3dfa5c200a6ee9bc9d3085d02a2c95908b0000000000000000000000007c3c4b9f12bc91a7c39708ffc7d282720e36c0cb0000000000000000000000000000000000000000000000000000000000000039",
        "nonce": "0x6b",
        "accessList": []
      },
      "additionalContracts": [],
      "isFixedGasLimit": false
    },
    {
      "hash": "0xaf8c9d7468bd529c469d39335df6e388c797aee9524fd48fade866c2bec6de3c",
      "transactionType": "CALL",
      "contractName": "AfropolitanNFT",
      "contractAddress": "0x8E16e15381729fFEeDC4755f2Dcf6F5461f7F389",
      "function": "transferFrom(address,address,uint256)",
      "arguments": [
        "0x85C91C3DfA5c200a6Ee9Bc9d3085d02A2c95908b",
        "0x7C3c4B9f12bc91a7C39708FFC7d282720E36c0cb",
        "58"
      ],
      "rpc": "https://eth-goerli.g.alchemy.com/v2/B81B-tXiOVtE5bt8bJkX5Gqi3s2R1fgZ",
      "transaction": {
        "type": "0x02",
        "from": "0x85c91c3dfa5c200a6ee9bc9d3085d02a2c95908b",
        "to": "0x8e16e15381729ffeedc4755f2dcf6f5461f7f389",
        "gas": "0xe813",
        "value": "0x0",
        "data": "0x23b872dd00000000000000000000000085c91c3dfa5c200a6ee9bc9d3085d02a2c95908b0000000000000000000000007c3c4b9f12bc91a7c39708ffc7d282720e36c0cb000000000000000000000000000000000000000000000000000000000000003a",
        "nonce": "0x6c",
        "accessList": []
      },
      "additionalContracts": [],
      "isFixedGasLimit": false
    },
    {
      "hash": "0xba1bf5b2be1cbf7087cda3b05fa52fc49de26ac92160e228a0423c4a2aa44ec3",
      "transactionType": "CALL",
      "contractName": "AfropolitanNFT",
      "contractAddress": "0x8E16e15381729fFEeDC4755f2Dcf6F5461f7F389",
      "function": "transferFrom(address,address,uint256)",
      "arguments": [
        "0x85C91C3DfA5c200a6Ee9Bc9d3085d02A2c95908b",
        "0x7C3c4B9f12bc91a7C39708FFC7d282720E36c0cb",
        "59"
      ],
      "rpc": "https://eth-goerli.g.alchemy.com/v2/B81B-tXiOVtE5bt8bJkX5Gqi3s2R1fgZ",
      "transaction": {
        "type": "0x02",
        "from": "0x85c91c3dfa5c200a6ee9bc9d3085d02a2c95908b",
        "to": "0x8e16e15381729ffeedc4755f2dcf6f5461f7f389",
        "gas": "0xe813",
        "value": "0x0",
        "data": "0x23b872dd00000000000000000000000085c91c3dfa5c200a6ee9bc9d3085d02a2c95908b0000000000000000000000007c3c4b9f12bc91a7c39708ffc7d282720e36c0cb000000000000000000000000000000000000000000000000000000000000003b",
        "nonce": "0x6d",
        "accessList": []
      },
      "additionalContracts": [],
      "isFixedGasLimit": false
    },
    {
      "hash": "0xdfa4f08512acabad0a387b8b5d8ab11a25028606eac687416bee4348f4be8142",
      "transactionType": "CALL",
      "contractName": "AfropolitanNFT",
      "contractAddress": "0x8E16e15381729fFEeDC4755f2Dcf6F5461f7F389",
      "function": "transferFrom(address,address,uint256)",
      "arguments": [
        "0x85C91C3DfA5c200a6Ee9Bc9d3085d02A2c95908b",
        "0x7C3c4B9f12bc91a7C39708FFC7d282720E36c0cb",
        "60"
      ],
      "rpc": "https://eth-goerli.g.alchemy.com/v2/B81B-tXiOVtE5bt8bJkX5Gqi3s2R1fgZ",
      "transaction": {
        "type": "0x02",
        "from": "0x85c91c3dfa5c200a6ee9bc9d3085d02a2c95908b",
        "to": "0x8e16e15381729ffeedc4755f2dcf6f5461f7f389",
        "gas": "0xe813",
        "value": "0x0",
        "data": "0x23b872dd00000000000000000000000085c91c3dfa5c200a6ee9bc9d3085d02a2c95908b0000000000000000000000007c3c4b9f12bc91a7c39708ffc7d282720e36c0cb000000000000000000000000000000000000000000000000000000000000003c",
        "nonce": "0x6e",
        "accessList": []
      },
      "additionalContracts": [],
      "isFixedGasLimit": false
    },
    {
      "hash": "0x026a2cd5b581fe2da64852df81ed1684edff1233b27bfd2fc33e7a337fbbd0b8",
      "transactionType": "CALL",
      "contractName": "AfropolitanNFT",
      "contractAddress": "0x8E16e15381729fFEeDC4755f2Dcf6F5461f7F389",
      "function": "transferFrom(address,address,uint256)",
      "arguments": [
        "0x85C91C3DfA5c200a6Ee9Bc9d3085d02A2c95908b",
        "0x7C3c4B9f12bc91a7C39708FFC7d282720E36c0cb",
        "61"
      ],
      "rpc": "https://eth-goerli.g.alchemy.com/v2/B81B-tXiOVtE5bt8bJkX5Gqi3s2R1fgZ",
      "transaction": {
        "type": "0x02",
        "from": "0x85c91c3dfa5c200a6ee9bc9d3085d02a2c95908b",
        "to": "0x8e16e15381729ffeedc4755f2dcf6f5461f7f389",
        "gas": "0xe813",
        "value": "0x0",
        "data": "0x23b872dd00000000000000000000000085c91c3dfa5c200a6ee9bc9d3085d02a2c95908b0000000000000000000000007c3c4b9f12bc91a7c39708ffc7d282720e36c0cb000000000000000000000000000000000000000000000000000000000000003d",
        "nonce": "0x6f",
        "accessList": []
      },
      "additionalContracts": [],
      "isFixedGasLimit": false
    },
    {
      "hash": "0xa49edad7e6b083986d580a0a2f31f103d0c38a23b4ea8c31da3010f5ad86ee41",
      "transactionType": "CALL",
      "contractName": "AfropolitanNFT",
      "contractAddress": "0x8E16e15381729fFEeDC4755f2Dcf6F5461f7F389",
      "function": "transferFrom(address,address,uint256)",
      "arguments": [
        "0x85C91C3DfA5c200a6Ee9Bc9d3085d02A2c95908b",
        "0x7C3c4B9f12bc91a7C39708FFC7d282720E36c0cb",
        "62"
      ],
      "rpc": "https://eth-goerli.g.alchemy.com/v2/B81B-tXiOVtE5bt8bJkX5Gqi3s2R1fgZ",
      "transaction": {
        "type": "0x02",
        "from": "0x85c91c3dfa5c200a6ee9bc9d3085d02a2c95908b",
        "to": "0x8e16e15381729ffeedc4755f2dcf6f5461f7f389",
        "gas": "0xe813",
        "value": "0x0",
        "data": "0x23b872dd00000000000000000000000085c91c3dfa5c200a6ee9bc9d3085d02a2c95908b0000000000000000000000007c3c4b9f12bc91a7c39708ffc7d282720e36c0cb000000000000000000000000000000000000000000000000000000000000003e",
        "nonce": "0x70",
        "accessList": []
      },
      "additionalContracts": [],
      "isFixedGasLimit": false
    },
    {
      "hash": "0x489ea01362ec6b7c007e3bb80f5e1573980ed350064ec27e35c251a6a6f3b774",
      "transactionType": "CALL",
      "contractName": "AfropolitanNFT",
      "contractAddress": "0x8E16e15381729fFEeDC4755f2Dcf6F5461f7F389",
      "function": "transferFrom(address,address,uint256)",
      "arguments": [
        "0x85C91C3DfA5c200a6Ee9Bc9d3085d02A2c95908b",
        "0x7C3c4B9f12bc91a7C39708FFC7d282720E36c0cb",
        "63"
      ],
      "rpc": "https://eth-goerli.g.alchemy.com/v2/B81B-tXiOVtE5bt8bJkX5Gqi3s2R1fgZ",
      "transaction": {
        "type": "0x02",
        "from": "0x85c91c3dfa5c200a6ee9bc9d3085d02a2c95908b",
        "to": "0x8e16e15381729ffeedc4755f2dcf6f5461f7f389",
        "gas": "0xe813",
        "value": "0x0",
        "data": "0x23b872dd00000000000000000000000085c91c3dfa5c200a6ee9bc9d3085d02a2c95908b0000000000000000000000007c3c4b9f12bc91a7c39708ffc7d282720e36c0cb000000000000000000000000000000000000000000000000000000000000003f",
        "nonce": "0x71",
        "accessList": []
      },
      "additionalContracts": [],
      "isFixedGasLimit": false
    },
    {
      "hash": "0xdac91fcec46dd2029432d9aa27b232b14824b88d3c7c4cb7e1849980e754b5a4",
      "transactionType": "CALL",
      "contractName": "AfropolitanNFT",
      "contractAddress": "0x8E16e15381729fFEeDC4755f2Dcf6F5461f7F389",
      "function": "transferFrom(address,address,uint256)",
      "arguments": [
        "0x85C91C3DfA5c200a6Ee9Bc9d3085d02A2c95908b",
        "0x7C3c4B9f12bc91a7C39708FFC7d282720E36c0cb",
        "64"
      ],
      "rpc": "https://eth-goerli.g.alchemy.com/v2/B81B-tXiOVtE5bt8bJkX5Gqi3s2R1fgZ",
      "transaction": {
        "type": "0x02",
        "from": "0x85c91c3dfa5c200a6ee9bc9d3085d02a2c95908b",
        "to": "0x8e16e15381729ffeedc4755f2dcf6f5461f7f389",
        "gas": "0xe813",
        "value": "0x0",
        "data": "0x23b872dd00000000000000000000000085c91c3dfa5c200a6ee9bc9d3085d02a2c95908b0000000000000000000000007c3c4b9f12bc91a7c39708ffc7d282720e36c0cb0000000000000000000000000000000000000000000000000000000000000040",
        "nonce": "0x72",
        "accessList": []
      },
      "additionalContracts": [],
      "isFixedGasLimit": false
    },
    {
      "hash": "0x97133b42238b93447ce19faa47512c0dca82fb7bd3d6919a9700dd819b3ee880",
      "transactionType": "CALL",
      "contractName": "AfropolitanNFT",
      "contractAddress": "0x8E16e15381729fFEeDC4755f2Dcf6F5461f7F389",
      "function": "transferFrom(address,address,uint256)",
      "arguments": [
        "0x85C91C3DfA5c200a6Ee9Bc9d3085d02A2c95908b",
        "0x7C3c4B9f12bc91a7C39708FFC7d282720E36c0cb",
        "65"
      ],
      "rpc": "https://eth-goerli.g.alchemy.com/v2/B81B-tXiOVtE5bt8bJkX5Gqi3s2R1fgZ",
      "transaction": {
        "type": "0x02",
        "from": "0x85c91c3dfa5c200a6ee9bc9d3085d02a2c95908b",
        "to": "0x8e16e15381729ffeedc4755f2dcf6f5461f7f389",
        "gas": "0xe813",
        "value": "0x0",
        "data": "0x23b872dd00000000000000000000000085c91c3dfa5c200a6ee9bc9d3085d02a2c95908b0000000000000000000000007c3c4b9f12bc91a7c39708ffc7d282720e36c0cb0000000000000000000000000000000000000000000000000000000000000041",
        "nonce": "0x73",
        "accessList": []
      },
      "additionalContracts": [],
      "isFixedGasLimit": false
    }
  ],
  "receipts": [
    {
      "transactionHash": "0x7c48b8c22efbc0009481e29130fcfab3bac7b457943e86c9bef4da78c8779ade",
      "transactionIndex": "0x7",
      "blockHash": "0xe523de6988467e8099e2fe77c03010f82fcab38557fe758dd203a60b08e62c6e",
      "blockNumber": "0x8cecda",
      "from": "0x85C91C3DfA5c200a6Ee9Bc9d3085d02A2c95908b",
      "to": "0x02101dfB77FDE026414827Fdc604ddAF224F0921",
      "cumulativeGasUsed": "0x9129b",
      "gasUsed": "0x1785c",
      "contractAddress": null,
      "logs": [
        {
          "address": "0x02101dfB77FDE026414827Fdc604ddAF224F0921",
          "topics": [
            "0x07fba7bba1191da7ee1155dcfa0030701c9c9a9cc34a93b991fc6fd0c9268d8f"
          ],
          "data": "0x0000000000000000000000007c3c4b9f12bc91a7c39708ffc7d282720e36c0cb000000000000000000000000da6c577241cb047628a370802d0cd20319f307b70000000000000000000000000000000000000000000000000000000000000005000000000000000000000000a6d32be299c481c7c689b6f7238a1ce1b5a3213d00000000000000000000000000000000000000000000000000000000000000230000000000000000000000000000000000000000000000000000000000000000",
          "blockHash": "0xe523de6988467e8099e2fe77c03010f82fcab38557fe758dd203a60b08e62c6e",
          "blockNumber": "0x8cecda",
          "transactionHash": "0x7c48b8c22efbc0009481e29130fcfab3bac7b457943e86c9bef4da78c8779ade",
          "transactionIndex": "0x7",
          "logIndex": "0x9",
          "removed": false
        }
      ],
      "status": "0x1",
      "logsBloom": "0x00000000000000000000000000000000000000000000000000000000000000000000000000000000000000000000000000000000000000000000000000000002000000000000000000000000000000000000000000000000000000000000800000000000000000000000000000000000000000000000000000000000000000000000000000000000000000000200000000000000000000000000000000000000000000000000000000000000000000000000000000000000000000000000000000000000000000000000000000000000000000000000000000080000000000000000001000000000000000000000000000000000000000000000002000000000",
      "type": "0x2",
      "effectiveGasPrice": "0xb2f52cb1"
    },
    {
      "transactionHash": "0xf5239f72c76cce2150329eb57abfd147e909c0f4517b8a17146024cda28115bd",
      "transactionIndex": "0x8",
      "blockHash": "0xe523de6988467e8099e2fe77c03010f82fcab38557fe758dd203a60b08e62c6e",
      "blockNumber": "0x8cecda",
      "from": "0x85C91C3DfA5c200a6Ee9Bc9d3085d02A2c95908b",
      "to": "0x02101dfB77FDE026414827Fdc604ddAF224F0921",
      "cumulativeGasUsed": "0xa8af7",
      "gasUsed": "0x1785c",
      "contractAddress": null,
      "logs": [
        {
          "address": "0x02101dfB77FDE026414827Fdc604ddAF224F0921",
          "topics": [
            "0x07fba7bba1191da7ee1155dcfa0030701c9c9a9cc34a93b991fc6fd0c9268d8f"
          ],
          "data": "0x00000000000000000000000067dd11bce4f62d14111715f19e0426556b7f0ded000000000000000000000000da6c577241cb047628a370802d0cd20319f307b70000000000000000000000000000000000000000000000000000000000000005000000000000000000000000a6d32be299c481c7c689b6f7238a1ce1b5a3213d00000000000000000000000000000000000000000000000000000000000000240000000000000000000000000000000000000000000000000000000000000000",
          "blockHash": "0xe523de6988467e8099e2fe77c03010f82fcab38557fe758dd203a60b08e62c6e",
          "blockNumber": "0x8cecda",
          "transactionHash": "0xf5239f72c76cce2150329eb57abfd147e909c0f4517b8a17146024cda28115bd",
          "transactionIndex": "0x8",
          "logIndex": "0xa",
          "removed": false
        }
      ],
      "status": "0x1",
      "logsBloom": "0x00000000000000000000000000000000000000000000000000000000000000000000000000000000000000000000000000000000000000000000000000000002000000000000000000000000000000000000000000000000000000000000800000000000000000000000000000000000000000000000000000000000000000000000000000000000000000000200000000000000000000000000000000000000000000000000000000000000000000000000000000000000000000000000000000000000000000000000000000000000000000000000000000080000000000000000001000000000000000000000000000000000000000000000002000000000",
      "type": "0x2",
      "effectiveGasPrice": "0xb2f52cb1"
    },
    {
      "transactionHash": "0xa5a21ec7e56bc40c211c644c82fc4536e7abddd98bb65fd71f3bd97801dc7d8a",
      "transactionIndex": "0x9",
      "blockHash": "0xe523de6988467e8099e2fe77c03010f82fcab38557fe758dd203a60b08e62c6e",
      "blockNumber": "0x8cecda",
      "from": "0x85C91C3DfA5c200a6Ee9Bc9d3085d02A2c95908b",
      "to": "0x02101dfB77FDE026414827Fdc604ddAF224F0921",
      "cumulativeGasUsed": "0xc0353",
      "gasUsed": "0x1785c",
      "contractAddress": null,
      "logs": [
        {
          "address": "0x02101dfB77FDE026414827Fdc604ddAF224F0921",
          "topics": [
            "0x07fba7bba1191da7ee1155dcfa0030701c9c9a9cc34a93b991fc6fd0c9268d8f"
          ],
          "data": "0x0000000000000000000000001f9373c9f732a213711e0a16e97f1cf10413d821000000000000000000000000da6c577241cb047628a370802d0cd20319f307b70000000000000000000000000000000000000000000000000000000000000005000000000000000000000000a6d32be299c481c7c689b6f7238a1ce1b5a3213d00000000000000000000000000000000000000000000000000000000000000250000000000000000000000000000000000000000000000000000000000000000",
          "blockHash": "0xe523de6988467e8099e2fe77c03010f82fcab38557fe758dd203a60b08e62c6e",
          "blockNumber": "0x8cecda",
          "transactionHash": "0xa5a21ec7e56bc40c211c644c82fc4536e7abddd98bb65fd71f3bd97801dc7d8a",
          "transactionIndex": "0x9",
          "logIndex": "0xb",
          "removed": false
        }
      ],
      "status": "0x1",
      "logsBloom": "0x00000000000000000000000000000000000000000000000000000000000000000000000000000000000000000000000000000000000000000000000000000002000000000000000000000000000000000000000000000000000000000000800000000000000000000000000000000000000000000000000000000000000000000000000000000000000000000200000000000000000000000000000000000000000000000000000000000000000000000000000000000000000000000000000000000000000000000000000000000000000000000000000000080000000000000000001000000000000000000000000000000000000000000000002000000000",
      "type": "0x2",
      "effectiveGasPrice": "0xb2f52cb1"
    },
    {
      "transactionHash": "0x217b959e908d07a253a35c59e7d7bf6def374afc7e0cf183b2a847e25398df52",
      "transactionIndex": "0xa",
      "blockHash": "0xe523de6988467e8099e2fe77c03010f82fcab38557fe758dd203a60b08e62c6e",
      "blockNumber": "0x8cecda",
      "from": "0x85C91C3DfA5c200a6Ee9Bc9d3085d02A2c95908b",
      "to": "0x8E16e15381729fFEeDC4755f2Dcf6F5461f7F389",
      "cumulativeGasUsed": "0xcee24",
      "gasUsed": "0xead1",
      "contractAddress": null,
      "logs": [
        {
          "address": "0x8E16e15381729fFEeDC4755f2Dcf6F5461f7F389",
          "topics": [
            "0xddf252ad1be2c89b69c2b068fc378daa952ba7f163c4a11628f55a4df523b3ef",
            "0x00000000000000000000000085c91c3dfa5c200a6ee9bc9d3085d02a2c95908b",
            "0x0000000000000000000000007c3c4b9f12bc91a7c39708ffc7d282720e36c0cb",
            "0x0000000000000000000000000000000000000000000000000000000000000038"
          ],
          "data": "0x",
          "blockHash": "0xe523de6988467e8099e2fe77c03010f82fcab38557fe758dd203a60b08e62c6e",
          "blockNumber": "0x8cecda",
          "transactionHash": "0x217b959e908d07a253a35c59e7d7bf6def374afc7e0cf183b2a847e25398df52",
          "transactionIndex": "0xa",
          "logIndex": "0xc",
          "removed": false
        }
      ],
      "status": "0x1",
      "logsBloom": "0x00000000000000000000000000000200000100000000000000004000000000000000000000000000000020000000000000000000000000000000000000000000000000000000000000000808000000000000000000000000000008000000000000000000000010000000000000000000000000002000000000000010000000000000000000000000000000000000000000200000000000000000000000000000000000000000000000000000000000000000000000000000000000000000000000000002000000000000000000000040000000000000000000000000000000000000000000000000000000040000000000000000000000000200000000000000",
      "type": "0x2",
      "effectiveGasPrice": "0xb2f52cb1"
    },
    {
      "transactionHash": "0x28f2fc98048f2ab360e3aca0be8307892ab59419aacb1085b87eac5ceb6e7e5f",
      "transactionIndex": "0xb",
      "blockHash": "0xe523de6988467e8099e2fe77c03010f82fcab38557fe758dd203a60b08e62c6e",
      "blockNumber": "0x8cecda",
      "from": "0x85C91C3DfA5c200a6Ee9Bc9d3085d02A2c95908b",
      "to": "0x8E16e15381729fFEeDC4755f2Dcf6F5461f7F389",
      "cumulativeGasUsed": "0xd9629",
      "gasUsed": "0xa805",
      "contractAddress": null,
      "logs": [
        {
          "address": "0x8E16e15381729fFEeDC4755f2Dcf6F5461f7F389",
          "topics": [
            "0xddf252ad1be2c89b69c2b068fc378daa952ba7f163c4a11628f55a4df523b3ef",
            "0x00000000000000000000000085c91c3dfa5c200a6ee9bc9d3085d02a2c95908b",
            "0x0000000000000000000000007c3c4b9f12bc91a7c39708ffc7d282720e36c0cb",
            "0x0000000000000000000000000000000000000000000000000000000000000039"
          ],
          "data": "0x",
          "blockHash": "0xe523de6988467e8099e2fe77c03010f82fcab38557fe758dd203a60b08e62c6e",
          "blockNumber": "0x8cecda",
          "transactionHash": "0x28f2fc98048f2ab360e3aca0be8307892ab59419aacb1085b87eac5ceb6e7e5f",
          "transactionIndex": "0xb",
          "logIndex": "0xd",
          "removed": false
        }
      ],
      "status": "0x1",
      "logsBloom": "0x00000000000000000000000000002200000100000000000000004000000000000080000000000000000000000000000000000000000000000000000000000000000000000000000000000808000000000000000000000000000008000000000000000000000010000000000000000000000000000000000000000010004000000000000000000000000000000000000000200000000000000000000000000000000000000000000000000000000000000000000000000000000000000000000000000002000000000000000000000040000000000000000000000000000000000000000000000000000000040000000000000000000000000000000000000000",
      "type": "0x2",
      "effectiveGasPrice": "0xb2f52cb1"
    },
    {
      "transactionHash": "0xaf8c9d7468bd529c469d39335df6e388c797aee9524fd48fade866c2bec6de3c",
      "transactionIndex": "0xc",
      "blockHash": "0xe523de6988467e8099e2fe77c03010f82fcab38557fe758dd203a60b08e62c6e",
      "blockNumber": "0x8cecda",
      "from": "0x85C91C3DfA5c200a6Ee9Bc9d3085d02A2c95908b",
      "to": "0x8E16e15381729fFEeDC4755f2Dcf6F5461f7F389",
      "cumulativeGasUsed": "0xe3e2e",
      "gasUsed": "0xa805",
      "contractAddress": null,
      "logs": [
        {
          "address": "0x8E16e15381729fFEeDC4755f2Dcf6F5461f7F389",
          "topics": [
            "0xddf252ad1be2c89b69c2b068fc378daa952ba7f163c4a11628f55a4df523b3ef",
            "0x00000000000000000000000085c91c3dfa5c200a6ee9bc9d3085d02a2c95908b",
            "0x0000000000000000000000007c3c4b9f12bc91a7c39708ffc7d282720e36c0cb",
            "0x000000000000000000000000000000000000000000000000000000000000003a"
          ],
          "data": "0x",
          "blockHash": "0xe523de6988467e8099e2fe77c03010f82fcab38557fe758dd203a60b08e62c6e",
          "blockNumber": "0x8cecda",
          "transactionHash": "0xaf8c9d7468bd529c469d39335df6e388c797aee9524fd48fade866c2bec6de3c",
          "transactionIndex": "0xc",
          "logIndex": "0xe",
          "removed": false
        }
      ],
      "status": "0x1",
      "logsBloom": "0x00000000000000000000000000000200000100000000000000004000000000000000000000000000000000000000000000000000000000000000000000000000000000000000000000000808000000020000000000000000000008000000000000000000000010000000000000000000000000000000000000000010000000000000000000000000000000000000000000200080000000000000000000000000000000000000000000000000020000000000000000000000000000000000000000000002000000000000000000000040000000000000000000000000000000000000000000000000000000040000000000000000000000000000000000000000",
      "type": "0x2",
      "effectiveGasPrice": "0xb2f52cb1"
    },
    {
      "transactionHash": "0xba1bf5b2be1cbf7087cda3b05fa52fc49de26ac92160e228a0423c4a2aa44ec3",
      "transactionIndex": "0xd",
      "blockHash": "0xe523de6988467e8099e2fe77c03010f82fcab38557fe758dd203a60b08e62c6e",
      "blockNumber": "0x8cecda",
      "from": "0x85C91C3DfA5c200a6Ee9Bc9d3085d02A2c95908b",
      "to": "0x8E16e15381729fFEeDC4755f2Dcf6F5461f7F389",
      "cumulativeGasUsed": "0xee633",
      "gasUsed": "0xa805",
      "contractAddress": null,
      "logs": [
        {
          "address": "0x8E16e15381729fFEeDC4755f2Dcf6F5461f7F389",
          "topics": [
            "0xddf252ad1be2c89b69c2b068fc378daa952ba7f163c4a11628f55a4df523b3ef",
            "0x00000000000000000000000085c91c3dfa5c200a6ee9bc9d3085d02a2c95908b",
            "0x0000000000000000000000007c3c4b9f12bc91a7c39708ffc7d282720e36c0cb",
            "0x000000000000000000000000000000000000000000000000000000000000003b"
          ],
          "data": "0x",
          "blockHash": "0xe523de6988467e8099e2fe77c03010f82fcab38557fe758dd203a60b08e62c6e",
          "blockNumber": "0x8cecda",
          "transactionHash": "0xba1bf5b2be1cbf7087cda3b05fa52fc49de26ac92160e228a0423c4a2aa44ec3",
          "transactionIndex": "0xd",
          "logIndex": "0xf",
          "removed": false
        }
      ],
      "status": "0x1",
      "logsBloom": "0x00000000000000000000000000000200000100000000000000004000000000000000000000000000000000000000000000000000000000000000000000000000000000000000000000000808000000000000000000000000000008000000000000000000000010000000000000000020000000000000000000000010000000000000000800000000000000000000000000200000000000000000000000000000000000000000000000000000000000000000000000000000000000000000000000000002000000000000000000000040000000000000000000000002000000000000000000000000000000040000000000000000000000000000000000000000",
      "type": "0x2",
      "effectiveGasPrice": "0xb2f52cb1"
    },
    {
      "transactionHash": "0xdfa4f08512acabad0a387b8b5d8ab11a25028606eac687416bee4348f4be8142",
      "transactionIndex": "0xe",
      "blockHash": "0xe523de6988467e8099e2fe77c03010f82fcab38557fe758dd203a60b08e62c6e",
      "blockNumber": "0x8cecda",
      "from": "0x85C91C3DfA5c200a6Ee9Bc9d3085d02A2c95908b",
      "to": "0x8E16e15381729fFEeDC4755f2Dcf6F5461f7F389",
      "cumulativeGasUsed": "0xf8e38",
      "gasUsed": "0xa805",
      "contractAddress": null,
      "logs": [
        {
          "address": "0x8E16e15381729fFEeDC4755f2Dcf6F5461f7F389",
          "topics": [
            "0xddf252ad1be2c89b69c2b068fc378daa952ba7f163c4a11628f55a4df523b3ef",
            "0x00000000000000000000000085c91c3dfa5c200a6ee9bc9d3085d02a2c95908b",
            "0x0000000000000000000000007c3c4b9f12bc91a7c39708ffc7d282720e36c0cb",
            "0x000000000000000000000000000000000000000000000000000000000000003c"
          ],
          "data": "0x",
          "blockHash": "0xe523de6988467e8099e2fe77c03010f82fcab38557fe758dd203a60b08e62c6e",
          "blockNumber": "0x8cecda",
          "transactionHash": "0xdfa4f08512acabad0a387b8b5d8ab11a25028606eac687416bee4348f4be8142",
          "transactionIndex": "0xe",
          "logIndex": "0x10",
          "removed": false
        }
      ],
      "status": "0x1",
      "logsBloom": "0x00000000000000000000000000040200000100000000000000004000000000000000000000000800080000000000000000000000000000000000000000000000000000000000000000000808000000000000000000000000000008000000000000000000000010000000000000000000000000000000000000000010000000000000000000000000000000000000000000200000000000000000000000000000000000000000000000000000000000000000000000000000000000000000000000000002000000000000000000000040000000000000000000000000000000000000000000000000000000040000000000000000000000000000000000000000",
      "type": "0x2",
      "effectiveGasPrice": "0xb2f52cb1"
    },
    {
      "transactionHash": "0x026a2cd5b581fe2da64852df81ed1684edff1233b27bfd2fc33e7a337fbbd0b8",
      "transactionIndex": "0xf",
      "blockHash": "0xe523de6988467e8099e2fe77c03010f82fcab38557fe758dd203a60b08e62c6e",
      "blockNumber": "0x8cecda",
      "from": "0x85C91C3DfA5c200a6Ee9Bc9d3085d02A2c95908b",
      "to": "0x8E16e15381729fFEeDC4755f2Dcf6F5461f7F389",
      "cumulativeGasUsed": "0x10363d",
      "gasUsed": "0xa805",
      "contractAddress": null,
      "logs": [
        {
          "address": "0x8E16e15381729fFEeDC4755f2Dcf6F5461f7F389",
          "topics": [
            "0xddf252ad1be2c89b69c2b068fc378daa952ba7f163c4a11628f55a4df523b3ef",
            "0x00000000000000000000000085c91c3dfa5c200a6ee9bc9d3085d02a2c95908b",
            "0x0000000000000000000000007c3c4b9f12bc91a7c39708ffc7d282720e36c0cb",
            "0x000000000000000000000000000000000000000000000000000000000000003d"
          ],
          "data": "0x",
          "blockHash": "0xe523de6988467e8099e2fe77c03010f82fcab38557fe758dd203a60b08e62c6e",
          "blockNumber": "0x8cecda",
          "transactionHash": "0x026a2cd5b581fe2da64852df81ed1684edff1233b27bfd2fc33e7a337fbbd0b8",
          "transactionIndex": "0xf",
          "logIndex": "0x11",
          "removed": false
        }
      ],
      "status": "0x1",
      "logsBloom": "0x00000000000000000000000000000200000100000000000000004000000000000000000000000000000000000000000000000000000000000000000000000000000000000000000000000808000000000000000000000000000008040000000020000040000010000000000000000000000000000000000000000010000000000000000000000000000000000000000000200000000000000000000000000000000000000000000000000000000000000000000000000000000000000000000000000002000000000000000000000040000000000000000000000000000000000000000000000000000000040000000000000000000000000000000000000000",
      "type": "0x2",
      "effectiveGasPrice": "0xb2f52cb1"
    },
    {
      "transactionHash": "0xa49edad7e6b083986d580a0a2f31f103d0c38a23b4ea8c31da3010f5ad86ee41",
      "transactionIndex": "0x10",
      "blockHash": "0xe523de6988467e8099e2fe77c03010f82fcab38557fe758dd203a60b08e62c6e",
      "blockNumber": "0x8cecda",
      "from": "0x85C91C3DfA5c200a6Ee9Bc9d3085d02A2c95908b",
      "to": "0x8E16e15381729fFEeDC4755f2Dcf6F5461f7F389",
      "cumulativeGasUsed": "0x10de42",
      "gasUsed": "0xa805",
      "contractAddress": null,
      "logs": [
        {
          "address": "0x8E16e15381729fFEeDC4755f2Dcf6F5461f7F389",
          "topics": [
            "0xddf252ad1be2c89b69c2b068fc378daa952ba7f163c4a11628f55a4df523b3ef",
            "0x00000000000000000000000085c91c3dfa5c200a6ee9bc9d3085d02a2c95908b",
            "0x0000000000000000000000007c3c4b9f12bc91a7c39708ffc7d282720e36c0cb",
            "0x000000000000000000000000000000000000000000000000000000000000003e"
          ],
          "data": "0x",
          "blockHash": "0xe523de6988467e8099e2fe77c03010f82fcab38557fe758dd203a60b08e62c6e",
          "blockNumber": "0x8cecda",
          "transactionHash": "0xa49edad7e6b083986d580a0a2f31f103d0c38a23b4ea8c31da3010f5ad86ee41",
          "transactionIndex": "0x10",
          "logIndex": "0x12",
          "removed": false
        }
      ],
      "status": "0x1",
      "logsBloom": "0x00000000000000000000000000000200000100000000000000004000000000000000000000000000000000000000000000000000000000000000000000000000000000000000000000000808000000010000004000000000000008000000000000000000000810000000000000000000000000000000000000000010000000000000000000000000000000000000000000200000000000000000000000000000000000000000000000000000000000000000000000000000000000000000000000000002000000000000000000000040000000000000000000000000000000000000000000000000000000040000000000000000000000000000000000000000",
      "type": "0x2",
      "effectiveGasPrice": "0xb2f52cb1"
    },
    {
      "transactionHash": "0x489ea01362ec6b7c007e3bb80f5e1573980ed350064ec27e35c251a6a6f3b774",
      "transactionIndex": "0x11",
      "blockHash": "0xe523de6988467e8099e2fe77c03010f82fcab38557fe758dd203a60b08e62c6e",
      "blockNumber": "0x8cecda",
      "from": "0x85C91C3DfA5c200a6Ee9Bc9d3085d02A2c95908b",
      "to": "0x8E16e15381729fFEeDC4755f2Dcf6F5461f7F389",
      "cumulativeGasUsed": "0x118647",
      "gasUsed": "0xa805",
      "contractAddress": null,
      "logs": [
        {
          "address": "0x8E16e15381729fFEeDC4755f2Dcf6F5461f7F389",
          "topics": [
            "0xddf252ad1be2c89b69c2b068fc378daa952ba7f163c4a11628f55a4df523b3ef",
            "0x00000000000000000000000085c91c3dfa5c200a6ee9bc9d3085d02a2c95908b",
            "0x0000000000000000000000007c3c4b9f12bc91a7c39708ffc7d282720e36c0cb",
            "0x000000000000000000000000000000000000000000000000000000000000003f"
          ],
          "data": "0x",
          "blockHash": "0xe523de6988467e8099e2fe77c03010f82fcab38557fe758dd203a60b08e62c6e",
          "blockNumber": "0x8cecda",
          "transactionHash": "0x489ea01362ec6b7c007e3bb80f5e1573980ed350064ec27e35c251a6a6f3b774",
          "transactionIndex": "0x11",
          "logIndex": "0x13",
          "removed": false
        }
      ],
      "status": "0x1",
      "logsBloom": "0x00000000000000000000000000000200000100000000000000004000000000000000000000000000000000000000000000000000000000000000000000000080000000000000000000000808000000000000000000000000000008000000000000000008000010000000000000000000000000000000000000000010000000000000000000000000000000000000000000200000000000000000000000000000000000000000000000000000000000000000000000000000000000000000000000000002000000000000000000000040000000000000000000000000000000000000000000000000000000040000000000000000000000000001000000000000",
      "type": "0x2",
      "effectiveGasPrice": "0xb2f52cb1"
    },
    {
      "transactionHash": "0xdac91fcec46dd2029432d9aa27b232b14824b88d3c7c4cb7e1849980e754b5a4",
      "transactionIndex": "0x12",
      "blockHash": "0xe523de6988467e8099e2fe77c03010f82fcab38557fe758dd203a60b08e62c6e",
      "blockNumber": "0x8cecda",
      "from": "0x85C91C3DfA5c200a6Ee9Bc9d3085d02A2c95908b",
      "to": "0x8E16e15381729fFEeDC4755f2Dcf6F5461f7F389",
      "cumulativeGasUsed": "0x122e4c",
      "gasUsed": "0xa805",
      "contractAddress": null,
      "logs": [
        {
          "address": "0x8E16e15381729fFEeDC4755f2Dcf6F5461f7F389",
          "topics": [
            "0xddf252ad1be2c89b69c2b068fc378daa952ba7f163c4a11628f55a4df523b3ef",
            "0x00000000000000000000000085c91c3dfa5c200a6ee9bc9d3085d02a2c95908b",
            "0x0000000000000000000000007c3c4b9f12bc91a7c39708ffc7d282720e36c0cb",
            "0x0000000000000000000000000000000000000000000000000000000000000040"
          ],
          "data": "0x",
          "blockHash": "0xe523de6988467e8099e2fe77c03010f82fcab38557fe758dd203a60b08e62c6e",
          "blockNumber": "0x8cecda",
          "transactionHash": "0xdac91fcec46dd2029432d9aa27b232b14824b88d3c7c4cb7e1849980e754b5a4",
          "transactionIndex": "0x12",
          "logIndex": "0x14",
          "removed": false
        }
      ],
      "status": "0x1",
      "logsBloom": "0x00000000000000000000000000000200000100000000000000004000000000000000000100000000000000020000000000000000000000000000000000000000000000000000000000000808000000000000000000000000000088000000000000000000000010000000000000000000000000000000000000000010000000000000000000000000000000000000000000200000000000000000000000000000000000000000000000000000000000000000000000000000000000000000000000000002000000000000000000000040000000000000000000000000000000000000000000000000000000040000000000000000000000000000000000000000",
      "type": "0x2",
      "effectiveGasPrice": "0xb2f52cb1"
    },
    {
      "transactionHash": "0x97133b42238b93447ce19faa47512c0dca82fb7bd3d6919a9700dd819b3ee880",
      "transactionIndex": "0x13",
      "blockHash": "0xe523de6988467e8099e2fe77c03010f82fcab38557fe758dd203a60b08e62c6e",
      "blockNumber": "0x8cecda",
      "from": "0x85C91C3DfA5c200a6Ee9Bc9d3085d02A2c95908b",
      "to": "0x8E16e15381729fFEeDC4755f2Dcf6F5461f7F389",
      "cumulativeGasUsed": "0x12d651",
      "gasUsed": "0xa805",
      "contractAddress": null,
      "logs": [
        {
          "address": "0x8E16e15381729fFEeDC4755f2Dcf6F5461f7F389",
          "topics": [
            "0xddf252ad1be2c89b69c2b068fc378daa952ba7f163c4a11628f55a4df523b3ef",
            "0x00000000000000000000000085c91c3dfa5c200a6ee9bc9d3085d02a2c95908b",
            "0x0000000000000000000000007c3c4b9f12bc91a7c39708ffc7d282720e36c0cb",
            "0x0000000000000000000000000000000000000000000000000000000000000041"
          ],
          "data": "0x",
          "blockHash": "0xe523de6988467e8099e2fe77c03010f82fcab38557fe758dd203a60b08e62c6e",
          "blockNumber": "0x8cecda",
          "transactionHash": "0x97133b42238b93447ce19faa47512c0dca82fb7bd3d6919a9700dd819b3ee880",
          "transactionIndex": "0x13",
          "logIndex": "0x15",
          "removed": false
        }
      ],
      "status": "0x1",
      "logsBloom": "0x00000000000000000000000000000200000100000000000000004000000000000000000000000000000000000000000000000000000000000000000000000000000001000000000000000808000000000000000000000000000008000000000000000000000010000000000000800000000000000000000000000010004000000000000000000000000000000000000000200000000000000000000000000000000000000000000000000000000000000000000000000000000000000000000000000002000000000000000000000040000000000000000000000000000000000000000000000000000000040000000000000000000000000000000000000000",
      "type": "0x2",
      "effectiveGasPrice": "0xb2f52cb1"
    }
  ],
  "libraries": [],
  "pending": [],
  "path": "/Users/jaclyn/Documents/code/fukuro/contracts/broadcast/demoSetup.s.sol/5/run-latest.json",
  "returns": {},
  "timestamp": 1687658809,
  "chain": 5,
  "multi": false,
  "commit": "4cef3cc"
}