{
  "transactions": [
    {
      "hash": "0xe27a429873466a5c04ff9632bb9d6f4badcdd0d8b3c527238ba8e4f349585108",
      "transactionType": "CALL",
      "contractName": "ERC6551Registry",
      "contractAddress": "0x02101dfB77FDE026414827Fdc604ddAF224F0921",
      "function": "createAccount(address,uint256,address,uint256,uint256,bytes):(address)",
      "arguments": [
        "0xDA6c577241cB047628a370802D0CD20319F307B7",
        "5",
        "0xA6d32Be299C481c7C689b6f7238A1cE1b5A3213d",
        "1",
        "0",
        "0x"
      ],
      "rpc": "https://eth-goerli.g.alchemy.com/v2/B81B-tXiOVtE5bt8bJkX5Gqi3s2R1fgZ",
      "transaction": {
        "type": "0x02",
        "from": "0x85c91c3dfa5c200a6ee9bc9d3085d02a2c95908b",
        "to": "0x02101dfb77fde026414827fdc604ddaf224f0921",
        "gas": "0x9a58",
        "value": "0x0",
        "data": "0xda7323b3000000000000000000000000da6c577241cb047628a370802d0cd20319f307b70000000000000000000000000000000000000000000000000000000000000005000000000000000000000000a6d32be299c481c7c689b6f7238a1ce1b5a3213d0000000000000000000000000000000000000000000000000000000000000001000000000000000000000000000000000000000000000000000000000000000000000000000000000000000000000000000000000000000000000000000000c00000000000000000000000000000000000000000000000000000000000000000",
        "nonce": "0x34",
        "accessList": []
      },
      "additionalContracts": [],
      "isFixedGasLimit": false
    },
    {
      "hash": "0x103df6f008962ebb36f468c1142c0554f63c7792f472d881fe7df986c593bc79",
      "transactionType": "CALL",
      "contractName": "ERC6551Registry",
      "contractAddress": "0x02101dfB77FDE026414827Fdc604ddAF224F0921",
      "function": "createAccount(address,uint256,address,uint256,uint256,bytes):(address)",
      "arguments": [
        "0xDA6c577241cB047628a370802D0CD20319F307B7",
        "5",
        "0xA6d32Be299C481c7C689b6f7238A1cE1b5A3213d",
        "2",
        "0",
        "0x"
      ],
      "rpc": "https://eth-goerli.g.alchemy.com/v2/B81B-tXiOVtE5bt8bJkX5Gqi3s2R1fgZ",
      "transaction": {
        "type": "0x02",
        "from": "0x85c91c3dfa5c200a6ee9bc9d3085d02a2c95908b",
        "to": "0x02101dfb77fde026414827fdc604ddaf224f0921",
        "gas": "0x9a58",
        "value": "0x0",
        "data": "0xda7323b3000000000000000000000000da6c577241cb047628a370802d0cd20319f307b70000000000000000000000000000000000000000000000000000000000000005000000000000000000000000a6d32be299c481c7c689b6f7238a1ce1b5a3213d0000000000000000000000000000000000000000000000000000000000000002000000000000000000000000000000000000000000000000000000000000000000000000000000000000000000000000000000000000000000000000000000c00000000000000000000000000000000000000000000000000000000000000000",
        "nonce": "0x35",
        "accessList": []
      },
      "additionalContracts": [],
      "isFixedGasLimit": false
    },
    {
      "hash": "0x8c306f191f8ee71bb9e7feeda325ac0ba586578e28ad8f803f26492257710457",
      "transactionType": "CALL",
      "contractName": "ERC6551Registry",
      "contractAddress": "0x02101dfB77FDE026414827Fdc604ddAF224F0921",
      "function": "createAccount(address,uint256,address,uint256,uint256,bytes):(address)",
      "arguments": [
        "0xDA6c577241cB047628a370802D0CD20319F307B7",
        "5",
        "0xA6d32Be299C481c7C689b6f7238A1cE1b5A3213d",
        "3",
        "0",
        "0x"
      ],
      "rpc": "https://eth-goerli.g.alchemy.com/v2/B81B-tXiOVtE5bt8bJkX5Gqi3s2R1fgZ",
      "transaction": {
        "type": "0x02",
        "from": "0x85c91c3dfa5c200a6ee9bc9d3085d02a2c95908b",
        "to": "0x02101dfb77fde026414827fdc604ddaf224f0921",
        "gas": "0x9a58",
        "value": "0x0",
        "data": "0xda7323b3000000000000000000000000da6c577241cb047628a370802d0cd20319f307b70000000000000000000000000000000000000000000000000000000000000005000000000000000000000000a6d32be299c481c7c689b6f7238a1ce1b5a3213d0000000000000000000000000000000000000000000000000000000000000003000000000000000000000000000000000000000000000000000000000000000000000000000000000000000000000000000000000000000000000000000000c00000000000000000000000000000000000000000000000000000000000000000",
        "nonce": "0x36",
        "accessList": []
      },
      "additionalContracts": [],
      "isFixedGasLimit": false
    },
    {
      "hash": "0x92030dc04e1c3ecf85a76d6b3e9ceb13044ff5cbf872dcdac0e200a63faeae81",
      "transactionType": "CALL",
      "contractName": "AfropolitanNFT",
      "contractAddress": "0x8E16e15381729fFEeDC4755f2Dcf6F5461f7F389",
      "function": "transferFrom(address,address,uint256)",
      "arguments": [
        "0x85C91C3DfA5c200a6Ee9Bc9d3085d02A2c95908b",
        "0xa0F17c790e2C330D6A69aFac80E5E4De6908b5C5",
        "26"
      ],
      "rpc": "https://eth-goerli.g.alchemy.com/v2/B81B-tXiOVtE5bt8bJkX5Gqi3s2R1fgZ",
      "transaction": {
        "type": "0x02",
        "from": "0x85c91c3dfa5c200a6ee9bc9d3085d02a2c95908b",
        "to": "0x8e16e15381729ffeedc4755f2dcf6f5461f7f389",
        "gas": "0x1576b",
        "value": "0x0",
        "data": "0x23b872dd00000000000000000000000085c91c3dfa5c200a6ee9bc9d3085d02a2c95908b000000000000000000000000a0f17c790e2c330d6a69afac80e5e4de6908b5c5000000000000000000000000000000000000000000000000000000000000001a",
        "nonce": "0x37",
        "accessList": []
      },
      "additionalContracts": [],
      "isFixedGasLimit": false
    },
    {
      "hash": "0x127fd82a84cb175ac5c409c4fcceeca7a4eceb9d4665f7d0b15b15317ae401f4",
      "transactionType": "CALL",
      "contractName": "AfropolitanNFT",
      "contractAddress": "0x8E16e15381729fFEeDC4755f2Dcf6F5461f7F389",
      "function": "transferFrom(address,address,uint256)",
      "arguments": [
        "0x85C91C3DfA5c200a6Ee9Bc9d3085d02A2c95908b",
        "0xa0F17c790e2C330D6A69aFac80E5E4De6908b5C5",
        "27"
      ],
      "rpc": "https://eth-goerli.g.alchemy.com/v2/B81B-tXiOVtE5bt8bJkX5Gqi3s2R1fgZ",
      "transaction": {
        "type": "0x02",
        "from": "0x85c91c3dfa5c200a6ee9bc9d3085d02a2c95908b",
        "to": "0x8e16e15381729ffeedc4755f2dcf6f5461f7f389",
        "gas": "0xe813",
        "value": "0x0",
        "data": "0x23b872dd00000000000000000000000085c91c3dfa5c200a6ee9bc9d3085d02a2c95908b000000000000000000000000a0f17c790e2c330d6a69afac80e5e4de6908b5c5000000000000000000000000000000000000000000000000000000000000001b",
        "nonce": "0x38",
        "accessList": []
      },
      "additionalContracts": [],
      "isFixedGasLimit": false
    },
    {
      "hash": "0x08785ffb3b4ecb0cf9ed1f7ec6c4bba51a946d75788e2286b2ea219d73761605",
      "transactionType": "CALL",
      "contractName": "AfropolitanNFT",
      "contractAddress": "0x8E16e15381729fFEeDC4755f2Dcf6F5461f7F389",
      "function": "transferFrom(address,address,uint256)",
      "arguments": [
        "0x85C91C3DfA5c200a6Ee9Bc9d3085d02A2c95908b",
        "0xa0F17c790e2C330D6A69aFac80E5E4De6908b5C5",
        "28"
      ],
      "rpc": "https://eth-goerli.g.alchemy.com/v2/B81B-tXiOVtE5bt8bJkX5Gqi3s2R1fgZ",
      "transaction": {
        "type": "0x02",
        "from": "0x85c91c3dfa5c200a6ee9bc9d3085d02a2c95908b",
        "to": "0x8e16e15381729ffeedc4755f2dcf6f5461f7f389",
        "gas": "0xe813",
        "value": "0x0",
        "data": "0x23b872dd00000000000000000000000085c91c3dfa5c200a6ee9bc9d3085d02a2c95908b000000000000000000000000a0f17c790e2c330d6a69afac80e5e4de6908b5c5000000000000000000000000000000000000000000000000000000000000001c",
        "nonce": "0x39",
        "accessList": []
      },
      "additionalContracts": [],
      "isFixedGasLimit": false
    },
    {
      "hash": "0xb2b7151bb2931731255de19b8f22262c483b25cd5297a2a9b995c7fbf4e8a040",
      "transactionType": "CALL",
      "contractName": "AfropolitanNFT",
      "contractAddress": "0x8E16e15381729fFEeDC4755f2Dcf6F5461f7F389",
      "function": "transferFrom(address,address,uint256)",
      "arguments": [
        "0x85C91C3DfA5c200a6Ee9Bc9d3085d02A2c95908b",
        "0x0BCe0Cc26A88c7f9EcD53C9788b300e6bdDe863E",
        "29"
      ],
      "rpc": "https://eth-goerli.g.alchemy.com/v2/B81B-tXiOVtE5bt8bJkX5Gqi3s2R1fgZ",
      "transaction": {
        "type": "0x02",
        "from": "0x85c91c3dfa5c200a6ee9bc9d3085d02a2c95908b",
        "to": "0x8e16e15381729ffeedc4755f2dcf6f5461f7f389",
        "gas": "0x14446",
        "value": "0x0",
        "data": "0x23b872dd00000000000000000000000085c91c3dfa5c200a6ee9bc9d3085d02a2c95908b0000000000000000000000000bce0cc26a88c7f9ecd53c9788b300e6bdde863e000000000000000000000000000000000000000000000000000000000000001d",
        "nonce": "0x3a",
        "accessList": []
      },
      "additionalContracts": [],
      "isFixedGasLimit": false
    },
    {
      "hash": "0x202823534c65892bf41b71daa8f2b2ba22bab4379603a968c1132fa545ae0959",
      "transactionType": "CALL",
      "contractName": "AfropolitanNFT",
      "contractAddress": "0x8E16e15381729fFEeDC4755f2Dcf6F5461f7F389",
      "function": "transferFrom(address,address,uint256)",
      "arguments": [
        "0x85C91C3DfA5c200a6Ee9Bc9d3085d02A2c95908b",
        "0x0BCe0Cc26A88c7f9EcD53C9788b300e6bdDe863E",
        "30"
      ],
      "rpc": "https://eth-goerli.g.alchemy.com/v2/B81B-tXiOVtE5bt8bJkX5Gqi3s2R1fgZ",
      "transaction": {
        "type": "0x02",
        "from": "0x85c91c3dfa5c200a6ee9bc9d3085d02a2c95908b",
        "to": "0x8e16e15381729ffeedc4755f2dcf6f5461f7f389",
        "gas": "0xf5a8",
        "value": "0x0",
        "data": "0x23b872dd00000000000000000000000085c91c3dfa5c200a6ee9bc9d3085d02a2c95908b0000000000000000000000000bce0cc26a88c7f9ecd53c9788b300e6bdde863e000000000000000000000000000000000000000000000000000000000000001e",
        "nonce": "0x3b",
        "accessList": []
      },
      "additionalContracts": [],
      "isFixedGasLimit": false
    },
    {
      "hash": "0xacc545921c29331b29dd78ee9a19b15fba4c75ea4600b94ee1e4b6d9f30db0a9",
      "transactionType": "CALL",
      "contractName": "AfropolitanNFT",
      "contractAddress": "0x8E16e15381729fFEeDC4755f2Dcf6F5461f7F389",
      "function": "transferFrom(address,address,uint256)",
      "arguments": [
        "0x85C91C3DfA5c200a6Ee9Bc9d3085d02A2c95908b",
        "0x0BCe0Cc26A88c7f9EcD53C9788b300e6bdDe863E",
        "31"
      ],
      "rpc": "https://eth-goerli.g.alchemy.com/v2/B81B-tXiOVtE5bt8bJkX5Gqi3s2R1fgZ",
      "transaction": {
        "type": "0x02",
        "from": "0x85c91c3dfa5c200a6ee9bc9d3085d02a2c95908b",
        "to": "0x8e16e15381729ffeedc4755f2dcf6f5461f7f389",
        "gas": "0xf5a8",
        "value": "0x0",
        "data": "0x23b872dd00000000000000000000000085c91c3dfa5c200a6ee9bc9d3085d02a2c95908b0000000000000000000000000bce0cc26a88c7f9ecd53c9788b300e6bdde863e000000000000000000000000000000000000000000000000000000000000001f",
        "nonce": "0x3c",
        "accessList": []
      },
      "additionalContracts": [],
      "isFixedGasLimit": false
    },
    {
      "hash": "0xd9b15cad15151e8873f0e6f9ce1bfe626c83faa89292f396e5ca7e9a4879ea7f",
      "transactionType": "CALL",
      "contractName": "AfropolitanNFT",
      "contractAddress": "0x8E16e15381729fFEeDC4755f2Dcf6F5461f7F389",
      "function": "transferFrom(address,address,uint256)",
      "arguments": [
        "0x85C91C3DfA5c200a6Ee9Bc9d3085d02A2c95908b",
        "0x94896Faa0ee995D627831D01d2bf54716bCa95eB",
        "32"
      ],
      "rpc": "https://eth-goerli.g.alchemy.com/v2/B81B-tXiOVtE5bt8bJkX5Gqi3s2R1fgZ",
      "transaction": {
        "type": "0x02",
        "from": "0x85c91c3dfa5c200a6ee9bc9d3085d02a2c95908b",
        "to": "0x8e16e15381729ffeedc4755f2dcf6f5461f7f389",
        "gas": "0x1576b",
        "value": "0x0",
        "data": "0x23b872dd00000000000000000000000085c91c3dfa5c200a6ee9bc9d3085d02a2c95908b00000000000000000000000094896faa0ee995d627831d01d2bf54716bca95eb0000000000000000000000000000000000000000000000000000000000000020",
        "nonce": "0x3d",
        "accessList": []
      },
      "additionalContracts": [],
      "isFixedGasLimit": false
    },
    {
      "hash": "0x44afe347aa4790e229eb0e4e925ddcd566577102393a96a60e8ce61d1f540a58",
      "transactionType": "CALL",
      "contractName": "AfropolitanNFT",
      "contractAddress": "0x8E16e15381729fFEeDC4755f2Dcf6F5461f7F389",
      "function": "transferFrom(address,address,uint256)",
      "arguments": [
        "0x85C91C3DfA5c200a6Ee9Bc9d3085d02A2c95908b",
        "0x94896Faa0ee995D627831D01d2bf54716bCa95eB",
        "33"
      ],
      "rpc": "https://eth-goerli.g.alchemy.com/v2/B81B-tXiOVtE5bt8bJkX5Gqi3s2R1fgZ",
      "transaction": {
        "type": "0x02",
        "from": "0x85c91c3dfa5c200a6ee9bc9d3085d02a2c95908b",
        "to": "0x8e16e15381729ffeedc4755f2dcf6f5461f7f389",
        "gas": "0xe813",
        "value": "0x0",
        "data": "0x23b872dd00000000000000000000000085c91c3dfa5c200a6ee9bc9d3085d02a2c95908b00000000000000000000000094896faa0ee995d627831d01d2bf54716bca95eb0000000000000000000000000000000000000000000000000000000000000021",
        "nonce": "0x3e",
        "accessList": []
      },
      "additionalContracts": [],
      "isFixedGasLimit": false
    },
    {
      "hash": "0x84c659894aa8dcb66d54107edcb1fd3398affb435fccfdfb1f5b1316d41ab0d3",
      "transactionType": "CALL",
      "contractName": "AfropolitanNFT",
      "contractAddress": "0x8E16e15381729fFEeDC4755f2Dcf6F5461f7F389",
      "function": "transferFrom(address,address,uint256)",
      "arguments": [
        "0x85C91C3DfA5c200a6Ee9Bc9d3085d02A2c95908b",
        "0x94896Faa0ee995D627831D01d2bf54716bCa95eB",
        "34"
      ],
      "rpc": "https://eth-goerli.g.alchemy.com/v2/B81B-tXiOVtE5bt8bJkX5Gqi3s2R1fgZ",
      "transaction": {
        "type": "0x02",
        "from": "0x85c91c3dfa5c200a6ee9bc9d3085d02a2c95908b",
        "to": "0x8e16e15381729ffeedc4755f2dcf6f5461f7f389",
        "gas": "0xe813",
        "value": "0x0",
        "data": "0x23b872dd00000000000000000000000085c91c3dfa5c200a6ee9bc9d3085d02a2c95908b00000000000000000000000094896faa0ee995d627831d01d2bf54716bca95eb0000000000000000000000000000000000000000000000000000000000000022",
        "nonce": "0x3f",
        "accessList": []
      },
      "additionalContracts": [],
      "isFixedGasLimit": false
    },
    {
      "hash": "0x9884e6416efdd0eb53fbe2f16f7d0e98ea7a2de266cf397e8af66dd81a4d32a1",
      "transactionType": "CALL",
      "contractName": "AfropolitanNFT",
      "contractAddress": "0x8E16e15381729fFEeDC4755f2Dcf6F5461f7F389",
      "function": "transferFrom(address,address,uint256)",
      "arguments": [
        "0x85C91C3DfA5c200a6Ee9Bc9d3085d02A2c95908b",
        "0x94896Faa0ee995D627831D01d2bf54716bCa95eB",
        "35"
      ],
      "rpc": "https://eth-goerli.g.alchemy.com/v2/B81B-tXiOVtE5bt8bJkX5Gqi3s2R1fgZ",
      "transaction": {
        "type": "0x02",
        "from": "0x85c91c3dfa5c200a6ee9bc9d3085d02a2c95908b",
        "to": "0x8e16e15381729ffeedc4755f2dcf6f5461f7f389",
        "gas": "0xce2d",
        "value": "0x0",
        "data": "0x23b872dd00000000000000000000000085c91c3dfa5c200a6ee9bc9d3085d02a2c95908b00000000000000000000000094896faa0ee995d627831d01d2bf54716bca95eb0000000000000000000000000000000000000000000000000000000000000023",
        "nonce": "0x40",
        "accessList": []
      },
      "additionalContracts": [],
      "isFixedGasLimit": false
    }
  ],
  "receipts": [
    {
      "transactionHash": "0xe27a429873466a5c04ff9632bb9d6f4badcdd0d8b3c527238ba8e4f349585108",
      "transactionIndex": "0x0",
      "blockHash": "0x9d402a5791215bebac447aa93fce2a296ada0d8165014b5b1a6065c72d5321a8",
      "blockNumber": "0x8ceae0",
      "from": "0x85C91C3DfA5c200a6Ee9Bc9d3085d02A2c95908b",
      "to": "0x02101dfB77FDE026414827Fdc604ddAF224F0921",
      "cumulativeGasUsed": "0x6989",
      "gasUsed": "0x6989",
      "contractAddress": null,
      "logs": [],
      "status": "0x1",
      "logsBloom": "0x00000000000000000000000000000000000000000000000000000000000000000000000000000000000000000000000000000000000000000000000000000000000000000000000000000000000000000000000000000000000000000000000000000000000000000000000000000000000000000000000000000000000000000000000000000000000000000000000000000000000000000000000000000000000000000000000000000000000000000000000000000000000000000000000000000000000000000000000000000000000000000000000000000000000000000000000000000000000000000000000000000000000000000000000000000000",
      "type": "0x2",
      "effectiveGasPrice": "0xb31717a0"
    },
    {
      "transactionHash": "0x103df6f008962ebb36f468c1142c0554f63c7792f472d881fe7df986c593bc79",
      "transactionIndex": "0x1",
      "blockHash": "0x9d402a5791215bebac447aa93fce2a296ada0d8165014b5b1a6065c72d5321a8",
      "blockNumber": "0x8ceae0",
      "from": "0x85C91C3DfA5c200a6Ee9Bc9d3085d02A2c95908b",
      "to": "0x02101dfB77FDE026414827Fdc604ddAF224F0921",
      "cumulativeGasUsed": "0xd312",
      "gasUsed": "0x6989",
      "contractAddress": null,
      "logs": [],
      "status": "0x1",
      "logsBloom": "0x00000000000000000000000000000000000000000000000000000000000000000000000000000000000000000000000000000000000000000000000000000000000000000000000000000000000000000000000000000000000000000000000000000000000000000000000000000000000000000000000000000000000000000000000000000000000000000000000000000000000000000000000000000000000000000000000000000000000000000000000000000000000000000000000000000000000000000000000000000000000000000000000000000000000000000000000000000000000000000000000000000000000000000000000000000000",
      "type": "0x2",
      "effectiveGasPrice": "0xb31717a0"
    },
    {
      "transactionHash": "0x8c306f191f8ee71bb9e7feeda325ac0ba586578e28ad8f803f26492257710457",
      "transactionIndex": "0x2",
      "blockHash": "0x9d402a5791215bebac447aa93fce2a296ada0d8165014b5b1a6065c72d5321a8",
      "blockNumber": "0x8ceae0",
      "from": "0x85C91C3DfA5c200a6Ee9Bc9d3085d02A2c95908b",
      "to": "0x02101dfB77FDE026414827Fdc604ddAF224F0921",
      "cumulativeGasUsed": "0x13c9b",
      "gasUsed": "0x6989",
      "contractAddress": null,
      "logs": [],
      "status": "0x1",
      "logsBloom": "0x00000000000000000000000000000000000000000000000000000000000000000000000000000000000000000000000000000000000000000000000000000000000000000000000000000000000000000000000000000000000000000000000000000000000000000000000000000000000000000000000000000000000000000000000000000000000000000000000000000000000000000000000000000000000000000000000000000000000000000000000000000000000000000000000000000000000000000000000000000000000000000000000000000000000000000000000000000000000000000000000000000000000000000000000000000000",
      "type": "0x2",
      "effectiveGasPrice": "0xb31717a0"
    },
    {
      "transactionHash": "0x92030dc04e1c3ecf85a76d6b3e9ceb13044ff5cbf872dcdac0e200a63faeae81",
      "transactionIndex": "0x3",
      "blockHash": "0x9d402a5791215bebac447aa93fce2a296ada0d8165014b5b1a6065c72d5321a8",
      "blockNumber": "0x8ceae0",
      "from": "0x85C91C3DfA5c200a6Ee9Bc9d3085d02A2c95908b",
      "to": "0x8E16e15381729fFEeDC4755f2Dcf6F5461f7F389",
      "cumulativeGasUsed": "0x2276c",
      "gasUsed": "0xead1",
      "contractAddress": null,
      "logs": [
        {
          "address": "0x8E16e15381729fFEeDC4755f2Dcf6F5461f7F389",
          "topics": [
            "0xddf252ad1be2c89b69c2b068fc378daa952ba7f163c4a11628f55a4df523b3ef",
            "0x00000000000000000000000085c91c3dfa5c200a6ee9bc9d3085d02a2c95908b",
            "0x000000000000000000000000a0f17c790e2c330d6a69afac80e5e4de6908b5c5",
            "0x000000000000000000000000000000000000000000000000000000000000001a"
          ],
          "data": "0x",
          "blockHash": "0x9d402a5791215bebac447aa93fce2a296ada0d8165014b5b1a6065c72d5321a8",
          "blockNumber": "0x8ceae0",
          "transactionHash": "0x92030dc04e1c3ecf85a76d6b3e9ceb13044ff5cbf872dcdac0e200a63faeae81",
          "transactionIndex": "0x3",
          "logIndex": "0x0",
          "removed": false
        }
      ],
      "status": "0x1",
      "logsBloom": "0x00000000000000000000000000000000000000000000000000004000000000000000000000000000000000000400000000000000000000000000800000000000000000000000000000000808000000001000000000000000000008001000000000000000000010000000000000000000000000000000000000000010000000000000000000000000000000000000000000200000000000000000000000000000000000000000000000000000000000000000000000000000000000000000000000000002000000000000000000000000000000000000000000000000000000000000000000000000000000040000000000000000000044000000000000000000",
      "type": "0x2",
      "effectiveGasPrice": "0xb31717a0"
    },
    {
      "transactionHash": "0x127fd82a84cb175ac5c409c4fcceeca7a4eceb9d4665f7d0b15b15317ae401f4",
      "transactionIndex": "0x4",
      "blockHash": "0x9d402a5791215bebac447aa93fce2a296ada0d8165014b5b1a6065c72d5321a8",
      "blockNumber": "0x8ceae0",
      "from": "0x85C91C3DfA5c200a6Ee9Bc9d3085d02A2c95908b",
      "to": "0x8E16e15381729fFEeDC4755f2Dcf6F5461f7F389",
      "cumulativeGasUsed": "0x2cf71",
      "gasUsed": "0xa805",
      "contractAddress": null,
      "logs": [
        {
          "address": "0x8E16e15381729fFEeDC4755f2Dcf6F5461f7F389",
          "topics": [
            "0xddf252ad1be2c89b69c2b068fc378daa952ba7f163c4a11628f55a4df523b3ef",
            "0x00000000000000000000000085c91c3dfa5c200a6ee9bc9d3085d02a2c95908b",
            "0x000000000000000000000000a0f17c790e2c330d6a69afac80e5e4de6908b5c5",
            "0x000000000000000000000000000000000000000000000000000000000000001b"
          ],
          "data": "0x",
          "blockHash": "0x9d402a5791215bebac447aa93fce2a296ada0d8165014b5b1a6065c72d5321a8",
          "blockNumber": "0x8ceae0",
          "transactionHash": "0x127fd82a84cb175ac5c409c4fcceeca7a4eceb9d4665f7d0b15b15317ae401f4",
          "transactionIndex": "0x4",
          "logIndex": "0x1",
          "removed": false
        }
      ],
      "status": "0x1",
      "logsBloom": "0x00000000000000000000000000000000000000000010000000004000000000000000000000000000000000000400000000000000000000000000800000000000000000000000000000000808000000000000000000000000000008000000000000000000000010000000000000000000000000000000000000000010000000000000000000000000000000000000000000200000000000000000000000000000000000000100000000000000000000000000000000008000000000000000000000000002000000000000000000000000000000000000000000000000000000000000000000000000000000040000000000000000000040000000000000000000",
      "type": "0x2",
      "effectiveGasPrice": "0xb31717a0"
    },
    {
      "transactionHash": "0x08785ffb3b4ecb0cf9ed1f7ec6c4bba51a946d75788e2286b2ea219d73761605",
      "transactionIndex": "0x5",
      "blockHash": "0x9d402a5791215bebac447aa93fce2a296ada0d8165014b5b1a6065c72d5321a8",
      "blockNumber": "0x8ceae0",
      "from": "0x85C91C3DfA5c200a6Ee9Bc9d3085d02A2c95908b",
      "to": "0x8E16e15381729fFEeDC4755f2Dcf6F5461f7F389",
      "cumulativeGasUsed": "0x37776",
      "gasUsed": "0xa805",
      "contractAddress": null,
      "logs": [
        {
          "address": "0x8E16e15381729fFEeDC4755f2Dcf6F5461f7F389",
          "topics": [
            "0xddf252ad1be2c89b69c2b068fc378daa952ba7f163c4a11628f55a4df523b3ef",
            "0x00000000000000000000000085c91c3dfa5c200a6ee9bc9d3085d02a2c95908b",
            "0x000000000000000000000000a0f17c790e2c330d6a69afac80e5e4de6908b5c5",
            "0x000000000000000000000000000000000000000000000000000000000000001c"
          ],
          "data": "0x",
          "blockHash": "0x9d402a5791215bebac447aa93fce2a296ada0d8165014b5b1a6065c72d5321a8",
          "blockNumber": "0x8ceae0",
          "transactionHash": "0x08785ffb3b4ecb0cf9ed1f7ec6c4bba51a946d75788e2286b2ea219d73761605",
          "transactionIndex": "0x5",
          "logIndex": "0x2",
          "removed": false
        }
      ],
      "status": "0x1",
      "logsBloom": "0x00000000000000000000000000000000000000000000000000004000000000000000000000000000000000000400000000000000000000200000800000000000000000000000000000000808000000000000000000000000000008000000000000000000000010000000000000000000000000000000000000000010000000000000000000000000000000000000000200200000000000000000000000000000000000000000000000000002000000000000000000000000000000000000000000000002000000000000000000000000000000000000000000000000000000000000000000000000000000040000000000000000000040000000000000000000",
      "type": "0x2",
      "effectiveGasPrice": "0xb31717a0"
    },
    {
      "transactionHash": "0xb2b7151bb2931731255de19b8f22262c483b25cd5297a2a9b995c7fbf4e8a040",
      "transactionIndex": "0x6",
      "blockHash": "0x9d402a5791215bebac447aa93fce2a296ada0d8165014b5b1a6065c72d5321a8",
      "blockNumber": "0x8ceae0",
      "from": "0x85C91C3DfA5c200a6Ee9Bc9d3085d02A2c95908b",
      "to": "0x8E16e15381729fFEeDC4755f2Dcf6F5461f7F389",
      "cumulativeGasUsed": "0x4623b",
      "gasUsed": "0xeac5",
      "contractAddress": null,
      "logs": [
        {
          "address": "0x8E16e15381729fFEeDC4755f2Dcf6F5461f7F389",
          "topics": [
            "0xddf252ad1be2c89b69c2b068fc378daa952ba7f163c4a11628f55a4df523b3ef",
            "0x00000000000000000000000085c91c3dfa5c200a6ee9bc9d3085d02a2c95908b",
            "0x0000000000000000000000000bce0cc26a88c7f9ecd53c9788b300e6bdde863e",
            "0x000000000000000000000000000000000000000000000000000000000000001d"
          ],
          "data": "0x",
          "blockHash": "0x9d402a5791215bebac447aa93fce2a296ada0d8165014b5b1a6065c72d5321a8",
          "blockNumber": "0x8ceae0",
          "transactionHash": "0xb2b7151bb2931731255de19b8f22262c483b25cd5297a2a9b995c7fbf4e8a040",
          "transactionIndex": "0x6",
          "logIndex": "0x3",
          "removed": false
        }
      ],
      "status": "0x1",
      "logsBloom": "0x00000080000000000000000000020000000000000000000000004000000000000000000000000000000000000000000000000000000000000000000200000000000000000000000000000808000000000000000000000010000008000000000000000000000010000000000000000000000000000000000000000010000000000000000000000000000000000000000000200000000000000000000000000000000000000000000000000000040000000000000000000000000000000000000000000002000000000000000000000000000000000000000000000000000000000000000000000000000000040000000000000000000000000000000000000000",
      "type": "0x2",
      "effectiveGasPrice": "0xb31717a0"
    },
    {
      "transactionHash": "0x202823534c65892bf41b71daa8f2b2ba22bab4379603a968c1132fa545ae0959",
      "transactionIndex": "0x7",
      "blockHash": "0x9d402a5791215bebac447aa93fce2a296ada0d8165014b5b1a6065c72d5321a8",
      "blockNumber": "0x8ceae0",
      "from": "0x85C91C3DfA5c200a6Ee9Bc9d3085d02A2c95908b",
      "to": "0x8E16e15381729fFEeDC4755f2Dcf6F5461f7F389",
      "cumulativeGasUsed": "0x50a34",
      "gasUsed": "0xa7f9",
      "contractAddress": null,
      "logs": [
        {
          "address": "0x8E16e15381729fFEeDC4755f2Dcf6F5461f7F389",
          "topics": [
            "0xddf252ad1be2c89b69c2b068fc378daa952ba7f163c4a11628f55a4df523b3ef",
            "0x00000000000000000000000085c91c3dfa5c200a6ee9bc9d3085d02a2c95908b",
            "0x0000000000000000000000000bce0cc26a88c7f9ecd53c9788b300e6bdde863e",
            "0x000000000000000000000000000000000000000000000000000000000000001e"
          ],
          "data": "0x",
          "blockHash": "0x9d402a5791215bebac447aa93fce2a296ada0d8165014b5b1a6065c72d5321a8",
          "blockNumber": "0x8ceae0",
          "transactionHash": "0x202823534c65892bf41b71daa8f2b2ba22bab4379603a968c1132fa545ae0959",
          "transactionIndex": "0x7",
          "logIndex": "0x4",
          "removed": false
        }
      ],
      "status": "0x1",
      "logsBloom": "0x00000000000000000000000000020000000000000000000000004000000000000000000000000000000000000400000000000000000000000000000000000000000000000000008000000808000000000000000000000000000008000000000000000000000010000000000000000000000000000000000000000010000000000000000000000000000000000000000000200000000000000000000000000000000000000000000000000000040000000000000000000000000000000000000000000002000000000000000000000000000000000000000000000000000000000000000000000000080000040000000000000000000000000000000000000000",
      "type": "0x2",
      "effectiveGasPrice": "0xb31717a0"
    },
    {
      "transactionHash": "0xacc545921c29331b29dd78ee9a19b15fba4c75ea4600b94ee1e4b6d9f30db0a9",
      "transactionIndex": "0x8",
      "blockHash": "0x9d402a5791215bebac447aa93fce2a296ada0d8165014b5b1a6065c72d5321a8",
      "blockNumber": "0x8ceae0",
      "from": "0x85C91C3DfA5c200a6Ee9Bc9d3085d02A2c95908b",
      "to": "0x8E16e15381729fFEeDC4755f2Dcf6F5461f7F389",
      "cumulativeGasUsed": "0x5b22d",
      "gasUsed": "0xa7f9",
      "contractAddress": null,
      "logs": [
        {
          "address": "0x8E16e15381729fFEeDC4755f2Dcf6F5461f7F389",
          "topics": [
            "0xddf252ad1be2c89b69c2b068fc378daa952ba7f163c4a11628f55a4df523b3ef",
            "0x00000000000000000000000085c91c3dfa5c200a6ee9bc9d3085d02a2c95908b",
            "0x0000000000000000000000000bce0cc26a88c7f9ecd53c9788b300e6bdde863e",
            "0x000000000000000000000000000000000000000000000000000000000000001f"
          ],
          "data": "0x",
          "blockHash": "0x9d402a5791215bebac447aa93fce2a296ada0d8165014b5b1a6065c72d5321a8",
          "blockNumber": "0x8ceae0",
          "transactionHash": "0xacc545921c29331b29dd78ee9a19b15fba4c75ea4600b94ee1e4b6d9f30db0a9",
          "transactionIndex": "0x8",
          "logIndex": "0x5",
          "removed": false
        }
      ],
      "status": "0x1",
      "logsBloom": "0x00000000000000000000000400020000000000000000000000004000000000000000000000000000000000000000000000000000000000000000000000000000000000000000000000000808000000000000000000000000000008000000000000000000000010000000000000000000000000000000000000000010000000000000000000000000000000000000000000200000000000000000000000000000000000000000000000000000040000000000000000000000000000000001000000000002000000000000000000000000000000000000000000000000000000000000000000000000000000040000000000000000000000000100000000000000",
      "type": "0x2",
      "effectiveGasPrice": "0xb31717a0"
    },
    {
      "transactionHash": "0xd9b15cad15151e8873f0e6f9ce1bfe626c83faa89292f396e5ca7e9a4879ea7f",
      "transactionIndex": "0x9",
      "blockHash": "0x9d402a5791215bebac447aa93fce2a296ada0d8165014b5b1a6065c72d5321a8",
      "blockNumber": "0x8ceae0",
      "from": "0x85C91C3DfA5c200a6Ee9Bc9d3085d02A2c95908b",
      "to": "0x8E16e15381729fFEeDC4755f2Dcf6F5461f7F389",
      "cumulativeGasUsed": "0x69cfe",
      "gasUsed": "0xead1",
      "contractAddress": null,
      "logs": [
        {
          "address": "0x8E16e15381729fFEeDC4755f2Dcf6F5461f7F389",
          "topics": [
            "0xddf252ad1be2c89b69c2b068fc378daa952ba7f163c4a11628f55a4df523b3ef",
            "0x00000000000000000000000085c91c3dfa5c200a6ee9bc9d3085d02a2c95908b",
            "0x00000000000000000000000094896faa0ee995d627831d01d2bf54716bca95eb",
            "0x0000000000000000000000000000000000000000000000000000000000000020"
          ],
          "data": "0x",
          "blockHash": "0x9d402a5791215bebac447aa93fce2a296ada0d8165014b5b1a6065c72d5321a8",
          "blockNumber": "0x8ceae0",
          "transactionHash": "0xd9b15cad15151e8873f0e6f9ce1bfe626c83faa89292f396e5ca7e9a4879ea7f",
          "transactionIndex": "0x9",
          "logIndex": "0x6",
          "removed": false
        }
      ],
      "status": "0x1",
      "logsBloom": "0x00000000000000000000000000000000000000000000000000004000000000800000000000000000000000000000000000000000000000000000000000000000000000000000000000000808000000000000000000000000000008000000000000000000000010000000000000000000000000000000000000000010000000000000000000000000000000000000000000200000000000000000000000000000000400000000000000000000000000000000000000000000000000000000000000000002000000000000000000000000080000000000000000000000000000020000400000000000000000040002000000000000000000000000000000000000",
      "type": "0x2",
      "effectiveGasPrice": "0xb31717a0"
    },
    {
      "transactionHash": "0x44afe347aa4790e229eb0e4e925ddcd566577102393a96a60e8ce61d1f540a58",
      "transactionIndex": "0xa",
      "blockHash": "0x9d402a5791215bebac447aa93fce2a296ada0d8165014b5b1a6065c72d5321a8",
      "blockNumber": "0x8ceae0",
      "from": "0x85C91C3DfA5c200a6Ee9Bc9d3085d02A2c95908b",
      "to": "0x8E16e15381729fFEeDC4755f2Dcf6F5461f7F389",
      "cumulativeGasUsed": "0x74503",
      "gasUsed": "0xa805",
      "contractAddress": null,
      "logs": [
        {
          "address": "0x8E16e15381729fFEeDC4755f2Dcf6F5461f7F389",
          "topics": [
            "0xddf252ad1be2c89b69c2b068fc378daa952ba7f163c4a11628f55a4df523b3ef",
            "0x00000000000000000000000085c91c3dfa5c200a6ee9bc9d3085d02a2c95908b",
            "0x00000000000000000000000094896faa0ee995d627831d01d2bf54716bca95eb",
            "0x0000000000000000000000000000000000000000000000000000000000000021"
          ],
          "data": "0x",
          "blockHash": "0x9d402a5791215bebac447aa93fce2a296ada0d8165014b5b1a6065c72d5321a8",
          "blockNumber": "0x8ceae0",
          "transactionHash": "0x44afe347aa4790e229eb0e4e925ddcd566577102393a96a60e8ce61d1f540a58",
          "transactionIndex": "0xa",
          "logIndex": "0x7",
          "removed": false
        }
      ],
      "status": "0x1",
      "logsBloom": "0x00000000000000000000000000000000000000000000000000004000000000820000000000000000000000000000000000000000000000000000000000000000000000000000000000000808000000000000000000000000000008000000000000000000000010000000000000000000000000000000000000000010040000000000000000000000000000000000000000200000000000000000000000000000000000000000000000000000000000000000000800000000000000000000000000000002000000000000000000000000000000000000000000000000000000020000000000000000000000040002000000000000000000000000000000000000",
      "type": "0x2",
      "effectiveGasPrice": "0xb31717a0"
    },
    {
      "transactionHash": "0x84c659894aa8dcb66d54107edcb1fd3398affb435fccfdfb1f5b1316d41ab0d3",
      "transactionIndex": "0xb",
      "blockHash": "0x9d402a5791215bebac447aa93fce2a296ada0d8165014b5b1a6065c72d5321a8",
      "blockNumber": "0x8ceae0",
      "from": "0x85C91C3DfA5c200a6Ee9Bc9d3085d02A2c95908b",
      "to": "0x8E16e15381729fFEeDC4755f2Dcf6F5461f7F389",
      "cumulativeGasUsed": "0x7ed08",
      "gasUsed": "0xa805",
      "contractAddress": null,
      "logs": [
        {
          "address": "0x8E16e15381729fFEeDC4755f2Dcf6F5461f7F389",
          "topics": [
            "0xddf252ad1be2c89b69c2b068fc378daa952ba7f163c4a11628f55a4df523b3ef",
            "0x00000000000000000000000085c91c3dfa5c200a6ee9bc9d3085d02a2c95908b",
            "0x00000000000000000000000094896faa0ee995d627831d01d2bf54716bca95eb",
            "0x0000000000000000000000000000000000000000000000000000000000000022"
          ],
          "data": "0x",
          "blockHash": "0x9d402a5791215bebac447aa93fce2a296ada0d8165014b5b1a6065c72d5321a8",
          "blockNumber": "0x8ceae0",
          "transactionHash": "0x84c659894aa8dcb66d54107edcb1fd3398affb435fccfdfb1f5b1316d41ab0d3",
          "transactionIndex": "0xb",
          "logIndex": "0x8",
          "removed": false
        }
      ],
      "status": "0x1",
      "logsBloom": "0x000000000000000000000000000000000000000000000000000040000000008000000000000000000000000000000000000000000000000000000000000000000000000000000000000008080000000000000000000000000000080000000000000000000000100000000000000000000000000000000000000000100000000000000200000000000000000000000000002000000000000000000040000000000000000000000000000000000000000000000000000000000000000000000000000000020000000000000000000000000000000000000000000000000000000a0000000000000000000000040002000000000000000000000000000000000000",
      "type": "0x2",
      "effectiveGasPrice": "0xb31717a0"
    },
    {
      "transactionHash": "0x9884e6416efdd0eb53fbe2f16f7d0e98ea7a2de266cf397e8af66dd81a4d32a1",
      "transactionIndex": "0xc",
      "blockHash": "0x9d402a5791215bebac447aa93fce2a296ada0d8165014b5b1a6065c72d5321a8",
      "blockNumber": "0x8ceae0",
      "from": "0x85C91C3DfA5c200a6Ee9Bc9d3085d02A2c95908b",
      "to": "0x8E16e15381729fFEeDC4755f2Dcf6F5461f7F389",
      "cumulativeGasUsed": "0x8824d",
      "gasUsed": "0x9545",
      "contractAddress": null,
      "logs": [
        {
          "address": "0x8E16e15381729fFEeDC4755f2Dcf6F5461f7F389",
          "topics": [
            "0xddf252ad1be2c89b69c2b068fc378daa952ba7f163c4a11628f55a4df523b3ef",
            "0x00000000000000000000000085c91c3dfa5c200a6ee9bc9d3085d02a2c95908b",
            "0x00000000000000000000000094896faa0ee995d627831d01d2bf54716bca95eb",
            "0x0000000000000000000000000000000000000000000000000000000000000023"
          ],
          "data": "0x",
          "blockHash": "0x9d402a5791215bebac447aa93fce2a296ada0d8165014b5b1a6065c72d5321a8",
          "blockNumber": "0x8ceae0",
          "transactionHash": "0x9884e6416efdd0eb53fbe2f16f7d0e98ea7a2de266cf397e8af66dd81a4d32a1",
          "transactionIndex": "0xc",
          "logIndex": "0x9",
          "removed": false
        }
      ],
      "status": "0x1",
      "logsBloom": "0x00000000000000000000000000000000000000000000000000004000000000800000000000000000000000000000000000000000000000800000000000000000000000000000000000000808000000000800000000000000000008000000000000000000000010000000000000000000000000000000000000000010000000000000000000000000000000000000000000200000000200000000000000000000000000000000000000000000000000000000000000000000000000000000000000000002000000000000000000000000000000000000000000000000000000020000000000000000000000040002000000000000000000000000000000000000",
      "type": "0x2",
      "effectiveGasPrice": "0xb31717a0"
    }
  ],
  "libraries": [],
  "pending": [],
  "path": "/Users/jaclyn/Documents/code/fukuro/contracts/broadcast/demoSetup.s.sol/5/run-latest.json",
  "returns": {},
  "timestamp": 1687650998,
  "chain": 5,
  "multi": false,
  "commit": "3eca4b7"
}