{
  "transactions": [
    {
      "hash": "0x32a2d592bcdabfe3e3df9c247ddbd1598398ac464f67eba85037115d959af375",
      "transactionType": "CALL",
      "contractName": "ERC6551Registry",
      "contractAddress": "0x02101dfB77FDE026414827Fdc604ddAF224F0921",
      "function": "createAccount(address,uint256,address,uint256,uint256,bytes):(address)",
      "arguments": [
        "0xDA6c577241cB047628a370802D0CD20319F307B7",
        "5",
        "0xA6d32Be299C481c7C689b6f7238A1cE1b5A3213d",
        "35",
        "0",
        "0x"
      ],
      "rpc": "https://eth-goerli.g.alchemy.com/v2/B81B-tXiOVtE5bt8bJkX5Gqi3s2R1fgZ",
      "transaction": {
        "type": "0x02",
        "from": "0x85c91c3dfa5c200a6ee9bc9d3085d02a2c95908b",
        "to": "0x02101dfb77fde026414827fdc604ddaf224f0921",
        "gas": "0x9a58",
        "value": "0x0",
        "data": "0xda7323b3000000000000000000000000da6c577241cb047628a370802d0cd20319f307b70000000000000000000000000000000000000000000000000000000000000005000000000000000000000000a6d32be299c481c7c689b6f7238a1ce1b5a3213d0000000000000000000000000000000000000000000000000000000000000023000000000000000000000000000000000000000000000000000000000000000000000000000000000000000000000000000000000000000000000000000000c00000000000000000000000000000000000000000000000000000000000000000",
        "nonce": "0x81",
        "accessList": []
      },
      "additionalContracts": [],
      "isFixedGasLimit": false
    },
    {
      "hash": "0x93fe2ddf8868017c746ffed709e15be6e4668300c487878777ebb14aaf57ea8e",
      "transactionType": "CALL",
      "contractName": "ERC6551Registry",
      "contractAddress": "0x02101dfB77FDE026414827Fdc604ddAF224F0921",
      "function": "createAccount(address,uint256,address,uint256,uint256,bytes):(address)",
      "arguments": [
        "0xDA6c577241cB047628a370802D0CD20319F307B7",
        "5",
        "0xA6d32Be299C481c7C689b6f7238A1cE1b5A3213d",
        "36",
        "0",
        "0x"
      ],
      "rpc": "https://eth-goerli.g.alchemy.com/v2/B81B-tXiOVtE5bt8bJkX5Gqi3s2R1fgZ",
      "transaction": {
        "type": "0x02",
        "from": "0x85c91c3dfa5c200a6ee9bc9d3085d02a2c95908b",
        "to": "0x02101dfb77fde026414827fdc604ddaf224f0921",
        "gas": "0x9a58",
        "value": "0x0",
        "data": "0xda7323b3000000000000000000000000da6c577241cb047628a370802d0cd20319f307b70000000000000000000000000000000000000000000000000000000000000005000000000000000000000000a6d32be299c481c7c689b6f7238a1ce1b5a3213d0000000000000000000000000000000000000000000000000000000000000024000000000000000000000000000000000000000000000000000000000000000000000000000000000000000000000000000000000000000000000000000000c00000000000000000000000000000000000000000000000000000000000000000",
        "nonce": "0x82",
        "accessList": []
      },
      "additionalContracts": [],
      "isFixedGasLimit": false
    },
    {
      "hash": "0x38a682d0587f780ac99dd46f2ff2f6daca988cf9217febb32bbb8bd0ec5a236f",
      "transactionType": "CALL",
      "contractName": "ERC6551Registry",
      "contractAddress": "0x02101dfB77FDE026414827Fdc604ddAF224F0921",
      "function": "createAccount(address,uint256,address,uint256,uint256,bytes):(address)",
      "arguments": [
        "0xDA6c577241cB047628a370802D0CD20319F307B7",
        "5",
        "0xA6d32Be299C481c7C689b6f7238A1cE1b5A3213d",
        "37",
        "0",
        "0x"
      ],
      "rpc": "https://eth-goerli.g.alchemy.com/v2/B81B-tXiOVtE5bt8bJkX5Gqi3s2R1fgZ",
      "transaction": {
        "type": "0x02",
        "from": "0x85c91c3dfa5c200a6ee9bc9d3085d02a2c95908b",
        "to": "0x02101dfb77fde026414827fdc604ddaf224f0921",
        "gas": "0x9a58",
        "value": "0x0",
        "data": "0xda7323b3000000000000000000000000da6c577241cb047628a370802d0cd20319f307b70000000000000000000000000000000000000000000000000000000000000005000000000000000000000000a6d32be299c481c7c689b6f7238a1ce1b5a3213d0000000000000000000000000000000000000000000000000000000000000025000000000000000000000000000000000000000000000000000000000000000000000000000000000000000000000000000000000000000000000000000000c00000000000000000000000000000000000000000000000000000000000000000",
        "nonce": "0x83",
        "accessList": []
      },
      "additionalContracts": [],
      "isFixedGasLimit": false
    },
    {
      "hash": "0xf70560053767d23d41d7dcf276e8999813972965a33844e2651231a93f8a8b13",
      "transactionType": "CALL",
      "contractName": "FukuFuku",
      "contractAddress": "0xA6d32Be299C481c7C689b6f7238A1cE1b5A3213d",
      "function": "transferFrom(address,address,uint256)",
      "arguments": [
        "0x85C91C3DfA5c200a6Ee9Bc9d3085d02A2c95908b",
        "0x85C91C3DfA5c200a6Ee9Bc9d3085d02A2c95908b",
        "35"
      ],
      "rpc": "https://eth-goerli.g.alchemy.com/v2/B81B-tXiOVtE5bt8bJkX5Gqi3s2R1fgZ",
      "transaction": {
        "type": "0x02",
        "from": "0x85c91c3dfa5c200a6ee9bc9d3085d02a2c95908b",
        "to": "0xa6d32be299c481c7c689b6f7238a1ce1b5a3213d",
        "gas": "0xaff6",
        "value": "0x0",
        "data": "0x23b872dd00000000000000000000000085c91c3dfa5c200a6ee9bc9d3085d02a2c95908b00000000000000000000000085c91c3dfa5c200a6ee9bc9d3085d02a2c95908b0000000000000000000000000000000000000000000000000000000000000023",
        "nonce": "0x84",
        "accessList": []
      },
      "additionalContracts": [],
      "isFixedGasLimit": false
    },
    {
      "hash": "0x1c170d6f27755ea98d44cc2b4f5cb90e1344e782b4e8f10343354babc3440ec3",
      "transactionType": "CALL",
      "contractName": "FukuFuku",
      "contractAddress": "0xA6d32Be299C481c7C689b6f7238A1cE1b5A3213d",
      "function": "transferFrom(address,address,uint256)",
      "arguments": [
        "0x85C91C3DfA5c200a6Ee9Bc9d3085d02A2c95908b",
        "0x85C91C3DfA5c200a6Ee9Bc9d3085d02A2c95908b",
        "36"
      ],
      "rpc": "https://eth-goerli.g.alchemy.com/v2/B81B-tXiOVtE5bt8bJkX5Gqi3s2R1fgZ",
      "transaction": {
        "type": "0x02",
        "from": "0x85c91c3dfa5c200a6ee9bc9d3085d02a2c95908b",
        "to": "0xa6d32be299c481c7c689b6f7238a1ce1b5a3213d",
        "gas": "0xaff6",
        "value": "0x0",
        "data": "0x23b872dd00000000000000000000000085c91c3dfa5c200a6ee9bc9d3085d02a2c95908b00000000000000000000000085c91c3dfa5c200a6ee9bc9d3085d02a2c95908b0000000000000000000000000000000000000000000000000000000000000024",
        "nonce": "0x85",
        "accessList": []
      },
      "additionalContracts": [],
      "isFixedGasLimit": false
    },
    {
      "hash": "0x088da754bc95e00d650bea1a75dd0c7c60ff4a4f60c60bc7bf8fb5d856c3cf7e",
      "transactionType": "CALL",
      "contractName": "FukuFuku",
      "contractAddress": "0xA6d32Be299C481c7C689b6f7238A1cE1b5A3213d",
      "function": "transferFrom(address,address,uint256)",
      "arguments": [
        "0x85C91C3DfA5c200a6Ee9Bc9d3085d02A2c95908b",
        "0x85C91C3DfA5c200a6Ee9Bc9d3085d02A2c95908b",
        "37"
      ],
      "rpc": "https://eth-goerli.g.alchemy.com/v2/B81B-tXiOVtE5bt8bJkX5Gqi3s2R1fgZ",
      "transaction": {
        "type": "0x02",
        "from": "0x85c91c3dfa5c200a6ee9bc9d3085d02a2c95908b",
        "to": "0xa6d32be299c481c7c689b6f7238a1ce1b5a3213d",
        "gas": "0xaff6",
        "value": "0x0",
        "data": "0x23b872dd00000000000000000000000085c91c3dfa5c200a6ee9bc9d3085d02a2c95908b00000000000000000000000085c91c3dfa5c200a6ee9bc9d3085d02a2c95908b0000000000000000000000000000000000000000000000000000000000000025",
        "nonce": "0x86",
        "accessList": []
      },
      "additionalContracts": [],
      "isFixedGasLimit": false
    }
  ],
  "receipts": [
    {
      "transactionHash": "0x32a2d592bcdabfe3e3df9c247ddbd1598398ac464f67eba85037115d959af375",
      "transactionIndex": "0x2",
      "blockHash": "0x6005460353f457ef702756bbe8a11144fae41056748309f8b9ee8253451a6b69",
      "blockNumber": "0x8ceced",
      "from": "0x85C91C3DfA5c200a6Ee9Bc9d3085d02A2c95908b",
      "to": "0x02101dfB77FDE026414827Fdc604ddAF224F0921",
      "cumulativeGasUsed": "0x14562",
      "gasUsed": "0x6989",
      "contractAddress": null,
      "logs": [],
      "status": "0x1",
      "logsBloom": "0x00000000000000000000000000000000000000000000000000000000000000000000000000000000000000000000000000000000000000000000000000000000000000000000000000000000000000000000000000000000000000000000000000000000000000000000000000000000000000000000000000000000000000000000000000000000000000000000000000000000000000000000000000000000000000000000000000000000000000000000000000000000000000000000000000000000000000000000000000000000000000000000000000000000000000000000000000000000000000000000000000000000000000000000000000000000",
      "type": "0x2",
      "effectiveGasPrice": "0xb2fa2f69"
    },
    {
      "transactionHash": "0x93fe2ddf8868017c746ffed709e15be6e4668300c487878777ebb14aaf57ea8e",
      "transactionIndex": "0x3",
      "blockHash": "0x6005460353f457ef702756bbe8a11144fae41056748309f8b9ee8253451a6b69",
      "blockNumber": "0x8ceced",
      "from": "0x85C91C3DfA5c200a6Ee9Bc9d3085d02A2c95908b",
      "to": "0x02101dfB77FDE026414827Fdc604ddAF224F0921",
      "cumulativeGasUsed": "0x1aeeb",
      "gasUsed": "0x6989",
      "contractAddress": null,
      "logs": [],
      "status": "0x1",
      "logsBloom": "0x00000000000000000000000000000000000000000000000000000000000000000000000000000000000000000000000000000000000000000000000000000000000000000000000000000000000000000000000000000000000000000000000000000000000000000000000000000000000000000000000000000000000000000000000000000000000000000000000000000000000000000000000000000000000000000000000000000000000000000000000000000000000000000000000000000000000000000000000000000000000000000000000000000000000000000000000000000000000000000000000000000000000000000000000000000000",
      "type": "0x2",
      "effectiveGasPrice": "0xb2fa2f69"
    },
    {
      "transactionHash": "0x38a682d0587f780ac99dd46f2ff2f6daca988cf9217febb32bbb8bd0ec5a236f",
      "transactionIndex": "0x4",
      "blockHash": "0x6005460353f457ef702756bbe8a11144fae41056748309f8b9ee8253451a6b69",
      "blockNumber": "0x8ceced",
      "from": "0x85C91C3DfA5c200a6Ee9Bc9d3085d02A2c95908b",
      "to": "0x02101dfB77FDE026414827Fdc604ddAF224F0921",
      "cumulativeGasUsed": "0x21874",
      "gasUsed": "0x6989",
      "contractAddress": null,
      "logs": [],
      "status": "0x1",
      "logsBloom": "0x00000000000000000000000000000000000000000000000000000000000000000000000000000000000000000000000000000000000000000000000000000000000000000000000000000000000000000000000000000000000000000000000000000000000000000000000000000000000000000000000000000000000000000000000000000000000000000000000000000000000000000000000000000000000000000000000000000000000000000000000000000000000000000000000000000000000000000000000000000000000000000000000000000000000000000000000000000000000000000000000000000000000000000000000000000000",
      "type": "0x2",
      "effectiveGasPrice": "0xb2fa2f69"
    },
    {
      "transactionHash": "0xf70560053767d23d41d7dcf276e8999813972965a33844e2651231a93f8a8b13",
      "transactionIndex": "0x5",
      "blockHash": "0x6005460353f457ef702756bbe8a11144fae41056748309f8b9ee8253451a6b69",
      "blockNumber": "0x8ceced",
      "from": "0x85C91C3DfA5c200a6Ee9Bc9d3085d02A2c95908b",
      "to": "0xA6d32Be299C481c7C689b6f7238A1cE1b5A3213d",
      "cumulativeGasUsed": "0x297d9",
      "gasUsed": "0x7f65",
      "contractAddress": null,
      "logs": [
        {
          "address": "0xA6d32Be299C481c7C689b6f7238A1cE1b5A3213d",
          "topics": [
            "0xddf252ad1be2c89b69c2b068fc378daa952ba7f163c4a11628f55a4df523b3ef",
            "0x00000000000000000000000085c91c3dfa5c200a6ee9bc9d3085d02a2c95908b",
            "0x00000000000000000000000085c91c3dfa5c200a6ee9bc9d3085d02a2c95908b",
            "0x0000000000000000000000000000000000000000000000000000000000000023"
          ],
          "data": "0x",
          "blockHash": "0x6005460353f457ef702756bbe8a11144fae41056748309f8b9ee8253451a6b69",
          "blockNumber": "0x8ceced",
          "transactionHash": "0xf70560053767d23d41d7dcf276e8999813972965a33844e2651231a93f8a8b13",
          "transactionIndex": "0x5",
          "logIndex": "0x1",
          "removed": false
        }
      ],
      "status": "0x1",
      "logsBloom": "0x00000000000000000000000000000000000000000000000000000000000000000000000000000000000000000000000000000000000000800000000000000000000000000000000000000808000000000800000000000000000008000000000000000000000000000000000000000000000000000000000000408010000000000000000000000000000000000000000000200000000200000000000000000000000000000000000000000000000000000000000000000000000000000000000400000002000000000000000000000000000000000000000000000000000000000000000000000000000000000000000000000000000000000000000000000000",
      "type": "0x2",
      "effectiveGasPrice": "0xb2fa2f69"
    },
    {
      "transactionHash": "0x1c170d6f27755ea98d44cc2b4f5cb90e1344e782b4e8f10343354babc3440ec3",
      "transactionIndex": "0x6",
      "blockHash": "0x6005460353f457ef702756bbe8a11144fae41056748309f8b9ee8253451a6b69",
      "blockNumber": "0x8ceced",
      "from": "0x85C91C3DfA5c200a6Ee9Bc9d3085d02A2c95908b",
      "to": "0xA6d32Be299C481c7C689b6f7238A1cE1b5A3213d",
      "cumulativeGasUsed": "0x3173e",
      "gasUsed": "0x7f65",
      "contractAddress": null,
      "logs": [
        {
          "address": "0xA6d32Be299C481c7C689b6f7238A1cE1b5A3213d",
          "topics": [
            "0xddf252ad1be2c89b69c2b068fc378daa952ba7f163c4a11628f55a4df523b3ef",
            "0x00000000000000000000000085c91c3dfa5c200a6ee9bc9d3085d02a2c95908b",
            "0x00000000000000000000000085c91c3dfa5c200a6ee9bc9d3085d02a2c95908b",
            "0x0000000000000000000000000000000000000000000000000000000000000024"
          ],
          "data": "0x",
          "blockHash": "0x6005460353f457ef702756bbe8a11144fae41056748309f8b9ee8253451a6b69",
          "blockNumber": "0x8ceced",
          "transactionHash": "0x1c170d6f27755ea98d44cc2b4f5cb90e1344e782b4e8f10343354babc3440ec3",
          "transactionIndex": "0x6",
          "logIndex": "0x2",
          "removed": false
        }
      ],
      "status": "0x1",
      "logsBloom": "0x00000000000000000000000000000000000000000000000000000000000000000000000000000000000000000000000000000000000000000000000000000000000000000000000000000808000000000000000000000000000008000000000000000000000800000000000000000000000000000000000000408010000000000000000000000000000000000008000000200000000000000000000000000000000000000002000000000000000000000000000000000000000000000000000400000002000000000000000000000000000000000000000000000000000000000000000000000000000000000000000000000000000000000000000000000000",
      "type": "0x2",
      "effectiveGasPrice": "0xb2fa2f69"
    },
    {
      "transactionHash": "0x088da754bc95e00d650bea1a75dd0c7c60ff4a4f60c60bc7bf8fb5d856c3cf7e",
      "transactionIndex": "0x7",
      "blockHash": "0x6005460353f457ef702756bbe8a11144fae41056748309f8b9ee8253451a6b69",
      "blockNumber": "0x8ceced",
      "from": "0x85C91C3DfA5c200a6Ee9Bc9d3085d02A2c95908b",
      "to": "0xA6d32Be299C481c7C689b6f7238A1cE1b5A3213d",
      "cumulativeGasUsed": "0x396a3",
      "gasUsed": "0x7f65",
      "contractAddress": null,
      "logs": [
        {
          "address": "0xA6d32Be299C481c7C689b6f7238A1cE1b5A3213d",
          "topics": [
            "0xddf252ad1be2c89b69c2b068fc378daa952ba7f163c4a11628f55a4df523b3ef",
            "0x00000000000000000000000085c91c3dfa5c200a6ee9bc9d3085d02a2c95908b",
            "0x00000000000000000000000085c91c3dfa5c200a6ee9bc9d3085d02a2c95908b",
            "0x0000000000000000000000000000000000000000000000000000000000000025"
          ],
          "data": "0x",
          "blockHash": "0x6005460353f457ef702756bbe8a11144fae41056748309f8b9ee8253451a6b69",
          "blockNumber": "0x8ceced",
          "transactionHash": "0x088da754bc95e00d650bea1a75dd0c7c60ff4a4f60c60bc7bf8fb5d856c3cf7e",
          "transactionIndex": "0x7",
          "logIndex": "0x3",
          "removed": false
        }
      ],
      "status": "0x1",
      "logsBloom": "0x00000000000000000000000000000000000000000000000000000000000000000000000000000000000000000000000000000000000000000000000000000000000000000000000000000808000000000000000000000000000008000000000000000000000000000000000000000000000000000000000000408010000000000000000000000000000000000000000000200000000000000000000000000000000000000000000000000002000000000000000000000000000000000000000400000002000000000000000000000000000000000000000000000000000000008000000000000000000000000000000000000000000000000000000002000000",
      "type": "0x2",
      "effectiveGasPrice": "0xb2fa2f69"
    }
  ],
  "libraries": [],
  "pending": [],
  "path": "/Users/jaclyn/Documents/code/fukuro/contracts/broadcast/demoSetup.s.sol/5/run-latest.json",
  "returns": {},
  "timestamp": 1687659103,
  "chain": 5,
  "multi": false,
  "commit": "4cef3cc"
}