{
  "transactions": [
    {
      "hash": "0xc182f407c0fd44854e1c9444f22acf3932dbea91e2c90ef80ac0ce7e9a278bf5",
      "transactionType": "CALL",
      "contractName": "ERC6551Registry",
      "contractAddress": "0x02101dfB77FDE026414827Fdc604ddAF224F0921",
      "function": "createAccount(address,uint256,address,uint256,uint256,bytes):(address)",
      "arguments": [
        "0xDA6c577241cB047628a370802D0CD20319F307B7",
        "5",
        "0xA6d32Be299C481c7C689b6f7238A1cE1b5A3213d",
        "35",
        "0",
        "0x"
      ],
      "rpc": "https://eth-goerli.g.alchemy.com/v2/B81B-tXiOVtE5bt8bJkX5Gqi3s2R1fgZ",
      "transaction": {
        "type": "0x02",
        "from": "0x85c91c3dfa5c200a6ee9bc9d3085d02a2c95908b",
        "to": "0x02101dfb77fde026414827fdc604ddaf224f0921",
        "gas": "0x9a58",
        "value": "0x0",
        "data": "0xda7323b3000000000000000000000000da6c577241cb047628a370802d0cd20319f307b70000000000000000000000000000000000000000000000000000000000000005000000000000000000000000a6d32be299c481c7c689b6f7238a1ce1b5a3213d0000000000000000000000000000000000000000000000000000000000000023000000000000000000000000000000000000000000000000000000000000000000000000000000000000000000000000000000000000000000000000000000c00000000000000000000000000000000000000000000000000000000000000000",
        "nonce": "0x87",
        "accessList": []
      },
      "additionalContracts": [],
      "isFixedGasLimit": false
    },
    {
      "hash": "0x367233ec21788653b0a28960d0df507f07132614f3535df2bed8b60a4e24de85",
      "transactionType": "CALL",
      "contractName": "ERC6551Registry",
      "contractAddress": "0x02101dfB77FDE026414827Fdc604ddAF224F0921",
      "function": "createAccount(address,uint256,address,uint256,uint256,bytes):(address)",
      "arguments": [
        "0xDA6c577241cB047628a370802D0CD20319F307B7",
        "5",
        "0xA6d32Be299C481c7C689b6f7238A1cE1b5A3213d",
        "36",
        "0",
        "0x"
      ],
      "rpc": "https://eth-goerli.g.alchemy.com/v2/B81B-tXiOVtE5bt8bJkX5Gqi3s2R1fgZ",
      "transaction": {
        "type": "0x02",
        "from": "0x85c91c3dfa5c200a6ee9bc9d3085d02a2c95908b",
        "to": "0x02101dfb77fde026414827fdc604ddaf224f0921",
        "gas": "0x9a58",
        "value": "0x0",
        "data": "0xda7323b3000000000000000000000000da6c577241cb047628a370802d0cd20319f307b70000000000000000000000000000000000000000000000000000000000000005000000000000000000000000a6d32be299c481c7c689b6f7238a1ce1b5a3213d0000000000000000000000000000000000000000000000000000000000000024000000000000000000000000000000000000000000000000000000000000000000000000000000000000000000000000000000000000000000000000000000c00000000000000000000000000000000000000000000000000000000000000000",
        "nonce": "0x88",
        "accessList": []
      },
      "additionalContracts": [],
      "isFixedGasLimit": false
    },
    {
      "hash": "0xd0cb3945b64cda6b0783043f66cb76c0090941e3671df50e735bcb600cd3c8c6",
      "transactionType": "CALL",
      "contractName": "ERC6551Registry",
      "contractAddress": "0x02101dfB77FDE026414827Fdc604ddAF224F0921",
      "function": "createAccount(address,uint256,address,uint256,uint256,bytes):(address)",
      "arguments": [
        "0xDA6c577241cB047628a370802D0CD20319F307B7",
        "5",
        "0xA6d32Be299C481c7C689b6f7238A1cE1b5A3213d",
        "37",
        "0",
        "0x"
      ],
      "rpc": "https://eth-goerli.g.alchemy.com/v2/B81B-tXiOVtE5bt8bJkX5Gqi3s2R1fgZ",
      "transaction": {
        "type": "0x02",
        "from": "0x85c91c3dfa5c200a6ee9bc9d3085d02a2c95908b",
        "to": "0x02101dfb77fde026414827fdc604ddaf224f0921",
        "gas": "0x9a58",
        "value": "0x0",
        "data": "0xda7323b3000000000000000000000000da6c577241cb047628a370802d0cd20319f307b70000000000000000000000000000000000000000000000000000000000000005000000000000000000000000a6d32be299c481c7c689b6f7238a1ce1b5a3213d0000000000000000000000000000000000000000000000000000000000000025000000000000000000000000000000000000000000000000000000000000000000000000000000000000000000000000000000000000000000000000000000c00000000000000000000000000000000000000000000000000000000000000000",
        "nonce": "0x89",
        "accessList": []
      },
      "additionalContracts": [],
      "isFixedGasLimit": false
    },
    {
      "hash": "0x55696324eb68f882d8db1c1e44d03127f9b8e7c14036869fd7b7c7f6479e941b",
      "transactionType": "CALL",
      "contractName": "FukuFuku",
      "contractAddress": "0xA6d32Be299C481c7C689b6f7238A1cE1b5A3213d",
      "function": "transferFrom(address,address,uint256)",
      "arguments": [
        "0x85C91C3DfA5c200a6Ee9Bc9d3085d02A2c95908b",
        "0xE4Edb4C1696019589249Acf483DA341A89C9d961",
        "35"
      ],
      "rpc": "https://eth-goerli.g.alchemy.com/v2/B81B-tXiOVtE5bt8bJkX5Gqi3s2R1fgZ",
      "transaction": {
        "type": "0x02",
        "from": "0x85c91c3dfa5c200a6ee9bc9d3085d02a2c95908b",
        "to": "0xa6d32be299c481c7c689b6f7238a1ce1b5a3213d",
        "gas": "0x1576b",
        "value": "0x0",
        "data": "0x23b872dd00000000000000000000000085c91c3dfa5c200a6ee9bc9d3085d02a2c95908b000000000000000000000000e4edb4c1696019589249acf483da341a89c9d9610000000000000000000000000000000000000000000000000000000000000023",
        "nonce": "0x8a",
        "accessList": []
      },
      "additionalContracts": [],
      "isFixedGasLimit": false
    },
    {
      "hash": "0x4dcdb81fad2718e1847b2e53889b27b0a992cdbcc7516f9c45686bb60eb7b63a",
      "transactionType": "CALL",
      "contractName": "FukuFuku",
      "contractAddress": "0xA6d32Be299C481c7C689b6f7238A1cE1b5A3213d",
      "function": "transferFrom(address,address,uint256)",
      "arguments": [
        "0x85C91C3DfA5c200a6Ee9Bc9d3085d02A2c95908b",
        "0xE4Edb4C1696019589249Acf483DA341A89C9d961",
        "36"
      ],
      "rpc": "https://eth-goerli.g.alchemy.com/v2/B81B-tXiOVtE5bt8bJkX5Gqi3s2R1fgZ",
      "transaction": {
        "type": "0x02",
        "from": "0x85c91c3dfa5c200a6ee9bc9d3085d02a2c95908b",
        "to": "0xa6d32be299c481c7c689b6f7238a1ce1b5a3213d",
        "gas": "0xe813",
        "value": "0x0",
        "data": "0x23b872dd00000000000000000000000085c91c3dfa5c200a6ee9bc9d3085d02a2c95908b000000000000000000000000e4edb4c1696019589249acf483da341a89c9d9610000000000000000000000000000000000000000000000000000000000000024",
        "nonce": "0x8b",
        "accessList": []
      },
      "additionalContracts": [],
      "isFixedGasLimit": false
    },
    {
      "hash": "0x536f9f640d91bddfe7a61016dca42e941b776e10b9a4763a58efdc9a1c45b74a",
      "transactionType": "CALL",
      "contractName": "FukuFuku",
      "contractAddress": "0xA6d32Be299C481c7C689b6f7238A1cE1b5A3213d",
      "function": "transferFrom(address,address,uint256)",
      "arguments": [
        "0x85C91C3DfA5c200a6Ee9Bc9d3085d02A2c95908b",
        "0xE4Edb4C1696019589249Acf483DA341A89C9d961",
        "37"
      ],
      "rpc": "https://eth-goerli.g.alchemy.com/v2/B81B-tXiOVtE5bt8bJkX5Gqi3s2R1fgZ",
      "transaction": {
        "type": "0x02",
        "from": "0x85c91c3dfa5c200a6ee9bc9d3085d02a2c95908b",
        "to": "0xa6d32be299c481c7c689b6f7238a1ce1b5a3213d",
        "gas": "0xe813",
        "value": "0x0",
        "data": "0x23b872dd00000000000000000000000085c91c3dfa5c200a6ee9bc9d3085d02a2c95908b000000000000000000000000e4edb4c1696019589249acf483da341a89c9d9610000000000000000000000000000000000000000000000000000000000000025",
        "nonce": "0x8c",
        "accessList": []
      },
      "additionalContracts": [],
      "isFixedGasLimit": false
    }
  ],
  "receipts": [],
  "libraries": [],
  "pending": [
    "0xc182f407c0fd44854e1c9444f22acf3932dbea91e2c90ef80ac0ce7e9a278bf5",
    "0x367233ec21788653b0a28960d0df507f07132614f3535df2bed8b60a4e24de85",
    "0xd0cb3945b64cda6b0783043f66cb76c0090941e3671df50e735bcb600cd3c8c6",
    "0x55696324eb68f882d8db1c1e44d03127f9b8e7c14036869fd7b7c7f6479e941b",
    "0x4dcdb81fad2718e1847b2e53889b27b0a992cdbcc7516f9c45686bb60eb7b63a",
    "0x536f9f640d91bddfe7a61016dca42e941b776e10b9a4763a58efdc9a1c45b74a"
  ],
  "path": "/Users/jaclyn/Documents/code/fukuro/contracts/broadcast/demoSetup.s.sol/5/run-latest.json",
  "returns": {},
  "timestamp": 1687659213,
  "chain": 5,
  "multi": false,
  "commit": "4cef3cc"
}