{
  "transactions": [
    {
      "hash": "0x76817d5396ebb2e0fefd1d104f492cb7a27dabdee5c794179ec9d468297a65b5",
      "transactionType": "CREATE",
      "contractName": "AfropolitanNFT",
      "contractAddress": "0xA6dBfAeD336F3586D5dc336f6E902803Ea0a9994",
      "function": null,
      "arguments": [
        "ipfs://bafybeifc5vbzbr5ayrr6gviwb3ftut7pwi5oej2n22oik3wt44wc3rxbre/"
      ],
      "transaction": {
        "type": "0x00",
        "from": "0xcc2c242b3b89d6a5bd37700ae681a4b94ee7d7ce",
        "gas": "0x26d00c",
        "value": "0x0",
        "data": "0x60c060405260196080526001600b556103e860a052601a600c553480156200002657600080fd5b5060405162002253380380620022538339810160408190526200004991620001dc565b6040518060400160405280601381526020017f4166726f706f6c6974616e20436974697a656e000000000000000000000000008152506040518060400160405280600781526020016610519493d413d360ca1b8152508160009081620000b0919062000340565b506001620000bf828262000340565b505050620000dc620000d6620000f360201b60201c565b620000f7565b6001600855620000ec8162000149565b506200040c565b3390565b600780546001600160a01b038381166001600160a01b0319831681179093556040519116919082907f8be0079c531659141344cd1fd0a4f28419497f9722a3daafe3b4186f6b6457e090600090a35050565b6200015362000165565b600a62000161828262000340565b5050565b6007546001600160a01b03163314620001c45760405162461bcd60e51b815260206004820181905260248201527f4f776e61626c653a2063616c6c6572206973206e6f7420746865206f776e6572604482015260640160405180910390fd5b565b634e487b7160e01b600052604160045260246000fd5b60006020808385031215620001f057600080fd5b82516001600160401b03808211156200020857600080fd5b818501915085601f8301126200021d57600080fd5b815181811115620002325762000232620001c6565b604051601f8201601f19908116603f011681019083821181831017156200025d576200025d620001c6565b8160405282815288868487010111156200027657600080fd5b600093505b828410156200029a57848401860151818501870152928501926200027b565b600086848301015280965050505050505092915050565b600181811c90821680620002c657607f821691505b602082108103620002e757634e487b7160e01b600052602260045260246000fd5b50919050565b601f8211156200033b57600081815260208120601f850160051c81016020861015620003165750805b601f850160051c820191505b81811015620003375782815560010162000322565b5050505b505050565b81516001600160401b038111156200035c576200035c620001c6565b62000374816200036d8454620002b1565b84620002ed565b602080601f831160018114620003ac5760008415620003935750858301515b600019600386901b1c1916600185901b17855562000337565b600085815260208120601f198616915b82811015620003dd57888601518255948401946001909101908401620003bc565b5085821015620003fc5787850151600019600388901b60f8161c191681555b5050505050600190811b01905550565b60805160a051611e1362000440600039600081816104e8015261085d0152600081816103f10152610cc90152611e136000f3fe6080604052600436106101c25760003560e01c80636c0360eb116100f7578063b88d4fde11610095578063d4ebd18011610064578063d4ebd1801461050a578063e8a3d4851461051f578063e985e9c514610534578063f2fde38b1461055457600080fd5b8063b88d4fde14610466578063c87b56dd14610486578063c884ef83146104a6578063cabadaa0146104d657600080fd5b806380e95ae1116100d157806380e95ae1146103df5780638da5cb5b1461041357806395d89b4114610431578063a22cb4651461044657600080fd5b80636c0360eb1461039557806370a08231146103aa578063715018a6146103ca57600080fd5b806330478b6711610164578063449a52f81161013e578063449a52f81461032257806349df728c1461033557806355f804b3146103555780636352211e1461037557600080fd5b806330478b67146102d75780633ccfd60b146102ed57806342842e0e1461030257600080fd5b8063081812fc116101a0578063081812fc14610247578063095ea7b31461027f5780630fab6197146102a157806323b872dd146102b757600080fd5b806301ffc9a7146101c757806306fdde03146101fc57806307e89ec01461021e575b600080fd5b3480156101d357600080fd5b506101e76101e2366004611738565b610574565b60405190151581526020015b60405180910390f35b34801561020857600080fd5b5061021161059f565b6040516101f391906117ac565b34801561022a57600080fd5b5061023966071afd498d000081565b6040519081526020016101f3565b34801561025357600080fd5b506102676102623660046117bf565b610631565b6040516001600160a01b0390911681526020016101f3565b34801561028b57600080fd5b5061029f61029a3660046117ed565b610658565b005b3480156102ad57600080fd5b50610239600c5481565b3480156102c357600080fd5b5061029f6102d2366004611819565b610772565b3480156102e357600080fd5b50610239600b5481565b3480156102f957600080fd5b5061029f6107a3565b34801561030e57600080fd5b5061029f61031d366004611819565b6107de565b61029f6103303660046117ed565b6107f9565b34801561034157600080fd5b5061029f61035036600461185a565b61093d565b34801561036157600080fd5b5061029f610370366004611903565b610a24565b34801561038157600080fd5b506102676103903660046117bf565b610a38565b3480156103a157600080fd5b50610211610a98565b3480156103b657600080fd5b506102396103c536600461185a565b610b26565b3480156103d657600080fd5b5061029f610bac565b3480156103eb57600080fd5b506102397f000000000000000000000000000000000000000000000000000000000000000081565b34801561041f57600080fd5b506007546001600160a01b0316610267565b34801561043d57600080fd5b50610211610bc0565b34801561045257600080fd5b5061029f61046136600461195a565b610bcf565b34801561047257600080fd5b5061029f610481366004611993565b610bda565b34801561049257600080fd5b506102116104a13660046117bf565b610c12565b3480156104b257600080fd5b506101e76104c136600461185a565b600d6020526000908152604090205460ff1681565b3480156104e257600080fd5b506102397f000000000000000000000000000000000000000000000000000000000000000081565b34801561051657600080fd5b5061029f610cbf565b34801561052b57600080fd5b50610211610d8f565b34801561054057600080fd5b506101e761054f366004611a13565b610d9e565b34801561056057600080fd5b5061029f61056f36600461185a565b610dcc565b60006001600160e01b03198216632483248360e11b1480610599575061059982610e45565b92915050565b6060600080546105ae90611a41565b80601f01602080910402602001604051908101604052809291908181526020018280546105da90611a41565b80156106275780601f106105fc57610100808354040283529160200191610627565b820191906000526020600020905b81548152906001019060200180831161060a57829003601f168201915b5050505050905090565b600061063c82610e95565b506000908152600460205260409020546001600160a01b031690565b600061066382610a38565b9050806001600160a01b0316836001600160a01b0316036106d55760405162461bcd60e51b815260206004820152602160248201527f4552433732313a20617070726f76616c20746f2063757272656e74206f776e656044820152603960f91b60648201526084015b60405180910390fd5b336001600160a01b03821614806106f157506106f18133610d9e565b6107635760405162461bcd60e51b815260206004820152603d60248201527f4552433732313a20617070726f76652063616c6c6572206973206e6f7420746f60448201527f6b656e206f776e6572206f7220617070726f76656420666f7220616c6c00000060648201526084016106cc565b61076d8383610ef4565b505050565b61077c3382610f62565b6107985760405162461bcd60e51b81526004016106cc90611a7b565b61076d838383610fc1565b6107ab611125565b6040514790339082156108fc029083906000818181858888f193505050501580156107da573d6000803e3d6000fd5b5050565b61076d83838360405180602001604052806000815250610bda565b66071afd498d0000813461080d8284611ade565b1461085a5760405162461bcd60e51b815260206004820152601860248201527f496e636f7272656374204554482076616c75652073656e74000000000000000060448201526064016106cc565b827f000000000000000000000000000000000000000000000000000000000000000081600c5461088a9190611af5565b11156108e45760405162461bcd60e51b815260206004820152602360248201527f4e6f7420656e6f75676820746f6b656e732072656d61696e696e6720746f206d6044820152621a5b9d60ea1b60648201526084016106cc565b6108ec61117f565b60005b8481101561092b5761090386600c546111d8565b600c805490600061091383611b08565b9190505550808061092390611b08565b9150506108ef565b506109366001600855565b5050505050565b610945611125565b6040516370a0823160e01b81523060048201526000906001600160a01b038316906370a0823190602401602060405180830381865afa15801561098c573d6000803e3d6000fd5b505050506040513d601f19601f820116820180604052508101906109b09190611b21565b60405163a9059cbb60e01b8152336004820152602481018290529091506001600160a01b0383169063a9059cbb906044016020604051808303816000875af1158015610a00573d6000803e3d6000fd5b505050506040513d601f19601f8201168201806040525081019061076d9190611b3a565b610a2c611125565b600a6107da8282611ba5565b6000818152600260205260408120546001600160a01b0316806105995760405162461bcd60e51b8152602060048201526018602482015277115490cdcc8c4e881a5b9d985b1a59081d1bdad95b88125160421b60448201526064016106cc565b600a8054610aa590611a41565b80601f0160208091040260200160405190810160405280929190818152602001828054610ad190611a41565b8015610b1e5780601f10610af357610100808354040283529160200191610b1e565b820191906000526020600020905b815481529060010190602001808311610b0157829003601f168201915b505050505081565b60006001600160a01b038216610b905760405162461bcd60e51b815260206004820152602960248201527f4552433732313a2061646472657373207a65726f206973206e6f7420612076616044820152683634b21037bbb732b960b91b60648201526084016106cc565b506001600160a01b031660009081526003602052604090205490565b610bb4611125565b610bbe6000611363565b565b6060600180546105ae90611a41565b6107da3383836113b5565b610be43383610f62565b610c005760405162461bcd60e51b81526004016106cc90611a7b565b610c0c84848484611483565b50505050565b6000818152600260205260409020546060906001600160a01b0316610c8d5760405162461bcd60e51b815260206004820152602b60248201527f4552433732314d657461646174613a20717565727920666f72206e6f6e65786960448201526a39ba32b73a103a37b5b2b760a91b60648201526084016106cc565b600a610c98836114b6565b604051602001610ca9929190611c65565b6040516020818303038152906040529050919050565b610cc761117f565b7f0000000000000000000000000000000000000000000000000000000000000000600b541115610cf657600080fd5b336000908152600d602052604090205460ff1615610d645760405162461bcd60e51b815260206004820152602560248201527f4e465420697320616c726561647920636c61696d656420627920746869732077604482015264185b1b195d60da1b60648201526084016106cc565b610d7033600b546111d8565b600b8054906000610d8083611b08565b9190505550610bbe6001600855565b6060600980546105ae90611a41565b6001600160a01b03918216600090815260056020908152604080832093909416825291909152205460ff1690565b610dd4611125565b6001600160a01b038116610e395760405162461bcd60e51b815260206004820152602660248201527f4f776e61626c653a206e6577206f776e657220697320746865207a65726f206160448201526564647265737360d01b60648201526084016106cc565b610e4281611363565b50565b60006001600160e01b031982166380ac58cd60e01b1480610e7657506001600160e01b03198216635b5e139f60e01b145b8061059957506301ffc9a760e01b6001600160e01b0319831614610599565b6000818152600260205260409020546001600160a01b0316610e425760405162461bcd60e51b8152602060048201526018602482015277115490cdcc8c4e881a5b9d985b1a59081d1bdad95b88125160421b60448201526064016106cc565b600081815260046020526040902080546001600160a01b0319166001600160a01b0384169081179091558190610f2982610a38565b6001600160a01b03167f8c5be1e5ebec7d5bd14f71427d1e84f3dd0314c0f7b2291e5b200ac8c7c3b92560405160405180910390a45050565b600080610f6e83610a38565b9050806001600160a01b0316846001600160a01b03161480610f955750610f958185610d9e565b80610fb95750836001600160a01b0316610fae84610631565b6001600160a01b0316145b949350505050565b826001600160a01b0316610fd482610a38565b6001600160a01b031614610ffa5760405162461bcd60e51b81526004016106cc90611cec565b6001600160a01b03821661105c5760405162461bcd60e51b8152602060048201526024808201527f4552433732313a207472616e7366657220746f20746865207a65726f206164646044820152637265737360e01b60648201526084016106cc565b826001600160a01b031661106f82610a38565b6001600160a01b0316146110955760405162461bcd60e51b81526004016106cc90611cec565b600081815260046020908152604080832080546001600160a01b03199081169091556001600160a01b0387811680865260038552838620805460001901905590871680865283862080546001019055868652600290945282852080549092168417909155905184937fddf252ad1be2c89b69c2b068fc378daa952ba7f163c4a11628f55a4df523b3ef91a4505050565b6007546001600160a01b03163314610bbe5760405162461bcd60e51b815260206004820181905260248201527f4f776e61626c653a2063616c6c6572206973206e6f7420746865206f776e657260448201526064016106cc565b6002600854036111d15760405162461bcd60e51b815260206004820152601f60248201527f5265656e7472616e637947756172643a207265656e7472616e742063616c6c0060448201526064016106cc565b6002600855565b6001600160a01b03821661122e5760405162461bcd60e51b815260206004820181905260248201527f4552433732313a206d696e7420746f20746865207a65726f206164647265737360448201526064016106cc565b6000818152600260205260409020546001600160a01b0316156112935760405162461bcd60e51b815260206004820152601c60248201527f4552433732313a20746f6b656e20616c7265616479206d696e7465640000000060448201526064016106cc565b6000818152600260205260409020546001600160a01b0316156112f85760405162461bcd60e51b815260206004820152601c60248201527f4552433732313a20746f6b656e20616c7265616479206d696e7465640000000060448201526064016106cc565b6001600160a01b038216600081815260036020908152604080832080546001019055848352600290915280822080546001600160a01b0319168417905551839291907fddf252ad1be2c89b69c2b068fc378daa952ba7f163c4a11628f55a4df523b3ef908290a45050565b600780546001600160a01b038381166001600160a01b0319831681179093556040519116919082907f8be0079c531659141344cd1fd0a4f28419497f9722a3daafe3b4186f6b6457e090600090a35050565b816001600160a01b0316836001600160a01b0316036114165760405162461bcd60e51b815260206004820152601960248201527f4552433732313a20617070726f766520746f2063616c6c65720000000000000060448201526064016106cc565b6001600160a01b03838116600081815260056020908152604080832094871680845294825291829020805460ff191686151590811790915591519182527f17307eab39ab6107e8899845ad3d59bd9653f200f220920489ca2b5937696c31910160405180910390a3505050565b61148e848484610fc1565b61149a84848484611549565b610c0c5760405162461bcd60e51b81526004016106cc90611d31565b606060006114c38361164a565b600101905060008167ffffffffffffffff8111156114e3576114e3611877565b6040519080825280601f01601f19166020018201604052801561150d576020820181803683370190505b5090508181016020015b600019016f181899199a1a9b1b9c1cb0b131b232b360811b600a86061a8153600a850494508461151757509392505050565b60006001600160a01b0384163b1561163f57604051630a85bd0160e11b81526001600160a01b0385169063150b7a029061158d903390899088908890600401611d83565b6020604051808303816000875af19250505080156115c8575060408051601f3d908101601f191682019092526115c591810190611dc0565b60015b611625573d8080156115f6576040519150601f19603f3d011682016040523d82523d6000602084013e6115fb565b606091505b50805160000361161d5760405162461bcd60e51b81526004016106cc90611d31565b805181602001fd5b6001600160e01b031916630a85bd0160e11b149050610fb9565b506001949350505050565b60008072184f03e93ff9f4daa797ed6e38ed64bf6a1f0160401b83106116895772184f03e93ff9f4daa797ed6e38ed64bf6a1f0160401b830492506040015b6d04ee2d6d415b85acef810000000083106116b5576d04ee2d6d415b85acef8100000000830492506020015b662386f26fc1000083106116d357662386f26fc10000830492506010015b6305f5e10083106116eb576305f5e100830492506008015b61271083106116ff57612710830492506004015b60648310611711576064830492506002015b600a83106105995760010192915050565b6001600160e01b031981168114610e4257600080fd5b60006020828403121561174a57600080fd5b813561175581611722565b9392505050565b60005b8381101561177757818101518382015260200161175f565b50506000910152565b6000815180845261179881602086016020860161175c565b601f01601f19169290920160200192915050565b6020815260006117556020830184611780565b6000602082840312156117d157600080fd5b5035919050565b6001600160a01b0381168114610e4257600080fd5b6000806040838503121561180057600080fd5b823561180b816117d8565b946020939093013593505050565b60008060006060848603121561182e57600080fd5b8335611839816117d8565b92506020840135611849816117d8565b929592945050506040919091013590565b60006020828403121561186c57600080fd5b8135611755816117d8565b634e487b7160e01b600052604160045260246000fd5b600067ffffffffffffffff808411156118a8576118a8611877565b604051601f8501601f19908116603f011681019082821181831017156118d0576118d0611877565b816040528093508581528686860111156118e957600080fd5b858560208301376000602087830101525050509392505050565b60006020828403121561191557600080fd5b813567ffffffffffffffff81111561192c57600080fd5b8201601f8101841361193d57600080fd5b610fb98482356020840161188d565b8015158114610e4257600080fd5b6000806040838503121561196d57600080fd5b8235611978816117d8565b915060208301356119888161194c565b809150509250929050565b600080600080608085870312156119a957600080fd5b84356119b4816117d8565b935060208501356119c4816117d8565b925060408501359150606085013567ffffffffffffffff8111156119e757600080fd5b8501601f810187136119f857600080fd5b611a078782356020840161188d565b91505092959194509250565b60008060408385031215611a2657600080fd5b8235611a31816117d8565b91506020830135611988816117d8565b600181811c90821680611a5557607f821691505b602082108103611a7557634e487b7160e01b600052602260045260246000fd5b50919050565b6020808252602d908201527f4552433732313a2063616c6c6572206973206e6f7420746f6b656e206f776e6560408201526c1c881bdc88185c1c1c9bdd9959609a1b606082015260800190565b634e487b7160e01b600052601160045260246000fd5b808202811582820484141761059957610599611ac8565b8082018082111561059957610599611ac8565b600060018201611b1a57611b1a611ac8565b5060010190565b600060208284031215611b3357600080fd5b5051919050565b600060208284031215611b4c57600080fd5b81516117558161194c565b601f82111561076d57600081815260208120601f850160051c81016020861015611b7e5750805b601f850160051c820191505b81811015611b9d57828155600101611b8a565b505050505050565b815167ffffffffffffffff811115611bbf57611bbf611877565b611bd381611bcd8454611a41565b84611b57565b602080601f831160018114611c085760008415611bf05750858301515b600019600386901b1c1916600185901b178555611b9d565b600085815260208120601f198616915b82811015611c3757888601518255948401946001909101908401611c18565b5085821015611c555787850151600019600388901b60f8161c191681555b5050505050600190811b01905550565b6000808454611c7381611a41565b60018281168015611c8b5760018114611ca057611ccf565b60ff1984168752821515830287019450611ccf565b8860005260208060002060005b85811015611cc65781548a820152908401908201611cad565b50505082870194505b505050508351611ce381836020880161175c565b01949350505050565b60208082526025908201527f4552433732313a207472616e736665722066726f6d20696e636f72726563742060408201526437bbb732b960d91b606082015260800190565b60208082526032908201527f4552433732313a207472616e7366657220746f206e6f6e20455243373231526560408201527131b2b4bb32b91034b6b83632b6b2b73a32b960711b606082015260800190565b6001600160a01b0385811682528416602082015260408101839052608060608201819052600090611db690830184611780565b9695505050505050565b600060208284031215611dd257600080fd5b81516117558161172256fea26469706673582212204e321a5a953bba3bf9de22a43912e81a1f7bf5af066f1c28286645491aa262bc64736f6c6343000813003300000000000000000000000000000000000000000000000000000000000000200000000000000000000000000000000000000000000000000000000000000043697066733a2f2f6261667962656966633576627a62723561797272366776697762336674757437707769356f656a326e32326f696b337774343477633372786272652f0000000000000000000000000000000000000000000000000000000000",
        "nonce": "0x0"
      },
      "additionalContracts": [],
      "isFixedGasLimit": false
    },
    {
      "hash": "0x853fed90531bf8c78d5242453583dc9465a9651ceaafddb0630acca0efb28199",
      "transactionType": "CREATE",
      "contractName": "FukuFuku",
      "contractAddress": "0xc90995B5897B2BA7ee2580FA6d978f3E5394cCe0",
      "function": null,
      "arguments": [
        "ipfs://QmavhyKfH6cEfWGoQybikCEJsRHEjzA5E3UF4awiHFsEyt/"
      ],
      "transaction": {
        "type": "0x00",
        "from": "0xcc2c242b3b89d6a5bd37700ae681a4b94ee7d7ce",
        "gas": "0x26663e",
        "value": "0x0",
        "data": "0x60c060405260196080526001600b556103e860a052601a600c553480156200002657600080fd5b5060405162002244380380620022448339810160408190526200004991620001c4565b6040518060400160405280600881526020016746756b7546756b7560c01b8152506040518060400160405280600481526020016346554b5560e01b815250816000908162000098919062000328565b506001620000a7828262000328565b505050620000c4620000be620000db60201b60201c565b620000df565b6001600855620000d48162000131565b50620003f4565b3390565b600780546001600160a01b038381166001600160a01b0319831681179093556040519116919082907f8be0079c531659141344cd1fd0a4f28419497f9722a3daafe3b4186f6b6457e090600090a35050565b6200013b6200014d565b600a62000149828262000328565b5050565b6007546001600160a01b03163314620001ac5760405162461bcd60e51b815260206004820181905260248201527f4f776e61626c653a2063616c6c6572206973206e6f7420746865206f776e6572604482015260640160405180910390fd5b565b634e487b7160e01b600052604160045260246000fd5b60006020808385031215620001d857600080fd5b82516001600160401b0380821115620001f057600080fd5b818501915085601f8301126200020557600080fd5b8151818111156200021a576200021a620001ae565b604051601f8201601f19908116603f01168101908382118183101715620002455762000245620001ae565b8160405282815288868487010111156200025e57600080fd5b600093505b8284101562000282578484018601518185018701529285019262000263565b600086848301015280965050505050505092915050565b600181811c90821680620002ae57607f821691505b602082108103620002cf57634e487b7160e01b600052602260045260246000fd5b50919050565b601f8211156200032357600081815260208120601f850160051c81016020861015620002fe5750805b601f850160051c820191505b818110156200031f578281556001016200030a565b5050505b505050565b81516001600160401b03811115620003445762000344620001ae565b6200035c8162000355845462000299565b84620002d5565b602080601f8311600181146200039457600084156200037b5750858301515b600019600386901b1c1916600185901b1785556200031f565b600085815260208120601f198616915b82811015620003c557888601518255948401946001909101908401620003a4565b5085821015620003e45787850151600019600388901b60f8161c191681555b5050505050600190811b01905550565b60805160a051611e1c62000428600039600081816104e801526108070152600081816103f10152610cc20152611e1c6000f3fe6080604052600436106101c25760003560e01c80636c0360eb116100f7578063b88d4fde11610095578063d4ebd18011610064578063d4ebd1801461050a578063e8a3d4851461051f578063e985e9c514610534578063f2fde38b1461055457600080fd5b8063b88d4fde14610466578063c87b56dd14610486578063c884ef83146104a6578063cabadaa0146104d657600080fd5b806380e95ae1116100d157806380e95ae1146103df5780638da5cb5b1461041357806395d89b4114610431578063a22cb4651461044657600080fd5b80636c0360eb1461039557806370a08231146103aa578063715018a6146103ca57600080fd5b80632db115441161016457806342842e0e1161013e57806342842e0e1461031557806349df728c1461033557806355f804b3146103555780636352211e1461037557600080fd5b80632db11544146102d757806330478b67146102ea5780633ccfd60b1461030057600080fd5b8063081812fc116101a0578063081812fc14610247578063095ea7b31461027f5780630fab6197146102a157806323b872dd146102b757600080fd5b806301ffc9a7146101c757806306fdde03146101fc57806307e89ec01461021e575b600080fd5b3480156101d357600080fd5b506101e76101e2366004611731565b610574565b60405190151581526020015b60405180910390f35b34801561020857600080fd5b5061021161059f565b6040516101f391906117a5565b34801561022a57600080fd5b5061023966071afd498d000081565b6040519081526020016101f3565b34801561025357600080fd5b506102676102623660046117b8565b610631565b6040516001600160a01b0390911681526020016101f3565b34801561028b57600080fd5b5061029f61029a3660046117e6565b610658565b005b3480156102ad57600080fd5b50610239600c5481565b3480156102c357600080fd5b5061029f6102d2366004611812565b610772565b61029f6102e53660046117b8565b6107a3565b3480156102f657600080fd5b50610239600b5481565b34801561030c57600080fd5b5061029f6108e6565b34801561032157600080fd5b5061029f610330366004611812565b610921565b34801561034157600080fd5b5061029f610350366004611853565b61093c565b34801561036157600080fd5b5061029f6103703660046118fc565b610a23565b34801561038157600080fd5b506102676103903660046117b8565b610a37565b3480156103a157600080fd5b50610211610a97565b3480156103b657600080fd5b506102396103c5366004611853565b610b25565b3480156103d657600080fd5b5061029f610bab565b3480156103eb57600080fd5b506102397f000000000000000000000000000000000000000000000000000000000000000081565b34801561041f57600080fd5b506007546001600160a01b0316610267565b34801561043d57600080fd5b50610211610bbf565b34801561045257600080fd5b5061029f610461366004611953565b610bce565b34801561047257600080fd5b5061029f61048136600461198c565b610bd9565b34801561049257600080fd5b506102116104a13660046117b8565b610c0b565b3480156104b257600080fd5b506101e76104c1366004611853565b600d6020526000908152604090205460ff1681565b3480156104e257600080fd5b506102397f000000000000000000000000000000000000000000000000000000000000000081565b34801561051657600080fd5b5061029f610cb8565b34801561052b57600080fd5b50610211610d88565b34801561054057600080fd5b506101e761054f366004611a0c565b610d97565b34801561056057600080fd5b5061029f61056f366004611853565b610dc5565b60006001600160e01b03198216632483248360e11b1480610599575061059982610e3e565b92915050565b6060600080546105ae90611a3a565b80601f01602080910402602001604051908101604052809291908181526020018280546105da90611a3a565b80156106275780601f106105fc57610100808354040283529160200191610627565b820191906000526020600020905b81548152906001019060200180831161060a57829003601f168201915b5050505050905090565b600061063c82610e8e565b506000908152600460205260409020546001600160a01b031690565b600061066382610a37565b9050806001600160a01b0316836001600160a01b0316036106d55760405162461bcd60e51b815260206004820152602160248201527f4552433732313a20617070726f76616c20746f2063757272656e74206f776e656044820152603960f91b60648201526084015b60405180910390fd5b336001600160a01b03821614806106f157506106f18133610d97565b6107635760405162461bcd60e51b815260206004820152603d60248201527f4552433732313a20617070726f76652063616c6c6572206973206e6f7420746f60448201527f6b656e206f776e6572206f7220617070726f76656420666f7220616c6c00000060648201526084016106cc565b61076d8383610eed565b505050565b61077c3382610f5b565b6107985760405162461bcd60e51b81526004016106cc90611a74565b61076d838383610fba565b66071afd498d000081346107b78284611ad7565b146108045760405162461bcd60e51b815260206004820152601860248201527f496e636f7272656374204554482076616c75652073656e74000000000000000060448201526064016106cc565b827f000000000000000000000000000000000000000000000000000000000000000081600c546108349190611aee565b111561088e5760405162461bcd60e51b815260206004820152602360248201527f4e6f7420656e6f75676820746f6b656e732072656d61696e696e6720746f206d6044820152621a5b9d60ea1b60648201526084016106cc565b61089661111e565b60005b848110156108d5576108ad33600c54611177565b600c80549060006108bd83611b01565b919050555080806108cd90611b01565b915050610899565b506108e06001600855565b50505050565b6108ee611302565b6040514790339082156108fc029083906000818181858888f1935050505015801561091d573d6000803e3d6000fd5b5050565b61076d83838360405180602001604052806000815250610bd9565b610944611302565b6040516370a0823160e01b81523060048201526000906001600160a01b038316906370a0823190602401602060405180830381865afa15801561098b573d6000803e3d6000fd5b505050506040513d601f19601f820116820180604052508101906109af9190611b1a565b60405163a9059cbb60e01b8152336004820152602481018290529091506001600160a01b0383169063a9059cbb906044016020604051808303816000875af11580156109ff573d6000803e3d6000fd5b505050506040513d601f19601f8201168201806040525081019061076d9190611b33565b610a2b611302565b600a61091d8282611b9e565b6000818152600260205260408120546001600160a01b0316806105995760405162461bcd60e51b8152602060048201526018602482015277115490cdcc8c4e881a5b9d985b1a59081d1bdad95b88125160421b60448201526064016106cc565b600a8054610aa490611a3a565b80601f0160208091040260200160405190810160405280929190818152602001828054610ad090611a3a565b8015610b1d5780601f10610af257610100808354040283529160200191610b1d565b820191906000526020600020905b815481529060010190602001808311610b0057829003601f168201915b505050505081565b60006001600160a01b038216610b8f5760405162461bcd60e51b815260206004820152602960248201527f4552433732313a2061646472657373207a65726f206973206e6f7420612076616044820152683634b21037bbb732b960b91b60648201526084016106cc565b506001600160a01b031660009081526003602052604090205490565b610bb3611302565b610bbd600061135c565b565b6060600180546105ae90611a3a565b61091d3383836113ae565b610be33383610f5b565b610bff5760405162461bcd60e51b81526004016106cc90611a74565b6108e08484848461147c565b6000818152600260205260409020546060906001600160a01b0316610c865760405162461bcd60e51b815260206004820152602b60248201527f4552433732314d657461646174613a20717565727920666f72206e6f6e65786960448201526a39ba32b73a103a37b5b2b760a91b60648201526084016106cc565b600a610c91836114af565b604051602001610ca2929190611c5e565b6040516020818303038152906040529050919050565b610cc061111e565b7f0000000000000000000000000000000000000000000000000000000000000000600b541115610cef57600080fd5b336000908152600d602052604090205460ff1615610d5d5760405162461bcd60e51b815260206004820152602560248201527f4e465420697320616c726561647920636c61696d656420627920746869732077604482015264185b1b195d60da1b60648201526084016106cc565b610d6933600b54611177565b600b8054906000610d7983611b01565b9190505550610bbd6001600855565b6060600980546105ae90611a3a565b6001600160a01b03918216600090815260056020908152604080832093909416825291909152205460ff1690565b610dcd611302565b6001600160a01b038116610e325760405162461bcd60e51b815260206004820152602660248201527f4f776e61626c653a206e6577206f776e657220697320746865207a65726f206160448201526564647265737360d01b60648201526084016106cc565b610e3b8161135c565b50565b60006001600160e01b031982166380ac58cd60e01b1480610e6f57506001600160e01b03198216635b5e139f60e01b145b8061059957506301ffc9a760e01b6001600160e01b0319831614610599565b6000818152600260205260409020546001600160a01b0316610e3b5760405162461bcd60e51b8152602060048201526018602482015277115490cdcc8c4e881a5b9d985b1a59081d1bdad95b88125160421b60448201526064016106cc565b600081815260046020526040902080546001600160a01b0319166001600160a01b0384169081179091558190610f2282610a37565b6001600160a01b03167f8c5be1e5ebec7d5bd14f71427d1e84f3dd0314c0f7b2291e5b200ac8c7c3b92560405160405180910390a45050565b600080610f6783610a37565b9050806001600160a01b0316846001600160a01b03161480610f8e5750610f8e8185610d97565b80610fb25750836001600160a01b0316610fa784610631565b6001600160a01b0316145b949350505050565b826001600160a01b0316610fcd82610a37565b6001600160a01b031614610ff35760405162461bcd60e51b81526004016106cc90611cf5565b6001600160a01b0382166110555760405162461bcd60e51b8152602060048201526024808201527f4552433732313a207472616e7366657220746f20746865207a65726f206164646044820152637265737360e01b60648201526084016106cc565b826001600160a01b031661106882610a37565b6001600160a01b03161461108e5760405162461bcd60e51b81526004016106cc90611cf5565b600081815260046020908152604080832080546001600160a01b03199081169091556001600160a01b0387811680865260038552838620805460001901905590871680865283862080546001019055868652600290945282852080549092168417909155905184937fddf252ad1be2c89b69c2b068fc378daa952ba7f163c4a11628f55a4df523b3ef91a4505050565b6002600854036111705760405162461bcd60e51b815260206004820152601f60248201527f5265656e7472616e637947756172643a207265656e7472616e742063616c6c0060448201526064016106cc565b6002600855565b6001600160a01b0382166111cd5760405162461bcd60e51b815260206004820181905260248201527f4552433732313a206d696e7420746f20746865207a65726f206164647265737360448201526064016106cc565b6000818152600260205260409020546001600160a01b0316156112325760405162461bcd60e51b815260206004820152601c60248201527f4552433732313a20746f6b656e20616c7265616479206d696e7465640000000060448201526064016106cc565b6000818152600260205260409020546001600160a01b0316156112975760405162461bcd60e51b815260206004820152601c60248201527f4552433732313a20746f6b656e20616c7265616479206d696e7465640000000060448201526064016106cc565b6001600160a01b038216600081815260036020908152604080832080546001019055848352600290915280822080546001600160a01b0319168417905551839291907fddf252ad1be2c89b69c2b068fc378daa952ba7f163c4a11628f55a4df523b3ef908290a45050565b6007546001600160a01b03163314610bbd5760405162461bcd60e51b815260206004820181905260248201527f4f776e61626c653a2063616c6c6572206973206e6f7420746865206f776e657260448201526064016106cc565b600780546001600160a01b038381166001600160a01b0319831681179093556040519116919082907f8be0079c531659141344cd1fd0a4f28419497f9722a3daafe3b4186f6b6457e090600090a35050565b816001600160a01b0316836001600160a01b03160361140f5760405162461bcd60e51b815260206004820152601960248201527f4552433732313a20617070726f766520746f2063616c6c65720000000000000060448201526064016106cc565b6001600160a01b03838116600081815260056020908152604080832094871680845294825291829020805460ff191686151590811790915591519182527f17307eab39ab6107e8899845ad3d59bd9653f200f220920489ca2b5937696c31910160405180910390a3505050565b611487848484610fba565b61149384848484611542565b6108e05760405162461bcd60e51b81526004016106cc90611d3a565b606060006114bc83611643565b600101905060008167ffffffffffffffff8111156114dc576114dc611870565b6040519080825280601f01601f191660200182016040528015611506576020820181803683370190505b5090508181016020015b600019016f181899199a1a9b1b9c1cb0b131b232b360811b600a86061a8153600a850494508461151057509392505050565b60006001600160a01b0384163b1561163857604051630a85bd0160e11b81526001600160a01b0385169063150b7a0290611586903390899088908890600401611d8c565b6020604051808303816000875af19250505080156115c1575060408051601f3d908101601f191682019092526115be91810190611dc9565b60015b61161e573d8080156115ef576040519150601f19603f3d011682016040523d82523d6000602084013e6115f4565b606091505b5080516000036116165760405162461bcd60e51b81526004016106cc90611d3a565b805181602001fd5b6001600160e01b031916630a85bd0160e11b149050610fb2565b506001949350505050565b60008072184f03e93ff9f4daa797ed6e38ed64bf6a1f0160401b83106116825772184f03e93ff9f4daa797ed6e38ed64bf6a1f0160401b830492506040015b6d04ee2d6d415b85acef810000000083106116ae576d04ee2d6d415b85acef8100000000830492506020015b662386f26fc1000083106116cc57662386f26fc10000830492506010015b6305f5e10083106116e4576305f5e100830492506008015b61271083106116f857612710830492506004015b6064831061170a576064830492506002015b600a83106105995760010192915050565b6001600160e01b031981168114610e3b57600080fd5b60006020828403121561174357600080fd5b813561174e8161171b565b9392505050565b60005b83811015611770578181015183820152602001611758565b50506000910152565b60008151808452611791816020860160208601611755565b601f01601f19169290920160200192915050565b60208152600061174e6020830184611779565b6000602082840312156117ca57600080fd5b5035919050565b6001600160a01b0381168114610e3b57600080fd5b600080604083850312156117f957600080fd5b8235611804816117d1565b946020939093013593505050565b60008060006060848603121561182757600080fd5b8335611832816117d1565b92506020840135611842816117d1565b929592945050506040919091013590565b60006020828403121561186557600080fd5b813561174e816117d1565b634e487b7160e01b600052604160045260246000fd5b600067ffffffffffffffff808411156118a1576118a1611870565b604051601f8501601f19908116603f011681019082821181831017156118c9576118c9611870565b816040528093508581528686860111156118e257600080fd5b858560208301376000602087830101525050509392505050565b60006020828403121561190e57600080fd5b813567ffffffffffffffff81111561192557600080fd5b8201601f8101841361193657600080fd5b610fb284823560208401611886565b8015158114610e3b57600080fd5b6000806040838503121561196657600080fd5b8235611971816117d1565b9150602083013561198181611945565b809150509250929050565b600080600080608085870312156119a257600080fd5b84356119ad816117d1565b935060208501356119bd816117d1565b925060408501359150606085013567ffffffffffffffff8111156119e057600080fd5b8501601f810187136119f157600080fd5b611a0087823560208401611886565b91505092959194509250565b60008060408385031215611a1f57600080fd5b8235611a2a816117d1565b91506020830135611981816117d1565b600181811c90821680611a4e57607f821691505b602082108103611a6e57634e487b7160e01b600052602260045260246000fd5b50919050565b6020808252602d908201527f4552433732313a2063616c6c6572206973206e6f7420746f6b656e206f776e6560408201526c1c881bdc88185c1c1c9bdd9959609a1b606082015260800190565b634e487b7160e01b600052601160045260246000fd5b808202811582820484141761059957610599611ac1565b8082018082111561059957610599611ac1565b600060018201611b1357611b13611ac1565b5060010190565b600060208284031215611b2c57600080fd5b5051919050565b600060208284031215611b4557600080fd5b815161174e81611945565b601f82111561076d57600081815260208120601f850160051c81016020861015611b775750805b601f850160051c820191505b81811015611b9657828155600101611b83565b505050505050565b815167ffffffffffffffff811115611bb857611bb8611870565b611bcc81611bc68454611a3a565b84611b50565b602080601f831160018114611c015760008415611be95750858301515b600019600386901b1c1916600185901b178555611b96565b600085815260208120601f198616915b82811015611c3057888601518255948401946001909101908401611c11565b5085821015611c4e5787850151600019600388901b60f8161c191681555b5050505050600190811b01905550565b6000808454611c6c81611a3a565b60018281168015611c845760018114611c9957611cc8565b60ff1984168752821515830287019450611cc8565b8860005260208060002060005b85811015611cbf5781548a820152908401908201611ca6565b50505082870194505b505050508351611cdc818360208801611755565b64173539b7b760d91b9101908152600501949350505050565b60208082526025908201527f4552433732313a207472616e736665722066726f6d20696e636f72726563742060408201526437bbb732b960d91b606082015260800190565b60208082526032908201527f4552433732313a207472616e7366657220746f206e6f6e20455243373231526560408201527131b2b4bb32b91034b6b83632b6b2b73a32b960711b606082015260800190565b6001600160a01b0385811682528416602082015260408101839052608060608201819052600090611dbf90830184611779565b9695505050505050565b600060208284031215611ddb57600080fd5b815161174e8161171b56fea2646970667358221220833bdc489563e0d13f96079262e7e3dd55d53d16630f11b19bfe176103b2340764736f6c6343000813003300000000000000000000000000000000000000000000000000000000000000200000000000000000000000000000000000000000000000000000000000000036697066733a2f2f516d617668794b66483663456657476f517962696b43454a735248456a7a413545335546346177694846734579742f00000000000000000000",
        "nonce": "0x1"
      },
      "additionalContracts": [],
      "isFixedGasLimit": false
    },
    {
      "hash": "0xc62f82990f8fcab0cd7d9aab45ed65549a6248cb4e7fa13129d5040e58a0b072",
      "transactionType": "CREATE",
      "contractName": "Fukuro",
      "contractAddress": "0xd77A3312A0aE3c18b68B2426AF5A2b916Bbab4Ac",
      "function": null,
      "arguments": null,
      "transaction": {
        "type": "0x00",
        "from": "0xcc2c242b3b89d6a5bd37700ae681a4b94ee7d7ce",
        "gas": "0x13a0f1",
        "value": "0x0",
        "data": "0x608060405234801561001057600080fd5b506110f2806100206000396000f3fe6080604052600436106100c65760003560e01c80639e5d4c491161007f578063bc197c8111610059578063bc197c8114610239578063f0072cb114610272578063f23a6e6114610292578063fc0c546a146102c957600080fd5b80639e5d4c49146101e1578063aa36936514610201578063affed0e01461022357600080fd5b806301ffc9a7146100d2578063150b7a02146101075780631626ba7e1461015657806380007e83146101765780638da5cb5b146101905780639d54b493146101bd57600080fd5b366100cd57005b600080fd5b3480156100de57600080fd5b506100f26100ed366004610b1c565b610301565b60405190151581526020015b60405180910390f35b34801561011357600080fd5b5061013d610122366004610ba0565b6001805460ff19169055630a85bd0160e11b95945050505050565b6040516001600160e01b031990911681526020016100fe565b34801561016257600080fd5b5061013d610171366004610c29565b610353565b34801561018257600080fd5b506001546100f29060ff1681565b34801561019c57600080fd5b506101a561038a565b6040516001600160a01b0390911681526020016100fe565b3480156101c957600080fd5b506101d360025481565b6040519081526020016100fe565b6101f46101ef366004610ce4565b61047a565b6040516100fe9190610d90565b34801561020d57600080fd5b5061022161021c366004610de8565b6105d9565b005b34801561022f57600080fd5b506101d360005481565b34801561024557600080fd5b5061013d610254366004610e2a565b6001805460ff1916905563bc197c8160e01b98975050505050505050565b34801561027e57600080fd5b5061022161028d366004610ee9565b61069a565b34801561029e57600080fd5b5061013d6102ad366004610f02565b6001805460ff1916905563f23a6e6160e01b9695505050505050565b3480156102d557600080fd5b506102de6106fc565b604080519384526001600160a01b039092166020840152908201526060016100fe565b60006001600160e01b031982166301ffc9a760e01b148061033257506001600160e01b03198216630271189760e51b145b8061034d57506001600160e01b03198216630801407360e31b145b92915050565b60008061036861036161038a565b8585610714565b905080156103805750630b135d3f60e11b905061034d565b5060009392505050565b600080600080306001600160a01b031663fc0c546a6040518163ffffffff1660e01b8152600401606060405180830381865afa1580156103ce573d6000803e3d6000fd5b505050506040513d601f19601f820116820180604052508101906103f29190610f7e565b925092509250468314610409576000935050505090565b6040516331a9108f60e11b8152600481018290526001600160a01b03831690636352211e90602401602060405180830381865afa15801561044e573d6000803e3d6000fd5b505050506040513d601f19601f820116820180604052508101906104729190610fb7565b935050505090565b606061048461038a565b6001600160a01b0316336001600160a01b0316146104db5760405162461bcd60e51b815260206004820152600f60248201526e2737ba103a37b5b2b71037bbb732b960891b60448201526064015b60405180910390fd5b60008081546104e990610fd4565b9190508190555083856001600160a01b03167f47d99ad340f52da66535aff7e10da1ceb85a32bcbd9fa1c42314d194545e14d2858560405161052c929190610ffb565b60405180910390a3600061054b6000356001600160e01b031916610775565b9050801561055e576001805460ff191690555b6000866001600160a01b031686868660405161057b92919061102a565b60006040518083038185875af1925050503d80600081146105b8576040519150601f19603f3d011682016040523d82523d6000602084013e6105bd565b606091505b5093509050806105cf57825160208401fd5b5050949350505050565b6000610650838380806020026020016040519081016040528093929190818152602001838360200280828437600092019190915250506002546040516bffffffffffffffffffffffff193360601b16602082015290925060340190506040516020818303038152906040528051906020012061083f565b9050806106955760405162461bcd60e51b815260206004820152601360248201527215995c9a599a58d85d1a5bdb8819985a5b1959606a1b60448201526064016104d2565b505050565b336106a361038a565b6001600160a01b0316146106eb5760405162461bcd60e51b815260206004820152600f60248201526e2737ba103a37b5b2b71037bbb732b960891b60448201526064016104d2565b6002556001805460ff191681179055565b6000806000610709610855565b925092509250909192565b600080600061072385856108a8565b9092509050600081600481111561073c5761073c61103a565b14801561075a5750856001600160a01b0316826001600160a01b0316145b8061076b575061076b8686866108ed565b9695505050505050565b60006001600160e01b03198216632142170760e11b0361079757506001919050565b6001600160e01b031982166323b872dd60e01b036107b757506001919050565b6001600160e01b03198216635c46a7ef60e11b036107d757506001919050565b6001600160e01b031982166323b872dd60e01b036107f757506001919050565b6001600160e01b03198216637921219560e11b0361081757506001919050565b6001600160e01b03198216631759616b60e11b0361083757506001919050565b506000919050565b60008261084c85846109d9565b14949350505050565b604080516060808252608082019092526000918291829182919060208201818036833701905050905060ad604d60208301303c8080602001905181019061089c9190610f7e565b93509350935050909192565b60008082516041036108de5760208301516040840151606085015160001a6108d287828585610a26565b945094505050506108e6565b506000905060025b9250929050565b6000806000856001600160a01b0316631626ba7e60e01b8686604051602401610917929190611050565b60408051601f198184030181529181526020820180516001600160e01b03166001600160e01b03199094169390931790925290516109559190611071565b600060405180830381855afa9150503d8060008114610990576040519150601f19603f3d011682016040523d82523d6000602084013e610995565b606091505b50915091508180156109a957506020815110155b801561076b57508051630b135d3f60e11b906109ce908301602090810190840161108d565b149695505050505050565b600081815b8451811015610a1e57610a0a828683815181106109fd576109fd6110a6565b6020026020010151610aea565b915080610a1681610fd4565b9150506109de565b509392505050565b6000807f7fffffffffffffffffffffffffffffff5d576e7357a4501ddfe92f46681b20a0831115610a5d5750600090506003610ae1565b6040805160008082526020820180845289905260ff881692820192909252606081018690526080810185905260019060a0016020604051602081039080840390855afa158015610ab1573d6000803e3d6000fd5b5050604051601f1901519150506001600160a01b038116610ada57600060019250925050610ae1565b9150600090505b94509492505050565b6000818310610b06576000828152602084905260409020610b15565b60008381526020839052604090205b9392505050565b600060208284031215610b2e57600080fd5b81356001600160e01b031981168114610b1557600080fd5b6001600160a01b0381168114610b5b57600080fd5b50565b60008083601f840112610b7057600080fd5b50813567ffffffffffffffff811115610b8857600080fd5b6020830191508360208285010111156108e657600080fd5b600080600080600060808688031215610bb857600080fd5b8535610bc381610b46565b94506020860135610bd381610b46565b935060408601359250606086013567ffffffffffffffff811115610bf657600080fd5b610c0288828901610b5e565b969995985093965092949392505050565b634e487b7160e01b600052604160045260246000fd5b60008060408385031215610c3c57600080fd5b82359150602083013567ffffffffffffffff80821115610c5b57600080fd5b818501915085601f830112610c6f57600080fd5b813581811115610c8157610c81610c13565b604051601f8201601f19908116603f01168101908382118183101715610ca957610ca9610c13565b81604052828152886020848701011115610cc257600080fd5b8260208601602083013760006020848301015280955050505050509250929050565b60008060008060608587031215610cfa57600080fd5b8435610d0581610b46565b935060208501359250604085013567ffffffffffffffff811115610d2857600080fd5b610d3487828801610b5e565b95989497509550505050565b60005b83811015610d5b578181015183820152602001610d43565b50506000910152565b60008151808452610d7c816020860160208601610d40565b601f01601f19169290920160200192915050565b602081526000610b156020830184610d64565b60008083601f840112610db557600080fd5b50813567ffffffffffffffff811115610dcd57600080fd5b6020830191508360208260051b85010111156108e657600080fd5b60008060208385031215610dfb57600080fd5b823567ffffffffffffffff811115610e1257600080fd5b610e1e85828601610da3565b90969095509350505050565b60008060008060008060008060a0898b031215610e4657600080fd5b8835610e5181610b46565b97506020890135610e6181610b46565b9650604089013567ffffffffffffffff80821115610e7e57600080fd5b610e8a8c838d01610da3565b909850965060608b0135915080821115610ea357600080fd5b610eaf8c838d01610da3565b909650945060808b0135915080821115610ec857600080fd5b50610ed58b828c01610b5e565b999c989b5096995094979396929594505050565b600060208284031215610efb57600080fd5b5035919050565b60008060008060008060a08789031215610f1b57600080fd5b8635610f2681610b46565b95506020870135610f3681610b46565b94506040870135935060608701359250608087013567ffffffffffffffff811115610f6057600080fd5b610f6c89828a01610b5e565b979a9699509497509295939492505050565b600080600060608486031215610f9357600080fd5b835192506020840151610fa581610b46565b80925050604084015190509250925092565b600060208284031215610fc957600080fd5b8151610b1581610b46565b600060018201610ff457634e487b7160e01b600052601160045260246000fd5b5060010190565b60208152816020820152818360408301376000818301604090810191909152601f909201601f19160101919050565b8183823760009101908152919050565b634e487b7160e01b600052602160045260246000fd5b8281526040602082015260006110696040830184610d64565b949350505050565b60008251611083818460208701610d40565b9190910192915050565b60006020828403121561109f57600080fd5b5051919050565b634e487b7160e01b600052603260045260246000fdfea26469706673582212208a36d38da64d3351300517eb1a85c87d41dd8b229ac8367a6528d935f96be76664736f6c63430008130033",
        "nonce": "0x2"
      },
      "additionalContracts": [],
      "isFixedGasLimit": false
    },
    {
      "hash": "0xdb2e5f22461c95035ed1553d0e4d6ad1bf5b7ebd082e0ba189e5355a987368cc",
      "transactionType": "CREATE",
      "contractName": "ERC6551Registry",
      "contractAddress": "0x45E67155e2F6e8107Cd17905B1A9c3510cE3aCa1",
      "function": null,
      "arguments": null,
      "transaction": {
        "type": "0x00",
        "from": "0xcc2c242b3b89d6a5bd37700ae681a4b94ee7d7ce",
        "gas": "0x71a07",
        "value": "0x0",
        "data": "0x608060405234801561001057600080fd5b50610584806100206000396000f3fe608060405234801561001057600080fd5b50600436106100365760003560e01c80635e9bc5361461003b578063da7323b31461006a575b600080fd5b61004e6100493660046103be565b61007d565b6040516001600160a01b03909116815260200160405180910390f35b61004e61007836600461040c565b6100ac565b60008061008d87878787876101f2565b805160209091012090506100a1838261025b565b979650505050505050565b6000806100bc89898989896101f2565b905060006100d48660001b838051906020012061025b565b90506001600160a01b0381163b156100ef5791506100a19050565b604080516001600160a01b0383811682528c811660208301528183018c90528a1660608201526080810189905260a0810188905290517f07fba7bba1191da7ee1155dcfa0030701c9c9a9cc34a93b991fc6fd0c9268d8f9181900360c00190a161015b6000878461026f565b905083156101e5576000816001600160a01b0316868660405161017f9291906104bd565b6000604051808303816000865af19150503d80600081146101bc576040519150601f19603f3d011682016040523d82523d6000602084013e6101c1565b606091505b50509050806101e357604051630337323560e31b815260040160405180910390fd5b505b9998505050505050505050565b60408051602081018390529081018590526001600160a01b0384166060828101919091526080820184905290869060a00160408051601f198184030181529082905261024192916020016104cd565b604051602081830303815290604052905095945050505050565b6000610268838330610378565b9392505050565b6000834710156102c65760405162461bcd60e51b815260206004820152601d60248201527f437265617465323a20696e73756666696369656e742062616c616e636500000060448201526064015b60405180910390fd5b81516000036103175760405162461bcd60e51b815260206004820181905260248201527f437265617465323a2062797465636f6465206c656e677468206973207a65726f60448201526064016102bd565b8282516020840186f590506001600160a01b0381166102685760405162461bcd60e51b815260206004820152601960248201527f437265617465323a204661696c6564206f6e206465706c6f790000000000000060448201526064016102bd565b6000604051836040820152846020820152828152600b8101905060ff815360559020949350505050565b80356001600160a01b03811681146103b957600080fd5b919050565b600080600080600060a086880312156103d657600080fd5b6103df866103a2565b9450602086013593506103f4604087016103a2565b94979396509394606081013594506080013592915050565b600080600080600080600060c0888a03121561042757600080fd5b610430886103a2565b965060208801359550610445604089016103a2565b9450606088013593506080880135925060a088013567ffffffffffffffff8082111561047057600080fd5b818a0191508a601f83011261048457600080fd5b81358181111561049357600080fd5b8b60208285010111156104a557600080fd5b60208301945080935050505092959891949750929550565b8183823760009101908152919050565b733d60ad80600a3d3981f3363d3d373d3d3d363d7360601b8152606083901b6bffffffffffffffffffffffff191660148201526e5af43d82803e903d91602b57fd5bf360881b60288201528151600090815b8181101561053c576020818601810151603786840101520161051f565b5060009201603701918252509291505056fea2646970667358221220340c157670d5d7c1c5da773ca7956aa8fd51c2ab92713778340282880aa9c45164736f6c63430008130033",
        "nonce": "0x3"
      },
      "additionalContracts": [],
      "isFixedGasLimit": false
    },
    {
      "hash": "0x13640f4e5fc04b9c1c97106704187c65619ca0f80966f7c8938f3e15a880182f",
      "transactionType": "CALL",
      "contractName": "FukuFuku",
      "contractAddress": "0xc90995B5897B2BA7ee2580FA6d978f3E5394cCe0",
      "function": "publicMint(uint256)",
      "arguments": [
        "1"
      ],
      "transaction": {
        "type": "0x00",
        "from": "0xcc2c242b3b89d6a5bd37700ae681a4b94ee7d7ce",
        "to": "0xc90995b5897b2ba7ee2580fa6d978f3e5394cce0",
        "gas": "0x19b86",
        "value": "0x71afd498d0000",
        "data": "0x2db115440000000000000000000000000000000000000000000000000000000000000001",
        "nonce": "0x4"
      },
      "additionalContracts": [],
      "isFixedGasLimit": false
    },
    {
      "hash": "0xc90089754a5962b3293ab9f3f0e4f12e74be0276ea56e61ec45dd14a5b6b7266",
      "transactionType": "CALL",
      "contractName": "FukuFuku",
      "contractAddress": "0xc90995B5897B2BA7ee2580FA6d978f3E5394cCe0",
      "function": "transferFrom(address,address,uint256)",
      "arguments": [
        "0xCC2c242B3B89D6A5BD37700AE681A4b94EE7d7CE",
        "0xCC2c242B3B89D6A5BD37700AE681A4b94EE7d7CE",
        "26"
      ],
      "transaction": {
        "type": "0x00",
        "from": "0xcc2c242b3b89d6a5bd37700ae681a4b94ee7d7ce",
        "to": "0xc90995b5897b2ba7ee2580fa6d978f3e5394cce0",
        "gas": "0xaff6",
        "value": "0x0",
        "data": "0x23b872dd000000000000000000000000cc2c242b3b89d6a5bd37700ae681a4b94ee7d7ce000000000000000000000000cc2c242b3b89d6a5bd37700ae681a4b94ee7d7ce000000000000000000000000000000000000000000000000000000000000001a",
        "nonce": "0x5"
      },
      "additionalContracts": [],
      "isFixedGasLimit": false
    },
    {
      "hash": "0xb8640f4281f3cbf3762a061f57de69c5b57f504662c65381ccccb8a0a4820a32",
      "transactionType": "CALL",
      "contractName": "ERC6551Registry",
      "contractAddress": "0x45E67155e2F6e8107Cd17905B1A9c3510cE3aCa1",
      "function": "createAccount(address,uint256,address,uint256,uint256,bytes):(address)",
      "arguments": [
        "0xd77A3312A0aE3c18b68B2426AF5A2b916Bbab4Ac",
        "1442",
        "0xc90995B5897B2BA7ee2580FA6d978f3E5394cCe0",
        "26",
        "0",
        "0x"
      ],
      "transaction": {
        "type": "0x00",
        "from": "0xcc2c242b3b89d6a5bd37700ae681a4b94ee7d7ce",
        "to": "0x45e67155e2f6e8107cd17905b1a9c3510ce3aca1",
        "gas": "0x207d7",
        "value": "0x0",
        "data": "0xda7323b3000000000000000000000000d77a3312a0ae3c18b68b2426af5a2b916bbab4ac00000000000000000000000000000000000000000000000000000000000005a2000000000000000000000000c90995b5897b2ba7ee2580fa6d978f3e5394cce0000000000000000000000000000000000000000000000000000000000000001a000000000000000000000000000000000000000000000000000000000000000000000000000000000000000000000000000000000000000000000000000000c00000000000000000000000000000000000000000000000000000000000000000",
        "nonce": "0x6"
      },
      "additionalContracts": [
        {
          "transactionType": "CREATE2",
          "address": "0x67e2ABE1B81A13c34b65d4461B9222f9b909d26D",
          "initCode": "3d60ad80600a3d3981f3363d3d373d3d3d363d73d77a3312a0ae3c18b68b2426af5a2b916bbab4ac5af43d82803e903d91602b57fd5bf3000000000000000000000000000000000000000000000000000000000000000000000000000000000000000000000000000000000000000000000000000005a2000000000000000000000000c90995b5897b2ba7ee2580fa6d978f3e5394cce0000000000000000000000000000000000000000000000000000000000000001a"
        }
      ],
      "isFixedGasLimit": false
    },
    {
      "hash": "0x38ebf20265d3eb2a8e560d4d443c827fea34a001b022610ab43cf018dc839e9d",
      "transactionType": "CALL",
      "contractName": "AfropolitanNFT",
      "contractAddress": "0xA6dBfAeD336F3586D5dc336f6E902803Ea0a9994",
      "function": "mintTo(address,uint256)",
      "arguments": [
        "0x67e2ABE1B81A13c34b65d4461B9222f9b909d26D",
        "4"
      ],
      "transaction": {
        "type": "0x00",
        "from": "0xcc2c242b3b89d6a5bd37700ae681a4b94ee7d7ce",
        "to": "0xa6dbfaed336f3586d5dc336f6e902803ea0a9994",
        "gas": "0x36994",
        "value": "0x1c6bf526340000",
        "data": "0x449a52f800000000000000000000000067e2abe1b81a13c34b65d4461b9222f9b909d26d0000000000000000000000000000000000000000000000000000000000000004",
        "nonce": "0x7"
      },
      "additionalContracts": [],
      "isFixedGasLimit": false
    },
    {
      "hash": "0x00fc12fee2181083d99348886e230d0fcd748bc90d58d7971276b62780ae0cd0",
      "transactionType": "CALL",
      "contractName": "FukuFuku",
      "contractAddress": "0xc90995B5897B2BA7ee2580FA6d978f3E5394cCe0",
      "function": "publicMint(uint256)",
      "arguments": [
        "1"
      ],
      "transaction": {
        "type": "0x00",
        "from": "0xcc2c242b3b89d6a5bd37700ae681a4b94ee7d7ce",
        "to": "0xc90995b5897b2ba7ee2580fa6d978f3e5394cce0",
        "gas": "0x13f43",
        "value": "0x71afd498d0000",
        "data": "0x2db115440000000000000000000000000000000000000000000000000000000000000001",
        "nonce": "0x8"
      },
      "additionalContracts": [],
      "isFixedGasLimit": false
    },
    {
      "hash": "0x38fb269423803496fcb72a0c3e4d04edc2ed8e95dd65dc5516b5ff615e86cfcf",
      "transactionType": "CALL",
      "contractName": "FukuFuku",
      "contractAddress": "0xc90995B5897B2BA7ee2580FA6d978f3E5394cCe0",
      "function": "transferFrom(address,address,uint256)",
      "arguments": [
        "0xCC2c242B3B89D6A5BD37700AE681A4b94EE7d7CE",
        "0xCC2c242B3B89D6A5BD37700AE681A4b94EE7d7CE",
        "27"
      ],
      "transaction": {
        "type": "0x00",
        "from": "0xcc2c242b3b89d6a5bd37700ae681a4b94ee7d7ce",
        "to": "0xc90995b5897b2ba7ee2580fa6d978f3e5394cce0",
        "gas": "0xaff6",
        "value": "0x0",
        "data": "0x23b872dd000000000000000000000000cc2c242b3b89d6a5bd37700ae681a4b94ee7d7ce000000000000000000000000cc2c242b3b89d6a5bd37700ae681a4b94ee7d7ce000000000000000000000000000000000000000000000000000000000000001b",
        "nonce": "0x9"
      },
      "additionalContracts": [],
      "isFixedGasLimit": false
    },
    {
      "hash": "0x6b3d76bcb1189b93efd1d0c53380e9d9e9131fcbe57daec6d3e2b2824352a82e",
      "transactionType": "CALL",
      "contractName": "ERC6551Registry",
      "contractAddress": "0x45E67155e2F6e8107Cd17905B1A9c3510cE3aCa1",
      "function": "createAccount(address,uint256,address,uint256,uint256,bytes):(address)",
      "arguments": [
        "0xd77A3312A0aE3c18b68B2426AF5A2b916Bbab4Ac",
        "1442",
        "0xc90995B5897B2BA7ee2580FA6d978f3E5394cCe0",
        "27",
        "0",
        "0x"
      ],
      "transaction": {
        "type": "0x00",
        "from": "0xcc2c242b3b89d6a5bd37700ae681a4b94ee7d7ce",
        "to": "0x45e67155e2f6e8107cd17905b1a9c3510ce3aca1",
        "gas": "0x207d7",
        "value": "0x0",
        "data": "0xda7323b3000000000000000000000000d77a3312a0ae3c18b68b2426af5a2b916bbab4ac00000000000000000000000000000000000000000000000000000000000005a2000000000000000000000000c90995b5897b2ba7ee2580fa6d978f3e5394cce0000000000000000000000000000000000000000000000000000000000000001b000000000000000000000000000000000000000000000000000000000000000000000000000000000000000000000000000000000000000000000000000000c00000000000000000000000000000000000000000000000000000000000000000",
        "nonce": "0xa"
      },
      "additionalContracts": [
        {
          "transactionType": "CREATE2",
          "address": "0xF8a2663ead91dea627e03302fC2CAD82EA195637",
          "initCode": "3d60ad80600a3d3981f3363d3d373d3d3d363d73d77a3312a0ae3c18b68b2426af5a2b916bbab4ac5af43d82803e903d91602b57fd5bf3000000000000000000000000000000000000000000000000000000000000000000000000000000000000000000000000000000000000000000000000000005a2000000000000000000000000c90995b5897b2ba7ee2580fa6d978f3e5394cce0000000000000000000000000000000000000000000000000000000000000001b"
        }
      ],
      "isFixedGasLimit": false
    },
    {
      "hash": "0xf4f0b26a711988b687f8be62c2304db7fb175eb66b512d1ffd5e2bc02c5da661",
      "transactionType": "CALL",
      "contractName": "AfropolitanNFT",
      "contractAddress": "0xA6dBfAeD336F3586D5dc336f6E902803Ea0a9994",
      "function": "mintTo(address,uint256)",
      "arguments": [
        "0xF8a2663ead91dea627e03302fC2CAD82EA195637",
        "4"
      ],
      "transaction": {
        "type": "0x00",
        "from": "0xcc2c242b3b89d6a5bd37700ae681a4b94ee7d7ce",
        "to": "0xa6dbfaed336f3586d5dc336f6e902803ea0a9994",
        "gas": "0x36994",
        "value": "0x1c6bf526340000",
        "data": "0x449a52f8000000000000000000000000f8a2663ead91dea627e03302fc2cad82ea1956370000000000000000000000000000000000000000000000000000000000000004",
        "nonce": "0xb"
      },
      "additionalContracts": [],
      "isFixedGasLimit": false
    },
    {
      "hash": "0x05cfa33b5444458bd48a7b4d948ace746bd470fa6a2889206356dd9b75f6f4ea",
      "transactionType": "CALL",
      "contractName": "FukuFuku",
      "contractAddress": "0xc90995B5897B2BA7ee2580FA6d978f3E5394cCe0",
      "function": "publicMint(uint256)",
      "arguments": [
        "1"
      ],
      "transaction": {
        "type": "0x00",
        "from": "0xcc2c242b3b89d6a5bd37700ae681a4b94ee7d7ce",
        "to": "0xc90995b5897b2ba7ee2580fa6d978f3e5394cce0",
        "gas": "0x13f43",
        "value": "0x71afd498d0000",
        "data": "0x2db115440000000000000000000000000000000000000000000000000000000000000001",
        "nonce": "0xc"
      },
      "additionalContracts": [],
      "isFixedGasLimit": false
    },
    {
      "hash": "0xe0e3f56d4c6c7483f1cbe2a8b9987f7be0312f7340b1e0e5544ddc533d91e617",
      "transactionType": "CALL",
      "contractName": "FukuFuku",
      "contractAddress": "0xc90995B5897B2BA7ee2580FA6d978f3E5394cCe0",
      "function": "transferFrom(address,address,uint256)",
      "arguments": [
        "0xCC2c242B3B89D6A5BD37700AE681A4b94EE7d7CE",
        "0xCC2c242B3B89D6A5BD37700AE681A4b94EE7d7CE",
        "28"
      ],
      "transaction": {
        "type": "0x00",
        "from": "0xcc2c242b3b89d6a5bd37700ae681a4b94ee7d7ce",
        "to": "0xc90995b5897b2ba7ee2580fa6d978f3e5394cce0",
        "gas": "0xaff6",
        "value": "0x0",
        "data": "0x23b872dd000000000000000000000000cc2c242b3b89d6a5bd37700ae681a4b94ee7d7ce000000000000000000000000cc2c242b3b89d6a5bd37700ae681a4b94ee7d7ce000000000000000000000000000000000000000000000000000000000000001c",
        "nonce": "0xd"
      },
      "additionalContracts": [],
      "isFixedGasLimit": false
    },
    {
      "hash": "0xedaf902baecf6623f7b14d982fb1fa857baa78a15c151401a4656783620fd7c8",
      "transactionType": "CALL",
      "contractName": "ERC6551Registry",
      "contractAddress": "0x45E67155e2F6e8107Cd17905B1A9c3510cE3aCa1",
      "function": "createAccount(address,uint256,address,uint256,uint256,bytes):(address)",
      "arguments": [
        "0xd77A3312A0aE3c18b68B2426AF5A2b916Bbab4Ac",
        "1442",
        "0xc90995B5897B2BA7ee2580FA6d978f3E5394cCe0",
        "28",
        "0",
        "0x"
      ],
      "transaction": {
        "type": "0x00",
        "from": "0xcc2c242b3b89d6a5bd37700ae681a4b94ee7d7ce",
        "to": "0x45e67155e2f6e8107cd17905b1a9c3510ce3aca1",
        "gas": "0x207d7",
        "value": "0x0",
        "data": "0xda7323b3000000000000000000000000d77a3312a0ae3c18b68b2426af5a2b916bbab4ac00000000000000000000000000000000000000000000000000000000000005a2000000000000000000000000c90995b5897b2ba7ee2580fa6d978f3e5394cce0000000000000000000000000000000000000000000000000000000000000001c000000000000000000000000000000000000000000000000000000000000000000000000000000000000000000000000000000000000000000000000000000c00000000000000000000000000000000000000000000000000000000000000000",
        "nonce": "0xe"
      },
      "additionalContracts": [
        {
          "transactionType": "CREATE2",
          "address": "0x7ba5697073a179Cf078EB01ED4b4066259dDA5ae",
          "initCode": "3d60ad80600a3d3981f3363d3d373d3d3d363d73d77a3312a0ae3c18b68b2426af5a2b916bbab4ac5af43d82803e903d91602b57fd5bf3000000000000000000000000000000000000000000000000000000000000000000000000000000000000000000000000000000000000000000000000000005a2000000000000000000000000c90995b5897b2ba7ee2580fa6d978f3e5394cce0000000000000000000000000000000000000000000000000000000000000001c"
        }
      ],
      "isFixedGasLimit": false
    },
    {
      "hash": "0xf7b75677bc467d65e0c60d8534c11e6e45ebf18c93905349e98f19836e697d35",
      "transactionType": "CALL",
      "contractName": "AfropolitanNFT",
      "contractAddress": "0xA6dBfAeD336F3586D5dc336f6E902803Ea0a9994",
      "function": "mintTo(address,uint256)",
      "arguments": [
        "0x7ba5697073a179Cf078EB01ED4b4066259dDA5ae",
        "4"
      ],
      "transaction": {
        "type": "0x00",
        "from": "0xcc2c242b3b89d6a5bd37700ae681a4b94ee7d7ce",
        "to": "0xa6dbfaed336f3586d5dc336f6e902803ea0a9994",
        "gas": "0x36994",
        "value": "0x1c6bf526340000",
        "data": "0x449a52f80000000000000000000000007ba5697073a179cf078eb01ed4b4066259dda5ae0000000000000000000000000000000000000000000000000000000000000004",
        "nonce": "0xf"
      },
      "additionalContracts": [],
      "isFixedGasLimit": false
    },
    {
      "hash": "0xfa0cd90da9e32fd8875c5a30fdd7d684b3547ea67658de6bd8623c14751fe413",
      "transactionType": "CALL",
      "contractName": "FukuFuku",
      "contractAddress": "0xc90995B5897B2BA7ee2580FA6d978f3E5394cCe0",
      "function": "publicMint(uint256)",
      "arguments": [
        "1"
      ],
      "transaction": {
        "type": "0x00",
        "from": "0xcc2c242b3b89d6a5bd37700ae681a4b94ee7d7ce",
        "to": "0xc90995b5897b2ba7ee2580fa6d978f3e5394cce0",
        "gas": "0x13f43",
        "value": "0x71afd498d0000",
        "data": "0x2db115440000000000000000000000000000000000000000000000000000000000000001",
        "nonce": "0x10"
      },
      "additionalContracts": [],
      "isFixedGasLimit": false
    },
    {
      "hash": "0xfe91ca0426a03bd599a842b2b1ef4b5dc54ae47031ab7d81de4e53acb5bf7659",
      "transactionType": "CALL",
      "contractName": "FukuFuku",
      "contractAddress": "0xc90995B5897B2BA7ee2580FA6d978f3E5394cCe0",
      "function": "transferFrom(address,address,uint256)",
      "arguments": [
        "0xCC2c242B3B89D6A5BD37700AE681A4b94EE7d7CE",
        "0xCC2c242B3B89D6A5BD37700AE681A4b94EE7d7CE",
        "29"
      ],
      "transaction": {
        "type": "0x00",
        "from": "0xcc2c242b3b89d6a5bd37700ae681a4b94ee7d7ce",
        "to": "0xc90995b5897b2ba7ee2580fa6d978f3e5394cce0",
        "gas": "0xaff6",
        "value": "0x0",
        "data": "0x23b872dd000000000000000000000000cc2c242b3b89d6a5bd37700ae681a4b94ee7d7ce000000000000000000000000cc2c242b3b89d6a5bd37700ae681a4b94ee7d7ce000000000000000000000000000000000000000000000000000000000000001d",
        "nonce": "0x11"
      },
      "additionalContracts": [],
      "isFixedGasLimit": false
    },
    {
      "hash": "0x68250663089033bbfe9861336f94a1b93731d445c19f1d4611fb9ee7f3c37b36",
      "transactionType": "CALL",
      "contractName": "ERC6551Registry",
      "contractAddress": "0x45E67155e2F6e8107Cd17905B1A9c3510cE3aCa1",
      "function": "createAccount(address,uint256,address,uint256,uint256,bytes):(address)",
      "arguments": [
        "0xd77A3312A0aE3c18b68B2426AF5A2b916Bbab4Ac",
        "1442",
        "0xc90995B5897B2BA7ee2580FA6d978f3E5394cCe0",
        "29",
        "0",
        "0x"
      ],
      "transaction": {
        "type": "0x00",
        "from": "0xcc2c242b3b89d6a5bd37700ae681a4b94ee7d7ce",
        "to": "0x45e67155e2f6e8107cd17905b1a9c3510ce3aca1",
        "gas": "0x207d7",
        "value": "0x0",
        "data": "0xda7323b3000000000000000000000000d77a3312a0ae3c18b68b2426af5a2b916bbab4ac00000000000000000000000000000000000000000000000000000000000005a2000000000000000000000000c90995b5897b2ba7ee2580fa6d978f3e5394cce0000000000000000000000000000000000000000000000000000000000000001d000000000000000000000000000000000000000000000000000000000000000000000000000000000000000000000000000000000000000000000000000000c00000000000000000000000000000000000000000000000000000000000000000",
        "nonce": "0x12"
      },
      "additionalContracts": [
        {
          "transactionType": "CREATE2",
          "address": "0x3Ecccaf058E1327C86dE8064b527B48C3D6f4a46",
          "initCode": "3d60ad80600a3d3981f3363d3d373d3d3d363d73d77a3312a0ae3c18b68b2426af5a2b916bbab4ac5af43d82803e903d91602b57fd5bf3000000000000000000000000000000000000000000000000000000000000000000000000000000000000000000000000000000000000000000000000000005a2000000000000000000000000c90995b5897b2ba7ee2580fa6d978f3e5394cce0000000000000000000000000000000000000000000000000000000000000001d"
        }
      ],
      "isFixedGasLimit": false
    },
    {
      "hash": "0x0539d0d410c7b40d1ed563630eff248e2f417aa62742677bd44c39960b0d81e1",
      "transactionType": "CALL",
      "contractName": "AfropolitanNFT",
      "contractAddress": "0xA6dBfAeD336F3586D5dc336f6E902803Ea0a9994",
      "function": "mintTo(address,uint256)",
      "arguments": [
        "0x3Ecccaf058E1327C86dE8064b527B48C3D6f4a46",
        "4"
      ],
      "transaction": {
        "type": "0x00",
        "from": "0xcc2c242b3b89d6a5bd37700ae681a4b94ee7d7ce",
        "to": "0xa6dbfaed336f3586d5dc336f6e902803ea0a9994",
        "gas": "0x36994",
        "value": "0x1c6bf526340000",
        "data": "0x449a52f80000000000000000000000003ecccaf058e1327c86de8064b527b48c3d6f4a460000000000000000000000000000000000000000000000000000000000000004",
        "nonce": "0x13"
      },
      "additionalContracts": [],
      "isFixedGasLimit": false
    },
    {
      "hash": "0x2841dff4dac5a6d3ff70ba8b5416da3510cd376b6b13caa2d3b3d6cda915a650",
      "transactionType": "CALL",
      "contractName": "FukuFuku",
      "contractAddress": "0xc90995B5897B2BA7ee2580FA6d978f3E5394cCe0",
      "function": "publicMint(uint256)",
      "arguments": [
        "1"
      ],
      "transaction": {
        "type": "0x00",
        "from": "0xcc2c242b3b89d6a5bd37700ae681a4b94ee7d7ce",
        "to": "0xc90995b5897b2ba7ee2580fa6d978f3e5394cce0",
        "gas": "0x13f43",
        "value": "0x71afd498d0000",
        "data": "0x2db115440000000000000000000000000000000000000000000000000000000000000001",
        "nonce": "0x14"
      },
      "additionalContracts": [],
      "isFixedGasLimit": false
    },
    {
      "hash": "0xc009165623f20abc210c47131930775d3cd0c4c4663ecbe847fefcbaad619cc0",
      "transactionType": "CALL",
      "contractName": "FukuFuku",
      "contractAddress": "0xc90995B5897B2BA7ee2580FA6d978f3E5394cCe0",
      "function": "transferFrom(address,address,uint256)",
      "arguments": [
        "0xCC2c242B3B89D6A5BD37700AE681A4b94EE7d7CE",
        "0x2633223E6cEE2Fb4e030d8F815dfc78003c4CCe1",
        "30"
      ],
      "transaction": {
        "type": "0x00",
        "from": "0xcc2c242b3b89d6a5bd37700ae681a4b94ee7d7ce",
        "to": "0xc90995b5897b2ba7ee2580fa6d978f3e5394cce0",
        "gas": "0x1576b",
        "value": "0x0",
        "data": "0x23b872dd000000000000000000000000cc2c242b3b89d6a5bd37700ae681a4b94ee7d7ce0000000000000000000000002633223e6cee2fb4e030d8f815dfc78003c4cce1000000000000000000000000000000000000000000000000000000000000001e",
        "nonce": "0x15"
      },
      "additionalContracts": [],
      "isFixedGasLimit": false
    },
    {
      "hash": "0x7cc1f38e41c5dfb4219bfb4ced21680d968587a1aa42a67bcc9ead0f96e78d11",
      "transactionType": "CALL",
      "contractName": "ERC6551Registry",
      "contractAddress": "0x45E67155e2F6e8107Cd17905B1A9c3510cE3aCa1",
      "function": "createAccount(address,uint256,address,uint256,uint256,bytes):(address)",
      "arguments": [
        "0xd77A3312A0aE3c18b68B2426AF5A2b916Bbab4Ac",
        "1442",
        "0xc90995B5897B2BA7ee2580FA6d978f3E5394cCe0",
        "30",
        "0",
        "0x"
      ],
      "transaction": {
        "type": "0x00",
        "from": "0xcc2c242b3b89d6a5bd37700ae681a4b94ee7d7ce",
        "to": "0x45e67155e2f6e8107cd17905b1a9c3510ce3aca1",
        "gas": "0x207d7",
        "value": "0x0",
        "data": "0xda7323b3000000000000000000000000d77a3312a0ae3c18b68b2426af5a2b916bbab4ac00000000000000000000000000000000000000000000000000000000000005a2000000000000000000000000c90995b5897b2ba7ee2580fa6d978f3e5394cce0000000000000000000000000000000000000000000000000000000000000001e000000000000000000000000000000000000000000000000000000000000000000000000000000000000000000000000000000000000000000000000000000c00000000000000000000000000000000000000000000000000000000000000000",
        "nonce": "0x16"
      },
      "additionalContracts": [
        {
          "transactionType": "CREATE2",
          "address": "0xDEcd2be8dD321A3b64B9fAb3AAb94294D48093C7",
          "initCode": "3d60ad80600a3d3981f3363d3d373d3d3d363d73d77a3312a0ae3c18b68b2426af5a2b916bbab4ac5af43d82803e903d91602b57fd5bf3000000000000000000000000000000000000000000000000000000000000000000000000000000000000000000000000000000000000000000000000000005a2000000000000000000000000c90995b5897b2ba7ee2580fa6d978f3e5394cce0000000000000000000000000000000000000000000000000000000000000001e"
        }
      ],
      "isFixedGasLimit": false
    },
    {
      "hash": "0x0884d87c6b4252d0e052ae60dbc4af37d599657061c394d84b3eda5996016d3c",
      "transactionType": "CALL",
      "contractName": "AfropolitanNFT",
      "contractAddress": "0xA6dBfAeD336F3586D5dc336f6E902803Ea0a9994",
      "function": "mintTo(address,uint256)",
      "arguments": [
        "0xDEcd2be8dD321A3b64B9fAb3AAb94294D48093C7",
        "4"
      ],
      "transaction": {
        "type": "0x00",
        "from": "0xcc2c242b3b89d6a5bd37700ae681a4b94ee7d7ce",
        "to": "0xa6dbfaed336f3586d5dc336f6e902803ea0a9994",
        "gas": "0x36994",
        "value": "0x1c6bf526340000",
        "data": "0x449a52f8000000000000000000000000decd2be8dd321a3b64b9fab3aab94294d48093c70000000000000000000000000000000000000000000000000000000000000004",
        "nonce": "0x17"
      },
      "additionalContracts": [],
      "isFixedGasLimit": false
    },
    {
      "hash": "0x9f40258d63437ce050000b696414637c9e3cf1d717ba0df9499c9935ebcabe0d",
      "transactionType": "CALL",
      "contractName": "FukuFuku",
      "contractAddress": "0xc90995B5897B2BA7ee2580FA6d978f3E5394cCe0",
      "function": "publicMint(uint256)",
      "arguments": [
        "1"
      ],
      "transaction": {
        "type": "0x00",
        "from": "0xcc2c242b3b89d6a5bd37700ae681a4b94ee7d7ce",
        "to": "0xc90995b5897b2ba7ee2580fa6d978f3e5394cce0",
        "gas": "0x13f43",
        "value": "0x71afd498d0000",
        "data": "0x2db115440000000000000000000000000000000000000000000000000000000000000001",
        "nonce": "0x18"
      },
      "additionalContracts": [],
      "isFixedGasLimit": false
    },
    {
      "hash": "0x917c1d6cd9ea698c55043cf2ca4383237c42675699a7ff6333b116fb3784ca9a",
      "transactionType": "CALL",
      "contractName": "FukuFuku",
      "contractAddress": "0xc90995B5897B2BA7ee2580FA6d978f3E5394cCe0",
      "function": "transferFrom(address,address,uint256)",
      "arguments": [
        "0xCC2c242B3B89D6A5BD37700AE681A4b94EE7d7CE",
        "0x2633223E6cEE2Fb4e030d8F815dfc78003c4CCe1",
        "31"
      ],
      "transaction": {
        "type": "0x00",
        "from": "0xcc2c242b3b89d6a5bd37700ae681a4b94ee7d7ce",
        "to": "0xc90995b5897b2ba7ee2580fa6d978f3e5394cce0",
        "gas": "0xe813",
        "value": "0x0",
        "data": "0x23b872dd000000000000000000000000cc2c242b3b89d6a5bd37700ae681a4b94ee7d7ce0000000000000000000000002633223e6cee2fb4e030d8f815dfc78003c4cce1000000000000000000000000000000000000000000000000000000000000001f",
        "nonce": "0x19"
      },
      "additionalContracts": [],
      "isFixedGasLimit": false
    },
    {
      "hash": "0xa42410a2f41646726ccb31583eec14546a46f5d8f03fb36654f7a71ed4ad2b77",
      "transactionType": "CALL",
      "contractName": "ERC6551Registry",
      "contractAddress": "0x45E67155e2F6e8107Cd17905B1A9c3510cE3aCa1",
      "function": "createAccount(address,uint256,address,uint256,uint256,bytes):(address)",
      "arguments": [
        "0xd77A3312A0aE3c18b68B2426AF5A2b916Bbab4Ac",
        "1442",
        "0xc90995B5897B2BA7ee2580FA6d978f3E5394cCe0",
        "31",
        "0",
        "0x"
      ],
      "transaction": {
        "type": "0x00",
        "from": "0xcc2c242b3b89d6a5bd37700ae681a4b94ee7d7ce",
        "to": "0x45e67155e2f6e8107cd17905b1a9c3510ce3aca1",
        "gas": "0x207d7",
        "value": "0x0",
        "data": "0xda7323b3000000000000000000000000d77a3312a0ae3c18b68b2426af5a2b916bbab4ac00000000000000000000000000000000000000000000000000000000000005a2000000000000000000000000c90995b5897b2ba7ee2580fa6d978f3e5394cce0000000000000000000000000000000000000000000000000000000000000001f000000000000000000000000000000000000000000000000000000000000000000000000000000000000000000000000000000000000000000000000000000c00000000000000000000000000000000000000000000000000000000000000000",
        "nonce": "0x1a"
      },
      "additionalContracts": [
        {
          "transactionType": "CREATE2",
          "address": "0x97f4fdd34aC97A3fD74d2b779E2Bc0226E6F7413",
          "initCode": "3d60ad80600a3d3981f3363d3d373d3d3d363d73d77a3312a0ae3c18b68b2426af5a2b916bbab4ac5af43d82803e903d91602b57fd5bf3000000000000000000000000000000000000000000000000000000000000000000000000000000000000000000000000000000000000000000000000000005a2000000000000000000000000c90995b5897b2ba7ee2580fa6d978f3e5394cce0000000000000000000000000000000000000000000000000000000000000001f"
        }
      ],
      "isFixedGasLimit": false
    },
    {
      "hash": "0x946ebdd5f5cad5973e05fbdce3fa3ec74f6598d7a62a99075efa8732b07b1d0a",
      "transactionType": "CALL",
      "contractName": "AfropolitanNFT",
      "contractAddress": "0xA6dBfAeD336F3586D5dc336f6E902803Ea0a9994",
      "function": "mintTo(address,uint256)",
      "arguments": [
        "0x97f4fdd34aC97A3fD74d2b779E2Bc0226E6F7413",
        "4"
      ],
      "transaction": {
        "type": "0x00",
        "from": "0xcc2c242b3b89d6a5bd37700ae681a4b94ee7d7ce",
        "to": "0xa6dbfaed336f3586d5dc336f6e902803ea0a9994",
        "gas": "0x36994",
        "value": "0x1c6bf526340000",
        "data": "0x449a52f800000000000000000000000097f4fdd34ac97a3fd74d2b779e2bc0226e6f74130000000000000000000000000000000000000000000000000000000000000004",
        "nonce": "0x1b"
      },
      "additionalContracts": [],
      "isFixedGasLimit": false
    },
    {
      "hash": "0x5a4b8b67dc8440ffc81a0655aed9bd0f7b474b61578ca77977b6451906f70cf4",
      "transactionType": "CALL",
      "contractName": "FukuFuku",
      "contractAddress": "0xc90995B5897B2BA7ee2580FA6d978f3E5394cCe0",
      "function": "publicMint(uint256)",
      "arguments": [
        "1"
      ],
      "transaction": {
        "type": "0x00",
        "from": "0xcc2c242b3b89d6a5bd37700ae681a4b94ee7d7ce",
        "to": "0xc90995b5897b2ba7ee2580fa6d978f3e5394cce0",
        "gas": "0x13f43",
        "value": "0x71afd498d0000",
        "data": "0x2db115440000000000000000000000000000000000000000000000000000000000000001",
        "nonce": "0x1c"
      },
      "additionalContracts": [],
      "isFixedGasLimit": false
    },
    {
      "hash": "0xd9ab410a7473a231e6966e30fa6c4375f3b064f7aa101f322da8051c1d87e16a",
      "transactionType": "CALL",
      "contractName": "FukuFuku",
      "contractAddress": "0xc90995B5897B2BA7ee2580FA6d978f3E5394cCe0",
      "function": "transferFrom(address,address,uint256)",
      "arguments": [
        "0xCC2c242B3B89D6A5BD37700AE681A4b94EE7d7CE",
        "0x2633223E6cEE2Fb4e030d8F815dfc78003c4CCe1",
        "32"
      ],
      "transaction": {
        "type": "0x00",
        "from": "0xcc2c242b3b89d6a5bd37700ae681a4b94ee7d7ce",
        "to": "0xc90995b5897b2ba7ee2580fa6d978f3e5394cce0",
        "gas": "0xe813",
        "value": "0x0",
        "data": "0x23b872dd000000000000000000000000cc2c242b3b89d6a5bd37700ae681a4b94ee7d7ce0000000000000000000000002633223e6cee2fb4e030d8f815dfc78003c4cce10000000000000000000000000000000000000000000000000000000000000020",
        "nonce": "0x1d"
      },
      "additionalContracts": [],
      "isFixedGasLimit": false
    },
    {
      "hash": "0x11e26fd8d505c088681fd425436e963bb12f1100a949959909874031a3a660f0",
      "transactionType": "CALL",
      "contractName": "ERC6551Registry",
      "contractAddress": "0x45E67155e2F6e8107Cd17905B1A9c3510cE3aCa1",
      "function": "createAccount(address,uint256,address,uint256,uint256,bytes):(address)",
      "arguments": [
        "0xd77A3312A0aE3c18b68B2426AF5A2b916Bbab4Ac",
        "1442",
        "0xc90995B5897B2BA7ee2580FA6d978f3E5394cCe0",
        "32",
        "0",
        "0x"
      ],
      "transaction": {
        "type": "0x00",
        "from": "0xcc2c242b3b89d6a5bd37700ae681a4b94ee7d7ce",
        "to": "0x45e67155e2f6e8107cd17905b1a9c3510ce3aca1",
        "gas": "0x207d7",
        "value": "0x0",
        "data": "0xda7323b3000000000000000000000000d77a3312a0ae3c18b68b2426af5a2b916bbab4ac00000000000000000000000000000000000000000000000000000000000005a2000000000000000000000000c90995b5897b2ba7ee2580fa6d978f3e5394cce00000000000000000000000000000000000000000000000000000000000000020000000000000000000000000000000000000000000000000000000000000000000000000000000000000000000000000000000000000000000000000000000c00000000000000000000000000000000000000000000000000000000000000000",
        "nonce": "0x1e"
      },
      "additionalContracts": [
        {
          "transactionType": "CREATE2",
          "address": "0x4Afc6c3c2C21C6643FD3156A12BCa2824a350750",
          "initCode": "3d60ad80600a3d3981f3363d3d373d3d3d363d73d77a3312a0ae3c18b68b2426af5a2b916bbab4ac5af43d82803e903d91602b57fd5bf3000000000000000000000000000000000000000000000000000000000000000000000000000000000000000000000000000000000000000000000000000005a2000000000000000000000000c90995b5897b2ba7ee2580fa6d978f3e5394cce00000000000000000000000000000000000000000000000000000000000000020"
        }
      ],
      "isFixedGasLimit": false
    },
    {
      "hash": "0xbf7929b037b0b519ac76f745fca852a6ce80e6172795ca51528c1d8de889dc7f",
      "transactionType": "CALL",
      "contractName": "AfropolitanNFT",
      "contractAddress": "0xA6dBfAeD336F3586D5dc336f6E902803Ea0a9994",
      "function": "mintTo(address,uint256)",
      "arguments": [
        "0x4Afc6c3c2C21C6643FD3156A12BCa2824a350750",
        "4"
      ],
      "transaction": {
        "type": "0x00",
        "from": "0xcc2c242b3b89d6a5bd37700ae681a4b94ee7d7ce",
        "to": "0xa6dbfaed336f3586d5dc336f6e902803ea0a9994",
        "gas": "0x36994",
        "value": "0x1c6bf526340000",
        "data": "0x449a52f80000000000000000000000004afc6c3c2c21c6643fd3156a12bca2824a3507500000000000000000000000000000000000000000000000000000000000000004",
        "nonce": "0x1f"
      },
      "additionalContracts": [],
      "isFixedGasLimit": false
    },
    {
      "hash": "0xb6f2e032ef6591670b92c5996d94a4e2c30dd2839af584dcaf397fd38417b5c7",
      "transactionType": "CALL",
      "contractName": "FukuFuku",
      "contractAddress": "0xc90995B5897B2BA7ee2580FA6d978f3E5394cCe0",
      "function": "publicMint(uint256)",
      "arguments": [
        "1"
      ],
      "transaction": {
        "type": "0x00",
        "from": "0xcc2c242b3b89d6a5bd37700ae681a4b94ee7d7ce",
        "to": "0xc90995b5897b2ba7ee2580fa6d978f3e5394cce0",
        "gas": "0x13f43",
        "value": "0x71afd498d0000",
        "data": "0x2db115440000000000000000000000000000000000000000000000000000000000000001",
        "nonce": "0x20"
      },
      "additionalContracts": [],
      "isFixedGasLimit": false
    },
    {
      "hash": "0x3eb5d773a5d6d782bf0fa36c65b5aa2fc462355252aab89c5e1aa6f4f7776761",
      "transactionType": "CALL",
      "contractName": "FukuFuku",
      "contractAddress": "0xc90995B5897B2BA7ee2580FA6d978f3E5394cCe0",
      "function": "transferFrom(address,address,uint256)",
      "arguments": [
        "0xCC2c242B3B89D6A5BD37700AE681A4b94EE7d7CE",
        "0x2633223E6cEE2Fb4e030d8F815dfc78003c4CCe1",
        "33"
      ],
      "transaction": {
        "type": "0x00",
        "from": "0xcc2c242b3b89d6a5bd37700ae681a4b94ee7d7ce",
        "to": "0xc90995b5897b2ba7ee2580fa6d978f3e5394cce0",
        "gas": "0xe813",
        "value": "0x0",
        "data": "0x23b872dd000000000000000000000000cc2c242b3b89d6a5bd37700ae681a4b94ee7d7ce0000000000000000000000002633223e6cee2fb4e030d8f815dfc78003c4cce10000000000000000000000000000000000000000000000000000000000000021",
        "nonce": "0x21"
      },
      "additionalContracts": [],
      "isFixedGasLimit": false
    },
    {
      "hash": "0xeef86e3202897d90fc7cadcf58bb27ed2d96e9c940f521947a43952065b97be4",
      "transactionType": "CALL",
      "contractName": "ERC6551Registry",
      "contractAddress": "0x45E67155e2F6e8107Cd17905B1A9c3510cE3aCa1",
      "function": "createAccount(address,uint256,address,uint256,uint256,bytes):(address)",
      "arguments": [
        "0xd77A3312A0aE3c18b68B2426AF5A2b916Bbab4Ac",
        "1442",
        "0xc90995B5897B2BA7ee2580FA6d978f3E5394cCe0",
        "33",
        "0",
        "0x"
      ],
      "transaction": {
        "type": "0x00",
        "from": "0xcc2c242b3b89d6a5bd37700ae681a4b94ee7d7ce",
        "to": "0x45e67155e2f6e8107cd17905b1a9c3510ce3aca1",
        "gas": "0x207d7",
        "value": "0x0",
        "data": "0xda7323b3000000000000000000000000d77a3312a0ae3c18b68b2426af5a2b916bbab4ac00000000000000000000000000000000000000000000000000000000000005a2000000000000000000000000c90995b5897b2ba7ee2580fa6d978f3e5394cce00000000000000000000000000000000000000000000000000000000000000021000000000000000000000000000000000000000000000000000000000000000000000000000000000000000000000000000000000000000000000000000000c00000000000000000000000000000000000000000000000000000000000000000",
        "nonce": "0x22"
      },
      "additionalContracts": [
        {
          "transactionType": "CREATE2",
          "address": "0x5153B985fdF1c9B658e87426BBAa17d53Dc47124",
          "initCode": "3d60ad80600a3d3981f3363d3d373d3d3d363d73d77a3312a0ae3c18b68b2426af5a2b916bbab4ac5af43d82803e903d91602b57fd5bf3000000000000000000000000000000000000000000000000000000000000000000000000000000000000000000000000000000000000000000000000000005a2000000000000000000000000c90995b5897b2ba7ee2580fa6d978f3e5394cce00000000000000000000000000000000000000000000000000000000000000021"
        }
      ],
      "isFixedGasLimit": false
    },
    {
      "hash": "0xf72f2c088c1b804053899be5b1cb5e53bd4edcdd97d4c5decc04c2b894892822",
      "transactionType": "CALL",
      "contractName": "AfropolitanNFT",
      "contractAddress": "0xA6dBfAeD336F3586D5dc336f6E902803Ea0a9994",
      "function": "mintTo(address,uint256)",
      "arguments": [
        "0x5153B985fdF1c9B658e87426BBAa17d53Dc47124",
        "4"
      ],
      "transaction": {
        "type": "0x00",
        "from": "0xcc2c242b3b89d6a5bd37700ae681a4b94ee7d7ce",
        "to": "0xa6dbfaed336f3586d5dc336f6e902803ea0a9994",
        "gas": "0x36994",
        "value": "0x1c6bf526340000",
        "data": "0x449a52f80000000000000000000000005153b985fdf1c9b658e87426bbaa17d53dc471240000000000000000000000000000000000000000000000000000000000000004",
        "nonce": "0x23"
      },
      "additionalContracts": [],
      "isFixedGasLimit": false
    },
    {
      "hash": "0x6b504bc0ed3d7edc978b14884acb93a47c03d70ee76fdc64fec13239ca91eef0",
      "transactionType": "CALL",
      "contractName": "FukuFuku",
      "contractAddress": "0xc90995B5897B2BA7ee2580FA6d978f3E5394cCe0",
      "function": "publicMint(uint256)",
      "arguments": [
        "1"
      ],
      "transaction": {
        "type": "0x00",
        "from": "0xcc2c242b3b89d6a5bd37700ae681a4b94ee7d7ce",
        "to": "0xc90995b5897b2ba7ee2580fa6d978f3e5394cce0",
        "gas": "0x13f43",
        "value": "0x71afd498d0000",
        "data": "0x2db115440000000000000000000000000000000000000000000000000000000000000001",
        "nonce": "0x24"
      },
      "additionalContracts": [],
      "isFixedGasLimit": false
    },
    {
      "hash": "0xc29abda21c47d310f3446d2828ae77d68a2c128d6c3019be590b58d55695d055",
      "transactionType": "CALL",
      "contractName": "FukuFuku",
      "contractAddress": "0xc90995B5897B2BA7ee2580FA6d978f3E5394cCe0",
      "function": "transferFrom(address,address,uint256)",
      "arguments": [
        "0xCC2c242B3B89D6A5BD37700AE681A4b94EE7d7CE",
        "0xE4Edb4C1696019589249Acf483DA341A89C9d961",
        "34"
      ],
      "transaction": {
        "type": "0x00",
        "from": "0xcc2c242b3b89d6a5bd37700ae681a4b94ee7d7ce",
        "to": "0xc90995b5897b2ba7ee2580fa6d978f3e5394cce0",
        "gas": "0x1576b",
        "value": "0x0",
        "data": "0x23b872dd000000000000000000000000cc2c242b3b89d6a5bd37700ae681a4b94ee7d7ce000000000000000000000000e4edb4c1696019589249acf483da341a89c9d9610000000000000000000000000000000000000000000000000000000000000022",
        "nonce": "0x25"
      },
      "additionalContracts": [],
      "isFixedGasLimit": false
    },
    {
      "hash": "0x3ca2b12e18850930e467e34854ba37e4e939195d4d6d22e36d716f908c5e1784",
      "transactionType": "CALL",
      "contractName": "ERC6551Registry",
      "contractAddress": "0x45E67155e2F6e8107Cd17905B1A9c3510cE3aCa1",
      "function": "createAccount(address,uint256,address,uint256,uint256,bytes):(address)",
      "arguments": [
        "0xd77A3312A0aE3c18b68B2426AF5A2b916Bbab4Ac",
        "1442",
        "0xc90995B5897B2BA7ee2580FA6d978f3E5394cCe0",
        "34",
        "0",
        "0x"
      ],
      "transaction": {
        "type": "0x00",
        "from": "0xcc2c242b3b89d6a5bd37700ae681a4b94ee7d7ce",
        "to": "0x45e67155e2f6e8107cd17905b1a9c3510ce3aca1",
        "gas": "0x207d7",
        "value": "0x0",
        "data": "0xda7323b3000000000000000000000000d77a3312a0ae3c18b68b2426af5a2b916bbab4ac00000000000000000000000000000000000000000000000000000000000005a2000000000000000000000000c90995b5897b2ba7ee2580fa6d978f3e5394cce00000000000000000000000000000000000000000000000000000000000000022000000000000000000000000000000000000000000000000000000000000000000000000000000000000000000000000000000000000000000000000000000c00000000000000000000000000000000000000000000000000000000000000000",
        "nonce": "0x26"
      },
      "additionalContracts": [
        {
          "transactionType": "CREATE2",
          "address": "0x67CDA35a8db70D564602aeB6762B9cea1613c92B",
          "initCode": "3d60ad80600a3d3981f3363d3d373d3d3d363d73d77a3312a0ae3c18b68b2426af5a2b916bbab4ac5af43d82803e903d91602b57fd5bf3000000000000000000000000000000000000000000000000000000000000000000000000000000000000000000000000000000000000000000000000000005a2000000000000000000000000c90995b5897b2ba7ee2580fa6d978f3e5394cce00000000000000000000000000000000000000000000000000000000000000022"
        }
      ],
      "isFixedGasLimit": false
    },
    {
      "hash": "0x572e85ffeb00e0d0bf11dba7d27dbe2e142a362d0a6cba0652807ab0c1430ddd",
      "transactionType": "CALL",
      "contractName": "AfropolitanNFT",
      "contractAddress": "0xA6dBfAeD336F3586D5dc336f6E902803Ea0a9994",
      "function": "mintTo(address,uint256)",
      "arguments": [
        "0x67CDA35a8db70D564602aeB6762B9cea1613c92B",
        "4"
      ],
      "transaction": {
        "type": "0x00",
        "from": "0xcc2c242b3b89d6a5bd37700ae681a4b94ee7d7ce",
        "to": "0xa6dbfaed336f3586d5dc336f6e902803ea0a9994",
        "gas": "0x36994",
        "value": "0x1c6bf526340000",
        "data": "0x449a52f800000000000000000000000067cda35a8db70d564602aeb6762b9cea1613c92b0000000000000000000000000000000000000000000000000000000000000004",
        "nonce": "0x27"
      },
      "additionalContracts": [],
      "isFixedGasLimit": false
    },
    {
      "hash": "0x026b195bd6b1d39af4436129d1410fa84cd7b27648394947fdb6388b76d25b02",
      "transactionType": "CALL",
      "contractName": "FukuFuku",
      "contractAddress": "0xc90995B5897B2BA7ee2580FA6d978f3E5394cCe0",
      "function": "publicMint(uint256)",
      "arguments": [
        "1"
      ],
      "transaction": {
        "type": "0x00",
        "from": "0xcc2c242b3b89d6a5bd37700ae681a4b94ee7d7ce",
        "to": "0xc90995b5897b2ba7ee2580fa6d978f3e5394cce0",
        "gas": "0x13f43",
        "value": "0x71afd498d0000",
        "data": "0x2db115440000000000000000000000000000000000000000000000000000000000000001",
        "nonce": "0x28"
      },
      "additionalContracts": [],
      "isFixedGasLimit": false
    },
    {
      "hash": "0x9b8debab4b84f348355b2169137bb368575e1884c7fadcf1f9394a5559f53bcd",
      "transactionType": "CALL",
      "contractName": "FukuFuku",
      "contractAddress": "0xc90995B5897B2BA7ee2580FA6d978f3E5394cCe0",
      "function": "transferFrom(address,address,uint256)",
      "arguments": [
        "0xCC2c242B3B89D6A5BD37700AE681A4b94EE7d7CE",
        "0xE4Edb4C1696019589249Acf483DA341A89C9d961",
        "35"
      ],
      "transaction": {
        "type": "0x00",
        "from": "0xcc2c242b3b89d6a5bd37700ae681a4b94ee7d7ce",
        "to": "0xc90995b5897b2ba7ee2580fa6d978f3e5394cce0",
        "gas": "0xe813",
        "value": "0x0",
        "data": "0x23b872dd000000000000000000000000cc2c242b3b89d6a5bd37700ae681a4b94ee7d7ce000000000000000000000000e4edb4c1696019589249acf483da341a89c9d9610000000000000000000000000000000000000000000000000000000000000023",
        "nonce": "0x29"
      },
      "additionalContracts": [],
      "isFixedGasLimit": false
    },
    {
      "hash": "0xe940331f47e69e7287d652ebcc7676a5de22e4ef5a115beaf2cc1b177d35e03c",
      "transactionType": "CALL",
      "contractName": "ERC6551Registry",
      "contractAddress": "0x45E67155e2F6e8107Cd17905B1A9c3510cE3aCa1",
      "function": "createAccount(address,uint256,address,uint256,uint256,bytes):(address)",
      "arguments": [
        "0xd77A3312A0aE3c18b68B2426AF5A2b916Bbab4Ac",
        "1442",
        "0xc90995B5897B2BA7ee2580FA6d978f3E5394cCe0",
        "35",
        "0",
        "0x"
      ],
      "transaction": {
        "type": "0x00",
        "from": "0xcc2c242b3b89d6a5bd37700ae681a4b94ee7d7ce",
        "to": "0x45e67155e2f6e8107cd17905b1a9c3510ce3aca1",
        "gas": "0x207d7",
        "value": "0x0",
        "data": "0xda7323b3000000000000000000000000d77a3312a0ae3c18b68b2426af5a2b916bbab4ac00000000000000000000000000000000000000000000000000000000000005a2000000000000000000000000c90995b5897b2ba7ee2580fa6d978f3e5394cce00000000000000000000000000000000000000000000000000000000000000023000000000000000000000000000000000000000000000000000000000000000000000000000000000000000000000000000000000000000000000000000000c00000000000000000000000000000000000000000000000000000000000000000",
        "nonce": "0x2a"
      },
      "additionalContracts": [
        {
          "transactionType": "CREATE2",
          "address": "0x4f3445039798c5c2ADf21A81f0145E370F28A7E2",
          "initCode": "3d60ad80600a3d3981f3363d3d373d3d3d363d73d77a3312a0ae3c18b68b2426af5a2b916bbab4ac5af43d82803e903d91602b57fd5bf3000000000000000000000000000000000000000000000000000000000000000000000000000000000000000000000000000000000000000000000000000005a2000000000000000000000000c90995b5897b2ba7ee2580fa6d978f3e5394cce00000000000000000000000000000000000000000000000000000000000000023"
        }
      ],
      "isFixedGasLimit": false
    },
    {
      "hash": "0xa1b0b425c9329f8f2ab44111102eb6ee217c6fe837826e9bbe5353284e4ea8c1",
      "transactionType": "CALL",
      "contractName": "AfropolitanNFT",
      "contractAddress": "0xA6dBfAeD336F3586D5dc336f6E902803Ea0a9994",
      "function": "mintTo(address,uint256)",
      "arguments": [
        "0x4f3445039798c5c2ADf21A81f0145E370F28A7E2",
        "4"
      ],
      "transaction": {
        "type": "0x00",
        "from": "0xcc2c242b3b89d6a5bd37700ae681a4b94ee7d7ce",
        "to": "0xa6dbfaed336f3586d5dc336f6e902803ea0a9994",
        "gas": "0x36994",
        "value": "0x1c6bf526340000",
        "data": "0x449a52f80000000000000000000000004f3445039798c5c2adf21a81f0145e370f28a7e20000000000000000000000000000000000000000000000000000000000000004",
        "nonce": "0x2b"
      },
      "additionalContracts": [],
      "isFixedGasLimit": false
    },
    {
      "hash": "0x45bda4ab44b1dcf0d270d051fc6250f679a465853f79130c2311a7a0637ce2e3",
      "transactionType": "CALL",
      "contractName": "FukuFuku",
      "contractAddress": "0xc90995B5897B2BA7ee2580FA6d978f3E5394cCe0",
      "function": "publicMint(uint256)",
      "arguments": [
        "1"
      ],
      "transaction": {
        "type": "0x00",
        "from": "0xcc2c242b3b89d6a5bd37700ae681a4b94ee7d7ce",
        "to": "0xc90995b5897b2ba7ee2580fa6d978f3e5394cce0",
        "gas": "0x13f43",
        "value": "0x71afd498d0000",
        "data": "0x2db115440000000000000000000000000000000000000000000000000000000000000001",
        "nonce": "0x2c"
      },
      "additionalContracts": [],
      "isFixedGasLimit": false
    },
    {
      "hash": "0xd1b7002eae325a606c31780d40104508e35bf6513ad2c72b0a6a22a1afca6dac",
      "transactionType": "CALL",
      "contractName": "FukuFuku",
      "contractAddress": "0xc90995B5897B2BA7ee2580FA6d978f3E5394cCe0",
      "function": "transferFrom(address,address,uint256)",
      "arguments": [
        "0xCC2c242B3B89D6A5BD37700AE681A4b94EE7d7CE",
        "0xE4Edb4C1696019589249Acf483DA341A89C9d961",
        "36"
      ],
      "transaction": {
        "type": "0x00",
        "from": "0xcc2c242b3b89d6a5bd37700ae681a4b94ee7d7ce",
        "to": "0xc90995b5897b2ba7ee2580fa6d978f3e5394cce0",
        "gas": "0xe813",
        "value": "0x0",
        "data": "0x23b872dd000000000000000000000000cc2c242b3b89d6a5bd37700ae681a4b94ee7d7ce000000000000000000000000e4edb4c1696019589249acf483da341a89c9d9610000000000000000000000000000000000000000000000000000000000000024",
        "nonce": "0x2d"
      },
      "additionalContracts": [],
      "isFixedGasLimit": false
    },
    {
      "hash": "0x67cd45ea411db3c6c71b87139418bef63af6355a3160fcbef1a296ce4bd1e5d7",
      "transactionType": "CALL",
      "contractName": "ERC6551Registry",
      "contractAddress": "0x45E67155e2F6e8107Cd17905B1A9c3510cE3aCa1",
      "function": "createAccount(address,uint256,address,uint256,uint256,bytes):(address)",
      "arguments": [
        "0xd77A3312A0aE3c18b68B2426AF5A2b916Bbab4Ac",
        "1442",
        "0xc90995B5897B2BA7ee2580FA6d978f3E5394cCe0",
        "36",
        "0",
        "0x"
      ],
      "transaction": {
        "type": "0x00",
        "from": "0xcc2c242b3b89d6a5bd37700ae681a4b94ee7d7ce",
        "to": "0x45e67155e2f6e8107cd17905b1a9c3510ce3aca1",
        "gas": "0x207d7",
        "value": "0x0",
        "data": "0xda7323b3000000000000000000000000d77a3312a0ae3c18b68b2426af5a2b916bbab4ac00000000000000000000000000000000000000000000000000000000000005a2000000000000000000000000c90995b5897b2ba7ee2580fa6d978f3e5394cce00000000000000000000000000000000000000000000000000000000000000024000000000000000000000000000000000000000000000000000000000000000000000000000000000000000000000000000000000000000000000000000000c00000000000000000000000000000000000000000000000000000000000000000",
        "nonce": "0x2e"
      },
      "additionalContracts": [
        {
          "transactionType": "CREATE2",
          "address": "0xC23749B88d1E861A72c2F5C8479D9Ce9d656F0Aa",
          "initCode": "3d60ad80600a3d3981f3363d3d373d3d3d363d73d77a3312a0ae3c18b68b2426af5a2b916bbab4ac5af43d82803e903d91602b57fd5bf3000000000000000000000000000000000000000000000000000000000000000000000000000000000000000000000000000000000000000000000000000005a2000000000000000000000000c90995b5897b2ba7ee2580fa6d978f3e5394cce00000000000000000000000000000000000000000000000000000000000000024"
        }
      ],
      "isFixedGasLimit": false
    },
    {
      "hash": "0x1c77194fd2d68b6642990f520713bdc7426e2525bf97aa249d974fc387411bbc",
      "transactionType": "CALL",
      "contractName": "AfropolitanNFT",
      "contractAddress": "0xA6dBfAeD336F3586D5dc336f6E902803Ea0a9994",
      "function": "mintTo(address,uint256)",
      "arguments": [
        "0xC23749B88d1E861A72c2F5C8479D9Ce9d656F0Aa",
        "4"
      ],
      "transaction": {
        "type": "0x00",
        "from": "0xcc2c242b3b89d6a5bd37700ae681a4b94ee7d7ce",
        "to": "0xa6dbfaed336f3586d5dc336f6e902803ea0a9994",
        "gas": "0x36994",
        "value": "0x1c6bf526340000",
        "data": "0x449a52f8000000000000000000000000c23749b88d1e861a72c2f5c8479d9ce9d656f0aa0000000000000000000000000000000000000000000000000000000000000004",
        "nonce": "0x2f"
      },
      "additionalContracts": [],
      "isFixedGasLimit": false
    },
    {
      "hash": "0xdcc7165f5112548961583674d206ca5fffde4eace13906271888e31590abe7cb",
      "transactionType": "CALL",
      "contractName": "FukuFuku",
      "contractAddress": "0xc90995B5897B2BA7ee2580FA6d978f3E5394cCe0",
      "function": "publicMint(uint256)",
      "arguments": [
        "1"
      ],
      "transaction": {
        "type": "0x00",
        "from": "0xcc2c242b3b89d6a5bd37700ae681a4b94ee7d7ce",
        "to": "0xc90995b5897b2ba7ee2580fa6d978f3e5394cce0",
        "gas": "0x13f43",
        "value": "0x71afd498d0000",
        "data": "0x2db115440000000000000000000000000000000000000000000000000000000000000001",
        "nonce": "0x30"
      },
      "additionalContracts": [],
      "isFixedGasLimit": false
    },
    {
      "hash": "0x71e484d1a5580a7bb24f8b12fc9f838b96da75ca2e0dc0db7899eff187547ccf",
      "transactionType": "CALL",
      "contractName": "FukuFuku",
      "contractAddress": "0xc90995B5897B2BA7ee2580FA6d978f3E5394cCe0",
      "function": "transferFrom(address,address,uint256)",
      "arguments": [
        "0xCC2c242B3B89D6A5BD37700AE681A4b94EE7d7CE",
        "0xE4Edb4C1696019589249Acf483DA341A89C9d961",
        "37"
      ],
      "transaction": {
        "type": "0x00",
        "from": "0xcc2c242b3b89d6a5bd37700ae681a4b94ee7d7ce",
        "to": "0xc90995b5897b2ba7ee2580fa6d978f3e5394cce0",
        "gas": "0xe813",
        "value": "0x0",
        "data": "0x23b872dd000000000000000000000000cc2c242b3b89d6a5bd37700ae681a4b94ee7d7ce000000000000000000000000e4edb4c1696019589249acf483da341a89c9d9610000000000000000000000000000000000000000000000000000000000000025",
        "nonce": "0x31"
      },
      "additionalContracts": [],
      "isFixedGasLimit": false
    },
    {
      "hash": "0x8b8317b418dd9f4f80e5e417f1fd08ec710570fdc3e245f5d273f97a12681341",
      "transactionType": "CALL",
      "contractName": "ERC6551Registry",
      "contractAddress": "0x45E67155e2F6e8107Cd17905B1A9c3510cE3aCa1",
      "function": "createAccount(address,uint256,address,uint256,uint256,bytes):(address)",
      "arguments": [
        "0xd77A3312A0aE3c18b68B2426AF5A2b916Bbab4Ac",
        "1442",
        "0xc90995B5897B2BA7ee2580FA6d978f3E5394cCe0",
        "37",
        "0",
        "0x"
      ],
      "transaction": {
        "type": "0x00",
        "from": "0xcc2c242b3b89d6a5bd37700ae681a4b94ee7d7ce",
        "to": "0x45e67155e2f6e8107cd17905b1a9c3510ce3aca1",
        "gas": "0x207d7",
        "value": "0x0",
        "data": "0xda7323b3000000000000000000000000d77a3312a0ae3c18b68b2426af5a2b916bbab4ac00000000000000000000000000000000000000000000000000000000000005a2000000000000000000000000c90995b5897b2ba7ee2580fa6d978f3e5394cce00000000000000000000000000000000000000000000000000000000000000025000000000000000000000000000000000000000000000000000000000000000000000000000000000000000000000000000000000000000000000000000000c00000000000000000000000000000000000000000000000000000000000000000",
        "nonce": "0x32"
      },
      "additionalContracts": [
        {
          "transactionType": "CREATE2",
          "address": "0x0474Bb0d74677B60E7cf5FC34faE64c324a6d2EB",
          "initCode": "3d60ad80600a3d3981f3363d3d373d3d3d363d73d77a3312a0ae3c18b68b2426af5a2b916bbab4ac5af43d82803e903d91602b57fd5bf3000000000000000000000000000000000000000000000000000000000000000000000000000000000000000000000000000000000000000000000000000005a2000000000000000000000000c90995b5897b2ba7ee2580fa6d978f3e5394cce00000000000000000000000000000000000000000000000000000000000000025"
        }
      ],
      "isFixedGasLimit": false
    },
    {
      "hash": "0xaa3e72391049113ca5a558f4e5c2ce3adf2403fd53bc7fcdb32667c4a7fb7e11",
      "transactionType": "CALL",
      "contractName": "AfropolitanNFT",
      "contractAddress": "0xA6dBfAeD336F3586D5dc336f6E902803Ea0a9994",
      "function": "mintTo(address,uint256)",
      "arguments": [
        "0x0474Bb0d74677B60E7cf5FC34faE64c324a6d2EB",
        "4"
      ],
      "transaction": {
        "type": "0x00",
        "from": "0xcc2c242b3b89d6a5bd37700ae681a4b94ee7d7ce",
        "to": "0xa6dbfaed336f3586d5dc336f6e902803ea0a9994",
        "gas": "0x36994",
        "value": "0x1c6bf526340000",
        "data": "0x449a52f80000000000000000000000000474bb0d74677b60e7cf5fc34fae64c324a6d2eb0000000000000000000000000000000000000000000000000000000000000004",
        "nonce": "0x33"
      },
      "additionalContracts": [],
      "isFixedGasLimit": false
    },
    {
      "hash": "0xae064ca67d83d0e238a664885fa29602d749f7107c0ea64ff7c722fff54e31da",
      "transactionType": "CREATE",
      "contractName": "AuctionFactory",
      "contractAddress": "0xA63872780B73BBD14C59dB6b0849c9550d44613B",
      "function": null,
      "arguments": null,
      "transaction": {
        "type": "0x00",
        "from": "0xcc2c242b3b89d6a5bd37700ae681a4b94ee7d7ce",
        "gas": "0x1bd20f",
        "value": "0x0",
        "data": "0x608060405234801561001057600080fd5b5061186e806100206000396000f3fe608060405234801561001057600080fd5b506004361061004c5760003560e01c8063571a26a0146100515780635922eb9f14610081578063819c9e4c146100b1578063d7c06919146100c6575b600080fd5b61006461005f36600461051e565b6100db565b6040516001600160a01b0390911681526020015b60405180910390f35b6100a461008f36600461054f565b60006020819052908152604090205460ff1681565b6040516100789190610573565b6100c46100bf36600461059b565b610105565b005b6100ce6104af565b60405161007891906105dc565b600181815481106100eb57600080fd5b6000918252602090912001546001600160a01b0316905081565b6000806000836001600160a01b031663fc0c546a6040518163ffffffff1660e01b8152600401606060405180830381865afa158015610148573d6000803e3d6000fd5b505050506040513d601f19601f8201168201806040525081019061016c9190610629565b9250925092504683146101c65760405162461bcd60e51b815260206004820181905260248201527f636861696e20646f6573206e6f74206d6174636820746f6b656e20636861696e60448201526064015b60405180910390fd5b6040516331a9108f60e11b81526004810182905233906001600160a01b03841690636352211e90602401602060405180830381865afa15801561020d573d6000803e3d6000fd5b505050506040513d601f19601f820116820180604052508101906102319190610662565b6001600160a01b0316146102935760405162461bcd60e51b8152602060048201526024808201527f61756374696f6e2063726561746f7220646f6573206e6f74206f776e20746f6b604482015263195b925960e21b60648201526084016101bd565b6040516301ffc9a760e01b81526380ac58cd60e01b600482015282906001600160a01b038216906301ffc9a790602401602060405180830381865afa1580156102e0573d6000803e3d6000fd5b505050506040513d601f19601f82011682018060405250810190610304919061067f565b61035a5760405162461bcd60e51b815260206004820152602160248201527f4e6f7420616e2045524337323120746f6b656e626f756e6420636f6e747261636044820152601d60fa1b60648201526084016101bd565b60008888888860405161036c90610511565b938452602084019290925260408301526001600160a01b03166060820152608001604051809103906000f0801580156103a9573d6000803e3d6000fd5b5060405163f2fde38b60e01b81523360048201529091506001600160a01b0382169063f2fde38b90602401600060405180830381600087803b1580156103ee57600080fd5b505af1158015610402573d6000803e3d6000fd5b5050604080516001600160a01b03851681523360208201527f0bdb7849ed0b0249d0f995067a2ca77769f68ab4c654931e262676effeb395f2935001905060405180910390a16001600160a01b03166000818152602081905260408120805460ff1916905560018054808201825591527fb10e2d527612073b26eecdfd717e6a320cf44b4afac2b0732d9fcbe2b7fa0cf60180546001600160a01b03191690911790555050505050505050565b6060600180548060200260200160405190810160405280929190818152602001828054801561050757602002820191906000526020600020905b81546001600160a01b031681526001909101906020018083116104e9575b5050505050905090565b611197806106a283390190565b60006020828403121561053057600080fd5b5035919050565b6001600160a01b038116811461054c57600080fd5b50565b60006020828403121561056157600080fd5b813561056c81610537565b9392505050565b602081016003831061059557634e487b7160e01b600052602160045260246000fd5b91905290565b600080600080608085870312156105b157600080fd5b84359350602085013592506040850135915060608501356105d181610537565b939692955090935050565b6020808252825182820181905260009190848201906040850190845b8181101561061d5783516001600160a01b0316835292840192918401916001016105f8565b50909695505050505050565b60008060006060848603121561063e57600080fd5b83519250602084015161065081610537565b80925050604084015190509250925092565b60006020828403121561067457600080fd5b815161056c81610537565b60006020828403121561069157600080fd5b8151801515811461056c57600080fdfe60a060405234801561001057600080fd5b5060405161119738038061119783398101604081905261002f91610225565b610038336101d5565b438310156100a45760405162461bcd60e51b815260206004820152602e60248201527f537461727420626c6f636b206d7573742062652067726561746572207468616e60448201526d2063757272656e7420626c6f636b60901b60648201526084015b60405180910390fd5b8282116101065760405162461bcd60e51b815260206004820152602a60248201527f456e6420626c6f636b206d7573742062652067726561746572207468616e20736044820152697461727420626c6f636b60b01b606482015260840161009b565b600084116101625760405162461bcd60e51b8152602060048201526024808201527f42696420696e6372656d656e74206d75737420626520677265617465722074686044820152630616e20360e41b606482015260840161009b565b6001600160a01b0381166101b85760405162461bcd60e51b815260206004820152601e60248201527f546f6b656e626f756e6420616464726573732063616e6e6f7420626520300000604482015260640161009b565b6001600160a01b0316608052600192909255600255600355610274565b600080546001600160a01b038381166001600160a01b0319831681178455604051919092169283917f8be0079c531659141344cd1fd0a4f28419497f9722a3daafe3b4186f6b6457e09190a35050565b6000806000806080858703121561023b57600080fd5b845160208601516040870151606088015192965090945092506001600160a01b038116811461026957600080fd5b939692955090935050565b608051610f01610296600039600081816102690152610a850152610f016000f3fe6080604052600436106101095760003560e01c806391f9015711610095578063ce10cf8011610064578063ce10cf80146102c0578063ecfc7ecc146102ed578063f2fde38b146102f5578063f5b56c5614610315578063f77282ab1461032b57600080fd5b806391f90157146102375780639dac6b4514610257578063b3cc167a1461028b578063b3f05b97146102a157600080fd5b806348cd4cb1116100dc57806348cd4cb1146101965780634979440a146101ac578063715018a6146101d95780638da5cb5b146101f05780638fa8b7901461022257600080fd5b806301ffc9a71461010e578063083c6323146101435780633ccfd60b146101675780633f9942ff1461017c575b600080fd5b34801561011a57600080fd5b5061012e610129366004610dd1565b610340565b60405190151581526020015b60405180910390f35b34801561014f57600080fd5b5061015960035481565b60405190815260200161013a565b34801561017357600080fd5b5061012e610377565b34801561018857600080fd5b5060045461012e9060ff1681565b3480156101a257600080fd5b5061015960025481565b3480156101b857600080fd5b506006546001600160a01b0316600090815260076020526040902054610159565b3480156101e557600080fd5b506101ee6105d8565b005b3480156101fc57600080fd5b506000546001600160a01b03165b6040516001600160a01b03909116815260200161013a565b34801561022e57600080fd5b5061012e6105ec565b34801561024357600080fd5b5060065461020a906001600160a01b031681565b34801561026357600080fd5b5061020a7f000000000000000000000000000000000000000000000000000000000000000081565b34801561029757600080fd5b5061015960015481565b3480156102ad57600080fd5b5060045461012e90610100900460ff1681565b3480156102cc57600080fd5b506101596102db366004610e17565b60076020526000908152604090205481565b61012e6106bf565b34801561030157600080fd5b506101ee610310366004610e17565b610978565b34801561032157600080fd5b5061015960055481565b34801561033757600080fd5b5061012e6109f1565b60006001600160e01b031982166301ffc9a760e01b148061037157506001600160e01b03198216630801407360e31b145b92915050565b60045460009060ff16158061038d575060035443115b6103de5760405162461bcd60e51b815260206004820152601d60248201527f41756374696f6e206e6f7420656e646564206f722063616e63656c656400000060448201526064015b60405180910390fd5b60045460ff166104275760405162461bcd60e51b8152602060048201526014602482015273105d58dd1a5bdb881b9bdd0818d85b98d95b195960621b60448201526064016103d5565b600454600090819060ff161561044e575050336000818152600760205260409020546104e3565b6006546001600160a01b031633036104d0576006546004546001600160a01b039091169250610100900460ff16156104a157506006546001600160a01b03166000908152600760205260409020546104e3565b6005546006546001600160a01b03166000908152600760205260409020546104c99190610e4a565b90506104e3565b5050336000818152600760205260409020545b8060000361052a5760405162461bcd60e51b81526020600482015260146024820152734e6f2066756e647320746f20776974686472617760601b60448201526064016103d5565b6001600160a01b03821660009081526007602052604081208054839290610552908490610e4a565b9091555050604051339082156108fc029083906000818181858888f19350505050158015610584573d6000803e3d6000fd5b50604080513381526001600160a01b03841660208201529081018290527f0ec497a8ae5b1ba29c60470ef651def995fac3deebbdcc56c47a4e5f51a4c2bd906060015b60405180910390a160019250505090565b6105e0610d10565b6105ea6000610d6a565b565b60006105f6610d10565b60035443111561063a5760405162461bcd60e51b815260206004820152600f60248201526e20bab1ba34b7b71034b99037bb32b960891b60448201526064016103d5565b60045460ff16156106835760405162461bcd60e51b8152602060048201526013602482015272105d58dd1a5bdb881a5cc818d85b98d95b1959606a1b60448201526064016103d5565b6004805460ff191660011790556040517f462b6ca7f632601af1295aeb320851f50e8e630a309173f23535845ea4bfb3b990600090a150600190565b60006002544310156107135760405162461bcd60e51b815260206004820152601b60248201527f41756374696f6e20686173206e6f74207374617274656420796574000000000060448201526064016103d5565b6003544311156107575760405162461bcd60e51b815260206004820152600f60248201526e20bab1ba34b7b71034b99037bb32b960891b60448201526064016103d5565b60045460ff16156107a05760405162461bcd60e51b8152602060048201526013602482015272105d58dd1a5bdb881a5cc818d85b98d95b1959606a1b60448201526064016103d5565b6000546001600160a01b031633036108085760405162461bcd60e51b815260206004820152602560248201527f4f776e65722063616e6e6f7420626964206f6e207468656972206f776e20617560448201526431ba34b7b760d91b60648201526084016103d5565b600034116108585760405162461bcd60e51b815260206004820152601960248201527f426964206d75737420626520686967686572207468616e20300000000000000060448201526064016103d5565b33600090815260076020526040812054610873903490610e5d565b905060055481116108c65760405162461bcd60e51b815260206004820152601a60248201527f4d696e696d756d2062696420616d6f756e74206e6f74206d657400000000000060448201526064016103d5565b6006546001600160a01b0316600090815260076020526040808220543383529120829055600154610901906108fb9084610e5d565b82610dba565b6005558082111561091f57600680546001600160a01b031916331790555b60065460055460408051338152602081018690526001600160a01b03909316908301526060820183905260808201527ff152f4ff5e488c55370a2d53925a55055228ebd8ec95bd0251bbb299e48786b09060a0016105c7565b610980610d10565b6001600160a01b0381166109e55760405162461bcd60e51b815260206004820152602660248201527f4f776e61626c653a206e6577206f776e657220697320746865207a65726f206160448201526564647265737360d01b60648201526084016103d5565b6109ee81610d6a565b50565b60006109fb610d10565b60045460ff161580610a0e575060035443115b610a5a5760405162461bcd60e51b815260206004820152601d60248201527f41756374696f6e206e6f7420656e646564206f722063616e63656c656400000060448201526064016103d5565b60065460055460408051637e062a3560e11b815290516001600160a01b0393841693600092839283927f0000000000000000000000000000000000000000000000000000000000000000169163fc0c546a9160048083019260609291908290030181865afa158015610ad0573d6000803e3d6000fd5b505050506040513d601f19601f82011682018060405250810190610af49190610e70565b925092509250468314610b0d5760009550505050505090565b6001600160a01b03851660009081526007602052604081208054869290610b35908490610e4a565b9091555050604051339085156108fc029086906000818181858888f19350505050158015610b67573d6000803e3d6000fd5b50604080513381526001600160a01b03871660208201529081018590527f0ec497a8ae5b1ba29c60470ef651def995fac3deebbdcc56c47a4e5f51a4c2bd9060600160405180910390a16040516301ffc9a760e01b81526380ac58cd60e01b600482015282906001600160a01b038216906301ffc9a790602401602060405180830381865afa158015610bfe573d6000803e3d6000fd5b505050506040513d601f19601f82011682018060405250810190610c229190610ea9565b15610c98576040516323b872dd60e01b81523060048201526001600160a01b038781166024830152604482018490528491908216906323b872dd90606401600060405180830381600087803b158015610c7a57600080fd5b505af1158015610c8e573d6000803e3d6000fd5b5050505050610cf4565b60405162461bcd60e51b815260206004820152602b60248201527f6f6e6c792045524337323120697320737570706f72746564206173207061726560448201526a1b9d0818dbdb9d1c9858dd60aa1b60648201526084016103d5565b50506004805461ff001916610100179055506001935050505090565b6000546001600160a01b031633146105ea5760405162461bcd60e51b815260206004820181905260248201527f4f776e61626c653a2063616c6c6572206973206e6f7420746865206f776e657260448201526064016103d5565b600080546001600160a01b038381166001600160a01b0319831681178455604051919092169283917f8be0079c531659141344cd1fd0a4f28419497f9722a3daafe3b4186f6b6457e09190a35050565b600081831015610dcb575081610371565b50919050565b600060208284031215610de357600080fd5b81356001600160e01b031981168114610dfb57600080fd5b9392505050565b6001600160a01b03811681146109ee57600080fd5b600060208284031215610e2957600080fd5b8135610dfb81610e02565b634e487b7160e01b600052601160045260246000fd5b8181038181111561037157610371610e34565b8082018082111561037157610371610e34565b600080600060608486031215610e8557600080fd5b835192506020840151610e9781610e02565b80925050604084015190509250925092565b600060208284031215610ebb57600080fd5b81518015158114610dfb57600080fdfea2646970667358221220a0aae79d08a9ccf8c9448486ce36342f0cda6c565eb319c09aa11afadf44f96964736f6c63430008130033a2646970667358221220e17faa2399173a05cd0f86f7e6aec18d6ba3a22d76d7abef46f7732a78db1ace64736f6c63430008130033",
        "nonce": "0x34"
      },
      "additionalContracts": [],
      "isFixedGasLimit": false
    }
  ],
  "receipts": [],
  "libraries": [],
  "pending": [
    "0x76817d5396ebb2e0fefd1d104f492cb7a27dabdee5c794179ec9d468297a65b5",
    "0x853fed90531bf8c78d5242453583dc9465a9651ceaafddb0630acca0efb28199",
    "0xc62f82990f8fcab0cd7d9aab45ed65549a6248cb4e7fa13129d5040e58a0b072",
    "0xdb2e5f22461c95035ed1553d0e4d6ad1bf5b7ebd082e0ba189e5355a987368cc",
    "0x13640f4e5fc04b9c1c97106704187c65619ca0f80966f7c8938f3e15a880182f",
    "0xc90089754a5962b3293ab9f3f0e4f12e74be0276ea56e61ec45dd14a5b6b7266",
    "0xb8640f4281f3cbf3762a061f57de69c5b57f504662c65381ccccb8a0a4820a32",
    "0x38ebf20265d3eb2a8e560d4d443c827fea34a001b022610ab43cf018dc839e9d",
    "0x00fc12fee2181083d99348886e230d0fcd748bc90d58d7971276b62780ae0cd0",
    "0x38fb269423803496fcb72a0c3e4d04edc2ed8e95dd65dc5516b5ff615e86cfcf",
    "0x6b3d76bcb1189b93efd1d0c53380e9d9e9131fcbe57daec6d3e2b2824352a82e",
    "0xf4f0b26a711988b687f8be62c2304db7fb175eb66b512d1ffd5e2bc02c5da661",
    "0x05cfa33b5444458bd48a7b4d948ace746bd470fa6a2889206356dd9b75f6f4ea",
    "0xe0e3f56d4c6c7483f1cbe2a8b9987f7be0312f7340b1e0e5544ddc533d91e617",
    "0xedaf902baecf6623f7b14d982fb1fa857baa78a15c151401a4656783620fd7c8",
    "0xf7b75677bc467d65e0c60d8534c11e6e45ebf18c93905349e98f19836e697d35",
    "0xfa0cd90da9e32fd8875c5a30fdd7d684b3547ea67658de6bd8623c14751fe413",
    "0xfe91ca0426a03bd599a842b2b1ef4b5dc54ae47031ab7d81de4e53acb5bf7659",
    "0x68250663089033bbfe9861336f94a1b93731d445c19f1d4611fb9ee7f3c37b36",
    "0x0539d0d410c7b40d1ed563630eff248e2f417aa62742677bd44c39960b0d81e1",
    "0x2841dff4dac5a6d3ff70ba8b5416da3510cd376b6b13caa2d3b3d6cda915a650",
    "0xc009165623f20abc210c47131930775d3cd0c4c4663ecbe847fefcbaad619cc0",
    "0x7cc1f38e41c5dfb4219bfb4ced21680d968587a1aa42a67bcc9ead0f96e78d11",
    "0x0884d87c6b4252d0e052ae60dbc4af37d599657061c394d84b3eda5996016d3c",
    "0x9f40258d63437ce050000b696414637c9e3cf1d717ba0df9499c9935ebcabe0d",
    "0x917c1d6cd9ea698c55043cf2ca4383237c42675699a7ff6333b116fb3784ca9a",
    "0xa42410a2f41646726ccb31583eec14546a46f5d8f03fb36654f7a71ed4ad2b77",
    "0x946ebdd5f5cad5973e05fbdce3fa3ec74f6598d7a62a99075efa8732b07b1d0a",
    "0x5a4b8b67dc8440ffc81a0655aed9bd0f7b474b61578ca77977b6451906f70cf4",
    "0xd9ab410a7473a231e6966e30fa6c4375f3b064f7aa101f322da8051c1d87e16a",
    "0x11e26fd8d505c088681fd425436e963bb12f1100a949959909874031a3a660f0",
    "0xbf7929b037b0b519ac76f745fca852a6ce80e6172795ca51528c1d8de889dc7f",
    "0xb6f2e032ef6591670b92c5996d94a4e2c30dd2839af584dcaf397fd38417b5c7",
    "0x3eb5d773a5d6d782bf0fa36c65b5aa2fc462355252aab89c5e1aa6f4f7776761",
    "0xeef86e3202897d90fc7cadcf58bb27ed2d96e9c940f521947a43952065b97be4",
    "0xf72f2c088c1b804053899be5b1cb5e53bd4edcdd97d4c5decc04c2b894892822",
    "0x6b504bc0ed3d7edc978b14884acb93a47c03d70ee76fdc64fec13239ca91eef0",
    "0xc29abda21c47d310f3446d2828ae77d68a2c128d6c3019be590b58d55695d055",
    "0x3ca2b12e18850930e467e34854ba37e4e939195d4d6d22e36d716f908c5e1784",
    "0x572e85ffeb00e0d0bf11dba7d27dbe2e142a362d0a6cba0652807ab0c1430ddd",
    "0x026b195bd6b1d39af4436129d1410fa84cd7b27648394947fdb6388b76d25b02",
    "0x9b8debab4b84f348355b2169137bb368575e1884c7fadcf1f9394a5559f53bcd",
    "0xe940331f47e69e7287d652ebcc7676a5de22e4ef5a115beaf2cc1b177d35e03c",
    "0xa1b0b425c9329f8f2ab44111102eb6ee217c6fe837826e9bbe5353284e4ea8c1",
    "0x45bda4ab44b1dcf0d270d051fc6250f679a465853f79130c2311a7a0637ce2e3",
    "0xd1b7002eae325a606c31780d40104508e35bf6513ad2c72b0a6a22a1afca6dac",
    "0x67cd45ea411db3c6c71b87139418bef63af6355a3160fcbef1a296ce4bd1e5d7",
    "0x1c77194fd2d68b6642990f520713bdc7426e2525bf97aa249d974fc387411bbc",
    "0xdcc7165f5112548961583674d206ca5fffde4eace13906271888e31590abe7cb",
    "0x71e484d1a5580a7bb24f8b12fc9f838b96da75ca2e0dc0db7899eff187547ccf",
    "0x8b8317b418dd9f4f80e5e417f1fd08ec710570fdc3e245f5d273f97a12681341",
    "0xaa3e72391049113ca5a558f4e5c2ce3adf2403fd53bc7fcdb32667c4a7fb7e11",
    "0xae064ca67d83d0e238a664885fa29602d749f7107c0ea64ff7c722fff54e31da"
  ],
  "returns": {},
  "timestamp": 1687679234,
  "chain": 1442,
  "multi": false,
  "commit": "2130f1a"
}